:100000000C944E020C9486020C9486020C94860288
:100010000C9486020C9486020C9486020C94860240
:100020000C9486020C9486020C94C01F0C949420AD
:100030000C94D41A0C9486020C9486020C948602BA
:100040000C9486020C9486020C9486020C94860210
:100050000C9486020C945B1B0C9486020C94860212
:100060000C9486020C9486020C9486020C948602F0
:100070000C9486020C9486020C9486020C948602E0
:100080000C9486020C9486020C9486020C948602D0
:100090000C9486020C9486020C9486020C948602C0
:1000A0000C9486020C9486020C94860229001E0091
:1000B0001F0020002100220023002400250026002C
:1000C00027002D002E0000002A002B000000140045
:1000D0001A000800150017001C0018000C00120080
:1000E00013002F0030004C002252000004001600C4
:1000F000070009000A000B000D000E000F0033007E
:10010000340028000000E10000001D001B00060074
:1001100019000500110010003600370038000000FB
:1001200052002252E000E3000000E2002C00000038
:100130002C0000002C000000E600500000005100E0
:100140004F00010001000100010001000100010059
:100150000100010001000100010001000000010098
:100160000100000001000100010001000100010088
:100170000100010001000100010001000100235203
:100180000000010001000100010001000100010068
:100190000100010001000100010000000100000059
:1001A0000100010001000100010001000100010047
:1001B00001000100000052002352E000E2000000B4
:1001C000E300010000000100000001000000E20067
:1001D0005000000051004F0035003A003B003C0049
:1001E0003D003E003F00400041004200430044000B
:1001F000450000004C00010000003D04BE00BD00B1
:10020000E400E052D900D200CD00D3004600AA009D
:10021000A9003100010000004200430044004500F5
:10022000E152DA00CF00CE00D000330049002800B0
:1002300000000100000048006500B200A60039007F
:1002400053004700AC00AB00AE0000004B000100C3
:100250000100E30000000100D1000000D100000017
:10026000D1000000E6004A0000004E004D003500BD
:100270003A003B003C003D003E003F004000410092
:10028000420043004400450000004C000100000013
:100290001408BE00BD00E400E052D900D200CD0039
:1002A000D3004600AA00A90031000100000042006E
:1002B000430044004500E152DA00CF00CE00D000F8
:1002C0003300490028000000010000000B08650011
:1002D000B200A600390053004700AC00AB00AE00EE
:1002E00000004B0001000100E20000000100D1000D
:1002F0000000D1000000D1000000E2004A00000030
:100300004E004D00380347004E00410054003600B7
:10031000300020004E0061006A006C006500700033
:1003200073007A00610020004B006C0061007700D0
:100330006900610074007500720061000000100324
:1003400044006F00620072007A0061006E000000DD
:100350000403090409023B00020100A0FA09040099
:1003600000010301010009211101000122440007DD
:1003700005810308000109040100010300000009D0
:10038000211101000122B60007058203200001129D
:10039000010002000000085A44602201000102002E
:1003A0000105010902A10185020901A10005091940
:1003B000012908150025019508750181020501092B
:1003C0003009311581257F95027508810609381598
:1003D00081257F950175088106050C0A3802158173
:1003E000257F950175088106C0C005010980A1011E
:1003F000850319012AB700150126B700950175106C
:100400008100C0050C0901A101850419012AA0027F
:10041000150126A002950175108100C0050109068D
:10042000A1018506050719E029E7150025019508B2
:10043000750181020507190029EF1500250195F0C6
:1004400075018102050819012905950575019102BB
:10045000950175039101C005010906A10105071960
:10046000E029E715002501950875018102950175C0
:100470000881010507190029FF150026FF009506D0
:100480007508810005081901290515002501950544
:1004900075019102950175039101C00011241FBEE1
:1004A000CFEFDAE0DEBFCDBF04B603FE18C0809107
:1004B000CA029091CB02A091CC02B091CD028730BC
:1004C000904BA740B04B59F41092CA021092CB0245
:1004D0001092CC021092CD02E0E0F8E3099511E011
:1004E000A0E0B1E0EAE2F7E402C005900D92A03A84
:1004F000B107D9F722E0A0EAB1E001C01D92AA3C01
:10050000B207E1F70E9463120C9454230C9400008C
:100510008430B8F46530A8F44F3098F450E09FE090
:10052000699F400D511D1124FA019BE4899FE00D44
:10053000F11D1124EE0FFF1FE455FF4F859194919B
:10054000089581E090E008950E948802089581E076
:1005500008950E94A702089581E008950E94A702CD
:1005600008950E94AE02089508950E94B40208956D
:10057000A6E0B0E0EEEBF2E00C94C42249835A838B
:100580009E833091A70189819A8131111AC03E81E1
:10059000332399F0222389F00E94E708182F682F4F
:1005A00089819A810E94C30869817A81812F0E9482
:1005B00000102696E3E00C94E0220E94D508182F44
:1005C000F3CF0E94E70869817A81F1CFFC01262FE1
:1005D0004081518162817381848195810E94B8023A
:1005E0000895CF93DF93EC0161E00E94E602BE0123
:1005F0000E94A902DF91CF910895CF93DF93EC0180
:1006000060E00E94E602BE010E94B502DF91CF9138
:10061000089521E030E0A90102C0440F551F8A95DA
:10062000E2F7CA010E94E5070895CF93C82F81E041
:1006300090E00C2E02C0880F991F0A94E2F70E94E6
:10064000530D8C2F0E940903CF91089581E00895E6
:100650000E9426030895CF93C82F0E9498078C2FDD
:100660000E9428032FEF84E39CE0215080409040BB
:10067000E1F700C00000CF91089581E00E942B03B4
:100680000E947F1B089580E00E942B030E94A31B01
:1006900008950F931F93CF93DF938C0161E00E9425
:1006A000E602EC01B8010E94B102811106C080E0AF
:1006B000DF91CF911F910F910895B801CE010E9453
:1006C0005F138823A1F3B801CE010E944F1888233D
:1006D00071F3B801CE010E948D14882341F3B80153
:1006E000CE010E946314882311F3B801CE010E9449
:1006F00004118823E1F2F8018581882361F0C33079
:10070000FCE7DF07E9F058F4C115ECE7DE07A9F0D4
:10071000C130DC47B9F0C8010E94AC02C9CFCB356B
:100720008CE7D807A9F0CC35ECE7DE0771F0CA35C5
:10073000DC4789F70E942E0DEECF0E943D03B7CF14
:100740000E94360D0E944303B2CF0E94240DE3CFD6
:100750000E94320DE0CF0E94B01A80E00E943E134A
:100760000E94D70308950E948E120E94DB030E940C
:10077000B51A089581E0089581FD02C02A9A08956E
:100780002A980895CF93DF93D82F0E94BA03C82FD9
:10079000882319F08D2F0E94BC038C2FDF91CF91FD
:1007A0000895229A2A9A08950E94C203089580E02B
:1007B0000E94D40308950E9498180E94D4030895BB
:1007C000CF930E949818C82F8091A2018C1779F0BE
:1007D000C093A2010E94401B6093A3017093A401E7
:1007E0008093A5019093A6018C2F0E94D403CF91F2
:1007F0000895ADE0B0E0EFEFF3E00C94C522488738
:1008000059876A877B878C879D8791110E94340C5A
:100810001F8286E0FE013896DE01119601900D924E
:100820008A95E1F78D8181110DC029813A814B8133
:100830005C816D817E818F810E947E0B2D96E2E02E
:100840000C94E122CE0101960E94F1028111EDCFBC
:10085000F5CFFC012481213021F4808191810E9417
:1008600019090895662329F00E94EC150E94BF160D
:1008700008950E944616FACFCF93C82F8823C9F057
:100880008238C9F40E94A51881FD13C089E30E9433
:10089000C7190E94C80C2FEF87EE93E021508040CB
:1008A0009040E1F700C0000089E30E94E1190E9436
:1008B000C80CCF9108958338A1F40E94A51880FD3B
:1008C000F8CF83E50E94C7190E94C80C2FEF81EE74
:1008D00094E0215080409040E1F700C0000083E5A3
:1008E000E4CF8438A1F40E94A51882FDE2CF87E40A
:1008F0000E94C7190E94C80C2FEF81EE94E021508E
:1009000080409040E1F700C0000087E4CECF8CEF3C
:100910008C0F813A70F48C2F0E943B19882329F0A8
:100920008C2F0E94E1190E94C80C8C2F0E94C719BD
:10093000BECF80E28C0F883048F4C77081E001C0E0
:10094000880FCA95EAF70E94170CB1CFEBE5EC0FC0
:10095000E33040F4F0E0E05BFE4F808190E00E94E5
:10096000CF18A7CFE8E5EC0FEB3150F4F0E0EE0F35
:10097000FF1FE65EFE4F808191810E94F41899CF9F
:1009800083E38C0F833108F094CF61E08C2F0E94B9
:1009900032048FCF882309F456C0823879F40E943C
:1009A000A51881FF50C089E30E94C7190E94C80C96
:1009B00089E30E94E1190E94C80C0895833859F414
:1009C0000E94A51880FF3FC083E50E94C7190E94BE
:1009D000C80C83E5EECF843859F40E94A51882FF35
:1009E00032C087E40E94C7190E94C80C87E4E1CF97
:1009F0009CEF980F913AE8F290E2980F983050F4FB
:100A0000877091E001C0990F8A95EAF7892F0E94BB
:100A10001D0CD1CF9BE5980F933028F490E080E037
:100A20000E94CF18089598E5980F9B3128F490E024
:100A300080E00E94F418089593E3980F933118F41E
:100A400060E00E94320408951F93CF93DF93182F24
:100A5000EB010E943C04209739F4812F0E94CA04C4
:100A6000DF91CF911F9108958FE99FE00197F1F7F2
:100A700000C000002197EFCF70E060E0893311F4EF
:100A800060E570E00E9424050895882321F00E940B
:100A9000170C0E94C80C0895882321F00E941D0C99
:100AA0000E94C80C0895B0E0A0E0E9E5F5E00C94E0
:100AB000BE226C01D62FC72FFC011581068102953D
:100AC0000F700E940D0CE82E8823F9F0E12E1123FF
:100AD000E1F08C2F807F803461F080E28D0F8830D0
:100AE00008F18C2F807E803221F4D230D8F00023A0
:100AF000C9F08091A30282FF15C082E00E94F80C29
:100B00000E940D0C91E0E82EE926BC2EB2949FE0E5
:100B1000B922FBE0FB15B8F1EB2DF0E0EA5AFC4DF1
:100B20000C949522E12CF1CF0C2F0F70C07F11F0A7
:100B30000295007F112399F0002359F080E28D0F78
:100B4000883010F0D11107C0802F0E94170C0E942E
:100B5000C80C8D2F5AC0802F0E94270CF8CF8D2FE4
:100B60000E94CA04002379F080E28D0F883010F0D3
:100B7000D11104C0802F0E941D0C03C0802F0E9441
:100B80002D0C0E94C80CEB2DE850FF0B349720F47D
:100B90000E9498180E94D403EE2089F00E94090C4C
:100BA00080FD0DC0F60115820E94030C0E942108F1
:100BB000C6010E945F070E94030C0E943108CDB756
:100BC000DEB7E9E00C94DA222C2F2F70F22EC07FD2
:100BD000C03219F0F29480EFF822DD2341F0D130D9
:100BE000D1F1112309F444C00023F1F0B2CF809178
:100BF000A30282FD15C0112359F0FF2029F08F2D8B
:100C00000E94170C0E94C80C80E00E943C04BBCFDD
:100C100080E00E94CA04FF2009F4B5CF8F2DABCF2E
:100C2000112369F0011104C08F2D0E944505ABCF3F
:100C3000013009F0A8CF8F2D0E944B0CA4CF0111D9
:100C4000A2CF8F2D0E944C058F2D0E94570C8F2D07
:100C50000E943B0C98CF112321F0063008F093CF6F
:100C6000E3CF053008F08FCF8F2D0E944C058BCF3E
:100C70000023D1F3D93349F43FEF87EE93E03150AD
:100C800080409040E1F700C000008D2F0E94CA0410
:100C90007ACF8C2F86958695837069F0813009F024
:100CA00072CF8D2F9C2F9370111102C080E090E0C5
:100CB0000E94F41868CF8D2F9C2F9370111102C0E1
:100CC00080E090E00E94CF185ECF612F8D2F0E94B0
:100CD000320459CF8C2F8370A1F5111154CF4D2FB1
:100CE000429546954770440F440F2D2F2F7030E0EA
:100CF000042E02C0220F331F0A94E2F790E080E036
:100D0000D4FF09C08FE090E002C0880F991F4A9578
:100D1000E2F780959095C695C695C370822B932B6C
:100D2000C23049F058F4C13019F00E94F1072BCFBE
:100D30000E94E80728CF0E94FA0725CF0E94E50706
:100D400022CF8695112311F08C2F8170882309F40E
:100D50001ACF4D2F429546954770440F440F2D2FC3
:100D60002F7030E0042E02C0220F331F0A94E2F7E6
:100D700090E080E0D4FF09C08FE090E002C0880FCF
:100D8000991F4A95E2F780959095C695C695C370D0
:100D9000822B932BC23049F058F4C13019F00E94D5
:100DA0005C08F1CE0E945308EECE0E946508EBCE9F
:100DB0000E940908E8CECF70112329F08C2F0E94E1
:100DC00021088D2F32CF8D2F0E944C058C2F0E9431
:100DD0003108D9CED23F41F160F4D03FB9F0D13FD4
:100DE00081F0112309F443C00111B3CE8C2F8F7110
:100DF0001FC0D33F01F1D43FA1F78091A30282FD30
:100E000024C08C2F8F71112311F312C0112341F0D4
:100E1000053008F0B8CE8C2F8F710E944308B3CEF6
:100E2000063008F0B0CEF7CF8C2F8F711111CFCFD5
:100E30000E942108A8CE112329F08C2F8F710E94C7
:100E40001508A1CE0E9410089ECE112331F063E058
:100E50008C2F8F710E94DA0C96CE81E00E94F80CE4
:100E6000023008F490CE82E00E94F80C8CCE002371
:100E700059F0D93309F009CFEFEFF7EE23E0E15055
:100E8000F0402040E1F7FFCE8C2F8F71A0CF0F9361
:100E90001F93CF93DF93EC01688179818D810E944C
:100EA00024098C010E946E080E94E407B801CE015B
:100EB0000E945305DF91CF911F910F910895CF9319
:100EC000DF93EC018C81882399F0CE010E944903C5
:100ED000811111C00E940D0C882351F08D8188234F
:100EE00039F08091A30282FF03C082E00E94F80CD7
:100EF000DF91CF910895CE010E944707CE010E9455
:100F0000FD02F6CF90E080E00E94CF1890E080E0F4
:100F10000E94F4180E94340C0E94C80C0E94DB1638
:100F20000E94BF1608950E94FB190E94820708952F
:100F30000E94240C0E949307089592959F7096300A
:100F400091F058F4925F9F70923058F4803F19F0FE
:100F500030F4883E30F481E008959A5FF4CF843F06
:100F6000D1F380E00895883EB0F3813FD1F7F3CF0D
:100F7000FC012481222339F0808191810E9419098A
:100F80000E949D07089580E00895A6E0B0E0EBEC94
:100F9000F7E00C94C5222696E2E00C94E122A7E04B
:100FA000B0E0E5EDF7E00C94C5222796E2E00C9462
:100FB000E12208950E94D90708950E94DA079093CC
:100FC000D3018093D201089508950E94DD0708950A
:100FD0002091D2013091D301822B932B0E94DD0707
:100FE00008952091D2013091D301822393230E944E
:100FF000DD0708952091D2013091D30182279327F4
:101000000E94DD0708950E94D90708950E940308F1
:1010100008950E9406089093D1018093D00108950D
:1010200090E080E00E940908089521E030E0A901E5
:1010300002C0440F551F8A95E2F7CA010E940908B1
:10104000089521E030E002C0220F331F8A95E2F7B5
:101050008091D0019091D101822B932B0E9409089D
:10106000089521E030E002C0220F331F8A95E2F795
:10107000209530958091D0019091D10182239323C6
:101080000E940908089521E030E002C0220F331FBA
:101090008A95E2F78091D0019091D1018227932720
:1010A0000E94090808952091D0013091D101822B2E
:1010B000932B0E94090808952091D0013091D1010D
:1010C000822393230E94090808952091D001309132
:1010D000D101822793270E94090808950895262F99
:1010E000277091E001C0990F2A95EAF723E07695E1
:1010F00067952A95E1F7660F771F660F771FFA014C
:10110000E60FF71F50E040E0682F70E08191DF01AB
:1011100011979B01042E02C0369527950A94E2F799
:10112000217021952827292328272C934F5F5F4F73
:101130004430510559F70895A82FA77023E09695DC
:1011400087952A95E1F7880F991F880F991FFB0152
:10115000E80FF91F50E040E080E0219130E00A2ED6
:1011600002C0369527950A94E2F721703327042EA2
:1011700001C0220F0A94EAF7822B4F5F5F4F443081
:10118000510559F70895262F953070F48F3060F48B
:10119000682F70E08FE0989F600D711D112448EA60
:1011A00051E0822F0E946F080895292F953068F42E
:1011B0008F3058F490E068EA71E03FE0239F800DA3
:1011C000911D11240E949C08089580E00895B0E0CC
:1011D000A0E0EDEEF8E00C94BE227C010091D0017D
:1011E0001091D1018091D2019091D301082B192B3C
:1011F000CFE0D0E0CC24C394D12CBC2EC6010C2E61
:1012000002C0880F991F0A94E2F780239123892B4B
:1012100049F4219790F7B12C8B2DCDB7DEB7E9E0DB
:101220000C94DA22B7018C2F0E940C10019789F3DD
:10123000F3CFCF93DF93EC010E94E708BE010E9439
:101240000C10DF91CF9108951F93CF93DF93EB01A3
:101250009091A701992339F0CB010E941909DF91E0
:10126000CF911F910895882369F0CB010E94E70870
:10127000182F682FCE010E94C308BE01812F0E9443
:101280000C10EDCFCB010E94D508182FF6CF1F937D
:10129000CF93DF93C091D40117E08091D5018C13D7
:1012A00004C0DF91CF911F910895D0E01C9FF00101
:1012B0001D9FF00D1124EA52FE4F208131814281A1
:1012C00053816481758186810E94CF072196C77002
:1012D000E4CF20910E0230910F0240911002509104
:1012E00011026091120270911302809114020E9407
:1012F000CF070895CF93DF9380911402807F09F088
:101300004DC080911302882309F448C0E091D401B4
:101310005091D501C0910F02D0910E026091100240
:101320007091110247E05E17C9F18E2F90E0E49FA3
:10133000F0011124EA52FE4F2481222391F1489FAB
:10134000F001499FF00D1124DF01AA52BE4F119602
:101350002C9111972C1325C02C912D1322C015967A
:101360002C91159721111DC012962D913C91261B91
:10137000370B283C3105A8F4809114028F708061EE
:1013800080931402E452FE4F80818F7080618083CD
:101390008EE092E00E945F070E944709DF91CF91A3
:1013A0000895FC013196E770BECF482F2091D401FB
:1013B0009091D50157E0291302C080E0089530E0F4
:1013C000529FF001539FF00D1124EA52FE4F81818C
:1013D000681306C08081481303C085818111EECF58
:1013E0002F5F3F4F2770E7CFA4E1B0E0EAEFF9E0CD
:1013F0000C94BB228C0186E0F801DE011F9601905F
:101400000D928A95E1F7F8018481E5809EE0A92E8E
:1014100092E0B92E9091120291111FC08823D1F051
:10142000EE20A9F0C8010E94B807F82E882379F0B1
:1014300087E0F801D50101900D928A95E1F7C50189
:101440000E9429040E947A090E9469095FC0C801AC
:101450000E945F07FF24F39459C0C080D18082802E
:101460009380F09013022091100230911102A40198
:10147000421B530BFF2009F4F9C0483C510508F00A
:10148000A7C0882309F442C090910F0280911402F2
:10149000282F207F09F05CC09D1116C090910E028C
:1014A000C91212C0E1104EC08F7080618093140287
:1014B0000E9469098EE092E00E945F078091140209
:1014C000F8018683F12C22C0E1103CC06D2D8C2DDB
:1014D0000E94D5096D2D8C2D0E94D509E82E811111
:1014E000F1CFCF86D88A8F8598890E941909292F34
:1014F00022952F70243078F49F702230A8F0992321
:10150000B9F0F8019681907F99F4FE2C8F2D6496A6
:10151000ECE00C94D7222A5F2F70223068F0C801CB
:101520000E945F07EF2CF1CF992311F0882369F314
:10153000805E883050F3F3CF803F38F3815F833093
:1015400070F7E3CF80911402816080931402BACFC8
:101550009D1113C090910E02C9120FC0E1100DC071
:101560008683C8010E945F0787E0F801AEE0B2E021
:1015700001900D928A95E1F767CFC8010E94B807E4
:10158000882309F464CFEE2009F461CF809114021E
:10159000803288F020910E0230910F02398728871F
:1015A0009B868A86909112029C871D868E87CE012B
:1015B00008960E945F0787E0F801AEE0B2E0019074
:1015C0000D928A95E1F70E947A090E94690942CF3B
:1015D00090911402292F207FA1F4682D9A8A898A7C
:1015E000A6017A899E2D0E94C5078EE092E00E9496
:1015F0005F0787E0F50111928A95E9F70E94690972
:1016000061CF882309F482CF80910F028D1110C021
:1016100080910E02C8120CC0E1100AC09683C80166
:101620000E945F0787E0F50111928A95E9F76ECF76
:10163000C8010E94B807882309F409CFEE2009F4F5
:1016400006CF80911402803208F4B5CF20910E02AB
:1016500030910F023A8329839C828B8290911202EF
:101660009D831E828F83CE010196A3CF483C5105F6
:10167000B8F5882309F4EECEFE2CEE2009F4E7CE6F
:1016800080910F028D111EC080910E02C8121AC0E7
:101690008091140280FD0DC0982F907F51F08683B9
:1016A000903F09F45ECF982F907F905F8F70892BC9
:1016B00057CF87E0F801AEE0B2E001900D928A9535
:1016C000E1F724CFC8010E94B807811174CF80913F
:1016D0001402816080931402C8010E945F0716CF34
:1016E000682D9A8A898AA6017A899E2D0E94C5074B
:1016F00087E0F50111928A95E9F7A6CEAEE0B0E059
:10170000E4E8FBE00C94C422288739874A875B878A
:101710006C877D878E87CE0108960E94F409882306
:10172000B1F06C85662341F0288539854A855B8553
:101730007D858E850E94CF0717E08091D40190911E
:10174000D50189133DC02E96E3E00C94E02287E09A
:10175000FE013896DE01119601900D928A95E1F70F
:101760008C85882349F32091D50130E0C901019689
:10177000877099274091D4014817190699F097E08E
:10178000929FD001939FB00D1124AA52BE4FFE012B
:10179000319601900D929A95E1F78093D5010E94C0
:1017A0004709CACF0E9498071092D5011092D40120
:1017B00087E0EEE0F2E0DF011D928A95E9F7BCCF09
:1017C000819FC00111248A529E4F0E94F4098823F0
:1017D00009F4B9CFE091D4011E9FF0011124EA521F
:1017E000FE4F2081318142815381648175818681E0
:1017F0000E94CF078091D40190E0019687709927CD
:101800008093D4019ACF80913D02869586958695E6
:10181000089580913D028770089590913D029770E0
:1018200081E009F480E00895809169020895909123
:101830006902892B809369020895809590916902CD
:1018400098239093690208951092690208959091E7
:101850006802892B809368020895809590916802B0
:10186000982390936802089510926802089508954D
:101870000E94370C089590913E02292F282331F0C1
:101880008095892380933E020E94380C0895089524
:101890000E94470C089590913F02292F2823281772
:1018A00029F0982B90933F020E94480C0895909144
:1018B0003F02292F282331F08095892380933F020E
:1018C0000E94480C089580913F02882329F01092CD
:1018D0003F0280E00E94480C0895CF93C0916902B6
:1018E00080916802C82B80913F02882331F0C82B79
:1018F0000E94191981110E94630C8C2FCF910895B9
:10190000CF93DF93C0910201D09103010E946D0C2F
:101910008883C0910201D091030148E050E065E363
:1019200072E0CE010E94EC22892B59F088E0FE0182
:10193000A5E3B2E001900D928A95E1F7CE010E94F5
:10194000A818DF91CF910895CF93DF93C091000144
:10195000D09101010E946D0C8983C0910001D0914A
:10196000010140E250E065E172E0CE010E94EC220C
:10197000892B59F080E2FE01A5E1B2E001900D92C1
:101980008A95E1F7CE010E94B318DF91CF910895B7
:101990000E948B1A813039F48091A20287FF03C024
:1019A0000E94A40C08950E94800C089508950E943E
:1019B000D60C08959091A30292FF11C098E0899FE0
:1019C00090011124622B60933D020E9421088091B6
:1019D0003D028695869586950E94D70C08950E94B3
:1019E0002108089510923D0280E00E94D70C0895CE
:1019F00090913D028095892380933D02282F277086
:101A000069F4891759F09091A30292FF07C0869557
:101A1000869586950E9431080E94F20C0895909157
:101A2000A30292FB222720F9281769F080FB92F984
:101A30009093A3028091A2029091A3020E945E0D56
:101A400082E00E94F80C08958091A30282FB88270F
:101A500080F991E089270E940F0D089581E00E948E
:101A60000F0D089580E00E940F0D08956FEF7FEF36
:101A700090E080E00E943E23089590E080E00E9484
:101A80000A2321E0853E9E4F09F020E0822F089531
:101A900082E090E00E940223089583E090E00E949B
:101AA000022390E00895682F83E090E00E942023B5
:101AB000089584E090E00E940A230895BC0184E028
:101AC00090E00E943E230895AB01BC018FE090E0BE
:101AD0000E9432230895AB01BC0183E190E00E9493
:101AE0003223089560E070E0CB010E946B0D0895F1
:101AF00060E070E0CB010E94640D0E94720D0895B9
:101B0000A8E0B0E0E6E8FDE00C94C52265EE7EEFCB
:101B100090E080E00E943E2360E082E090E00E943E
:101B2000202381E090E09093D3018093D2010E9422
:101B3000530D60E074E184E090E00E943E2360E099
:101B400086E090E00E94202360E087E090E00E9421
:101B5000202340E050E0BA0188E090E00E94322368
:101B600060E083E290E00E94202360E08CE090E05F
:101B70000E94202360E08DE090E00E9420231982E3
:101B80001A821B821C821D821E821F82188648E0D8
:101B900050E067E170E0CE0101960E94102340E022
:101BA00050E0BA018FE190E00E9432230E94780D4C
:101BB0002896E2E00C94E1220E94800D0895682F9F
:101BC0008EE090E00E9420230895A6E0B0E0EBEEC6
:101BD000FDE00C94C3220E94341B8C0180916A02A8
:101BE00090916B028017910781F019821A820E94EE
:101BF000341B682F49815A81792F80E090E00E9440
:101C0000F90310936B0200936A022696E4E00C94A9
:101C1000DF220E94401B60937A0270937B028093C4
:101C20007C0290937D02609376027093770280939A
:101C30007802909379020895089508950E941C0EE9
:101C4000089508950E94210E089582E091E10E9476
:101C500078120E941D0E0E941E0E089581E00895C4
:101C60000E942E0E08950E942E0E08950895089544
:101C70000E94360E0E94370E08950E943D0D81117C
:101C800002C00E94DC0D0E94480D80937E020E94DB
:101C9000590D9093A3028093A2020E9460140E94A7
:101CA0004D0D0E94E5078091D0019091D1010E94D5
:101CB000060808950E942B1B0E94D3110E943D0E1E
:101CC0000E94D1030E9431140E948E120E94220EA3
:101CD0000895A6E0B0E0EFE6FEE00C94B9220E9481
:101CE000300E81110CC00E94E50D0E9430140E943C
:101CF000FD160E94E0032696EEE00C94D5220E9489
:101D0000E9112CE6822E22E0922E640110E0F60109
:101D1000E190F1906F01812F0E941E111F5F15301D
:101D200009F44BC0E816F90691F380917E0281FD1B
:101D30000E9427110E94330E782E10E066246394CF
:101D4000812F0E941E117C01F401A190B1904F01DE
:101D50008A159B0561F1A826BF2400E0CC24C3941A
:101D6000D12CC5018C219D21892BC1F07720B1F0A8
:101D700009831A830E94341B9C838B836D8221E02C
:101D8000C7018C219D21892B09F420E049815A81CA
:101D90006B817C818D81922F0E94F9030F5FCC0CA7
:101DA000DD1C0F30F1F6F4013297F182E0821F5F03
:101DB000153031F60E94090E98CFE816F90609F0A1
:101DC000B4CF91CF1F93CF93DF930E941110EC01FA
:101DD000C11580E5D807F0F5C11580E4D80708F0F3
:101DE0009CC0C03ED10520F5CD3CD10508F082C095
:101DF000C83AD10578F4C53AD10508F073C0C130AE
:101E0000D10519F1209709F1C430D105F0F4D0E0E3
:101E1000C0E01BC0C33CD105D0F7C85AD0E0CC0FFE
:101E2000DD1FCD5ADE4F0990D881C02DD4640DC07E
:101E3000C11580E2D80708F0D1C0C11581E0D807EC
:101E400008F05AC0C83ED10510F7CE01DF91CF91FE
:101E50001F910895C03682E5D80718F5C03482E591
:101E6000D80708F06BC0C03282E5D80708F05FC021
:101E7000C11582E5D80708F497C02C2F2695269522
:101E800080E2289F900111248C2F8370C1E0D0E064
:101E900002C0CC0FDD1F8A95E2F7C22BD32BDD6881
:101EA000D4CFC03A82E5D80760F4C03882E5D807BD
:101EB00008F459C0CF71D0E0DC2FCC27C46FD06AB2
:101EC000C4CFC03C82E5D80708F462C0C03E82E5BA
:101ED000D80708F09CCFDC2FCC27CC27DF71C06F50
:101EE000D06AB3CFC55AD0E0C757DE4FC881D0E023
:101EF000D064ABCFD065A9CF8D2F0E94B310182F1F
:101F0000CE0199270E941110C12FD0E0DC2FCC27E1
:101F1000CC27DF71C82BD92B98CFCE0199270E94EF
:101F20001110CC27DF70C82BD92BD06A8ECFCF7180
:101F3000D0E0DC2FCC27C16FD06A87CF2C2F26951D
:101F40002695277080E2289F900111248C2F8370A2
:101F5000C1E0D0E002C0CC0FDD1F8A95E2F7C22BB2
:101F6000D32BDC6872CF2C2F26952695277080E224
:101F7000289F900111248C2F8370C1E0D0E002C013
:101F8000CC0FDD1F8A95E2F7C22BD32BDA685DCF29
:101F90008C2F8F710E94B310C82FD0E0DC2FCC277C
:101FA000CC27DF71D06251CF8C2F8F710E94B3107C
:101FB00055E0D695C7955A95E1F7CF70D0E0DC2F64
:101FC000CC27282F30E084FF05C044E0220F331FC8
:101FD0004A95E1F7C22BD32BD06937CF8D2F8F7164
:101FE0000E94B310182FCE0199270E941110C12F03
:101FF000D0E0DC2FCC27CC27DF71C82BD92BD2CF58
:10200000462F753030F46F3020F4672F0E94A40201
:10201000089590E080E008950E9400100E94E20E72
:10202000089582389105B9F1B0F48133910509F42E
:102030007DC048F48932910509F46DC08A3291055A
:1020400009F47BC008958533910509F45FC0893395
:10205000910509F10895833E9105D9F138F4803E48
:10206000910529F1823E910579F10895863E910509
:10207000D9F1873E910509F43EC0843E910541F5B2
:102080002091A30221FF24C08091A20284FD19C0E7
:1020900087EE90E008952091A202237009F05AC0C3
:1020A0002091A30223FF14C089E290E008952091BB
:1020B000A20220FD38C03091A30230FF09C024FFE6
:1020C00043C090E080E008952091A20222FDF7CF66
:1020D00008952091A20222FD3AC03091A30230FD62
:1020E00039C024FFF5CFEDCF2091A20223FFF0CF1E
:1020F00024FDE7CFCDCF2091A20223FD2EC0309149
:10210000A30231FFEECF84EE90E008952091A20269
:1021100025FFDECFC9CF2091A20225FD21C020914D
:10212000A30223FFD5CF89E390E0D2CF2091A20272
:1021300026FFCECF8AE290E008952091A20226FFEA
:10214000C7CF81E390E0089583EE90E0089582EE9A
:1021500090E0089580EE90E0089586EE90E0089576
:1021600085E390E008959091A20292FF10C041E0B3
:10217000282F2471243009F040E031E0282F287105
:10218000283009F030E0431711F02CE0822793FF4C
:1021900010C041E0282F2471243109F040E031E0E3
:1021A000282F2871283109F030E0431711F02CE076
:1021B00082273091A30230FF10C051E0282F2171F7
:1021C000213009F050E041E0282F2871283009F033
:1021D00040E0541711F029E0822731FF10C041E0A0
:1021E000282F2171213109F040E031E0282F28719A
:1021F000283109F030E0431711F029E0822794FDDF
:10220000877E089580E00895CF939C01205E32453B
:10221000C1E02032310538F4FB01C581C11103C092
:102220008F710E9415038C2FCF91089508950E94FD
:102230001611089508950E941A110895E82FF0E0EC
:10224000EE0FFF1FE255FD4F8081918108950895A3
:1022500080EA8A95F1F7089500C008950E94281138
:102260000895F894E82FE295EF70F0E031A1282F5F
:102270002F7081E090E001C0880F2A95EAF7982F2F
:102280009095932391A392A1892B82A3789408958A
:10229000CF93DF93CBE9D1E089918F3F11F00E947A
:1022A000311181E0C03AD807B9F7CCE8D1E0899183
:1022B0008F3F11F00E94311181E0CB39D807B9F777
:1022C000DF91CF910895AF92BF92DF92EF92FF928C
:1022D0000F931F93CF93DF938C01D62EC62FD0E0A0
:1022E000CE0185569E4F7C01FC0120812F3F09F4D1
:1022F0004DC0F894E22FE295EF70F0E031A12F701D
:1023000081E090E001C0880F2A95EAF7932F982B7F
:1023100091A392A18095892382A378940E942C1185
:10232000ECE8F1E04BE951E021E030E0B12CA12CE8
:1023300061916F3FA9F1A62FA295AF70B0E0909682
:102340008C9190E06F7002C0959587956A95E2F741
:1023500080FD26C0C901A82AB92A220F331F4E17B3
:102360005F0731F7F70180818F3F11F00E94311133
:1023700061E0A114B10409F460E08D2D0E942E11DA
:10238000CC0FDD1FC00FD11FB982A882DF91CF9182
:102390001F910F91FF90EF90DF90BF90AF90089545
:1023A00090E080E0D8CF0E9448118AE0EEEAF2E0A7
:1023B000DF01982F1D929A95E9F7E4EAF2E0DF0138
:1023C0001D928A95E9F785E00E9424120E94171158
:1023D0000895AAE0B0E0EFEEF1E10C94C2228E0184
:1023E0000F5F1F4F8AE0F80111928A95E9F7F12CEF
:1023F0006F2DC8010E946311F394F5E0FF12F8CF2E
:102400004AE050E0B80184EA92E00E94EC2221E028
:10241000009709F420E0892B41F08AE0F801A4EA52
:10242000B2E001900D928A95E1F745E06EEA72E024
:1024300084EA92E00E942512182F0E941B11812F1E
:102440002A96E5E00C94DE220895B0E0A0E0EBE2ED
:10245000F2E10C94BF226C017B01042FC22F2223D6
:1024600079F081E0809381020E94341B9093800276
:1024700080937F0280E0CDB7DEB7E8E00C94DB22EA
:10248000D0918102DD23B1F380917F02909180028F
:102490000E944C1B059770F310E0000F111FA8015C
:1024A000B601C7010E94EC22892B31F0A801B601C8
:1024B000C7010E94F922CD2F109281028C2FDBCF11
:1024C0000E94690E08950E94CD1A0E94F71C0E9476
:1024D000250E0E94111D0E945A0E0E941E1D0E9470
:1024E000231D0E9460120E943D1D0E94380EF7CFEE
:1024F0009093A1018093A001089586E090E00E944E
:1025000002230895682F86E090E00E94202308951A
:102510008DE28093B8020E94821208950E947D127B
:102520008093B80282FF0E9488128091B8028033A3
:1025300020F0877088628093B8029091B802892F4A
:10254000817090FF04C0892F8695869586950E949C
:102550008F1308958091B802982F96959695969529
:10256000953040F49F5F990F990F990F8770892BD1
:102570008093B8028091B80281608093B8020E9473
:1025800082128091B8028695869586950E948F1357
:1025900008958091B802982F987F79F088508093A1
:1025A000B802887F91E009F490E08091B80290FB36
:1025B00080F98093B8020E9482128091B8028695B9
:1025C000869586950E948F1308958091B80280FDAC
:1025D00013C081608093B802813019F489E0809340
:1025E000B8028091B8020E9482128091B80286954A
:1025F000869586950E948F1308958091B80280FF7A
:1026000008C08E7F8093B8020E94821280E00E94F0
:102610008F1308958091B80280FF03C00E94FD12BD
:1026200008950E94E51208959091B802892F869529
:10263000869586958F5F8F7197708630E0F4880F4E
:10264000880F880F892B8093B8028091B802887F09
:1026500091E009F490E08091B80290FB80F98093BA
:10266000B8020E9482128091B8028695869586955E
:102670000E948F1308959093B802E7CF863008F038
:1026800085E09091B8029770282F220F220F220F19
:10269000922B9093B802987F21E009F420E090916A
:1026A000B80220FB90F99093B8020E948F1308950E
:1026B0000E943E138091B8020E94821208959C01EC
:1026C000FB018581882349F12230F8E73F07F9F0C3
:1026D00040F42115E8E73E0769F02130384779F0EA
:1026E0000895243098E7390779F058F025303847B5
:1026F00089F0089585E00E94581380E0089580E0F5
:10270000FACF0E94C912F9CF0E94AA12F6CF0E94F6
:102710000A13F3CF0E941413F0CF81E008958F9233
:102720009F92AF92BF92EF92FF920F931F93CF931E
:10273000DF938630B0F5811135C0909180009F7D88
:1027400090938000A0918600B0918700282F30E000
:102750000E949B2225E030E040E050E00E9473227E
:1027600089019A0180918600909187006CE070E069
:102770000E944B2260177107C8F0C80169E070E041
:102780000E944B2270938B0060938A00DF91CF915F
:102790001F910F91FF90EF90BF90AF909F908F90FF
:1027A000089585E0909180009062CACF8091860064
:1027B00090918700E0908600F0908700E09186007D
:1027C000F0918700C6E0D0E0BE010E944B22060FC8
:1027D000171F211D311D4801590185E0880C991CE6
:1027E000AA1CBB1C8A95D1F7C701BE010E944B22CF
:1027F0009F0150E040E0260F371F411D511DC501CC
:10280000B4010E94732249015A01E0918600F091BF
:102810008700CA01B9010E943B229B01AC01DF0184
:102820000E94AA229B01AC01C501B4010E943B2277
:102830002FE096958795779567952A95D1F7009122
:1028400086001091870030E020E006171707280760
:10285000390708F097CF609186007091870092CF7A
:102860000895269A2E9882E28093800089E18093D1
:1028700081008FEF9FEF90938700809386000E94E6
:102880008E1208950E94360D089580E00E941E1158
:10289000817008950E94E9112FEF86E791E02150A1
:1028A00080409040E1F700C000000E94E9110E94C2
:1028B0004514882321F00E9442140E947F1B089532
:1028C0000E944A140895CF93DF93EB0186319C4711
:1028D00011F50E94140C9D81992399F08A7A91E058
:1028E00009F490E090938202811109C089E20E946C
:1028F000C7190E94C80C80E0DF91CF91089585E34D
:10290000F6CF80918202811104C089E20E94E11910
:10291000F0CF85E3FBCF81E0EFCFCF93DF93EC01E6
:10292000FB018581882309F4D2C09E0130572332F0
:10293000310508F0B2C00E94590D9093A302809314
:10294000A202FE01E150F047E232F10520F4EE5917
:10295000FC4D0C9495228091A20281608093A2028A
:1029600093C08091A30288608093A3028DC0809160
:10297000A2028260F3CF8091A2028460EFCF8091A7
:10298000A2028860EBCF8091A3028160EDCF80919D
:10299000A3028260E9CF8091A2028061DFCF8091A3
:1029A000A2028062DBCF8091A2028064D7CF0E9416
:1029B00098078091A2028068D1CF8091A2028C609A
:1029C000CDCF8091A3028360CFCF8091A2028E7F72
:1029D000C5CF8091A302877FC7CF8091A2028D7F50
:1029E000BDCF8091A2028B7FB9CF8091A202877F59
:1029F000B5CF8091A3028E7FB7CF8091A3028D7F48
:102A0000B3CF8091A2028F7EA9CF8091A2028F7D49
:102A1000A5CF8091A2028F7BA1CF0E9498078091C1
:102A2000A2028F779BCF8091A202837F97CF809164
:102A3000A3028C7F99CF8091A20282FB992790F903
:102A400021E0922790FB82F990FB83F987CF809158
:102A5000A302982F909591708E7F892B90FB81F91E
:102A600083CF9091A202892F8F7B96FF806476CFCF
:102A70000E9498079091A202892F97FB87F98058AE
:102A80006DCF81E00E94DF0D8091A2029091A302A0
:102A90000E945E0D0E94980780E0DF91CF9108951B
:102AA00080E0F0CF9091A202892F8F7E94FF806109
:102AB00055CF9091A202892F8E7F90FF81604ECFDB
:102AC0009091A302892F877F93FF88604DCF81E08B
:102AD000E4CF282F35EB2303C001112497FF04C056
:102AE00080589109892F089580589F4FFBCF80917E
:102AF00089026091090170E080FD07C081FF0DC06F
:102B00006091090170E0660F771F6038710538F534
:102B10006115710531F1862F08956091090182FDDB
:102B20000AC0809188028823B9F020910801609141
:102B30000901821728F084E0689FB0011124E5CFD5
:102B4000869FC0011124880F991F880F991F622F3B
:102B500070E00E945F22D9CF64E070E0DCCF8FE7A5
:102B6000089581E008958091890280FF0CC06091F2
:102B7000050170E075956795759567956115710507
:102B800049F1862F089581FF06C06091050170E02C
:102B900075956795F3CF6091050182FD0BC090910B
:102BA00087029923A1F06091040180910501961795
:102BB00038F0682F70E06038710500F38FE70895F2
:102BC000899FC001112470E00E945F22F4CF61E070
:102BD00070E0D7CF81E008958D3C31F40E947715E5
:102BE000819580938D0208958E3C19F40E9477158B
:102BF000F8CF8F3C31F40E947715819580938C0239
:102C00000895803D19F40E947715F8CF893D29F485
:102C10000E94B31580938E0208958A3D21F40E948C
:102C2000B3158195F7CF8B3D31F40E94B315819593
:102C300080938F0208958C3D19F40E94B315F8CF4C
:102C40009FE2980F983070F4815D990B21E030E09D
:102C500001C0220F8A95EAF780918B02822B809324
:102C60008B0208958D3D31F48091890281608093BB
:102C7000890208958E3D21F4809189028260F7CF08
:102C80008F3DB9F7809189028460F1CF40918C0229
:102C90008D3C59F480918D0287FF0DC010928D02FA
:102CA00041110BC01092880208C08E3C81F48091C3
:102CB0008D0218169CF3442381F080918E0290912E
:102CC0008F02892B09F05AC01092870208958F3C19
:102CD00049F447FFF0CF10928C0280918D02811150
:102CE000ECCFE0CF803D19F41416ACF3E4CF909113
:102CF0008E02893D29F41916F4F610928E02DBCF6C
:102D00008A3D19F497FFD7CFF8CF90918F028B3D72
:102D100029F497FFD0CF10928F02CDCF8C3D19F4BC
:102D20001916CCF3C8CF9FE2980F983090F4815DCC
:102D3000990B21E030E0B90102C0660F771F8A9538
:102D4000E2F7CB01809590918B02892380938B02CF
:102D5000B2CF8D3D31F4809189028E7F80938902BC
:102D6000AACF8E3D21F4809189028D7FF7CF8F3DD0
:102D700009F0A1CF809189028B7FF0CF08950E9446
:102D8000341B9C0190918C0280918D02982B21F034
:102D9000309386022093850290918E0280918F025B
:102DA000982B21F030938402209383028AE892E0EA
:102DB0000E94C118089586E0EAE8F2E0DF011D9262
:102DC0008A95E9F710928802109287021092890280
:102DD0000895FC01828181110EC0838181110BC095
:102DE0008481811108C091E08581811101C090E04A
:102DF000892F8170089581E0FCCFA6E0B0E0E3E088
:102E0000F7E10C94C42286E0EAE8F2E0DE011196D4
:102E100001900D928A95E1F710928C0210928D022A
:102E200010928E0210928F028B819C81892B89F0E7
:102E300080918502909186020E944C1BAC0190917A
:102E400088029923C9F180910A018417150608F4B4
:102E500040C08D819E81892B91F080918302909159
:102E600084020E944C1BAC0190918702992309F4C3
:102E70006AC0809106018417150608F472C0BE016D
:102E80006F5F7F4F8AE892E00E94151A811105C09A
:102E90008AE892E00E94E91681110E94BF1686E03E
:102EA000FE013196AAE8B2E001900D928A95E1F711
:102EB0002696E3E00C94E02220910B018AE0289F03
:102EC000900111242417350720F69F5F9093880204
:102ED00002C09F3FD1F71B81112359F00E94771543
:102EE0009FEF11160CF491E0899F802D112480939F
:102EF0008C021C81112359F00E9477159FEF111647
:102F00000CF491E0899F802D112480938D02809193
:102F10008C02882309F49DCF10918D02112309F4AE
:102F200098CF0E946915882351F080938C02812FDD
:102F30000E946915882329F080938D028ACF81E051
:102F4000F4CF81E0F9CF209107018AE0289F90011A
:102F500011242417350708F092CF9F5F90938702C2
:102F600002C09F3FD1F71D81112359F00E94B31574
:102F70009FEF11160CF491E0899F802D112480930E
:102F80008E021E81112359F00E94B3159FEF111676
:102F90000CF491E0899F802D112480938F02809101
:102FA0008E02882309F46BCF10918F02112309F44C
:102FB00066CF0E946915882351F080938E02812F7D
:102FC0000E946915882329F080938F0258CF81E0F1
:102FD000F4CF81E0F9CF0F931F93CF93DF93C42FEA
:102FE000D22FFC0185818823C9F0409392020E9470
:102FF000341B909391028093900280E28C0F883072
:1030000040F4C77081E001C0880FCA95EAF70E94BA
:103010004505DF91CF911F910F9108951091920274
:10302000141332C080919002909191020E944C1B27
:10303000883C910548F5C0E2CD0F1D17B9F080E23C
:10304000810F883040F4177081E001C0880F1A9515
:10305000EAF70E944C05C83048F481E09D2F977034
:1030600001C0880F9A95EAF70E944505802F0E94BB
:103070003C05C83070F6D77081E001C0880FDA9542
:10308000EAF70E944C05C5CF80E28C0F883008F625
:10309000C77081E001C0880FCA95EAF7F2CF0F939D
:1030A000DB0188519C4787309105A0F5FC01EC5766
:1030B000FC4D0C94952206E221EE41EE6AE17CE79C
:1030C000CD010E94EB1780E00F91089507E225EEF5
:1030D00045EE6BE17CE7F4CF06E221EE40EE68E1DD
:1030E0007CE7EECF07E225EE44EE69E17CE7E8CF2E
:1030F00006E221EE42EE6CE17CE7E2CF07E225EE4C
:1031000046EE6DE17CE7DCCF08E221E045EE6EE1C2
:103110007CE7D6CF15968C91882319F010929202F5
:10312000D3CF81E0D1CF90939802809397020895F6
:10313000E0919702F0919802309729F00190F08188
:10314000E02D0995089580E008950E94981808954B
:10315000E0919702F0919802309721F00280F3817C
:10316000E02D09950895E0919702F091980230972B
:1031700039F026E0DC012C930480F581E02D0995DF
:103180000895E0919702F0919802309739F022E08B
:10319000DC012C930680F781E02D09950895A3E0CA
:1031A000B0E0E5EDF8E10C94C52220919502309154
:1031B000960228173907A1F0909396028093950202
:1031C000E0919702F0919802309751F023E0298323
:1031D0009B838A830084F185E02DCE0101960995B9
:1031E0002396E2E00C94E122A3E0B0E0EAEFF8E1FC
:1031F0000C94C5222091930230919402281739072C
:10320000A1F09093940280939302E0919702F09141
:103210009802309751F024E029839B838A830084AD
:10322000F185E02DCE01019609952396E2E00C94FC
:10323000E122CF93DF93C0910201D0910301229646
:103240000E948B1A813081F48091A20287FF0CC00A
:10325000C0910001D091010122969EE180E0915041
:1032600028F4DF91CF91089596E0F8CF2991222399
:10327000B1F38F5FF4CFCF93C82F811102C080E0EC
:1032800024C00E948B1A813011F58091A20287FF21
:103290001EC0EC2FE695E695E695EE3180F780911D
:1032A000000190910101E80FF92FF11D228130E01A
:1032B000C77081E090E002C0880F991FCA95E2F7BD
:1032C0002823392381E0232BD1F2CF9108958091D7
:1032D000020190910301FC013296089621912C176E
:1032E00021F0E817F907D1F7CACF81E0EECF9C01B2
:1032F000FC0132969FEF80E04191461751F09F3FCD
:1033000019F4411101C0982F8F5F8630A9F79F3FB4
:1033100009F40895290F311D97FD3A95F90162834B
:103320000895FC01329608962191261303C0DF010F
:1033300011971C92E817F907B9F70895E62FE6955B
:10334000E695E695EE3168F4E80FF92FF11D677008
:1033500021E030E001C0220F6A95EAF78281822BDA
:1033600082830895E62FE695E695E695EE3170F4B2
:10337000E80FF92FF11D677021E030E001C0220F46
:103380006A95EAF720958281282322830895CF93B6
:10339000C82F0E948B1A6C2F813061F48091A20299
:1033A00087FF08C080910001909101010E949E1941
:1033B000CF91089580910201909103010E947719A5
:1033C000F7CFCF93C82F0E948B1A6C2F813061F4F6
:1033D0008091A20287FF08C08091000190910101B5
:1033E0000E94B219CF91089580910201909103013A
:1033F0000E949119F7CF0E948B1A813079F4809145
:10340000A20287FF0BC0E0910001F091010132960A
:103410008EE1DF011D928A95E9F70895E09102019E
:10342000F0910301329686E0F4CFDC01FB011196A6
:103430009C9111978181981322C012968C911297BA
:10344000882319F0928189131AC013968C911397CF
:10345000882319F09381891312C015968C911597C2
:10346000882319F0958189130AC014969C91992399
:1034700021F081E02481291303C080E001C081E0B4
:103480008170089508950E94421A089581110EC016
:1034900081E080930F0160910C0170910D0180918A
:1034A0000E0190910F010E94431A089582E0F1CF1E
:1034B00083E080930F0160910C0170910D01809168
:1034C0000E0190910F010E94431A08950E94461A1E
:1034D000089581E080930F0160910C0170910D01BE
:1034E00080910E0190910F010E94431A08950E944D
:1034F000691A089591E0811101C090E090930E0146
:1035000060910C0170910D0180910E0190910F015D
:103510000E94431A089580910E01089580930D0131
:1035200060910C0170910D0180910E0190910F013D
:103530000E94431A089580910D01089580930C0113
:1035400060910C0170910D0180910E0190910F011D
:103550000E94431A089580910C01089508950895DA
:103560000E94AF1A0895089508950E94AE1A089512
:10357000CF930E94B31A0E94E9110E94B41AC0E0CE
:103580008C2F0E941E11892B31F4CF5FC530C1F7FB
:1035900080E0CF91089581E0FCCF85B7806885BF3A
:1035A00085B7806885BF08951F921FB61F921124AA
:1035B0008F939F93AF93BF9380919902811113C012
:1035C0008091B9029091BA02A091BB02B091BC0265
:1035D0004196A11DB11D8093B9029093BA02A093A8
:1035E000BB02B093BC02BF91AF919F918F911F908E
:1035F0001FBE1F9018958091C102843031F10E9446
:10360000AB031092990288E190E020E40FB6F894A1
:10361000A895809360000FBE2093600083B7817FE0
:10362000846083BF83B7816083BF7894889583B7B4
:103630008E7F83BF0FB6F894A89580916000886153
:1036400080936000109260000FBE08950E9498075A
:103650000E94B303089582E084BD93E095BD9AEF84
:1036600097BD80936E0008952FB7F8948091B902AA
:103670009091BA02A091BB02B091BC022FBF0895F5
:103680002FB7F8946091B9027091BA028091BB0291
:103690009091BC022FBF08959C014FB7F894809180
:1036A000B9029091BA02A091BB02B091BC024FBF87
:1036B000821B930B089578941F921FB61F921124BA
:1036C0008F939F93AF93BF938091B9029091BA0269
:1036D000A091BB02B091BC020196A11DB11D8093C7
:1036E000B9029093BA02A093BB02B093BC02BF91FF
:1036F000AF919F918F911F901FBE1F90189581E0F1
:103700008093E00080E28093D8001092C9008FE19E
:103710009EE40197F1F700C0000087E090EBDC0128
:103720008093CA029093CB02A093CC02B093CD02B7
:1037300088E19CE00FB6F894A895809360000FBED6
:1037400090936000FFCF88E19CE00FB6F894A895B5
:10375000809360000FBE90936000FFCF9B01BA0181
:103760009091C1029430E9F48F708093E9009FEF4B
:103770008091E800915085FD06C085ED8A95F1F7AE
:1037800000009111F5CF8091E80085FF0AC050E05C
:1037900040E0C9010E94B41D8091E8008E778093BB
:1037A000E800089543E050E0BC0182E00E94AE1BB7
:1037B000089546E050E0BC0182E00E94AE1B0895EF
:1037C00040E250E0BC0182E00E94AE1B0895CF931E
:1037D000DF93EC010E948B1A48E050E0BE0181E0CB
:1037E0000E94AE1B88E0FE01AAE9B2E001900D92B2
:1037F0008A95E1F7DF91CF9108958091C002811100
:1038000009C00E94441F0E94A11F8091E2008460B1
:103810008093E20008951092C00208950E94691AF0
:1038200081E00E947A1A08956091BD0281E06111E1
:1038300001C080E00E94581A08959091C10281E071
:10384000943009F080E06091BD020E94661A0895EC
:1038500042E061EC81E00E94C01E42E261EC82E045
:103860000E94C01E9091C10281E0943009F080E076
:103870006091BD020E94461A08958091C302833070
:1038800009F461C030F48130D1F1823009F49EC076
:1038900008958A3009F48AC08B3009F46FC08930EA
:1038A00009F050C08091C202813209F04BC0809172
:1038B000C6029091C702029708F044C08091E800C8
:1038C000877F8093E8008091E80082FF37C0909165
:1038D000F3008091F200029731F48091F100813081
:1038E00011F0863021F48091F1000E948E1A8091AF
:1038F000E8008B778093E8000E94F41E23C080913B
:10390000C202813AF9F48091E800877F8093E80051
:103910008091C6029091C702892B61F468E08AE920
:1039200092E070E00E94031E8091E8008B77809304
:10393000E800089560E090E080E0F3CF8091C1025C
:103940008111C1CF08958091C202813AD9F7809147
:10395000C6029091C702892BA9F78091E800877F62
:103960008093E8008091E80080FFFCCF0E948B1AD2
:103970008093F1008091E8008E77BCCF8091C202E5
:10398000813201F78091C6029091C702892BD1F64E
:103990008091E800877F8093E8000E94F41E809168
:1039A000C4020E947A1A0E94980708958091C20268
:1039B000813241F68091E800877F8093E8000E9481
:1039C000F41E8091C5020E949E1A08958091C20241
:1039D000813A09F0B7CF8091E800877F8093E800B3
:1039E0008091E80080FFFCCF0E94AB1AC1CF84B762
:1039F000877F84BF0FB6F894A89580916000886196
:103A000080936000109260000FBE80E890E00FB6D7
:103A1000F89480936100909361000FBE0E94771A22
:103A200008950E94441F0E94A11FE2EEF0E08081F1
:103A30008460808378940E942022089580E191E040
:103A40000E94931808958091C102853031F48091CD
:103A5000C102853019F00E94261B08950E94FB1AAE
:103A60000E94B81A882399F38091BF02882379F3C2
:103A70000E949E1D0E949807EACF08959A014091E6
:103A8000C8025091C9020E94461D0895492F55272A
:103A90004330510519F168F44130510509F444C02F
:103AA0004230510509F445C090E080E050E040E02C
:103AB00025C04132510549F142325105A9F784E44C
:103AC00090E047E554E061157105C1F086EB90E0A8
:103AD00041EA53E06130710589F0E6CF99278130E2
:103AE000910581F0009729F00297F1F6E4E0F3E008
:103AF00002C0E0E5F3E0849190E0AF01F901518369
:103B000040830895EEE3F3E0F6CF89E090E046E6E7
:103B100053E06115710591F389E090E04FE753E0C0
:103B20006130710559F3C0CF82E190E04FE853E076
:103B3000E5CF8BE390E044E553E0E0CF80E189BD41
:103B400082E189BD09B400FEFDCF8091D8008F7D50
:103B50008093D8008091E00082608093E0008091A3
:103B6000E00081FDFCCF0895AF92BF92CF92DF922B
:103B7000FF920F931F93CF93DF936C01EB018A01A8
:103B80000E94131FF82E811123C00115110539F071
:103B9000F80180819181C81BD90BC80ED91EB12CA8
:103BA000A12C2097A9F08091E80085FD22C080918A
:103BB000E8008E778093E80001151105A1F0F80167
:103BC00080819181A80EB91EB182A08285E0F82E75
:103BD0008F2DDF91CF911F910F91FF90DF90CF90AC
:103BE000BF90AF9008950E94131F8823D1F2F82E42
:103BF000EFCFF60181916F018093F1002197FFEFE4
:103C0000AF1ABF0ACECFFC018091C8029091C902C1
:103C100086179707A0F06115710529F49091E800C7
:103C20009E779093E80090E06115710551F4911131
:103C300008C08091E80082FF34C080E00895BC0194
:103C4000F2CF8091C1028823C1F18530C1F180910A
:103C5000E80083FD30C08091E80082FDEACF8091CA
:103C6000E80080FFE1CF8091F3002091F200382F2F
:103C70006115710519F02830310558F091E02830B0
:103C8000310509F090E02091E8002E772093E800BC
:103C9000CBCF81918093F100615071092F5F3F4F2D
:103CA000E7CF8091C102882341F0853041F08091B7
:103CB000E80083FFBECF81E0089582E0089583E0AD
:103CC0000895FC018091C8029091C9028617970758
:103CD000A0F06115710529F48091E8008E7780933A
:103CE000E80090E06115710551F4911108C08091D0
:103CF000E80082FF35C080E00895BC01F2CF8091DA
:103D0000C1028823C9F18530C9F18091E80083FDA3
:103D100031C08091E80082FDEACF8091E80080FF09
:103D2000E1CF8091F3002091F200382F61157105E9
:103D300019F02830310558F091E02830310509F0AC
:103D400090E08091E8008E778093E800CBCF84915B
:103D50008093F1003196615071092F5F3F4FE6CF9C
:103D60008091C102882341F0853041F08091E800C4
:103D700083FFBDCF81E0089582E0089583E0089538
:103D8000982F973028F08F708093E90081E0089594
:103D90009093E900242F762F50E0981731F070911E
:103DA000EC002091ED005091F00021FD02C09F5FDA
:103DB000E8CF3091EB003E7F3093EB003091ED0087
:103DC0003D7F3093ED003091EB0031603093EB009C
:103DD0007093EC002093ED005093F0002091EE00E2
:103DE00027FDE5CF80E008958091C20287FF13C0D0
:103DF0008091E80082FF06C08091E8008B77809375
:103E0000E80004C08091C1028111F2CF0895809131
:103E1000C1028823D9F38091E80080FFF8CF809118
:103E2000E8008E77ECCF2091E4003091E50095E634
:103E3000A9012091EC00822F817020FF06C08091A3
:103E4000E80080FF06C080E008952091E80022FD90
:103E50001AC08091C102882389F0853089F0809151
:103E6000EB0085FD0FC02091E4003091E500421782
:103E70005307F9F29150E1F684E0089582E0089545
:103E800083E0089581E008950E94B31F0E94BB1F44
:103E9000E0EEF0E0808181608083E8EDF0E08081F9
:103EA0008F77808319BCA7EDB0E08C918E7F8C93C7
:103EB00080818F7E80831092C00208950F931F939C
:103EC000CF93DF930E94B31F0E94BB1FC8EDD0E0C9
:103ED00088818F77888388818068888388818F7DB7
:103EE000888319BC1092C1021092BD021092BF02C9
:103EF0001092BE0200EE10E0F80180818B7F80837B
:103F000088818160888342E060E080E00E94C01E7A
:103F1000E1EEF0E080818E7F8083E2EEF0E0808150
:103F200081608083808188608083F80180818E7FBA
:103F30008083888180618883DF91CF911F910F9169
:103F40000895E8EDF0E080818F7E8083E7EDF0E07A
:103F500080818160808384E082BF81E08093C002A1
:103F60000E945E1F0895E8EDF0E080818E7F8083DF
:103F70001092E20008951092DA001092E100089584
:103F80001F920F920FB60F9211242F933F934F93CE
:103F90005F936F937F938F939F93AF93BF93EF93B1
:103FA000FF938091E10082FF0BC08091E20082FFCD
:103FB00007C08091E1008B7F8093E1000E941F2267
:103FC0008091DA0080FF19C08091D80080FF15C071
:103FD0008091DA008E7F8093DA008091D90080FF93
:103FE00096C080E189BD82E189BD09B400FEFDCFA4
:103FF00081E08093C1020E94FD1B8091E10080FF5F
:1040000019C08091E20080FF15C08091E2008E7F90
:104010008093E2008091E20080618093E2008091D1
:10402000D80080628093D80019BC85E08093C102DB
:104030000E94141C8091E10084FF2BC08091E2005B
:1040400084FF27C080E189BD82E189BD89B5982FB1
:10405000917080FFFBCF8091D8008F7D8093D80036
:104060008091E1008F7E8093E1008091E2008F7E5D
:104070008093E2008091E20081608093E200809171
:10408000BD02882309F449C084E08093C1020E94E4
:104090001D1C8091E10083FF29C08091E20083FF15
:1040A00025C08091E100877F8093E10082E08093CA
:1040B000C1021092BD028091E1008E7F8093E100E9
:1040C0008091E2008E7F8093E2008091E200806127
:1040D0008093E20042E060E080E00E94C01E809198
:1040E000F00088608093F0000E940E1CFF91EF9119
:1040F000BF91AF919F918F917F916F915F914F9100
:104100003F912F910F900FBE0F901F90189519BCE3
:104110001092C1020E940B1C70CF8091E30087FDBA
:1041200093E09093C102B3CF1F920F920FB60F92FC
:1041300011242F933F934F935F936F937F938F93AC
:104140009F93AF93BF93CF93DF93EF93FF93D09160
:10415000E900DF708091EC00C82FC17080FDC0E8DD
:104160001092E9008091F000877F8093F0007894AE
:104170000E94D8201092E9008091F000886080931E
:10418000F000CD2BCF70C093E900FF91EF91DF914C
:10419000CF91BF91AF919F918F917F916F915F91DF
:1041A0004F913F912F910F900FBE0F901F90189538
:1041B000AAE2B0E0EEEDF0E20C94C42282EC92E0D0
:1041C0002091F100FC012193CF01F2E08A3C9F078E
:1041D000B9F70E943D1C8091E80083FF1EC18091C9
:1041E000C2029091C3029A3008F017C1E92FF0E0A3
:1041F000E557FC4D0C949522803899F0823809F0EF
:104200000CC18091C6028F70873008F006C1809380
:10421000E9008091EB0085FB882780F91092E90086
:1042200006C08091BE029091BF0291118260909170
:10423000E800977F9093E8008093F1001092F100DE
:104240008091E8008E77E5C0882309F4D3C08230DE
:1042500009F0E3C08091C4028111D6C08091C602EA
:104260008F702FEF280F263008F0D7C08093E90019
:104270002091EB0020FFC8C0933031F48091EB0017
:1042800080628093EB00C0C09091EB0090619093AE
:10429000EB0021E030E001C0220F8A95EAF720937D
:1042A000EA001092EA008091EB008860EACF811169
:1042B000B4C01091C4021F778091E3008078812BF5
:1042C0008093E3008091E800877F8093E8000E945C
:1042D000F41E8091E80080FFFCCF8091E3008068AD
:1042E0008093E30082E0111183E08093C10295C0C6
:1042F0008058823008F091C08091C4029091C5022C
:104300008C3D23E09207A1F583E08A838AE28983CA
:104310004FB7F894DE01139620E03EE051E2E32F20
:10432000F0E050935700E49120FF03C0E295EF7056
:104330003F5FEF708E2F90E0EA30C0F0C7968D930C
:104340009D932F5F243159F74FBF8091E800877FFD
:104350008093E8006AE270E0CE0101960E94031E9D
:104360008091E8008B778093E80057C0C096E7CF34
:104370006091C6027091C702AE014F5F5F4F0E940D
:104380003E1DBC01892B09F448C09091E800977F3D
:104390009093E80089819A810E94611EE1CF803864
:1043A000E1F58091E800877F8093E8008091BD026D
:1043B0008093F10045CF811130C09091C4029230BA
:1043C00060F58091E800877F8093E8009093BD02BC
:1043D0000E94F41E8091BD02882311F084E005C084
:1043E0008091E30087FDFACF81E08093C1020E94B3
:1043F000281C13C08091C402813079F481E093308D
:1044000009F080E08093BF021092E9008091E800FB
:10441000877F8093E8000E94F41E8091E80083FF6C
:104420000AC08091E800877F8093E8008091EB00CC
:1044300080628093EB00AA96E3E00C94E02208955A
:10444000CF938091C1028823A1F0C091E900CF7081
:104450009091EC00892F817090FD80E8C82B10921C
:10446000E9008091E80083FD0E94D820CF70C093BE
:10447000E900CF910895DB018F939F930E94AA22B8
:10448000BF91AF91A29F800D911DA39F900DB29FF0
:10449000900D11240895AA1BBB1B51E107C0AA1F50
:1044A000BB1FA617B70710F0A61BB70B881F991FD5
:1044B0005A95A9F780959095BC01CD01089597FB79
:1044C000072E16F4009407D077FD09D00E944B22E6
:1044D00007FC05D03EF4909581959F4F0895709507
:1044E00061957F4F0895A1E21A2EAA1BBB1BFD0107
:1044F0000DC0AA1FBB1FEE1FFF1FA217B307E407C3
:10450000F50720F0A21BB30BE40BF50B661F771F1A
:10451000881F991F1A9469F76095709580959095FA
:104520009B01AC01BD01CF010895EE0FFF1F059067
:10453000F491E02D0994A29FB001B39FC001A39F05
:10454000700D811D1124911DB29F700D811D1124CC
:10455000911D08950E949B22A59F900DB49F900DE0
:10456000A49F800D911D112408952F923F924F9288
:104570005F926F927F928F929F92AF92BF92CF92F3
:10458000DF92EF92FF920F931F93CF93DF93CDB7FC
:10459000DEB7CA1BDB0B0FB6F894DEBF0FBECDBF74
:1045A00009942A88398848885F846E847D848C8445
:1045B0009B84AA84B984C884DF80EE80FD800C814E
:1045C0001B81AA81B981CE0FD11D0FB6F894DEBF31
:1045D0000FBECDBFED010895FB01DC0104C08D913C
:1045E0000190801921F441505040C8F7881B990B65
:1045F0000895FB01DC0102C001900D924150504032
:10460000D8F70895F999FECF92BD81BDF89A992700
:1046100080B50895A8E1B0E042E050E00C94462354
:10462000DC01A40FB51F4150504048F0CB01840F6E
:10463000951F2E910E94212341505040D0F708959C
:10464000262FF999FECF92BD81BDF89A019700B44B
:10465000021639F01FBA20BD0FB6F894FA9AF99AEB
:104660000FBE08950396272F0E9421230E94202326
:10467000252F0E942123242F0C9421230196272FDC
:104680000E9421230C942023DC01CB01FC01F99929
:10469000FECF06C0F2BDE1BDF89A319600B40D928E
:1046A00041505040B8F70895F894FFCF9405940511
:1046B000E405E40549066506C305C3056A06DB068D
:1046C000EA06EA06E5145915ED14B714BB14F11403
:1046D000BF14F5140115CB145215CF140515D314BE
:1046E00009153115D7140D153815DD1413151B15C3
:1046F000C314F914C714FD14E11417152715411537
:104700005015B114E91460156C1872185B1866180E
:1047100078187E188418FC2024210D2224210D22D3
:0A472000572178210D22CF21DB2163
:10472A0040026002280850011E081401000001001E
:10473A009B1AE71BE01BD91BD21BE200E900EA0027
:10474A00B500B600B700CD008301CC008A01920102
:10475A0094012102230224022502260227022A02A8
:10476A00B300B4006F0070009F01CB019F02A0024A
:10477A00818283E200E900EA00B500B600B700CD05
:10478A00008301CC008A01920194012102230224B0
:10479A00022502260227022A02B300B4006F007023
:1047AA00009F01CB019F02A002818283F0F1C667BC
:1047BA0066379431303534979633F49091929395C5
:00000001FF
