:100000000C94B6010C94EE010C94EE010C94EE01EC
:100010000C94EE010C94EE010C94EE010C94EE01A4
:100020000C94EE010C94EE010C942D1F0C94012005
:100030000C94171A0C94EE010C94EE010C94EE0142
:100040000C94EE010C94EE010C94EE010C94EE0174
:100050000C94EE010C949D1A0C94EE010C94EE019C
:100060000C94EE010C94EE010C94EE010C94EE0154
:100070000C94EE010C94EE010C94EE010C94EE0144
:100080000C94EE010C94EE010C94EE010C94EE0134
:100090000C94EE010C94EE010C94EE010C94EE0124
:1000A0000C94EE010C94EE010C94EE0129001E005C
:1000B0001F0020002100220023002400250026002C
:1000C00027002D002E0000002A002B000000140045
:1000D0001A000800150017001C0018000C00120080
:1000E00013002F0030004C000151000004001600E6
:1000F000070009000A000B000D000E000F0033007E
:10010000340028000000E10000001D001B00060074
:1001100019000500110010003600370038000000FB
:1001200052000151E000E3000000E2002C0000005A
:100130002C0000002C000000E600500000005100E0
:100140004F0035003A003B003C003D003E003F00C0
:1001500040004100420043004400450000004C00C4
:10016000010000003D04CB5CCA5CE400FB5C4B007A
:100170004A0052004D004600AA00A90031000100CB
:1001800000004200430044004500FD5C4E0050006A
:1001900051004F003300490028000000E10000003A
:1001A00048006500B200145CC35C53004700AC001B
:1001B000AB00AE0000004B000100E00001000000B9
:1001C000010001000000010000000100000001002A
:1001D0004A0000004E004D00380347004E00410029
:1001E00054003600300020004E0061006A006C00B0
:1001F0006500700073007A00610020004B006C0005
:100200006100770069006100740075007200610090
:100210000000100344006F00620072007A00610069
:100220006E0000000403090409023B00020100A063
:10023000FA09040000010301010009211101000174
:1002400022400007058103080001090401000103A1
:1002500000000009211101000122B60007058203F8
:1002600020000112010002000000085A446022012F
:10027000000102000105010902A10185020901A195
:100280000005091901290815002501950875018146
:10029000020501093009311581257F950275088114
:1002A0000609381581257F950175088106050C0A18
:1002B00038021581257F950175088106C0C00501AA
:1002C0000980A101850319012AB700150126B7008D
:1002D000950175108100C0050C0901A10185041963
:1002E000012AA002150126A002950175108100C007
:1002F00005010906A1018506050719E029E7150092
:1003000025019508750181020507190029EF1500DF
:10031000250195F07501810205081901290595054A
:1003200075019102950175039101C005010906A1AE
:1003300001050719E029E7150025019508750181D8
:10034000029501750881010507190029FF1500268E
:10035000FF00950675088100050819012905950516
:1003600075019102950175039101C00011241FBE12
:10037000CFEFDAE0DEBFCDBF04B603FE18C0809138
:10038000D3029091D402A091D502B091D6028730C9
:10039000904BA740B04B59F41092D3021092D40264
:1003A0001092D5021092D602E0E0F8E3099511E030
:1003B000A0E0B1E0E8E7F7E402C005900D92A639AD
:1003C000B107D9F722E0A6E9B1E001C01D92A33D33
:1003D000B207E1F70E9440120C94A4230C94000091
:1003E00081E0089581E008950C94F20108950C9441
:1003F000F6011F93CF93DF9300D000D00F92CDB7BB
:10040000DEB749835A836B8330919D0189819A813C
:1004100031111DC06623B9F02223A9F00E9466089D
:10042000182F682F89819A810E94120869817A8128
:10043000812F0F900F900F900F900F90DF91CF9121
:100440001F910C944B0F0E943E08182FEFCF0E9473
:10045000660869817A81EDCFFC01262F40815181A8
:100460006281738184810C94F90181E00895CF93B6
:10047000DF93EC0160E00E942C02BE01DF91CF917E
:100480000C94F7010C947C100C947F1008950E943A
:10049000BF060E9446022FEF84E39CE0215080407B
:1004A0009040E1F700C000000C94C11A0F931F9315
:1004B000CF93DF938C0161E00E942C02EC01B80124
:1004C0000E94F4018823D9F1B801CE010E94A81539
:1004D0008823A9F1B801CE010E946718882379F119
:1004E000B801CE010E949416882349F1B801CE01CB
:1004F0000E94D117882319F1F8018281882361F0C5
:10050000CB35FDE5DF0721F170F4C115ECE5DE0721
:10051000A1F0CF3DDC45C9F0C801DF91CF911F911B
:100520000F910C94F001CC358DE5D807A1F0CD35B5
:10053000DD4591F70E949B0CEFCF0E94470280E0BF
:10054000DF91CF911F910F9108950E94550DF7CF24
:100550000E94A40CE1CF0E94A70CDECF0E94FB19E1
:1005600080E00E94DD150C94D8020E94DD140E94E8
:10057000DB020C94FF1908950C94BB0281E00895EE
:10058000CF93C82F0E94BE02882319F0C1FD03C07B
:100590002A9ACF9108952A98FCCF229A2A9A0895F0
:1005A000CF93C82F0E94BC028C2FCF910C94C00215
:1005B00080E00C94D0020E94C3180C94D0020E94D8
:1005C000C31890919C01981721F080939C010C9482
:1005D000D0020895CF93DF93CDB7DEB72B970FB638
:1005E000F894DEBF0FBECDBF4F83588769877A87E7
:1005F0008B8761110E94E90B1E821D8285E0FE013E
:100600003796DE01119601900D928A95E1F78C8163
:100610009D81892B89F449815A816B817C818D81EF
:100620009E810E940A0B2B960FB6F894DEBF0FBE78
:10063000CDBFDF91CF91089589819A8189238F3F22
:1006400051F3CE0101960E9435028111E4CFEBCF28
:10065000FC01808191810C94A808CF93C82F882336
:1006600009F48BC08238C1F40E94C31881FD85C093
:1006700089E30E94A40B0E94090C2FEF81EE94E005
:10068000215080409040E1F700C0000089E30E94C3
:10069000AB0BCF910C94090C8338A1F40E94C318C2
:1006A00080FD6BC083E50E94A40B0E94090C2FEF14
:1006B00081EE94E0215080409040E1F700C00000BE
:1006C00083E5E5CF8438A1F40E94C31882FD55C0AC
:1006D00087E40E94A40B0E94090C2FEF81EE94E0A6
:1006E000215080409040E1F700C0000087E4CFCF68
:1006F0008CEF8C0F813A90F46C2F809108019091CF
:1007000009010E943719882329F08C2F0E94AB0B16
:100710000E94090C8C2F0E94A40BBBCF80E28C0F8F
:10072000883048F4C77081E001C0880FCA95EAF7A5
:100730000E94CC0BAECFEBE5EC0FE33040F4F0E0E1
:10074000E35BFE4F808190E0CF910C94F718E8E5D1
:10075000EC0FE73150F4F0E0EE0FFF1FE15EFE4FCB
:1007600080819181CF910C940D19CD3E30F08C2F6A
:100770000E94C412CF910C949713CF9108958823AF
:1007800009F452C0823871F40E94C31881FF4CC032
:1007900089E30E94A40B0E94090C89E30E94AB0B21
:1007A0000C94090C833859F40E94C31880FF3CC094
:1007B00083E50E94A40B0E94090C83E5EFCF8438E7
:1007C00059F40E94C31882FF2FC087E40E94A40B33
:1007D0000E94090C87E4E2CF9CEF980F913AF0F267
:1007E00090E2980F983050F4877091E001C0990F13
:1007F0008A95EAF7892F0E94D20BD2CF9BE5980FFA
:10080000933020F490E080E00C94F71898E5980F6E
:10081000973120F490E080E00C940D198D3E20F08B
:100820000E941E130C94971308951F93CF93DF9388
:10083000182FEB010E942D03209731F4812FDF91B7
:10084000CF911F910C94BF038FE99FE00197F1F7BF
:1008500000C000002197F0CF70E060E0893311F410
:1008600060E570E00C941504882321F00E94CC0B05
:100870000C94090C0895882321F00E94D20B0C944B
:10088000090C0895BF92CF92DF92EF92FF920F93DF
:100890001F93CF93DF936C01D62FC72FFC011281DA
:1008A000F580F2949FE0F9220E94C20BE82E882383
:1008B000B9F0E12E1123A1F08C2F807F803421F03C
:1008C00080E28D0F8830D0F08091AC0282FD16C09E
:1008D00082E00E946A0C0E94C20B91E0E82EE92699
:1008E000BC2EB2948FE0B822FBE0FB1508F468C080
:1008F000EB2DF0E0EA55FC4D0C940D22E12CF0CFED
:100900000C2F0F70C07F11F00295007F112399F01A
:10091000002359F080E28D0F883010F0D11107C00C
:10092000802F0E94CC0B0E94090C8D2F41C0802F7C
:100930000E94DC0BF8CF8D2F0E94BF03002309F427
:100940003FC080E28D0F883010F0D11104C0802F9D
:100950000E94D20B03C0802F0E94E20B0E94090C60
:100960002FC00C2F0F70C07FC03211F00295007F96
:10097000DD2381F0D13009F469C0112309F473C07B
:10098000FF2009F469C0F601858180FFCECF8F700A
:10099000858362C08091AC0282FF38C0112359F078
:1009A000002329F0802F0E94CC0B0E94090C80E0CC
:1009B0000E942D0305C080E00E94BF030111C7CF34
:1009C000EB2DE850FF0B349720F40E94C3180E94CF
:1009D000D002EE2009F472C10E94BE0B80FD6EC1F0
:1009E000F60112820E94B80B0E947607C6010E948F
:1009F0007F060E94B80BDF91CF911F910F91FF905E
:100A0000EF90DF90CF90BF900C949707112389F05F
:100A1000F11006C00E94EC0B802B0E943404D0CF52
:100A200021E0F212F7CF0E94EC0B802B0E94F20B18
:100A3000C7CFF11006C00E94FF0B802F0E943B041D
:100A4000BFCF31E0F31609F4BBCFF5CF112331F05E
:100A500085E08F1508F4B4CF802FDFCF94E09F1589
:100A600008F4AECFEACFFF2041F3D93349F4FFEFCA
:100A700027EE33E0F15020403040E1F700C00000A5
:100A80008D2F0E94BF039CCF8C2F869586958370F7
:100A900069F0813009F094CF8D2F9C2F9370111144
:100AA00002C090E080E00E940D198ACF8D2F9C2F0C
:100AB0009370111102C090E080E00E94F71880CF7F
:100AC0008D2F112329F00E94C4120E94971378CF12
:100AD0000E941E13FACF8C2F837009F041C01111B0
:100AE0006FCF4D2F429546954770440F440F0D2F01
:100AF0000F7010E030E020E0042E04C0000F111F42
:100B0000221F331F0A94D2F760E070E0CB01D4FFBC
:100B10000FC06FE070E080E090E004C0660F771FC8
:100B2000881F991F4A95D2F760957095809590958A
:100B3000C695C695C370602B712B822B932BC23048
:100B400049F058F4C13019F00E94280739CF0E94AB
:100B5000160736CF0E943A0733CF0E94140730CFD2
:100B60008695112311F08C2F8170882309F428CFEA
:100B70004D2F429546954770440F440F0D2F0F702F
:100B800010E030E020E0042E04C0000F111F221FEF
:100B9000331F0A94D2F760E070E0CB01D4FF0FC09E
:100BA0006FE070E080E090E004C0660F771F881F60
:100BB000991F4A95D2F76095709580959095C69546
:100BC000C695C370602B712B822B932BC23049F0DA
:100BD00058F4C13019F00E94ED07F2CE0E94DB07F5
:100BE000EFCE0E94FF07ECCE0E945007E9CECF70F7
:100BF000112329F08C2F0E9476078D2F0ECF8D2F79
:100C00000E943B048C2F0E949707DACED23F51F10D
:100C100060F4D03FB9F0D13F81F0112309F449C00D
:100C2000F11083CE8C2F8F7121C0D33F11F1D43FAF
:100C3000A1F78091AC0282FF26C08C2F8F71112307
:100C400011F314C0112349F084E08F1508F4B8CED5
:100C50008C2F8F710E94BA07B3CE95E09F1508F4D0
:100C6000AFCEF6CF8C2F8F711111CDCF0E947607AA
:100C7000A7CE112329F08C2F8F710E946107A0CE7F
:100C80000E945C079DCE112349F0CF718C2F0E94EA
:100C9000760763E08C2F0E944F0C92CE81E00E9479
:100CA0006A0CE1E0EF1508F08BCE82E00E946A0C3E
:100CB00087CEF110DACE8C2F8F71A5CFDF91CF9137
:100CC0001F910F91FF90EF90DF90CF90BF9008950C
:100CD0000F931F93CF93DF93EC01688179818A8111
:100CE0000E94B2088C010E9411080E941307B801EB
:100CF000CE01DF91CF911F910F910C944204CF93BD
:100D0000DF93EC018B819C81892B29F0888199816B
:100D100089238F3F59F4DF91CF910895CE010E942E
:100D20006806CE01DF91CF910C943702CE010E946C
:100D300056028111F3CF0E94C20B882361F38A818E
:100D4000882349F38091AC0282FDE5CF82E0DF91F8
:100D5000CF910C946A0C90E080E00E94F71890E02C
:100D600080E00E940D190E94E90B0E94090C0E946C
:100D7000BE140C9497130E94B20B0C94AB060E9405
:100D8000D90B0C94BB0692959F70963091F058F455
:100D9000925F9F70923058F4803F19F030F4883E93
:100DA00030F481E008959A5FF4CF843FD1F380E07E
:100DB0000895883EB0F3813FD1F7F3CFFC018081E5
:100DC00091810E94A8080C94C306CF93DF9300D0B2
:100DD00000D00F92CDB7DEB70F900F900F900F900D
:100DE0000F90DF91CF910895CF93DF9300D000D083
:100DF00000D0CDB7DEB726960FB6F894DEBF0FBE93
:100E0000CDBFDF91CF91089508950C9404070E94FF
:100E100005076093D4017093D5018093D601909318
:100E2000D7010C94AB0608950C9407070F931F93FA
:100E30000091D4011091D5012091D6013091D701B4
:100E4000602B712B822B932B1F910F910C94070712
:100E50000F931F930091D4011091D5012091D601D9
:100E60003091D70160237123822393231F910F9127
:100E70000C9407070F931F930091D4011091D50193
:100E80002091D6013091D7016027712782279327BF
:100E90001F910F910C9407070C9404070C944C07B6
:100EA0000E944E076093D0017093D1018093D201CC
:100EB0009093D3010C94AB0660E070E0CB010C94EE
:100EC00050070F931F9341E050E060E070E08A010B
:100ED0009B0104C0000F111F221F331F8A95D2F7F8
:100EE000C901B8011F910F910C9450070F931F93E4
:100EF00041E050E060E070E004C0440F551F661F01
:100F0000771F8A95D2F78091D0019091D101A0915D
:100F1000D201B091D3018A019B01082B192B2A2BF6
:100F20003B2BC901B8011F910F910C9450070F93EF
:100F30001F9341E050E060E070E004C0440F551F93
:100F4000661F771F8A95D2F7CB01BA01609570951D
:100F5000809590950091D0011091D1012091D201FE
:100F60003091D30160237123822393231F910F912A
:100F70000C9450070F931F9341E050E060E070E045
:100F800004C0440F551F661F771F8A95D2F78091C2
:100F9000D0019091D101A091D201B091D3018A01E9
:100FA0009B01082719272A273B27C901B8011F9150
:100FB0000F910C9450070F931F930091D001109143
:100FC000D1012091D2013091D301602B712B822B62
:100FD000932B1F910F910C9450070F931F93009127
:100FE000D0011091D1012091D2013091D301602321
:100FF0007123822393231F910F910C9450070F9319
:101000001F930091D0011091D1012091D201309114
:10101000D30160277127822793271F910F910C948A
:10102000500708952FE0929F800D1124982F9770FC
:1010300041E001C0440F9A95EAF78695869586951A
:1010400095E0899FF0011124E256FE4F90E080E088
:1010500070E05191DF0111979B01082E02C0369577
:1010600027950A94E2F72170219525272423252727
:101070002C9301968530910561F708952FE0929F9A
:10108000800D1124982F977086958695869525E07A
:10109000829FF0011124E256FE4F50E040E080E0D4
:1010A000219130E0092E02C0369527950A94E2F787
:1010B00021703327042E01C0220F0A94EAF7822BF5
:1010C0004F5F5F4F4530510559F70895BF92CF925A
:1010D000DF92EF92FF920F931F93CF93DF938C01D8
:1010E000C090D001D090D101E090D201F090D30116
:1010F0008091D4019091D501A091D601B091D701F2
:10110000C82AD92AEA2AFB2ACFE1D0E0BC2ED7018F
:10111000C6010C2E04C0B695A795979587950A949D
:10112000D2F780FD0EC0219788F7B12C8B2DDF916F
:10113000CF911F910F91FF90EF90DF90CF90BF90D4
:101140000895B8018C2F0E945F0F019761F3EECFD5
:10115000CF93DF93EC010E946608BE01DF91CF912F
:101160000C945F0F1F93CF93DF93EB0190919D0140
:10117000992331F0CB01DF91CF911F910C94A808F6
:10118000882379F0CB010E946608182F682FCE01C2
:101190000E941208BE01812FDF91CF911F910C9404
:1011A0005F0FCB010E943E08182FF4CF1F93CF93FF
:1011B000DF93C091D80116E08091D9018C1304C04F
:1011C000DF91CF911F910895D0E01C9FF0011D9FEA
:1011D000F00D1124E652FE4F4081518162817381EE
:1011E000848195810E94F4062196C770E5CF4091D5
:1011F0000A0250910B0260910C0270910D028091D5
:101200000E0290910F020C94F406FF920F931F931D
:10121000CF93DF9380910F02807FD1F480910C02F5
:101220008823B1F08091D8011091D90160910A0210
:1012300070910B02A0910D02B0910E02062F0723B0
:10124000C0910601D091070196E0F92E181306C04F
:10125000DF91CF911F910F91FF90089590E010972B
:1012600011F00F3F19F401968770F0CFF89E9001AE
:10127000F99E300D1124F901E652FE4F41814713CA
:10128000F2CF40814613EFCF42814111ECCF438131
:1012900054814A1B5B0B4C175D0728F780910F02A6
:1012A0008F70806180930F02F901E152FE4F8081BF
:1012B0008F70806180838AE092E00E947F06DF91D8
:1012C000CF911F910F91FF900C94D608AF92BF92CF
:1012D000CF92DF92EF92FF920F931F93CF93DF9302
:1012E000CDB7DEB761970FB6F894DEBF0FBECDBFA6
:1012F0008C0185E0F801DE011D9601900D928A9522
:10130000E1F7F801E2808AE0C82E82E0D82E6091F1
:101310000D0270910E026115710509F45FC1909183
:101320000A0220910B02892F82238F3F09F456C1B4
:1013300040815181A380B480F0900C02F501E61B3E
:10134000F70BBF01E0910601F0910701FF2009F4BE
:10135000F6C080910F02382F307F6E177F0708F09C
:10136000AFC0311179C0FE2C251323C0941321C0C6
:10137000E1101FC08F70806180930F020E94F708F8
:10138000C6010E947F0680910F02F80185838F2D90
:1013900061960FB6F894DEBF0FBECDBFDF91CF913F
:1013A0001F910F91FF90EF90DF90CF90BF90AF9083
:1013B0000895AB2829F0842F85238F3F09F027C19A
:1013C00080E0F82FF170DF2E80FF3CC08091D801C3
:1013D0002091D90136E0821315C04D875E878D8537
:1013E0009E850E94A808292F22952F702230F0F0A8
:1013F000243018F59F70F1F0F8019581907FD1F4B9
:10140000D12C1EC090E0389FF001399FF00D1124BF
:10141000E652FE4F6181651306C06081641303C00C
:1014200062816E110FC001968770D5CF9F7011F049
:10143000882331F3805E883018F3C8010E947F064C
:10144000FD2CA5CFEE2009F4A2CF80910F02816080
:1014500080930F02F12C9BCF251306C0941304C078
:10146000F801EE2009F487C0C8010E94DE06882337
:1014700019F1EE2009F180910F02803270F0209175
:101480000A0230910B0238872F831986BB86AA8601
:101490008C87CE0107960E947F0686E0F801AAE0BD
:1014A000B2E001900D928A95E1F70E9405090E9431
:1014B000F708FF24F3946BCFC8010E947F06F9CF91
:1014C000311113C07A2DB98AA88A6E2D89890E949C
:1014D000E5068AE092E00E947F0686E0F60111921E
:1014E0008A95E9F70E94F708B5CF25130FC094132A
:1014F0000DC0E1100BC0F8018583C8010E947F0672
:1015000086E0F60111928A95E9F741CFC8010E9461
:10151000DE06882389F2EE2079F280910F02803274
:1015200008F4BBCF20910A0230910B023A83298341
:101530001B82BD82AC828E83CE010196ACCF6E172A
:101540007F0708F03EC0FE2CEE2009F4B5CF25132E
:101550002AC0941328C080910F0280FD1BC0982FD1
:10156000907FC1F0F8018583903F31F0982F907FF4
:10157000905F8F70892B8583C8010E947F0686E06B
:10158000F801AAE0B2E001900D928A95E1F70E947D
:10159000F708FDCE86E0F801AAE0B2E001900D92D6
:1015A0008A95E1F7F4CEC8010E94DE06811175CF5D
:1015B00080910F02816080930F02C8010E947F0614
:1015C000E6CE7A2DB98AA88A6E2D89890E94E50611
:1015D00086E0F60111928A95E9F7D9CFEE2009F459
:1015E0006BCFC8010E94DE06F82E882309F464CF71
:1015F00086E0F801AAE0B2E001900D928A95E1F749
:101600008AE092E00E9428030E940509C0CF81E091
:101610008E25D7CE1F93CF93DF93CDB7DEB72C9710
:101620000FB6F894DEBF0FBECDBF4F8358876987D2
:101630007A878B879C87CE0107960E94660988234C
:1016400069F08A859B85892B39F04F815885842FD5
:1016500085238F3F09F071C016E05FC086E0FE0170
:101660003796DE01119601900D928A95E1F78A85F1
:101670009B85892B89F388859F8189238F3F61F31F
:101680002091D90130E0C9010196877099274091D6
:10169000D8014817190671F40E94BF061092D901AB
:1016A0001092D80186E0EAE0F2E0DF011D928A950F
:1016B000E9F7D2CF96E0929FD001939FB00D11240D
:1016C000A652BE4FFE01319601900D929A95E1F718
:1016D0008093D9010E94D608BFCF819FC0011124F9
:1016E00086529E4F0E9466098823E9F0E091D80156
:1016F0001E9FF0011124E652FE4F4081518162810C
:101700007381848195810E94F4068091D80190E0D4
:101710000196877099278093D8018091D801909184
:10172000D9018913DACF2C960FB6F894DEBF0FBE1D
:10173000CDBFDF91CF911F91089569857A858B8503
:101740009C850E94F40688CF682F809108019091B3
:1017500009010C94B719682F809108019091090133
:101760000C94C21980910801909109010C94CD1933
:1017700080913002859585958595089580913002F8
:101780008770089590913002977081E009F480E0AD
:10179000089580915302089590915302892B80936C
:1017A0005302089580959091530298239093530289
:1017B000089510925302089590915202892B8093BC
:1017C000520208958095909152029823909352026C
:1017D000089510925202089580913102089508955B
:1017E0000C94EF0B9091AC0292FD08C090913102E5
:1017F000981721F0809331020C94F00B089580919A
:101800003102882329F01092310280E00C94F00B11
:101810000895CF93DF93E0910801F0910901809141
:1018200053028083E0910801F09109018081909139
:101830005202892B808390913102992381F0E091AB
:101840000801F09109018081892B80838091080132
:10185000909109010E94231981110E94FF0BC091F0
:101860000801D091090140E250E060E172E0CE0150
:101870000E945523892B69F080E2FE01A0E1B2E0CD
:1018800001900D928A95E1F7CE01DF91CF910C94F2
:10189000CF18DF91CF91089508950C944C0C90913E
:1018A000AC0292FD10C098E0899F90011124622B38
:1018B000609330020E94760780913002859585956D
:1018C00085950C944D0C0C9476071092300280E0B4
:1018D0000C944D0C909130028095892380933002B6
:1018E000282F277091F4282F082E000C330B921705
:1018F000130659F09091AC0292FD07C0859585952D
:1019000085950E9497070C94650C08959091AC0200
:1019100092FB222720F9281769F080FB92F9909317
:10192000AC028091AB029091AC020E94D10C82E09B
:101930000C946A0C08958091AC0282FB882780F990
:1019400091E089270C94860C81E00C94860C80E051
:101950000C94860C6FEF7FEF90E080E00C948E2368
:1019600090E080E00E946A2321E0893E9E4F09F0CA
:1019700020E0822F089582E090E00C94622383E0BF
:1019800090E00C946223CF9384E090E00E94622365
:10199000C82F82E290E00E946223982F8C2FCF9173
:1019A0000895CF93C92F682F84E090E00E947023A0
:1019B0006C2F82E290E0CF910C947023AB01BC01BC
:1019C0008FE090E00C948223AB01BC0183E190E0B6
:1019D0000C94822360E070E0CB010C94E40C60E096
:1019E00070E0CB010E94DE0C0C94EA0C69EE7EEFF5
:1019F00090E080E00E948E2360E082E090E00E9410
:101A0000702360E083E090E00E9470231092D40184
:101A10001092D5011092D6011092D70160E084E0B7
:101A200090E00E94702360E082E290E00E947023C8
:101A300060E085E090E00E94702360E086E090E046
:101A40000E9470236FEF87E090E00E94702340E0D7
:101A500050E0BA0188E090E00E94822360E08DE0CF
:101A600090E00E94702340E050E0BA0188E190E0ED
:101A70000E94822360E087E190E00E94702340E0B2
:101A800050E0BA018CE190E00E94822370E060E0B7
:101A900080E290E00E948E2340E050E0BA0188E1AD
:101AA00090E00E9482230C94EF0C0C94F60C682FAB
:101AB0008EE090E00C9470230E94821A6093620280
:101AC00070936302809364029093650260935E0258
:101AD00070935F028093600290936102089585B7CE
:101AE000806885BF85B7806885BF0895089508958B
:101AF0000C94770D08950C947A0D0E946F0D8DE370
:101B000090E10E94B9180E94760D0C94780D81E046
:101B100008950C94870D089508950E948B0D0C94E0
:101B20008C0D0E9457100E94CD020C9484160E94C6
:101B30006D1A0E9439110E94910D0E94DD14EBEA8A
:101B4000F2E08081806880838091AB029091AC024A
:101B50000E94D10C0C947B0D4F925F926F927F92FA
:101B60008F929F92AF92BF92CF92DF92EF92FF92AD
:101B70000F931F93CF93DF93CDB7DEB72A970FB69E
:101B8000F894DEBF0FBECDBF0E944E11482E8111CA
:101B90000E945C0D24E5C22E22E0D22E10E000E06F
:101BA000812F0E9481105C01F601E190F1906F019C
:101BB000E816F90609F43EC08091660281FD0E9494
:101BC0008A10512C66246394712CEA24FB2446016C
:101BD000F2E08F1A9108C70186219721892B21F104
:101BE0000E94890D8823B1F05E821F8321E0C50128
:101BF00086219721892B09F420E028870E94761AF4
:101C00008160782F9A8789874E815F8168858A8570
:101C10000E94EA02F40180819181862597259183B3
:101C200080830F5F0830E0F45394660C771CFFE06C
:101C30005F12D1CF1F5F153009F0B2CF011110C074
:101C40008FEF89838A831B820E94761A8160782FA6
:101C50009D838C8349815A816B818D810E94EA0228
:101C600081E0411001C080E02A960FB6F894DEBFF3
:101C70000FBECDBFDF91CF911F910F91FF90EF90DD
:101C8000DF90CF90BF90AF909F908F907F906F909C
:101C90005F904F9008950E94AC0D0E9483160E94A1
:101CA000B2130C94DF02CF93DF930E94630FEC0119
:101CB000811521E5920708F042C0811530E59307B0
:101CC00008F09DC0883E910530F5803E910508F0F2
:101CD00092C0883A910588F4853A910508F084C04D
:101CE0008130910509F487C0009709F484C00497F6
:101CF00008F081C0D0E0C0E07EC08F3B9105D0F7F6
:101D0000C85AD0E0CC0FDD1FC05BDE4F0990D881F0
:101D1000C02DD46470C08115904250F4C11581E08B
:101D2000D80708F068C0CD3ED10520F3D06563C068
:101D3000C11590E4D907F0F2DF70D06A5CC081155C
:101D400025E5920700F5811534E5930708F08BC06F
:101D5000811543E5940708F073C0C11582E5D807E3
:101D600008F469C0CE018370992721E030E002C0F9
:101D7000220F331F8A95E2F7C695C69580E2C89F69
:101D8000E001112454C0C11599E5D907A8F4C11583
:101D900028E5D20708F06CC0C11536E5D30708F076
:101DA000A9CF8C2F0E94FA0FC82FD0E0DC2FCC27B0
:101DB000CC27DF71D0621FC0C1154AE5D40708F4F3
:101DC0005CC0CE0190568115904208F093CF8D2FC4
:101DD0008F710E94FA0F90E0982F882788279F71B3
:101DE0009C012C2BE901E6CFC55AD0E0C258DE4F4A
:101DF000C881D0E0D064CE01DF91CF910895E4E0B6
:101E000096958795EA95E1F783702C2F2695269570
:101E1000237040E2249F90011124382B8C2F837073
:101E2000C1E0D0E002C0CC0FDD1F8A95E2F7C22BE3
:101E3000D32BDC68E0CFDC2FCC27C16FD06ADBCF9F
:101E40008370992721E030E002C0220F331F8A956A
:101E5000E2F7C695C69590E2C99FE0011124C22B16
:101E6000D32BDA68C8CFD82FCC27C46FD06AC3CFA2
:101E7000DC2FCC27C06FD06ABECF8C2F8F700E9412
:101E8000FA0F34E0D695C7953A95E1F7CF709C2FBD
:101E9000EC01D069B0CF972F70E02FE0929F600DDA
:101EA000711D1124FB019BE4899FE00DF11D11249C
:101EB000EE0FFF1FE455FF4F8591949108950E9406
:101EC0004B0F0C94530E82389105B1F1B0F481336D
:101ED000910509F475C048F48932910509F469C087
:101EE0008A32910509F473C008958533910509F488
:101EF00059C08933910501F10895833E9105A9F1F7
:101F000038F4803E9105F9F0823E910549F108953B
:101F1000863E9105A9F1873E9105C9F1843E910560
:101F200019F52091AC0221FF1FC08091AB0284FD06
:101F300014C087EE90E008952091AB022370A1F0C9
:101F400080EE90E008952091AB0220FD47C03091D3
:101F5000AC0230FF09C024FF44C090E080E004C020
:101F60002091AB0222FDF7CF08952091AB0222FD14
:101F70003BC03091AC0230FDE3CF24FFF5CFEDCF75
:101F80002091AB0223FFF0CF24FDE7CFD2CF2091E9
:101F9000AB0223FD2CC03091AC0231FFEECF84EEBA
:101FA00090E008952091AB0225FFDECF89E290E01A
:101FB00008952091AB0225FFD7CF85E390E00895E7
:101FC0002091AB0226FFD0CF8AE290E008952091C5
:101FD000AB0226FFC9CF81E390E0089589E390E04A
:101FE000089583EE90E0089582EE90E0089586EEE5
:101FF00090E008959091AB0292FF06C0282F2871BF
:102000002830F9F4877F846093FF06C0282F287159
:102010002831F1F4877E84612091AC0220FF06C054
:10202000382F38713830D9F4877F816021FF06C09E
:10203000282F28712831D1F4877E816194FD877E15
:102040000895282F24712430F9F68B7F8860DCCF27
:10205000282F2471243101F78B7E8861DDCF382F42
:102060003171313019F78E7F8860E0CF282F2171D0
:10207000213121F78E7E8861E1CF80E008950C94B4
:10208000AA0C0E944E118FE39CE90197F1F700C062
:1020900000000E944E1180E00E94811080FF04C069
:1020A0000E943F100C94C11A08950C9441100E9494
:1020B000B00C811102C00E94550D0E94BB0C809390
:1020C00066020E94C30C9093AC028093AB020E9404
:1020D00055100E94BF0C682F70E090E080E00E94D5
:1020E00014076091D0017091D1018091D20190913B
:1020F000D3010C944E0708950C947B1008950C9412
:102100007E10E82FF0E0EE0FFF1FE954FD4F8081B5
:1021100091810895089580EA8A95F1F7089500C0A5
:1021200008950C948B10F894E82FE295EF70F0E08E
:1021300031A1282F2F7081E090E001C0880F2A95EF
:10214000EAF7982F9095932391A392A1892B82A3CC
:10215000789408950F931F93CF93DF93C0E9D1E054
:1021600089918F3F11F00E94931081E0C539D80703
:10217000B9F7C1E8D1E000E911E089918F3F11F092
:102180000E9493100C171D07C1F7DF91CF911F918B
:102190000F910895AF92BF92DF92EF92FF920F934B
:1021A0001F93CF93DF938C01D62EC62FD0E0CE01A4
:1021B00080579E4F7C01FC0120812F3F09F44CC0C9
:1021C000F894E22FE295EF70F0E031A12F7081E0FA
:1021D00090E001C0880F2A95EAF7932F982B91A3DE
:1021E00092A18095892382A378940E948F10E1E8C0
:1021F000F1E041E050E0B12CA12C21912F3FB1F151
:10220000A22FA295AF70B0E090968C9190E02F70C5
:1022100002C0959587952A95E2F780FD27C0CA01EF
:10222000A82AB92A440F551F81E0E039F80729F799
:10223000F70180818F3F11F00E94931061E0A1149B
:10224000B10409F460E08D2D0E949110CC0FDD1FC8
:10225000C00FD11FB982A882DF91CF911F910F913A
:10226000FF90EF90DF90BF90AF90089590E080E0F6
:10227000D7CF0E94AA108AE0E7EBF2E0DF01982FA7
:102280001D929A95E9F7EDEAF2E0DF011D928A9539
:10229000E9F785E00E9499110C944202FF920F9396
:1022A0001F93CF93DF93CDB7DEB72A970FB6F8947D
:1022B000DEBF0FBECDBF8E010F5F1F4F8AE0F8015A
:1022C00011928A95E9F7F12C6F2DC8010E94CA106E
:1022D000F394F5E0FF12F8CF4AE050E0B8018DEA40
:1022E00092E00E945523FF24F394009709F4F12C07
:1022F000892B41F08AE0F801ADEAB2E001900D923D
:102300008A95E1F72F2D45E067EB72E08DEA92E0C8
:102310000E94AC110E9444028F2D2A960FB6F894A9
:10232000DEBF0FBECDBFDF91CF911F910F91FF9008
:102330000895CF93C82F90E00E942D2280936A02C7
:1023400090936B02282FFC018E2F821B8C1710F0AC
:10235000CF9108951192F8CFDF92EF92FF920F93F1
:102360001F93CF93DF93082FF92EE62ED72E142F2D
:10237000C22FD0916702DD2309F44EC00E94761A65
:102380002091680230916902AC01421B530B9A0103
:1023900090936902809368024F3F510509F0C8F499
:1023A000452B99F01092670210926C0240916A02DC
:1023B000E42FF0916B0290E030E08E2F841B8117A8
:1023C00058F03093670290936C02C11133C0CD2F47
:1023D00025C02FEF30E0E6CF8081882321F0281739
:1023E00020F010829D2F3196E8CF821B80833D2FF5
:1023F000FACF299139916D917C91119762177307EA
:1024000041F05081511105C0408311963C932E93A9
:1024100081E0319612961AC0211106C080916C029B
:102420008823D1F0C11106C00E94761A90936902E8
:102430008093680290916A0280916702AE2DBD2D53
:10244000C02FDF2DE92FF0916B0245E02E2F291BC5
:10245000211778F280936702DF91CF911F910F913E
:10246000FF90EF90DF9008950E94871C0E94970DC7
:102470000C94931C0E94971C0E944B0E0C94B11C50
:102480000E94161A0E946E1C0E947D0D0E9434123A
:102490000E943A120E948D0DFBCF8091730280FF43
:1024A0000DC060910F0170E0660F771F60387105F5
:1024B00070F56115710569F1862F089581FF07C0D8
:1024C00060910F0184E0689FB0011124EFCF60910B
:1024D0000F0182FD0AC0809172028823A9F0209129
:1024E0000E0160910F01821710F088E0ECCF869FFB
:1024F000C001112433E0880F991F3A95E1F7622F4C
:1025000070E00E94D721D2CF68E070E0D5CF8FE78E
:10251000089581E008958091730280FF0CC060915E
:102520000B0170E075956795759567956115710557
:1025300049F1862F089581FF06C060910B0170E07C
:1025400075956795F3CF60910B0182FD0BC090915B
:1025500071029923A1F060910A0180910B019617F5
:1025600038F0682F70E06038710500F38FE7089548
:10257000899FC001112470E00E94D721F4CF61E04F
:1025800070E0D7CF81E008958D3E31F40E944D1266
:1025900081958093770208958E3E19F40E944D1222
:1025A000F8CF8F3E31F40E944D12819580937602D0
:1025B0000895803F19F40E944D12F8CF893F29F405
:1025C0000E948B128093780208958A3F21F40E9422
:1025D0008B128195F7CF8B3F31F40E948B1281953E
:1025E0008093790208958C3F19F40E948B12F8CFE2
:1025F0009FE0980F983070F4815F990B21E030E0F4
:1026000001C0220F8A95EAF780917502822B809390
:10261000750208958D3F31F480917302816080933B
:10262000730208958E3F21F4809173028260F7CF88
:102630008F3FB9F7809173028460F1CF40917602A9
:102640008D3E59F48091770287FF0DC0109277027A
:1026500041110BC01092720208C08E3E81F480912D
:10266000770218169CF3442381F0809178029091B0
:102670007902892B09F05AC01092710208958F3E99
:1026800049F447FFF0CF10927602809177028111D2
:10269000ECCFE0CF803F19F41416ACF3E4CF909167
:1026A0007802893F29F41916F4F610927802DBCFEC
:1026B0008A3F19F497FFD7CFF8CF909179028B3FDB
:1026C00029F497FFD0CF10927902CDCF8C3F19F427
:1026D0001916CCF3C8CF9FE0980F983090F4815F23
:1026E000990B21E030E0B90102C0660F771F8A958F
:1026F000E2F7CB0180959091750289238093750252
:10270000B2CF8D3F31F4809173028E7F809373023C
:10271000AACF8E3F21F4809173028D7FF7CF8F3F38
:1027200009F0A1CF809173028B7FF0CF08950E94B2
:10273000761A9C019091760280917702982B21F075
:102740003093700220936F02909178028091790209
:10275000982B21F030936E0220936D0284E792E073
:102760000C94E918EF92FF920F931F93CF93DF938E
:1027700000D000D000D0CDB7DEB786E0E4E7F2E0CD
:10278000DE01119601900D928A95E1F7E0907602B4
:10279000F0907702009178021091790210927602FF
:1027A0001092770210927802109279028E2D8F2962
:1027B00091F080916F02909170020E948E1AAC018C
:1027C00090917202992309F43FC0809110018417FF
:1027D000150608F447C0802F812B91F080916D027F
:1027E00090916E020E948E1AAC0190917102992311
:1027F00009F477C080910C018417150608F47FC096
:102800008091760290917702892B90917802892BA2
:1028100090917902892B11F00E94971386E0FE01B6
:102820003196A4E7B2E001900D928A95E1F72696E1
:102830000FB6F894DEBF0FBECDBFDF91CF911F91D1
:102840000F91FF90EF900895209111018AE0289F49
:10285000900111242417350708F0BDCF9F5F909396
:10286000720202C09F3FD1F7EE2059F00E944D1234
:102870009FEF1E140CF491E0899F802D112480930A
:102880007602FF2059F00E944D129FEF1F140CF4A6
:1028900091E0899F802D11248093770230917602F8
:1028A000332309F498CF20917702222309F493CFA0
:1028B00045EB3403C0011124992359F0909376021B
:1028C00045EB240390011124332339F03093770230
:1028D00082CF81E080937602F3CF81E0809377020C
:1028E0007ACF20910D018AE0289F900111242417AE
:1028F000350708F085CF9F5F9093710202C09F3F1C
:10290000D1F7002359F00E948B129FEF10160CF4A0
:1029100091E0899F802D112480937802112359F032
:102920000E948B129FEF11160CF491E0899F802D6D
:1029300011248093790230917802332309F460CF17
:1029400020917902222309F45BCF45EB3403C001C7
:102950001124992359F09093780245EB24039001B8
:102960001124332339F0309379024ACF81E08093E8
:102970007802F3CF81E08093790242CF86E0E4E7EA
:10298000F2E0DF011D928A95E9F71092720210922F
:10299000710210927302089586E090E00C94622315
:1029A000682F86E090E00C947023E1ECF2E08081E7
:1029B0008470896280830C94D0140E94B00C8111C1
:1029C00004C00E94550D0E94D5140E94CC1480931F
:1029D000C102803320F0877088628093C102909199
:1029E000C102892F817090FF04C0892F869586953A
:1029F00086950C94DD158091C102982F9695969539
:102A00009695953040F49F5F990F990F990F8770B5
:102A1000892B8093C1028091C10281608093C102A1
:102A20000E94D0148091C1028695869586950C945B
:102A3000DD158091C102982F987F79F0885080939E
:102A4000C102887F91E009F490E08091C10290FB7F
:102A500080F98093C1020E94D0148091C1028695B2
:102A6000869586950C94DD158091C10280FD13C07A
:102A700081608093C102813019F489E08093C102A2
:102A80008091C1020E94D0148091C10286958695E2
:102A900086950C94DD1508958091C10280FF08C0D1
:102AA0008E7F8093C1020E94D01480E00C94DD15CB
:102AB00008958091C10280FD0C944C150C9434153E
:102AC0009091C102892F8695869586958F5F8F712B
:102AD00097708630D8F4880F880F880F892B8093E1
:102AE000C1028091C102887F91E009F490E0809159
:102AF000C10290FB80F98093C1020E94D0148091A2
:102B0000C1028695869586950C94DD159093C10239
:102B1000E8CF863008F085E09091C1029770282FA9
:102B2000220F220F220F922B9093C102987F21E057
:102B300009F420E09091C10220FB90F99093C1022A
:102B40000C94DD150E9489158091C1020C94D0145B
:102B50009C01FB018281882349F12E3BFCE53F0764
:102B6000C9F040F42C3BECE53E0769F02D3B3C45B9
:102B700079F00895203C9CE5390791F070F0213CF4
:102B80003C4589F0089585E00E94A21580E00895F3
:102B900080E0FACF0E941915F9CF0E94FB14F6CFFE
:102BA0000E945915F3CF0E946015F0CF81E008957F
:102BB000269A2E9808952E9808958F929F92AF92FC
:102BC000BF92EF92FF920F931F93CF93DF93C82F83
:102BD0008630C0F5811137C0809180008F7D809351
:102BE00080000E94DB15A0918600B09187002C2FF9
:102BF00030E00E94132225E030E040E050E00E94E7
:102C0000EB2189019A0180918600909187006CE008
:102C100070E00E94C32160177107D8F0C80169E015
:102C200070E00E94C32170938B0060938A00DF9153
:102C3000CF911F910F91FF90EF90BF90AF909F9019
:102C40008F900895C5E0809180008062809380001D
:102C5000CACF8091860090918700E0908600F09026
:102C60008700E0918600F0918700C6E0D0E0BE01C9
:102C70000E94C321060F171F211D311D4801590154
:102C800085E0880C991CAA1CBB1C8A95D1F7C7014A
:102C9000BE010E94C3219F0150E040E0260F371F74
:102CA000411D511DC501B4010E94EB2149015A018A
:102CB000E0918600F0918700CA01B9010E94B3211A
:102CC0009B01AC01DF010E9422229B01AC01C501E6
:102CD000B4010E94B3212FE096958795779567956B
:102CE0002A95D1F7009186001091870030E020E00E
:102CF000061717072807390708F095CF6091860057
:102D00007091870090CF08950E94D81582E2809339
:102D1000800089E1809381008FEF9FEF909387007F
:102D2000809386000C94DD14CF93DF93EC01FB01BC
:102D30008281882309F433C1C430FDE5DF07C0F583
:102D4000CB3F9CE5D90730F49E0122503C4524310D
:102D50003105B0F50E94C30C9093AC028093AB0296
:102D6000C1318CE5D80709F4EEC008F069C0C9305C
:102D7000ECE5DE0709F4D5C0C8F5C5308CE5D80709
:102D800009F4C7C000F5C330ECE5DE0709F4B9C0AB
:102D900008F0BBC0C230DC4509F4ADC08091AB0285
:102DA0009091AC020E94D10C0E94BF0680E008C046
:102DB000C236EDE5DE0771F2C63AFDE5DF0751F2F6
:102DC000DF91CF9108958091AB028062C7309CE57E
:102DD000D90709F493C08091AB028061C830DC450B
:102DE00008F48CC08091AB02806488C08091AB02F3
:102DF0008B7FCD30FCE5DF0709F480C098F480912B
:102E0000AB028E7FCB309CE5D90709F477C0809167
:102E1000AB028C60CC30DC4508F470C08091AB0212
:102E20008D7F6CC08091AB028F7ECF30FCE5DF07D9
:102E300009F464C008F47BC08091AB028F7D5EC052
:102E4000CE3F9CE5D90709F47AC050F5C531FCE5C1
:102E5000DF0709F486C098F48091AB02837FC33109
:102E60009CE5D90709F44AC008F471C00E94BF0666
:102E70009091AB02892F97FB87F980583FC0CC3FD8
:102E8000FCE5DF0709F449C008F055C08091AC02A9
:102E90008160CB3FDC4509F081CF8093AC027ECFCF
:102EA000C230EDE5DE0709F468C0A8F4C1158DE570
:102EB000D80709F452C08091AC028360C130DD456F
:102EC00060F38091AC02982F909591708E7F892B42
:102ED00090FB81F9E2CFC236EDE5DE0709F451C07F
:102EE000C63AFDE5DF0709F453C0C330DD4509F0FC
:102EF00055CF80E043C08091AB0281608093AB02EC
:102F00004DCF8091AB028260F9CF8091AB0284609B
:102F1000F5CF8091AB028860F1CF8091AC028260E6
:102F2000BCCF0E94BF068091AB028068E7CF809142
:102F3000AB02877FE3CF8091AC028E7FAECF8091D2
:102F4000AC028D7FAACF8091AB028F7BD7CF0E943E
:102F5000BF068091AB028F77D1CF8091AC028C7F7E
:102F60009CCF8091AB0282FB992790F921E09227B8
:102F700090FB82F990FB83F9C1CF81E00E94570D4D
:102F80000DCF9091AB02892F8F7E94FF8061B6CFD9
:102F90009091AB02892F8E7F90FF8160AFCF81E04F
:102FA0000FCFCF93DF93EB0186319C4511F50E9443
:102FB000C90B9A81992399F08A7A91E009F490E0FB
:102FC00090937A02811109C089E20E94A40B0E94A9
:102FD000090C80E0DF91CF91089585E3F6CF8091D1
:102FE0007A02811104C089E20E94AB0BF0CF85E325
:102FF000FBCF81E0EFCF0F931F93CF93DF93C42FCD
:10300000D22FFC0182818823C9F040937D020E9467
:10301000761A90937C0280937B0280E28C0F88303A
:1030200008F050C0C77081E001C0880FCA95EAF768
:10303000DF91CF911F910F910C94340410917D0278
:10304000141335C080917B0290917C020E948E1AED
:10305000883C910560F5C0E2CD0F1D17B9F080E204
:10306000810F883040F4177081E001C0880F1A95F5
:10307000EAF70E943B04C83048F481E09D2F977026
:1030800001C0880F9A95EAF70E943404802F0E94AD
:103090002C04C830B8F4D77081E001C0880FDA95ED
:1030A000EAF7DF91CF911F910F910C943B0480E2DE
:1030B0008C0F883038F4C77081E001C0880FCA9542
:1030C000EAF7EFCFDF91CF911F910F9108950F9302
:1030D0009C01CB01243F4CE5340759F1A8F4293D6C
:1030E000FCE53F0701F12A3D4CE53407D1F1283DCD
:1030F0003C4591F406E221EE41EE68ED7CE50E944C
:10310000FB1780E00F910895263FFCE53F07E9F0AB
:10311000B0F0273F3C45F9F0FC018281882339F16A
:1031200010927D02EFCF07E225EE45EE69ED7CE5DA
:10313000E6CF06E221EE40EE64EF7CE5E0CF07E269
:1031400025EE44EE65EF7CE5DACF06E221EE42EEB5
:1031500066EF7CE5D4CF07E225EE46EE67EF7CE52F
:10316000CECF08E221E045EE6AED7CE5C8CF81E0F4
:10317000C9CF90939701809396010895909383020D
:10318000809382020895E0918202F0918302309749
:1031900021F00190F081E02D099480E00895E09104
:1031A0008202F0918302309799F020911E01222330
:1031B00059F02091AB0227FF07C0DC012C9111963A
:1031C0002C93119726E02C930280F381E02D099433
:1031D0000895E0918202F0918302309739F022E065
:1031E000DC012C930480F581E02D09940895209151
:1031F0008002309181022817390771F09093810283
:1032000080938002E0918202F0918302309721F056
:103210000680F781E02D0994089520917E02309177
:103220007F022817390771F090937F0280937E0206
:10323000E0918202F0918302309721F00084F185C1
:10324000E02D09940895FC01329680911E01882397
:1032500021F08091AB029EE187FF96E080E09150E3
:1032600008F4089521912223D1F38F5FF8CF6623CC
:1032700001F120911E012223F1F02091AB0227FFE2
:103280001AC0462F4695469546954E3190F4677084
:1032900021E030E002C0220F331F6A95E2F7840F6D
:1032A000911DFC01828190E02823392381E0232BAA
:1032B00069F480E00895FC01329608962191261762
:1032C00021F0E817F907D1F7F4CF81E008959C01C8
:1032D000FC0132969FEF80E04191461751F09F3FED
:1032E00019F4411101C0982F8F5F8630A9F79F3FD5
:1032F00009F40895290F311D97FD3A95F90162836C
:103300000895FC01329608962191261303C0DF012F
:1033100011971C92E817F907B9F70895E62FE6957B
:10332000E695E695EE3168F4E80FF92FF11D677028
:1033300021E030E001C0220F6A95EAF78281822BFA
:1033400082830895E62FE695E695E695EE3170F4D2
:10335000E80FF92FF11D677021E030E001C0220F66
:103360006A95EAF720958281282322830895209187
:103370001E01222329F02091AB0227FD0C948E1907
:103380000C94671920911E01222329F02091AB0291
:1033900027FD0C94A2190C948119FC01329680919E
:1033A0001E01882351F08091AB0287FF06C08EE199
:1033B000DF011D928A95E9F7089586E0F9CF089517
:1033C0000C94DF19811105C081E0809384020C9474
:1033D000E01982E0FACF83E0809384020C94E01934
:1033E0000C94E21981E0809384020C94E0190C940F
:1033F000F219089508950C94FA19089508950C94FB
:10340000F919CF930E94FD190E944E110E94FE19D6
:10341000C0E08C2F0E948110892B31F4CF5FC53022
:10342000C1F780E0CF91089581E0FCCF08951F920D
:103430001FB61F9211248F939F93AF93BF938091D8
:103440008502811113C08091C2029091C302A091A4
:10345000C402B091C5024196A11DB11D8093C20264
:103460009093C302A093C402B093C502BF91AF91E1
:103470009F918F911F901FBE1F9018958091CA0237
:10348000843031F10E94AE021092850288E190E012
:1034900020E40FB6F894A895809360000FBE2093A7
:1034A000600083B7817F846083BF83B7816083BFFF
:1034B0007894889583B78E7F83BF0FB6F894A895CC
:1034C00080916000886180936000109260000FBE60
:1034D00008950E94BF060C94B50282E084BD93E07B
:1034E00095BD9AEF97BD80936E0008952FB7F8941D
:1034F0008091C2029091C302A091C402B091C50212
:103500002FBF08952FB7F8946091C2027091C30243
:103510008091C4029091C5022FBF08959C014FB7BE
:10352000F8948091C2029091C302A091C402B0911C
:10353000C5024FBF821B930B089578941F921FB64C
:103540001F9211248F939F93AF93BF938091C202D8
:103550009091C302A091C402B091C5020196A11D31
:10356000B11D8093C2029093C302A093C402B09392
:10357000C502BF91AF919F918F911F901FBE1F9069
:10358000189581E08093E00080E28093D80010924B
:10359000C9008FE19EE40197F1F700C0000087E0C9
:1035A00090EBDC018093D3029093D402A093D502D8
:1035B000B093D60288E19CE00FB6F894A89580936A
:1035C00060000FBE90936000FFCF8091A902089524
:1035D00008959C0182E08093E9009FEF8091E800CC
:1035E000915085FD06C085ED8A95F1F70000911197
:1035F000F5CF8091E80085FF0CC050E040E066E028
:1036000070E0C9010E94221D8091E8008E778093AE
:10361000E8000895CF93DF93EC0180911E01882389
:10362000B1F18091AB0287FF32C060E282E080930B
:10363000E9008FEF9091E800815095FD06C095ED6F
:103640009A95F1F700008111F5CF8091E80085FF90
:103650001BC080911E0170E050E040E0811104C069
:1036600050E040E068E070E0CE010E94221D8091B1
:10367000E8008E778093E80080E2FE01A9E8B2E0DE
:1036800001900D928A95E1F7DF91CF91089568E05E
:1036900081E0CDCF80938602709388026093870289
:1036A0008091CA02843001F582E08093E9008FEFB7
:1036B0009091E800815095FD06C095ED9A95F1F73F
:1036C00000008111F5CF8091E80085FF0DC050E02A
:1036D00040E063E070E086E892E00E94221D809165
:1036E000E8008E778093E8000895BC0184E00C9494
:1036F0004A1BBC0183E00C944A1B8091C9028111D2
:1037000009C00E94B21E0E940F1F8091E2008460D7
:103710008093E20008951092C90208950C94F21962
:103720006091C60281E0611101C080E00C94EB1948
:103730009091CA0281E0943009F080E06091C60265
:103740000C94F01942E061EC81E00E942E1E42E2EE
:1037500061EC82E00E942E1E9091CA0281E09430BA
:1037600009F080E06091C6020C94E2198091CC02CD
:10377000833009F460C030F48130C9F1823009F43B
:103780009CC008958A3009F488C08B3009F46EC05B
:10379000893009F04FC08091CB02813209F04AC0D4
:1037A0008091CF029091D002029708F043C080919F
:1037B000E800877F8093E8008091E80082FF36C0B0
:1037C0009091F3008091F200029731F48091F10022
:1037D000813011F0863021F48091F1008093A902AC
:1037E0008091E8008B778093E8000C94621E8091B2
:1037F000CB02813AF9F48091E800877F8093E8005A
:103800008091CF029091D002892B61F460E289E827
:1038100092E070E00E94711D8091E8008B778093A8
:10382000E800089560E090E080E0F3CF8091CA0264
:103830008111C2CF08958091CB02813AD9F780914E
:10384000CF029091D002892BA9F78091E800877F61
:103850008093E8008091E80080FFFCCF80911E01FA
:103860008093F1008091E8008E77BDCF8091CB02EC
:10387000813201F78091CF029091D002892BD1F64D
:103880008091E800877F8093E8000E94621E80910B
:10389000CD0280931E010C94BF068091CB02813231
:1038A00049F68091E800877F8093E8000E94621EBD
:1038B0008091CE028093AA0208958091CB02813A32
:1038C00009F0B8CF8091E800877F8093E80080916D
:1038D000E80080FFFCCF8091AA02C2CF84B7877F27
:1038E00084BF0FB6F894A89580916000886180939A
:1038F0006000109260000FBE80E890E00FB6F89470
:1039000080936100909361000FBE0C94F7190E94A0
:10391000B21E0E940F1FE2EEF0E08081846080837F
:1039200078940C94982182E191E00C94BE188091D7
:10393000CA028530A9F48091CA02853011F00C9436
:10394000691A0E943E1A8091C8028823A1F30E943E
:10395000011A882381F30E940C1D0E94BF06EBCF41
:10396000089508950C94B41C292F33272330310572
:1039700019F168F42130310509F444C022303105D1
:1039800009F445C090E080E030E020E025C021321D
:10399000310549F122323105A9F780E490E02BE2AC
:1039A00033E061157105C1F086EB90E025E732E068
:1039B0006130710589F0E6CF99278130910581F05A
:1039C000009729F00297F1F6E8EDF1E002C0E4E299
:1039D000F2E0849190E09F01FA0131832083089501
:1039E000E2E1F2E0F6CF89E090E02AE332E061150F
:1039F000710591F389E090E023E532E061307105D3
:103A000059F3C0CF82E190E023E632E0E5CF8BE3CB
:103A100090E028E232E0E0CF80E189BD82E189BD1B
:103A200009B400FEFDCF8091D8008F7D8093D8002F
:103A30008091E00082608093E0008091E00081FD51
:103A4000FCCF0895AF92BF92CF92DF92FF920F9377
:103A50001F93CF93DF936C01EB018A010E94811EBB
:103A6000F82E811123C00115110539F0F80180816C
:103A70009181C81BD90BC80ED91EB12CA12C20973F
:103A8000A9F08091E80085FD22C08091E8008E7742
:103A90008093E80001151105A1F0F8018081918162
:103AA000A80EB91EB182A08285E0F82E8F2DDF917D
:103AB000CF911F910F91FF90DF90CF90BF90AF906B
:103AC00008950E94811E8823D1F2F82EEFCFF601CF
:103AD00081916F018093F1002197FFEFAF1ABF0A28
:103AE000CECFFC018091D1029091D2028617970728
:103AF000A0F06115710529F49091E8009E779093EC
:103B0000E80090E06115710551F4911108C08091B1
:103B1000E80082FF34C080E00895BC01F2CF8091BC
:103B2000CA028823C1F18530C1F18091E80083FD8C
:103B300030C08091E80082FDEACF8091E80080FFEC
:103B4000E1CF8091F3002091F200382F61157105CB
:103B500019F02830310558F091E02830310509F08E
:103B600090E02091E8002E772093E800CBCF819160
:103B70008093F100615071092F5F3F4FE7CF809133
:103B8000CA02882341F0853041F08091E80083FF2C
:103B9000BECF81E0089582E0089583E00895FC019E
:103BA0008091D1029091D20286179707A0F06115FB
:103BB000710529F48091E8008E778093E80090E009
:103BC0006115710551F4911108C08091E80082FFE0
:103BD00035C080E00895BC01F2CF8091CA028823ED
:103BE000C9F18530C9F18091E80083FD31C0809131
:103BF000E80082FDEACF8091E80080FFE1CF80916C
:103C0000F3002091F200382F6115710519F028306A
:103C1000310558F091E02830310509F090E08091AD
:103C2000E8008E778093E800CBCF84918093F100F9
:103C30003196615071092F5F3F4FE6CF8091CA02E4
:103C4000882341F0853041F08091E80083FFBDCFAB
:103C500081E0089582E0089583E00895982F9730D9
:103C600028F08F708093E90081E008959093E90037
:103C7000242F762F50E0981731F07091EC002091AE
:103C8000ED005091F00021FD02C09F5FE8CF309120
:103C9000EB003E7F3093EB003091ED003D7F3093A1
:103CA000ED003091EB0031603093EB007093EC004D
:103CB0002093ED005093F0002091EE0027FDE5CF1A
:103CC00080E008958091CB0287FF13C08091E800C7
:103CD00082FF06C08091E8008B778093E80004C0E3
:103CE0008091CA028111F2CF08958091CA0288237F
:103CF000D9F38091E80080FFF8CF8091E8008E77BB
:103D0000ECCF2091E4003091E50095E6A9012091E7
:103D1000EC00822F817020FF06C08091E80080FFB8
:103D200006C080E008952091E80022FD1AC080912D
:103D3000CA02882389F0853089F08091EB0085FDE7
:103D40000FC02091E4003091E50042175307F9F2CB
:103D50009150E1F684E0089582E0089583E00895AB
:103D600081E008950E94201F0E94281FE0EEF0E0ED
:103D7000808181608083E8EDF0E080818F778083AF
:103D800019BCA7EDB0E08C918E7F8C9380818F7EE3
:103D900080831092C90208950F931F93CF93DF93EE
:103DA0000E94201F0E94281FC8EDD0E088818F77D5
:103DB000888388818068888388818F7D888319BC07
:103DC0001092CA021092C6021092C8021092C70244
:103DD00000EE10E0F80180818B7F80838881816014
:103DE000888342E060E080E00E942E1EE1EEF0E079
:103DF00080818E7F8083E2EEF0E08081816080832D
:103E0000808188608083F80180818E7F80838881B3
:103E100080618883DF91CF911F910F910895E8ED24
:103E2000F0E080818F7E8083E7EDF0E0808181602B
:103E3000808384E082BF81E08093C9020C94CC1E11
:103E4000E8EDF0E080818E7F80831092E20008959B
:103E50001092DA001092E10008951F920F920FB6AF
:103E60000F9211242F933F934F935F936F937F9300
:103E70008F939F93AF93BF93EF93FF938091E10054
:103E800082FF0BC08091E20082FF07C08091E100B9
:103E90008B7F8093E1000E9497218091DA0080FF60
:103EA00019C08091D80080FF15C08091DA008E7F04
:103EB0008093DA008091D90080FF96C080E189BDAF
:103EC00082E189BD09B400FEFDCF81E08093CA0282
:103ED0000E947D1B8091E10080FF19C08091E2006B
:103EE00080FF15C08091E2008E7F8093E200809178
:103EF000E20080618093E2008091D800806280932C
:103F0000D80019BC85E08093CA020E94901B809162
:103F1000E10084FF2BC08091E20084FF27C080E194
:103F200089BD82E189BD89B5982F917080FFFBCF53
:103F30008091D8008F7D8093D8008091E1008F7EA2
:103F40008093E1008091E2008F7E8093E200809177
:103F5000E20081608093E2008091C602882309F428
:103F600049C084E08093CA020E94981B8091E100BE
:103F700083FF29C08091E20083FF25C08091E1008A
:103F8000877F8093E10082E08093CA021092C6028C
:103F90008091E1008E7F8093E1008091E2008E7F2E
:103FA0008093E2008091E20080618093E20042E031
:103FB00060E080E00E942E1E8091F0008860809377
:103FC000F0000E948E1BFF91EF91BF91AF919F91E6
:103FD0008F917F916F915F914F913F912F910F90B2
:103FE0000FBE0F901F90189519BC1092CA020E9424
:103FF0008B1B70CF8091E30087FD93E09093CA0202
:10400000B3CF1F920F920FB60F9211242F933F93AD
:104010004F935F936F937F938F939F93AF93BF93D0
:10402000CF93DF93EF93FF93D091E900DF708091FE
:10403000EC00C82FC17080FDC0E81092E9008091AB
:10404000F000877F8093F00078940E9445201092C2
:10405000E9008091F00088608093F000CD2BCF7054
:10406000C093E900FF91EF91DF91CF91BF91AF91A4
:104070009F918F917F916F915F914F913F912F9180
:104080000F900FBE0F901F9018951F93CF93DF9343
:10409000CDB7DEB7AA970FB6F894DEBF0FBECDBF7F
:1040A0008BEC92E02091F100FC012193CF01F2E032
:1040B000833D9F07B9F70E94B61B8091E80083FFFC
:1040C0001EC18091CB029091CC029A3008F017C1AA
:1040D000E92FF0E0EE54FC4D0C940D22803899F05D
:1040E000823809F00CC18091CF028F70873008F0C0
:1040F00006C18093E9008091EB0085FB882780F959
:104100001092E90006C08091C7029091C8029111F7
:1041100082609091E800977F9093E8008093F1008F
:104120001092F1008091E8008E77E5C0882309F4B1
:10413000D3C0823009F0E3C08091CD028111D6C096
:104140008091CF028F702FEF280F263008F0D7C054
:104150008093E9002091EB0020FFC8C0933031F438
:104160008091EB0080628093EB00C0C09091EB00E7
:1041700090619093EB0021E030E001C0220F8A951E
:10418000EAF72093EA001092EA008091EB00886041
:10419000EACF8111B4C01091CD021F778091E30066
:1041A0008078812B8093E3008091E800877F809363
:1041B000E8000E94621E8091E80080FFFCCF8091A1
:1041C000E30080688093E30082E0111183E0809334
:1041D000CA0295C08058823008F091C08091CD020B
:1041E0009091CE028C3D23E09207A1F583E08A8373
:1041F0008AE289834FB7F894DE01139620E03EE00F
:1042000051E2E32FF0E050935700E49120FF03C008
:10421000E295EF703F5FEF708E2F90E0EA30C0F0D4
:10422000C7968D939D932F5F243159F74FBF80918F
:10423000E800877F8093E8006AE270E0CE01019693
:104240000E94711D8091E8008B778093E80057C031
:10425000C096E7CF6091CF027091D002AE014F5F60
:104260005F4F0E94B21CBC01892B09F448C0909199
:10427000E800977F9093E80089819A810E94CF1D82
:10428000E1CF8038E1F58091E800877F8093E800F6
:104290008091C6028093F10045CF811130C090918A
:1042A000CD02923060F58091E800877F8093E8002E
:1042B0009093C6020E94621E8091C602882311F06C
:1042C00084E005C08091E30087FDFACF81E0809310
:1042D000CA020E94A21B13C08091CD02813079F4E2
:1042E00081E0933009F080E08093C8021092E900E9
:1042F0008091E800877F8093E8000E94621E809191
:10430000E80083FF0AC08091E800877F8093E8007F
:104310008091EB0080628093EB00AA960FB6F89430
:10432000DEBF0FBECDBFDF91CF911F9108950895DD
:10433000CF938091CA028823A1F0C091E900CF7089
:104340009091EC00892F817090FD80E8C82B10922D
:10435000E9008091E80083FD0E944520CF70C09362
:10436000E900CF910895DB018F939F930E94222251
:10437000BF91AF91A29F800D911DA39F900DB29F01
:10438000900D11240895AA1BBB1B51E107C0AA1F61
:10439000BB1FA617B70710F0A61BB70B881F991FE6
:1043A0005A95A9F780959095BC01CD01089597FB8A
:1043B000072E16F4009407D077FD09D00E94C32180
:1043C00007FC05D03EF4909581959F4F0895709518
:1043D00061957F4F0895A1E21A2EAA1BBB1BFD0118
:1043E0000DC0AA1FBB1FEE1FFF1FA217B307E407D4
:1043F000F50720F0A21BB30BE40BF50B661F771F2C
:10440000881F991F1A9469F760957095809590950B
:104410009B01AC01BD01CF010895EE0FFF1F059078
:10442000F491E02D0994A29FB001B39FC001A39F16
:10443000700D811D1124911DB29F700D811D1124DD
:10444000911D08950E941322A59F900DB49F900D79
:10445000A49F800D911D112408950F931F93CF9356
:10446000DF939C01029710F422E030E0E091980184
:10447000F091990190E080E0B0E0A0E0309791F4F5
:10448000009709F445C0821B930B84309105B8F561
:104490008A819B816115710569F1FB019383828398
:1044A000FE0111C0408151810281138142175307DF
:1044B000F0F04217530799F4109761F012960C939D
:1044C000129713961C933296CF01DF91CF911F91D3
:1044D0000F9108950093980110939901F4CF0097DC
:1044E00019F04817590718F4CA01BD01EF01DF019F
:1044F000F801C4CF9093990180939801D1CFFE0128
:10450000E80FF91F21933193029799838883DCCFB9
:1045100080919A0190919B01892B41F48091020135
:104520009091030190939B0180939A0180910001E7
:1045300090910101009741F48DB79EB7409104011D
:1045400050910501841B950B40919A0150919B015C
:104550004817590708F0B8CF841B950B82179307AB
:1045600008F4B2CFB9016E5F7F4F8617970708F442
:10457000ABCF640F751F70939B0160939A01FA0192
:1045800021933193A1CFCF93DF939C010097E9F062
:10459000FC01329713821282C0919801D091990147
:1045A000DE0190E080E02097A1F480819181280FC6
:1045B000391F80919A0190919B018217930709F00E
:1045C00067C0F0939B01E0939A01DF91CF9108952A
:1045D000DA01AE17BF0708F041C012964D915C9109
:1045E0001397CD014115510599F7DC011396FC9302
:1045F000EE9312974D915D91A40FB51FEA17FB073B
:1046000081F4208131812E5F3F4F240F351FDC0163
:1046100011963C932E932281338113963C932E93D3
:104620001297B0E0A0E08A819B810097B1F5FE016E
:1046300081919191E80FF91F80919A0190919B01CE
:104640008E179F0711F6109759F510929901109245
:104650009801D0939B01C0939A01B7CFB383A283F3
:1046600040815181240F351FA217B30771F44E5FAB
:104670005F4F2D913C911197240F351F318320837B
:1046800012962D913C9133832283009709F0ADCF90
:10469000F0939901E093980198CFDE01EC01C3CF2C
:1046A00013961C921E921297D4CFFB01DC0104C01A
:1046B0008D910190801921F441505040C8F7881B1A
:1046C000990B0895F999FECF92BD81BDF89A99276B
:1046D00080B50895A8E1B0E042E050E00C94962344
:1046E000262FF999FECF92BD81BDF89A019700B4AB
:1046F000021639F01FBA20BD0FB6F894FA9AF99A4B
:104700000FBE08950396272F0E9471230E947023E5
:10471000252F0E947123242F0C9471230196272F9B
:104720000E9471230C947023DC01CB01FC01F999E8
:10473000FECF06C0F2BDE1BDF89A319600B40D92ED
:1047400041505040B8F70895F894FFCF800480049A
:10475000B104B10444056005E004E0046B05F7050D
:10476000060606066E2096207F2196207F21C9200E
:08477000EA207F2141214D21C7
:104778000000D7022000C8003202280850011E0A93
:104788001401E51A0A1BE91A791B751BE81A01E2DC
:1047980000E900EA00B500B600B700CD008301CCFF
:1047A800008A019201940121022302240225022693
:1047B8000227022A02B300B4006F007000818283CE
:1047C800E200E900EA00B500B600B700CD008301B9
:1047D800CC008A01920194012102230224022502BD
:1047E800260227022A02B300B4006F0070008182FB
:1047F80083F0F1C66766379431303534979633F4D1
:06480800909192939500CF
:00000001FF
