:100000000C94B6010C94EE010C94EE010C94EE01EC
:100010000C94EE010C94EE010C94EE010C94EE01A4
:100020000C94EE010C94EE010C94C11E0C94951FDF
:100030000C94AB190C94EE010C94EE010C94EE01AF
:100040000C94EE010C94EE010C94EE010C94EE0174
:100050000C94EE010C94311A0C94EE010C94EE0108
:100060000C94EE010C94EE010C94EE010C94EE0154
:100070000C94EE010C94EE010C94EE010C94EE0144
:100080000C94EE010C94EE010C94EE010C94EE0134
:100090000C94EE010C94EE010C94EE010C94EE0124
:1000A0000C94EE010C94EE010C94EE0129001E005C
:1000B0001F0020002100220023002400250026002C
:1000C00027002D002E0000002A002B000000140045
:1000D0001A000800150017001C0018000C00120080
:1000E00013002F0030004C000151000004001600E6
:1000F000070009000A000B000D000E000F0033007E
:10010000340028000000E10000001D001B00060074
:1001100019000500110010003600370038000000FB
:1001200052000151E000E3000000E2002C0000005A
:100130002C0000002C000000E600500000005100E0
:100140004F0035003A003B003C003D003E003F00C0
:1001500040004100420043004400450000004C00C4
:10016000010000003D04CB5CCA5CE400FB5C4B007A
:100170004A0052004D004600AA00A90031000100CB
:1001800000004200430044004500FD5C4E0050006A
:1001900051004F003300490028000000E10000003A
:1001A00048006500B2003900C35C53004700AC0052
:1001B000AB00AE0000004B000100E00001000000B9
:1001C000010001000000010000000100000001002A
:1001D0004A0000004E004D00380347004E00410029
:1001E00054003600300020004E0061006A006C00B0
:1001F0006500700073007A00610020004B006C0005
:100200006100770069006100740075007200610090
:100210000000100344006F00620072007A00610069
:100220006E0000000403090409023B00020100A063
:10023000FA09040000010301010009211101000174
:1002400022400007058103080001090401000103A1
:1002500000000009211101000122B60007058203F8
:1002600020000112010002000000085A446022012F
:10027000000102000105010902A10185020901A195
:100280000005091901290815002501950875018146
:10029000020501093009311581257F950275088114
:1002A0000609381581257F950175088106050C0A18
:1002B00038021581257F950175088106C0C00501AA
:1002C0000980A101850319012AB700150126B7008D
:1002D000950175108100C0050C0901A10185041963
:1002E000012AA002150126A002950175108100C007
:1002F00005010906A1018506050719E029E7150092
:1003000025019508750181020507190029EF1500DF
:10031000250195F07501810205081901290595054A
:1003200075019102950175039101C005010906A1AE
:1003300001050719E029E7150025019508750181D8
:10034000029501750881010507190029FF1500268E
:10035000FF00950675088100050819012905950516
:1003600075019102950175039101C00011241FBE12
:10037000CFEFDAE0DEBFCDBF04B603FE18C0809138
:10038000C6029091C702A091C802B091C9028730FD
:10039000904BA740B04B59F41092C6021092C7027E
:1003A0001092C8021092C902E0E0F8E3099511E04A
:1003B000A0E0B1E0E0E5F4E402C005900D92A039C0
:1003C000B107D9F722E0A0E9B1E001C01D92A63C37
:1003D000B207E1F70E94D4110C9410220C94000093
:1003E00081E0089581E008950C94F20108950C9441
:1003F000F6011F93CF93DF9300D000D00F92CDB7BB
:10040000DEB749835A836B833091930189819A8146
:1004100031111DC06623B9F02223A9F00E9466089D
:10042000182F682F89819A810E94120869817A8128
:10043000812F0F900F900F900F900F90DF91CF9121
:100440001F910C94400F0E943E08182FEFCF0E947E
:10045000660869817A81EDCFFC01262F40815181A8
:100460006281738184810C94F90181E00895CF93B6
:10047000DF93EC0160E00E942C02BE01DF91CF917E
:100480000C94F7010C9471100C94741008950E9450
:10049000BF060E9446022FEF84E39CE0215080407B
:1004A0009040E1F700C000000C94551A0F931F9381
:1004B000CF93DF938C0161E00E942C02EC01B80124
:1004C0000E94F4018823D9F1B801CE010E943C15A5
:1004D0008823A9F1B801CE010E94FB17882379F186
:1004E000B801CE010E942816882349F1B801CE0137
:1004F0000E946517882319F1F8018281882361F031
:10050000CB35FDE5DF0721F170F4C115ECE5DE0721
:10051000A1F0CF3DDC45C9F0C801DF91CF911F911B
:100520000F910C94F001CC358DE5D807A1F0CD35B5
:10053000DD4591F70E949B0CEFCF0E94470280E0BF
:10054000DF91CF911F910F9108950E94550DF7CF24
:100550000E94A40CE1CF0E94A70CDECF0E948F194D
:1005600080E00E9471150C94D8020E9471140E94C0
:10057000DB020C94931908950C94BB0281E008955A
:10058000CF93C82F0E94BE02882319F0C1FD03C07B
:100590002A9ACF9108952A98FCCF229A2A9A0895F0
:1005A000CF93C82F0E94BC028C2FCF910C94C00215
:1005B00080E00C94D0020E9457180C94D0020E9444
:1005C000571890919201981721F0809392010C9402
:1005D000D0020895CF93DF93CDB7DEB72B970FB638
:1005E000F894DEBF0FBECDBF4F83588769877A87E7
:1005F0008B8761110E94E90B1E821D8285E0FE013E
:100600003796DE01119601900D928A95E1F78C8163
:100610009D81892B89F449815A816B817C818D81EF
:100620009E810E940A0B2B960FB6F894DEBF0FBE78
:10063000CDBFDF91CF91089589819A8189238F3F22
:1006400051F3CE0101960E9435028111E4CFEBCF28
:10065000FC01808191810C94A808CF93C82F882336
:1006600009F48BC08238C1F40E94571881FD85C0FF
:1006700089E30E94A40B0E94090C2FEF81EE94E005
:10068000215080409040E1F700C0000089E30E94C3
:10069000AB0BCF910C94090C8338A1F40E9457182E
:1006A00080FD6BC083E50E94A40B0E94090C2FEF14
:1006B00081EE94E0215080409040E1F700C00000BE
:1006C00083E5E5CF8438A1F40E94571882FD55C018
:1006D00087E40E94A40B0E94090C2FEF81EE94E0A6
:1006E000215080409040E1F700C0000087E4CFCF68
:1006F0008CEF8C0F813A90F46C2F809102019091D5
:1007000003010E94CB18882329F08C2F0E94AB0B89
:100710000E94090C8C2F0E94A40BBBCF80E28C0F8F
:10072000883048F4C77081E001C0880FCA95EAF7A5
:100730000E94CC0BAECFEBE5EC0FE33040F4F0E0E1
:10074000E95BFE4F808190E0CF910C948B18E8E537
:10075000EC0FE73150F4F0E0EE0FFF1FE75EFE4FC5
:1007600080819181CF910C94A118CD3E30F08C2FD7
:100770000E945812CF910C942B13CF910895882387
:1007800009F452C0823871F40E94571881FF4CC09E
:1007900089E30E94A40B0E94090C89E30E94AB0B21
:1007A0000C94090C833859F40E94571880FF3CC000
:1007B00083E50E94A40B0E94090C83E5EFCF8438E7
:1007C00059F40E94571882FF2FC087E40E94A40B9F
:1007D0000E94090C87E4E2CF9CEF980F913AF0F267
:1007E00090E2980F983050F4877091E001C0990F13
:1007F0008A95EAF7892F0E94D20BD2CF9BE5980FFA
:10080000933020F490E080E00C948B1898E5980FDA
:10081000973120F490E080E00C94A1188D3E20F0F8
:100820000E94B2120C942B1308951F93CF93DF9361
:10083000182FEB010E942D03209731F4812FDF91B7
:10084000CF911F910C94BF038FE99FE00197F1F7BF
:1008500000C000002197F0CF70E060E0893311F410
:1008600060E570E00C941504882321F00E94CC0B05
:100870000C94090C0895882321F00E94D20B0C944B
:10088000090C0895BF92CF92DF92EF92FF920F93DF
:100890001F93CF93DF936C01D62FC72FFC011281DA
:1008A000F580F2949FE0F9220E94C20BE82E882383
:1008B000B9F0E12E1123A1F08C2F807F803421F03C
:1008C00080E28D0F8830D0F080919F0282FD16C0AB
:1008D00082E00E946A0C0E94C20B91E0E82EE92699
:1008E000BC2EB2948FE0B822FBE0FB1508F468C080
:1008F000EB2DF0E0EE5EFD4D0C94A121E12CF0CF4C
:100900000C2F0F70C07F11F00295007F112399F01A
:10091000002359F080E28D0F883010F0D11107C00C
:10092000802F0E94CC0B0E94090C8D2F41C0802F7C
:100930000E94DC0BF8CF8D2F0E94BF03002309F427
:100940003FC080E28D0F883010F0D11104C0802F9D
:100950000E94D20B03C0802F0E94E20B0E94090C60
:100960002FC00C2F0F70C07FC03211F00295007F96
:10097000DD2381F0D13009F469C0112309F473C07B
:10098000FF2009F469C0F601858180FFCECF8F700A
:10099000858362C080919F0282FF38C0112359F085
:1009A000002329F0802F0E94CC0B0E94090C80E0CC
:1009B0000E942D0305C080E00E94BF030111C7CF34
:1009C000EB2DE850FF0B349720F40E9457180E943B
:1009D000D002EE2009F472C10E94BE0B80FD6EC1F0
:1009E000F60112820E94B80B0E947607C6010E948F
:1009F0007F060E94B80BDF91CF911F910F91FF905E
:100A0000EF90DF90CF90BF900C949707112389F05F
:100A1000F11006C00E94EC0B802B0E943404D0CF52
:100A200021E0F212F7CF0E94EC0B802B0E94F20B18
:100A3000C7CFF11006C00E94FF0B802F0E943B041D
:100A4000BFCF31E0F31609F4BBCFF5CF112331F05E
:100A500085E08F1508F4B4CF802FDFCF94E09F1589
:100A600008F4AECFEACFFF2041F3D93349F4FFEFCA
:100A700027EE33E0F15020403040E1F700C00000A5
:100A80008D2F0E94BF039CCF8C2F869586958370F7
:100A900069F0813009F094CF8D2F9C2F9370111144
:100AA00002C090E080E00E94A1188ACF8D2F9C2F79
:100AB0009370111102C090E080E00E948B1880CFEB
:100AC0008D2F112329F00E9458120E942B1378CFEA
:100AD0000E94B212FACF8C2F837009F041C011111D
:100AE0006FCF4D2F429546954770440F440F0D2F01
:100AF0000F7010E030E020E0042E04C0000F111F42
:100B0000221F331F0A94D2F760E070E0CB01D4FFBC
:100B10000FC06FE070E080E090E004C0660F771FC8
:100B2000881F991F4A95D2F760957095809590958A
:100B3000C695C695C370602B712B822B932BC23048
:100B400049F058F4C13019F00E94280739CF0E94AB
:100B5000160736CF0E943A0733CF0E94140730CFD2
:100B60008695112311F08C2F8170882309F428CFEA
:100B70004D2F429546954770440F440F0D2F0F702F
:100B800010E030E020E0042E04C0000F111F221FEF
:100B9000331F0A94D2F760E070E0CB01D4FF0FC09E
:100BA0006FE070E080E090E004C0660F771F881F60
:100BB000991F4A95D2F76095709580959095C69546
:100BC000C695C370602B712B822B932BC23049F0DA
:100BD00058F4C13019F00E94ED07F2CE0E94DB07F5
:100BE000EFCE0E94FF07ECCE0E945007E9CECF70F7
:100BF000112329F08C2F0E9476078D2F0ECF8D2F79
:100C00000E943B048C2F0E949707DACED23F51F10D
:100C100060F4D03FB9F0D13F81F0112309F449C00D
:100C2000F11083CE8C2F8F7121C0D33F11F1D43FAF
:100C3000A1F780919F0282FF26C08C2F8F71112314
:100C400011F314C0112349F084E08F1508F4B8CED5
:100C50008C2F8F710E94BA07B3CE95E09F1508F4D0
:100C6000AFCEF6CF8C2F8F711111CDCF0E947607AA
:100C7000A7CE112329F08C2F8F710E946107A0CE7F
:100C80000E945C079DCE112349F0CF718C2F0E94EA
:100C9000760763E08C2F0E944F0C92CE81E00E9479
:100CA0006A0CE1E0EF1508F08BCE82E00E946A0C3E
:100CB00087CEF110DACE8C2F8F71A5CFDF91CF9137
:100CC0001F910F91FF90EF90DF90CF90BF9008950C
:100CD0000F931F93CF93DF93EC01688179818A8111
:100CE0000E94B2088C010E9411080E941307B801EB
:100CF000CE01DF91CF911F910F910C944204CF93BD
:100D0000DF93EC018B819C81892B29F0888199816B
:100D100089238F3F59F4DF91CF910895CE010E942E
:100D20006806CE01DF91CF910C943702CE010E946C
:100D300056028111F3CF0E94C20B882361F38A818E
:100D4000882349F380919F0282FDE5CF82E0DF9105
:100D5000CF910C946A0C90E080E00E948B1890E098
:100D600080E00E94A1180E94E90B0E94090C0E94D9
:100D700052140C942B130E94B20B0C94AB060E94DD
:100D8000D90B0C94BB0692959F70963091F058F455
:100D9000925F9F70923058F4803F19F030F4883E93
:100DA00030F481E008959A5FF4CF843FD1F380E07E
:100DB0000895883EB0F3813FD1F7F3CFFC018081E5
:100DC00091810E94A8080C94C306CF93DF9300D0B2
:100DD00000D00F92CDB7DEB70F900F900F900F900D
:100DE0000F90DF91CF910895CF93DF9300D000D083
:100DF00000D0CDB7DEB726960FB6F894DEBF0FBE93
:100E0000CDBFDF91CF91089508950C9404070E94FF
:100E100005076093CA017093CB018093CC01909336
:100E2000CD010C94AB0608950C9407070F931F9304
:100E30000091CA011091CB012091CC013091CD01DC
:100E4000602B712B822B932B1F910F910C94070712
:100E50000F931F930091CA011091CB012091CC01F7
:100E60003091CD0160237123822393231F910F9131
:100E70000C9407070F931F930091CA011091CB01A7
:100E80002091CC013091CD016027712782279327D3
:100E90001F910F910C9407070C9404070C944C07B6
:100EA0000E944E076093C6017093C7018093C801EA
:100EB0009093C9010C94AB0660E070E0CB010C94F8
:100EC00050070F931F9341E050E060E070E08A010B
:100ED0009B0104C0000F111F221F331F8A95D2F7F8
:100EE000C901B8011F910F910C9450070F931F93E4
:100EF00041E050E060E070E004C0440F551F661F01
:100F0000771F8A95D2F78091C6019091C701A09171
:100F1000C801B091C9018A019B01082B192B2A2B0A
:100F20003B2BC901B8011F910F910C9450070F93EF
:100F30001F9341E050E060E070E004C0440F551F93
:100F4000661F771F8A95D2F7CB01BA01609570951D
:100F5000809590950091C6011091C7012091C8011C
:100F60003091C90160237123822393231F910F9134
:100F70000C9450070F931F9341E050E060E070E045
:100F800004C0440F551F661F771F8A95D2F78091C2
:100F9000C6019091C701A091C801B091C9018A0111
:100FA0009B01082719272A273B27C901B8011F9150
:100FB0000F910C9450070F931F930091C60110914D
:100FC000C7012091C8013091C901602B712B822B80
:100FD000932B1F910F910C9450070F931F93009127
:100FE000C6011091C7012091C8013091C901602349
:100FF0007123822393231F910F910C9450070F9319
:101000001F930091C6011091C7012091C801309132
:10101000C90160277127822793271F910F910C9494
:10102000500708952FE0929F800D1124982F9770FC
:1010300041E001C0440F9A95EAF78695869586951A
:1010400095E0899FF0011124EC56FE4F90E080E07E
:1010500070E05191DF0111979B01082E02C0369577
:1010600027950A94E2F72170219525272423252727
:101070002C9301968530910561F708952FE0929F9A
:10108000800D1124982F977086958695869525E07A
:10109000829FF0011124EC56FE4F50E040E080E0CA
:1010A000219130E0092E02C0369527950A94E2F787
:1010B00021703327042E01C0220F0A94EAF7822BF5
:1010C0004F5F5F4F4530510559F70895BF92CF925A
:1010D000DF92EF92FF920F931F93CF93DF938C01D8
:1010E000C090C601D090C701E090C801F090C9013E
:1010F0008091CA019091CB01A091CC01B091CD011A
:10110000C82AD92AEA2AFB2ACFE1D0E0BC2ED7018F
:10111000C6010C2E04C0B695A795979587950A949D
:10112000D2F780FD0EC0219788F7B12C8B2DDF916F
:10113000CF911F910F91FF90EF90DF90CF90BF90D4
:101140000895B8018C2F0E94540F019761F3EECFE0
:10115000CF93DF93EC010E946608BE01DF91CF912F
:101160000C94540F1F93CF93DF93EB019091930155
:10117000992331F0CB01DF91CF911F910C94A808F6
:10118000882379F0CB010E946608182F682FCE01C2
:101190000E941208BE01812FDF91CF911F910C9404
:1011A000540FCB010E943E08182FF4CF1F93CF930A
:1011B000DF93C091CE0116E08091CF018C1304C063
:1011C000DF91CF911F910895D0E01C9FF0011D9FEA
:1011D000F00D1124E053FE4F4081518162817381F3
:1011E000848195810E94F4062196C770E5CF4091D5
:1011F00000025091010260910202709103028091FD
:101200000402909105020C94F406FF920F931F9331
:10121000CF93DF9380910502807FD1F48091020209
:101220008823B1F08091CE011091CF01609100022E
:1012300070910102A0910302B0910402062F0723CE
:10124000C0910001D091010196E0F92E181306C05B
:10125000DF91CF911F910F91FF90089590E010972B
:1012600011F00F3F19F401968770F0CFF89E9001AE
:10127000F99E300D1124F901E053FE4F41814713CF
:10128000F2CF40814613EFCF42814111ECCF438131
:1012900054814A1B5B0B4C175D0728F780910502B0
:1012A0008F70806180930502F901EB52FE4F8081BF
:1012B0008F708061808380E092E00E947F06DF91E2
:1012C000CF911F910F91FF900C94D608AF92BF92CF
:1012D000CF92DF92EF92FF920F931F93CF93DF9302
:1012E000CDB7DEB761970FB6F894DEBF0FBECDBFA6
:1012F0008C0185E0F801DE011D9601900D928A9522
:10130000E1F7F801E28080E0C82E82E0D82E6091FB
:101310000302709104026115710509F45FC1909197
:10132000000220910102892F82238F3F09F456C1C8
:1013300040815181A380B480F0900202F501E61B48
:10134000F70BBF01E0910001F0910101FF2009F4CA
:10135000F6C080910502382F307F6E177F0708F0A6
:10136000AFC0311179C0FE2C251323C0941321C0C6
:10137000E1101FC08F708061809305020E94F70802
:10138000C6010E947F0680910502F80185838F2D9A
:1013900061960FB6F894DEBF0FBECDBFDF91CF913F
:1013A0001F910F91FF90EF90DF90CF90BF90AF9083
:1013B0000895AB2829F0842F85238F3F09F027C19A
:1013C00080E0F82FF170DF2E80FF3CC08091CE01CD
:1013D0002091CF0136E0821315C04D875E878D8541
:1013E0009E850E94A808292F22952F702230F0F0A8
:1013F000243018F59F70F1F0F8019581907FD1F4B9
:10140000D12C1EC090E0389FF001399FF00D1124BF
:10141000E053FE4F6181651306C06081641303C011
:1014200062816E110FC001968770D5CF9F7011F049
:10143000882331F3805E883018F3C8010E947F064C
:10144000FD2CA5CFEE2009F4A2CF8091050281608A
:1014500080930502F12C9BCF251306C0941304C082
:10146000F801EE2009F487C0C8010E94DE06882337
:1014700019F1EE2009F180910502803270F020917F
:1014800000023091010238872F831986BB86AA8615
:101490008C87CE0107960E947F0686E0F801A0E0C7
:1014A000B2E001900D928A95E1F70E9405090E9431
:1014B000F708FF24F3946BCFC8010E947F06F9CF91
:1014C000311113C07A2DB98AA88A6E2D89890E949C
:1014D000E50680E092E00E947F0686E0F601119228
:1014E0008A95E9F70E94F708B5CF25130FC094132A
:1014F0000DC0E1100BC0F8018583C8010E947F0672
:1015000086E0F60111928A95E9F741CFC8010E9461
:10151000DE06882389F2EE2079F28091050280327E
:1015200008F4BBCF20910002309101023A83298355
:101530001B82BD82AC828E83CE010196ACCF6E172A
:101540007F0708F03EC0FE2CEE2009F4B5CF25132E
:101550002AC0941328C08091050280FD1BC0982FDB
:10156000907FC1F0F8018583903F31F0982F907FF4
:10157000905F8F70892B8583C8010E947F0686E06B
:10158000F801A0E0B2E001900D928A95E1F70E9487
:10159000F708FDCE86E0F801A0E0B2E001900D92E0
:1015A0008A95E1F7F4CEC8010E94DE06811175CF5D
:1015B00080910502816080930502C8010E947F0628
:1015C000E6CE7A2DB98AA88A6E2D89890E94E50611
:1015D00086E0F60111928A95E9F7D9CFEE2009F459
:1015E0006BCFC8010E94DE06F82E882309F464CF71
:1015F00086E0F801A0E0B2E001900D928A95E1F753
:1016000080E092E00E9428030E940509C0CF81E09B
:101610008E25D7CE1F93CF93DF93CDB7DEB72C9710
:101620000FB6F894DEBF0FBECDBF4F8358876987D2
:101630007A878B879C87CE0107960E94660988234C
:1016400069F08A859B85892B39F04F815885842FD5
:1016500085238F3F09F071C016E05FC086E0FE0170
:101660003796DE01119601900D928A95E1F78A85F1
:101670009B85892B89F388859F8189238F3F61F31F
:101680002091CF0130E0C9010196877099274091E0
:10169000CE014817190671F40E94BF061092CF01BF
:1016A0001092CE0186E0E0E0F2E0DF011D928A9523
:1016B000E9F7D2CF96E0929FD001939FB00D11240D
:1016C000A053BE4FFE01319601900D929A95E1F71D
:1016D0008093CF010E94D608BFCF819FC001112403
:1016E00080539E4F0E9466098823E9F0E091CE0165
:1016F0001E9FF0011124E053FE4F40815181628111
:101700007381848195810E94F4068091CE0190E0DE
:101710000196877099278093CE018091CE01909198
:10172000CF018913DACF2C960FB6F894DEBF0FBE27
:10173000CDBFDF91CF911F91089569857A858B8503
:101740009C850E94F40688CF682F809102019091B9
:1017500003010C944B19682F8091020190910301B1
:101760000C94561980910201909103010C94611917
:10177000809126028595859585950895809126020C
:101780008770089590912602977081E009F480E0B7
:10179000089580914902089590914902892B809380
:1017A00049020895809590914902982390934902A7
:1017B000089510924902089590914802892B8093D0
:1017C000480208958095909148029823909348028A
:1017D000089510924802089580912702089508956F
:1017E0000C94EF0B90919F0292FD08C090912702FC
:1017F000981721F0809327020C94F00B08958091A4
:101800002702882329F01092270280E00C94F00B25
:101810000895CF93DF93E0910201F091030180914D
:1018200049028083E0910201F0910301808190914F
:101830004802892B808390912702992381F0E091BF
:101840000201F09103018081892B80838091020144
:10185000909103010E94B71881110E94FF0BC09163
:101860000201D091030140E250E066E072E0CE0157
:101870000E94C121892B69F080E2FE01A6E0B2E05E
:1018800001900D928A95E1F7CE01DF91CF910C94F2
:101890006318DF91CF91089508950C944C0C9091AA
:1018A0009F0292FD10C098E0899F90011124622B45
:1018B000609326020E947607809126028595859581
:1018C00085950C944D0C0C9476071092260280E0BE
:1018D0000C944D0C909126028095892380932602CA
:1018E000282F277091F4282F082E000C330B921705
:1018F000130659F090919F0292FD07C0859585953A
:1019000085950E9497070C94650C089590919F020D
:1019100092FB222720F9281769F080FB92F9909317
:101920009F0280919E0290919F020E94D10C82E0C2
:101930000C946A0C089580919F0282FB882780F99D
:1019400091E089270C94860C81E00C94860C80E051
:101950000C94860C6FEF7FEF90E080E00C94FA21FE
:1019600090E080E00E94D62121E0893E9E4F09F060
:1019700020E0822F089582E090E00C94CE2183E055
:1019800090E00C94CE21CF9384E090E00E94CE2191
:10199000C82F82E290E00E94CE21982F8C2FCF9109
:1019A0000895CF93C92F682F84E090E00E94DC2136
:1019B0006C2F82E290E0CF910C94DC21AB01BC0152
:1019C0008FE090E00C94EE21AB01BC0183E190E04C
:1019D0000C94EE2160E070E0CB010C94E40C60E02C
:1019E00070E0CB010E94DE0C0C94EA0C69EE7EEFF5
:1019F00090E080E00E94FA2160E082E090E00E94A6
:101A0000DC2160E083E090E00E94DC211092CA01BA
:101A10001092CB011092CC011092CD0160E084E0D5
:101A200090E00E94DC2160E082E290E00E94DC21F4
:101A300060E085E090E00E94DC2160E086E090E0DC
:101A40000E94DC216FEF87E090E00E94DC2140E003
:101A500050E0BA0188E090E00E94EE2160E08DE065
:101A600090E00E94DC2140E050E0BA0188E190E083
:101A70000E94EE2160E087E190E00E94DC2140E0DE
:101A800050E0BA018CE190E00E94EE2170E060E04D
:101A900080E290E00E94FA2140E050E0BA0188E143
:101AA00090E00E94EE210C94EF0C0C94F60C682F41
:101AB0008EE090E00C94DC210E94161A609358028C
:101AC0007093590280935A0290935B026093540280
:101AD000709355028093560290935702089585B7EC
:101AE000806885BF85B7806885BF0895089508958B
:101AF0000C94770D08950C947A0D0E946F0D82E37B
:101B000090E10E944D180E94760D0C94780D81E0B2
:101B100008950C94870D089508950E948B0D0C94E0
:101B20008C0D0E944C100E94CD020C9418160E943D
:101B3000011A0E942E110E94910D0E9471140C94A2
:101B40007B0D4F925F926F927F928F929F92AF9296
:101B5000BF92CF92DF92EF92FF920F931F93CF939A
:101B6000DF93CDB7DEB72A970FB6F894DEBF0FBE6E
:101B7000CDBF0E944311482E81110E945C0D2AE4C2
:101B8000C22E22E0D22E10E000E0812F0E947610BB
:101B90005C01F601E190F1906F01E816F90609F495
:101BA0003EC080915C0281FD0E947F10512C662412
:101BB0006394712CEA24FB244601F2E08F1A910809
:101BC000C70186219721892B21F10E94890D882345
:101BD000B1F05E821F8321E0C50186219721892B08
:101BE00009F420E028870E940A1A8160782F9A87DA
:101BF00089874E815F8168858A850E94EA02F401A7
:101C00008081918186259725918380830F5F08309D
:101C1000E0F45394660C771CFFE05F12D1CF1F5F96
:101C2000153009F0B2CF011110C08FEF89838A837C
:101C30001B820E940A1A8160782F9D838C834981C0
:101C40005A816B818D810E94EA0281E0411001C0BE
:101C500080E02A960FB6F894DEBF0FBECDBFDF91AD
:101C6000CF911F910F91FF90EF90DF90CF90BF9099
:101C7000AF909F908F907F906F905F904F9008955E
:101C80000E94A10D0E9417160E9446130C94DF02B9
:101C9000CF93DF930E94580FEC01811521E5920745
:101CA00008F042C0811530E5930708F09DC0883EDA
:101CB000910530F5803E910508F092C0883A910573
:101CC00088F4853A910508F084C08130910509F4C3
:101CD00087C0009709F484C0049708F081C0D0E061
:101CE000C0E07EC08F3B9105D0F7C85AD0E0CC0F42
:101CF000DD1FC65BDE4F0990D881C02DD46470C053
:101D00008115904250F4C11581E0D80708F068C0F1
:101D1000CD3ED10520F3D06563C0C11590E4D9074D
:101D2000F0F2DF70D06A5CC0811525E5920700F5FE
:101D3000811534E5930708F08BC0811543E59407BE
:101D400008F073C0C11582E5D80708F469C0CE0158
:101D50008370992721E030E002C0220F331F8A955B
:101D6000E2F7C695C69580E2C89FE001112454C0F1
:101D7000C11599E5D907A8F4C11528E5D20708F0DF
:101D80006CC0C11536E5D30708F0A9CF8C2F0E948F
:101D9000EF0FC82FD0E0DC2FCC27CC27DF71D0622B
:101DA0001FC0C1154AE5D40708F45CC0CE019056A7
:101DB0008115904208F093CF8D2F8F710E94EF0F05
:101DC00090E0982F882788279F719C012C2BE90190
:101DD000E6CFC55AD0E0C858DE4FC881D0E0D06405
:101DE000CE01DF91CF910895E4E096958795EA952D
:101DF000E1F783702C2F26952695237040E2249FCF
:101E000090011124382B8C2F8370C1E0D0E002C0E8
:101E1000CC0FDD1F8A95E2F7C22BD32BDC68E0CF15
:101E2000DC2FCC27C16FD06ADBCF8370992721E0EC
:101E300030E002C0220F331F8A95E2F7C695C6959F
:101E400090E2C99FE0011124C22BD32BDA68C8CFDE
:101E5000D82FCC27C46FD06AC3CFDC2FCC27C06F5C
:101E6000D06ABECF8C2F8F700E94EF0F34E0D695D2
:101E7000C7953A95E1F7CF709C2FEC01D069B0CFB0
:101E8000972F70E02FE0929F600D711D1124FB01D0
:101E90009BE4899FE00DF11D1124EE0FFF1FE45517
:101EA000FF4F8591949108950E94400F0C94480E25
:101EB00082389105B1F1B0F48133910509F475C010
:101EC00048F48932910509F469C08A32910509F410
:101ED00073C008958533910509F459C0893391057C
:101EE00001F10895833E9105A9F138F4803E9105F2
:101EF000F9F0823E910549F10895863E9105A9F1D8
:101F0000873E9105C9F1843E910519F520919F0204
:101F100021FF1FC080919E0284FD14C087EE90E0D7
:101F2000089520919E022370A1F080EE90E0089524
:101F300020919E0220FD47C030919F0230FF09C0D2
:101F400024FF44C090E080E004C020919E0222FD66
:101F5000F7CF089520919E0222FD3BC030919F0251
:101F600030FDE3CF24FFF5CFEDCF20919E0223FF7C
:101F7000F0CF24FDE7CFD2CF20919E0223FD2CC0CD
:101F800030919F0231FFEECF84EE90E008952091D2
:101F90009E0225FFDECF89E290E0089520919E0207
:101FA00025FFD7CF85E390E0089520919E0226FF7C
:101FB000D0CF8AE290E0089520919E0226FFC9CFFB
:101FC00081E390E0089589E390E0089583EE90E046
:101FD000089582EE90E0089586EE90E00895909145
:101FE0009E0292FF06C0282F28712830F9F4877FBF
:101FF000846093FF06C0282F28712831F1F4877E72
:10200000846120919F0220FF06C0382F387138303C
:10201000D9F4877F816021FF06C0282F28712831DD
:10202000D1F4877E816194FD877E0895282F2471E5
:102030002430F9F68B7F8860DCCF282F247124317F
:1020400001F78B7E8861DDCF382F3171313019F780
:102050008E7F8860E0CF282F2171213121F78E7E7D
:102060008861E1CF80E008950C94AA0C0E9443118E
:102070008FE39CE90197F1F700C000000E94431133
:1020800080E00E94761080FF04C00E9434100C94FF
:10209000551A08950C9436100E94B00C811102C09C
:1020A0000E94550D0E94BB0C80935C020E94C30CE1
:1020B00090939F0280939E020E944A100E94BF0C40
:1020C000682F70E090E080E00E9414076091C601E4
:1020D0007091C7018091C8019091C9010C944E077D
:1020E00008950C94701008950C947310E82FF0E08C
:1020F000EE0FFF1FE655FD4F8081918108950895F1
:1021000080EA8A95F1F7089500C008950C94801034
:10211000F894E82FE295EF70F0E031A1282F2F70AE
:1021200081E090E001C0880F2A95EAF7982F9095FA
:10213000932391A392A1892B82A3789408950F935E
:102140001F93CF93DF93CAE8D1E089918F3F11F0BD
:102150000E94881081E0CF38D807B9F7CBE7D1E0EB
:102160000AE811E089918F3F11F00E9488100C1746
:102170001D07C1F7DF91CF911F910F910895AF9285
:10218000BF92DF92EF92FF920F931F93CF93DF9353
:102190008C01D62EC62FD0E0CE0186579E4F7C01F3
:1021A000FC0120812F3F09F44CC0F894E22FE29506
:1021B000EF70F0E031A12F7081E090E001C0880F56
:1021C0002A95EAF7932F982B91A392A180958923C2
:1021D00082A378940E948410EBE7F1E041E050E0A4
:1021E000B12CA12C21912F3FB1F1A22FA295AF705C
:1021F000B0E090968C9190E02F7002C095958795F5
:102200002A95E2F780FD27C0CA01A82AB92A440FFF
:10221000551F81E0EA38F80729F7F70180818F3FE1
:1022200011F00E94881061E0A114B10409F460E08B
:102230008D2D0E948610CC0FDD1FC00FD11FB982DB
:10224000A882DF91CF911F910F91FF90EF90DF90C7
:10225000BF90AF90089590E080E0D7CF0E949F108C
:102260008AE0EAEAF2E0DF01982F1D929A95E9F7F9
:10227000E0EAF2E0DF011D928A95E9F785E00E942D
:102280008E110C944202FF920F931F93CF93DF9312
:10229000CDB7DEB72A970FB6F894DEBF0FBECDBF1D
:1022A0008E010F5F1F4F8AE0F80111928A95E9F7BE
:1022B000F12C6F2DC8010E94BF10F394F5E0FF12BE
:1022C000F8CF4AE050E0B80180EA92E00E94C121D4
:1022D000FF24F394009709F4F12C892B41F08AE054
:1022E000F801A0EAB2E001900D928A95E1F72F2D56
:1022F00045E06AEA72E080EA92E00E948F110E9453
:1023000044028F2D2A960FB6F894DEBF0FBECDBFC4
:10231000DF91CF911F910F91FF9008950895FF9243
:102320000F931F93CF93DF93F82E092F162FD72FDC
:10233000C42F222349F081E080935F020E940A1A91
:1023400090935E0280935D0280915F028823A1F0EA
:1023500080915D0290915E020E94221A059760F0C2
:10236000EF2DF02FA12FBD2F90E080E0D0E08C1753
:102370009D0744F010925F02DF91CF911F910F9162
:10238000FF900895219131912D933D930196EFCFC8
:102390000E941B1C0E94970D0C94271C0E942B1C52
:1023A0000E94400E0C94451C0E94AA190E94021C17
:1023B0000E947D0D0E94C8110E94CE110E948D0DB9
:1023C000FBCF8091660280FF0DC06091090170E033
:1023D000660F771F6038710570F56115710569F139
:1023E000862F089581FF07C06091090184E0689FEE
:1023F000B0011124EFCF6091090182FD0AC08091E4
:1024000065028823A9F020910801609109018217D3
:1024100010F088E0ECCF869FC001112433E0880FD4
:10242000991F3A95E1F7622F70E00E946B21D2CF9D
:1024300068E070E0D5CF8FE7089581E0089580913E
:10244000660280FF0CC06091050170E0759567958C
:10245000759567956115710549F1862F089581FF7E
:1024600006C06091050170E075956795F3CF6091A6
:10247000050182FD0BC0909164029923A1F0609147
:10248000040180910501961738F0682F70E06038DC
:10249000710500F38FE70895899FC001112470E052
:1024A0000E946B21F4CF61E070E0D7CF81E0089506
:1024B0008D3E31F40E94E111819580936A02089566
:1024C0008E3E19F40E94E111F8CF8F3E31F40E9444
:1024D000E1118195809369020895803F19F40E946B
:1024E000E111F8CF893F29F40E941F1280936B02FB
:1024F00008958A3F21F40E941F128195F7CF8B3FE8
:1025000031F40E941F12819580936C0208958C3FD4
:1025100019F40E941F12F8CF9FE0980F983070F4C2
:10252000815F990B21E030E001C0220F8A95EAF724
:1025300080916802822B8093680208958D3F31F468
:102540008091660281608093660208958E3F21F437
:10255000809166028260F7CF8F3FB9F78091660263
:102560008460F1CF409169028D3E59F480916A02F6
:1025700087FF0DC010926A0241110BC010926502D4
:1025800008C08E3E81F480916A0218169CF34423A1
:1025900081F080916B0290916C02892B09F05AC0F6
:1025A0001092640208958F3E49F447FFF0CF1092D5
:1025B000690280916A028111ECCFE0CF803F19F46B
:1025C0001416ACF3E4CF90916B02893F29F41916ED
:1025D000F4F610926B02DBCF8A3F19F497FFD7CF46
:1025E000F8CF90916C028B3F29F497FFD0CF1092D7
:1025F0006C02CDCF8C3F19F41916CCF3C8CF9FE0F5
:10260000980F983090F4815F990B21E030E0B90188
:1026100002C0660F771F8A95E2F7CB0180959091F3
:102620006802892380936802B2CF8D3F31F4809194
:1026300066028E7F80936602AACF8E3F21F480913E
:1026400066028D7FF7CF8F3F09F0A1CF80916602A0
:102650008B7FF0CF08950E940A1A9C019091690225
:1026600080916A02982B21F03093630220936202DA
:1026700090916B0280916C02982B21F03093610253
:102680002093600287E692E00C947D18EF92FF920F
:102690000F931F93CF93DF9300D000D000D0CDB71E
:1026A000DEB786E0E7E6F2E0DE01119601900D92DA
:1026B0008A95E1F7E0906902F0906A0200916B025E
:1026C00010916C021092690210926A0210926B02D1
:1026D00010926C028E2D8F2991F080916202909160
:1026E00063020E94221AAC0190916502992309F4B9
:1026F0003FC080910A018417150608F447C0802F57
:10270000812B91F080916002909161020E94221AC7
:10271000AC0190916402992309F477C0809106017D
:102720008417150608F47FC08091690290916A02AF
:10273000892B90916B02892B90916C02892B11F05F
:102740000E942B1386E0FE013196A7E6B2E00190CD
:102750000D928A95E1F726960FB6F894DEBF0FBE6C
:10276000CDBFDF91CF911F910F91FF90EF90089512
:1027700020910B018AE0289F90011124241735072E
:1027800008F0BDCF9F5F9093650202C09F3FD1F7D5
:10279000EE2059F00E94E1119FEF1E140CF491E01D
:1027A000899F802D112480936902FF2059F00E9497
:1027B000E1119FEF1F140CF491E0899F802D1124EB
:1027C00080936A0230916902332309F498CF2091F3
:1027D0006A02222309F493CF45EB3403C00111248C
:1027E000992359F09093690245EB24039001112439
:1027F000332339F030936A0282CF81E080936902FB
:10280000F3CF81E080936A027ACF209107018AE0BA
:10281000289F900111242417350708F085CF9F5F6A
:102820009093640202C09F3FD1F7002359F00E94A9
:102830001F129FEF10160CF491E0899F802D112438
:1028400080936B02112359F00E941F129FEF111603
:102850000CF491E0899F802D112480936C023091BB
:102860006B02332309F460CF20916C02222309F418
:102870005BCF45EB3403C0011124992359F09093A9
:102880006B0245EB240390011124332339F030937C
:102890006C024ACF81E080936B02F3CF81E080939A
:1028A0006C0242CF86E0E7E6F2E0DF011D928A95F6
:1028B000E9F7109265021092640210926602089580
:1028C00086E090E00C94CE21682F86E090E00C9496
:1028D000DC21E4EBF2E080818470896280830C94D7
:1028E00064140E94B00C811104C00E94550D0E9416
:1028F00069140E9460148093B402803320F08770C2
:1029000088628093B4029091B402892F817090FF05
:1029100004C0892F8695869586950C9471158091B3
:10292000B402982F969596959695953040F49F5FB2
:10293000990F990F990F8770892B8093B40280911A
:10294000B40281608093B4020E9464148091B40246
:102950008695869586950C9471158091B402982F72
:10296000987F79F088508093B402887F91E009F4D1
:1029700090E08091B40290FB80F98093B4020E94B1
:1029800064148091B4028695869586950C94711591
:102990008091B40280FD13C081608093B4028130C5
:1029A00019F489E08093B4028091B4020E94641407
:1029B0008091B4028695869586950C94711508953C
:1029C0008091B40280FF08C08E7F8093B4020E9481
:1029D000641480E00C94711508958091B40280FD18
:1029E0000C94E0140C94C8149091B402892F86952D
:1029F000869586958F5F8F7197708630D8F4880F93
:102A0000880F880F892B8093B4028091B402887F4D
:102A100091E009F490E08091B40290FB80F98093FA
:102A2000B4020E9464148091B402869586958695BE
:102A30000C9471159093B402E8CF863008F085E0CD
:102A40009091B4029770282F220F220F220F922B01
:102A50009093B402987F21E009F420E09091B402B1
:102A600020FB90F99093B4020C9471150E941D15EF
:102A70008091B4020C9464149C01FB018281882330
:102A800049F12E3BFCE53F07C9F040F42C3BECE557
:102A90003E0769F02D3B3C4579F00895203C9CE5CC
:102AA000390791F070F0213C3C4589F0089585E0AC
:102AB0000E94361580E0089580E0FACF0E94AD14A0
:102AC000F9CF0E948F14F6CF0E94ED14F3CF0E942D
:102AD000F414F0CF81E00895269A2E9808952E9848
:102AE00008958F929F92AF92BF92EF92FF920F93B1
:102AF0001F93CF93DF93C82F8630C0F5811137C065
:102B0000809180008F7D809380000E946F15A0913E
:102B10008600B09187002C2F30E00E94A72125E08D
:102B200030E040E050E00E947F2189019A018091CD
:102B30008600909187006CE070E00E94572160173A
:102B40007107D8F0C80169E070E00E9457217093C6
:102B50008B0060938A00DF91CF911F910F91FF90BE
:102B6000EF90BF90AF909F908F900895C5E08091B7
:102B70008000806280938000CACF8091860090910F
:102B80008700E0908600F0908700E0918600F09149
:102B90008700C6E0D0E0BE010E945721060F171F34
:102BA000211D311D4801590185E0880C991CAA1C82
:102BB000BB1C8A95D1F7C701BE010E9457219F0116
:102BC00050E040E0260F371F411D511DC501B401E3
:102BD0000E947F2149015A01E0918600F09187000F
:102BE000CA01B9010E9447219B01AC01DF010E948B
:102BF000B6219B01AC01C501B4010E9447212FE021
:102C000096958795779567952A95D1F700918600D7
:102C10001091870030E020E00617170728073907D2
:102C200008F095CF609186007091870090CF08954D
:102C30000E946C1582E28093800089E1809381007C
:102C40008FEF9FEF90938700809386000C94711410
:102C5000CF93DF93EC01FB018281882309F433C118
:102C6000C430FDE5DF07C0F5CB3F9CE5D90730F464
:102C70009E0122503C4524313105B0F50E94C30C21
:102C800090939F0280939E02C1318CE5D80709F48E
:102C9000EEC008F069C0C930ECE5DE0709F4D5C024
:102CA000C8F5C5308CE5D80709F4C7C000F5C330B6
:102CB000ECE5DE0709F4B9C008F0BBC0C230DC4562
:102CC00009F4ADC080919E0290919F020E94D10CA8
:102CD0000E94BF0680E008C0C236EDE5DE0771F253
:102CE000C63AFDE5DF0751F2DF91CF91089580915B
:102CF0009E028062C7309CE5D90709F493C0809199
:102D00009E028061C830DC4508F48CC080919E0230
:102D1000806488C080919E028B7FCD30FCE5DF0708
:102D200009F480C098F480919E028E7FCB309CE5A0
:102D3000D90709F477C080919E028C60CC30DC45C5
:102D400008F470C080919E028D7F6CC080919E02BD
:102D50008F7ECF30FCE5DF0709F464C008F47BC048
:102D600080919E028F7D5EC0CE3F9CE5D90709F41D
:102D70007AC050F5C531FCE5DF0709F486C098F448
:102D800080919E02837FC3319CE5D90709F44AC034
:102D900008F471C00E94BF0690919E02892F97FB94
:102DA00087F980583FC0CC3FFCE5DF0709F449C0F4
:102DB00008F055C080919F028160CB3FDC4509F04F
:102DC00081CF80939F027ECFC230EDE5DE0709F40C
:102DD00068C0A8F4C1158DE5D80709F452C08091E8
:102DE0009F028360C130DD4560F380919F02982F80
:102DF000909591708E7F892B90FB81F9E2CFC2363E
:102E0000EDE5DE0709F451C0C63AFDE5DF0709F438
:102E100053C0C330DD4509F055CF80E043C08091F9
:102E20009E02816080939E024DCF80919E028260BF
:102E3000F9CF80919E028460F5CF80919E028860D8
:102E4000F1CF80919F028260BCCF0E94BF0680912B
:102E50009E028068E7CF80919E02877FE3CF8091BA
:102E60009F028E7FAECF80919F028D7FAACF8091EF
:102E70009E028F7BD7CF0E94BF0680919E028F77E4
:102E8000D1CF80919F028C7F9CCF80919E0282FB4C
:102E9000992790F921E0922790FB82F990FB83F922
:102EA000C1CF81E00E94570D0DCF90919E02892FD6
:102EB0008F7E94FF8061B6CF90919E02892F8E7F86
:102EC00090FF8160AFCF81E00FCFCF93DF93EB0115
:102ED00086319C4511F50E94C90B9A81992399F07E
:102EE0008A7A91E009F490E090936D02811109C013
:102EF00089E20E94A40B0E94090C80E0DF91CF912F
:102F0000089585E3F6CF80916D02811104C089E2B6
:102F10000E94AB0BF0CF85E3FBCF81E0EFCF0F93A7
:102F20001F93CF93DF93C42FD22FFC01828188237C
:102F3000C9F0409370020E940A1A90936F02809326
:102F40006E0280E28C0F883008F050C0C77081E0BC
:102F500001C0880FCA95EAF7DF91CF911F910F91B9
:102F60000C94340410917002141335C080916E02D9
:102F700090916F020E94221A883C910560F5C0E290
:102F8000CD0F1D17B9F080E2810F883040F4177023
:102F900081E001C0880F1A95EAF70E943B04C8300F
:102FA00048F481E09D2F977001C0880F9A95EAF749
:102FB0000E943404802F0E942C04C830B8F4D770CB
:102FC00081E001C0880FDA95EAF7DF91CF911F9178
:102FD0000F910C943B0480E28C0F883038F4C7705A
:102FE00081E001C0880FCA95EAF7EFCFDF91CF915A
:102FF0001F910F9108950F939C01CB01243F4CE545
:10300000340759F1A8F4293DFCE53F0701F12A3DB9
:103010004CE53407D1F1283D3C4591F406E221EE20
:1030200041EE68ED7CE50E948F1780E00F910895D6
:10303000263FFCE53F07E9F0B0F0273F3C45F9F0BB
:10304000FC018281882339F110927002EFCF07E2F0
:1030500025EE45EE69ED7CE5E6CF06E221EE40EE99
:1030600064EF7CE5E0CF07E225EE44EE65EF7CE51A
:10307000DACF06E221EE42EE66EF7CE5D4CF07E23E
:1030800025EE46EE67EF7CE5CECF08E221E045EE87
:103090006AED7CE5C8CF81E0C9CF90939101809320
:1030A0009001089590937602809375020895E091BF
:1030B0007502F0917602309721F00190F081E02DB9
:1030C000099480E00895E0917502F09176023097BE
:1030D00099F020911801222359F020919E0227FF98
:1030E00007C0DC012C9111962C93119726E02C93AC
:1030F0000280F381E02D09940895E0917502F0912A
:103100007602309739F022E0DC012C930480F581BF
:10311000E02D0994089520917302309174022817CC
:10312000390771F09093740280937302E0917502F5
:10313000F0917602309721F00680F781E02D099416
:10314000089520917102309172022817390771F0A9
:103150009093720280937102E0917502F091760271
:10316000309721F00084F185E02D09940895FC0149
:10317000329680911801882321F080919E029EE171
:1031800087FF96E080E0915008F408952191222372
:10319000D1F38F5FF8CF662301F12091180122232C
:1031A000F1F020919E0227FF1AC0462F46954695C2
:1031B00046954E3190F4677021E030E002C0220F56
:1031C000331F6A95E2F7840F911DFC01828190E024
:1031D0002823392381E0232B69F480E00895FC0142
:1031E000329608962191261721F0E817F907D1F7B2
:1031F000F4CF81E008959C01FC0132969FEF80E0BE
:103200004191461751F09F3F19F4411101C0982F89
:103210008F5F8630A9F79F3F09F40895290F311D6C
:1032200097FD3A95F90162830895FC01329608965C
:103230002191261303C0DF0111971C92E817F907AB
:10324000B9F70895E62FE695E695E695EE3168F430
:10325000E80FF92FF11D677021E030E001C0220F67
:103260006A95EAF78281822B82830895E62FE6959C
:10327000E695E695EE3170F4E80FF92FF11D6770D1
:1032800021E030E001C0220F6A95EAF720958281A3
:1032900028232283089520911801222329F02091C8
:1032A0009E0227FD0C9422190C94FB182091180102
:1032B000222329F020919E0227FD0C9436190C94AC
:1032C0001519FC01329680911801882351F08091E4
:1032D0009E0287FF06C08EE1DF011D928A95E9F705
:1032E000089586E0F9CF08950C947319811105C0F3
:1032F00081E0809377020C94741982E0FACF83E026
:10330000809377020C9474190C94761981E0809361
:1033100077020C9474190C948619089508950C94EE
:103320008E19089508950C948D19CF930E949119C8
:103330000E9443110E949219C0E08C2F0E947610C7
:10334000892B31F4CF5FC530C1F780E0CF9108956C
:1033500081E0FCCF08951F921FB61F9211248F9316
:103360009F93AF93BF9380917802811113C0809196
:10337000B5029091B602A091B702B091B802419601
:10338000A11DB11D8093B5029093B602A093B70220
:10339000B093B802BF91AF919F918F911F901FBEC4
:1033A0001F9018958091BD02843031F10E94AE02C9
:1033B0001092780288E190E020E40FB6F894A89586
:1033C000809360000FBE2093600083B7817F84608C
:1033D00083BF83B7816083BF7894889583B78E7FDE
:1033E00083BF0FB6F894A8958091600088618093A0
:1033F0006000109260000FBE08950E94BF060C94FA
:10340000B50282E084BD93E095BD9AEF97BD8093AD
:103410006E0008952FB7F8948091B5029091B6028E
:10342000A091B702B091B8022FBF08952FB7F894BA
:103430006091B5027091B6028091B7029091B80286
:103440002FBF08959C014FB7F8948091B5029091D9
:10345000B602A091B702B091B8024FBF821B930B86
:10346000089578941F921FB61F9211248F939F93F3
:10347000AF93BF938091B5029091B602A091B7022D
:10348000B091B8020196A11DB11D8093B502909331
:10349000B602A093B702B093B802BF91AF919F91CB
:1034A0008F911F901FBE1F90189581E08093E000C0
:1034B00080E28093D8001092C9008FE19EE40197CA
:1034C000F1F700C0000087E090EBDC018093C602BA
:1034D0009093C702A093C802B093C90288E19CE010
:1034E0000FB6F894A895809360000FBE909360008B
:1034F000FFCF80919C02089508959C0182E0809303
:10350000E9009FEF8091E800915085FD06C085EDB0
:103510008A95F1F700009111F5CF8091E80085FFC1
:103520000CC050E040E066E070E0C9010E94B61CAB
:103530008091E8008E778093E8000895CF93DF9321
:10354000EC01809118018823B1F180919E0287FFE0
:1035500032C060E282E08093E9008FEF9091E80052
:10356000815095FD06C095ED9A95F1F70000811107
:10357000F5CF8091E80085FF1BC08091180170E0B5
:1035800050E040E0811104C050E040E068E070E0AD
:10359000CE010E94B61C8091E8008E778093E800EF
:1035A00080E2FE01ACE7B2E001900D928A95E1F76E
:1035B000DF91CF91089568E081E0CDCF80937902CB
:1035C00070937B0260937A028091BD02843001F592
:1035D00082E08093E9008FEF9091E800815095FDA3
:1035E00006C095ED9A95F1F700008111F5CF809115
:1035F000E80085FF0DC050E040E063E070E089E73F
:1036000092E00E94B61C8091E8008E778093E800DB
:103610000895BC0184E00C94DE1ABC0183E00C9494
:10362000DE1A8091BC02811109C00E94461E0E94D0
:10363000A31E8091E20084608093E20008951092BE
:10364000BC0208950C9486196091B90281E0611161
:1036500001C080E00C947F199091BD0281E094300C
:1036600009F080E06091B9020C94841942E061ECA9
:1036700081E00E94C21D42E261EC82E00E94C21D14
:103680009091BD0281E0943009F080E06091B90230
:103690000C9476198091BF02833009F460C030F435
:1036A0008130C9F1823009F49CC008958A3009F450
:1036B00088C08B3009F46EC0893009F04FC080910A
:1036C000BE02813209F04AC08091C2029091C302C9
:1036D000029708F043C08091E800877F8093E8005C
:1036E0008091E80082FF36C09091F3008091F20053
:1036F000029731F48091F100813011F0863021F48D
:103700008091F10080939C028091E8008B778093F8
:10371000E8000C94F61D8091BE02813AF9F4809184
:10372000E800877F8093E8008091C2029091C302F5
:10373000892B61F460E28CE792E070E00E94051D45
:103740008091E8008B778093E800089560E090E036
:1037500080E0F3CF8091BD028111C2CF08958091A6
:10376000BE02813AD9F78091C2029091C302892B9F
:10377000A9F78091E800877F8093E8008091E800B6
:1037800080FFFCCF809118018093F1008091E800C8
:103790008E77BDCF8091BE02813201F78091C20247
:1037A0009091C302892BD1F68091E800877F8093A6
:1037B000E8000E94F61D8091C002809318010C94CD
:1037C000BF068091BE02813249F68091E800877F72
:1037D0008093E8000E94F61D8091C10280939D02B3
:1037E00008958091BE02813A09F0B8CF8091E80037
:1037F000877F8093E8008091E80080FFFCCF809174
:103800009D02C2CF84B7877F84BF0FB6F894A89576
:1038100080916000886180936000109260000FBE0C
:1038200080E890E00FB6F894809361009093610077
:103830000FBE0C948B190E94461E0E94A31EE2EE3E
:10384000F0E080818460808378940C942C218CE05B
:1038500091E00C9452188091BD028530A9F48091BA
:10386000BD02853011F00C94FD190E94D21980918F
:10387000BB028823A1F30E949519882381F30E943B
:10388000A01C0E94BF06EBCF089508950C94481C1D
:10389000292F33272330310519F168F42130310500
:1038A00009F444C02230310509F445C090E080E0BD
:1038B00030E020E025C02132310549F122323105C6
:1038C000A9F780E490E02BE233E061157105C1F0C7
:1038D00086EB90E025E732E06130710589F0E6CFB4
:1038E00099278130910581F0009729F00297F1F630
:1038F000E8EDF1E002C0E4E2F2E0849190E09F01A3
:10390000FA01318320830895E2E1F2E0F6CF89E005
:1039100090E02AE332E06115710591F389E090E0CF
:1039200023E532E06130710559F3C0CF82E190E0C8
:1039300023E632E0E5CF8BE390E028E232E0E0CF0F
:1039400080E189BD82E189BD09B400FEFDCF80918F
:10395000D8008F7D8093D8008091E00082608093B2
:10396000E0008091E00081FDFCCF0895AF92BF920E
:10397000CF92DF92FF920F931F93CF93DF936C014F
:10398000EB018A010E94151EF82E811123C001153A
:10399000110539F0F80180819181C81BD90BC80E3F
:1039A000D91EB12CA12C2097A9F08091E80085FDAB
:1039B00022C08091E8008E778093E8000115110500
:1039C000A1F0F80180819181A80EB91EB182A08278
:1039D00085E0F82E8F2DDF91CF911F910F91FF90F1
:1039E000DF90CF90BF90AF9008950E94151E88235E
:1039F000D1F2F82EEFCFF60181916F018093F100A3
:103A00002197FFEFAF1ABF0ACECFFC018091C4020D
:103A10009091C50286179707A0F06115710529F4EA
:103A20009091E8009E779093E80090E06115710511
:103A300051F4911108C08091E80082FF34C080E009
:103A40000895BC01F2CF8091BD028823C1F1853079
:103A5000C1F18091E80083FD30C08091E80082FDD3
:103A6000EACF8091E80080FFE1CF8091F3002091C0
:103A7000F200382F6115710519F02830310558F022
:103A800091E02830310509F090E02091E8002E7790
:103A90002093E800CBCF81918093F10061507109B0
:103AA0002F5F3F4FE7CF8091BD02882341F08530E3
:103AB00041F08091E80083FFBECF81E0089582E06D
:103AC000089583E00895FC018091C4029091C5029D
:103AD00086179707A0F06115710529F48091E80019
:103AE0008E778093E80090E06115710551F4911193
:103AF00008C08091E80082FF35C080E00895BC01D5
:103B0000F2CF8091BD028823C9F18530C9F180913F
:103B1000E80083FD31C08091E80082FDEACF80910A
:103B2000E80080FFE1CF8091F3002091F200382F70
:103B30006115710519F02830310558F091E02830F1
:103B4000310509F090E08091E8008E778093E800DD
:103B5000CBCF84918093F1003196615071092F5F32
:103B60003F4FE6CF8091BD02882341F0853041F080
:103B70008091E80083FFBDCF81E0089582E0089541
:103B800083E00895982F973028F08F708093E90094
:103B900081E008959093E900242F762F50E0981744
:103BA00031F07091EC002091ED005091F00021FD7A
:103BB00002C09F5FE8CF3091EB003E7F3093EB0077
:103BC0003091ED003D7F3093ED003091EB0031609E
:103BD0003093EB007093EC002093ED005093F000D5
:103BE0002091EE0027FDE5CF80E008958091BE0290
:103BF00087FF13C08091E80082FF06C08091E80033
:103C00008B778093E80004C08091BD028111F2CFD0
:103C100008958091BD028823D9F38091E80080FF48
:103C2000F8CF8091E8008E77ECCF2091E4003091BE
:103C3000E50095E6A9012091EC00822F817020FF1C
:103C400006C08091E80080FF06C080E008952091C2
:103C5000E80022FD1AC08091BD02882389F08530DA
:103C600089F08091EB0085FD0FC02091E400309138
:103C7000E50042175307F9F29150E1F684E0089508
:103C800082E0089583E0089581E008950E94B41EC3
:103C90000E94BC1EE0EEF0E0808181608083E8ED50
:103CA000F0E080818F77808319BCA7EDB0E08C9124
:103CB0008E7F8C9380818F7E80831092BC020895CA
:103CC0000F931F93CF93DF930E94B41E0E94BC1EDC
:103CD000C8EDD0E088818F77888388818068888369
:103CE00088818F7D888319BC1092BD021092B90221
:103CF0001092BB021092BA0200EE10E0F80180812F
:103D00008B7F808388818160888342E060E080E0EF
:103D10000E94C21DE1EEF0E080818E7F8083E2EEA2
:103D2000F0E0808181608083808188608083F801F9
:103D300080818E7F8083888180618883DF91CF91AD
:103D40001F910F910895E8EDF0E080818F7E8083D0
:103D5000E7EDF0E080818160808384E082BF81E0D4
:103D60008093BC020C94601EE8EDF0E080818E7FB1
:103D700080831092E20008951092DA001092E10020
:103D800008951F920F920FB60F9211242F933F9315
:103D90004F935F936F937F938F939F93AF93BF9353
:103DA000EF93FF938091E10082FF0BC08091E200CE
:103DB00082FF07C08091E1008B7F8093E1000E9429
:103DC0002B218091DA0080FF19C08091D80080FFFC
:103DD00015C08091DA008E7F8093DA008091D9003F
:103DE00080FF96C080E189BD82E189BD09B400FEF3
:103DF000FDCF81E08093BD020E94111B8091E10004
:103E000080FF19C08091E20080FF15C08091E20020
:103E10008E7F8093E2008091E20080618093E200D7
:103E20008091D80080628093D80019BC85E080938F
:103E3000BD020E94241B8091E10084FF2BC0809171
:103E4000E20084FF27C080E189BD82E189BD89B598
:103E5000982F917080FFFBCF8091D8008F7D809349
:103E6000D8008091E1008F7E8093E1008091E20094
:103E70008F7E8093E2008091E20081608093E20077
:103E80008091B902882309F449C084E08093BD027F
:103E90000E942C1B8091E10083FF29C08091E200E9
:103EA00083FF25C08091E100877F8093E10082E05D
:103EB0008093BD021092B9028091E1008E7F8093C1
:103EC000E1008091E2008E7F8093E2008091E20029
:103ED00080618093E20042E060E080E00E94C21DC9
:103EE0008091F00088608093F0000E94221BFF9177
:103EF000EF91BF91AF919F918F917F916F915F9162
:103F00004F913F912F910F900FBE0F901F901895DA
:103F100019BC1092BD020E941F1B70CF8091E3005C
:103F200087FD93E09093BD02B3CF1F920F920FB61F
:103F30000F9211242F933F934F935F936F937F932F
:103F40008F939F93AF93BF93CF93DF93EF93FF93A1
:103F5000D091E900DF708091EC00C82FC17080FD26
:103F6000C0E81092E9008091F000877F8093F00014
:103F700078940E94D91F1092E9008091F000886027
:103F80008093F000CD2BCF70C093E900FF91EF91AB
:103F9000DF91CF91BF91AF919F918F917F916F9161
:103FA0005F914F913F912F910F900FBE0F901F90F7
:103FB00018951F93CF93DF93CDB7DEB7AA970FB6AF
:103FC000F894DEBF0FBECDBF8EEB92E02091F100E2
:103FD000FC012193CF01F2E0863C9F07B9F70E94D4
:103FE0004A1B8091E80083FF1EC18091BE02909120
:103FF000BF029A3008F017C1E92FF0E0E25EFD4DF4
:104000000C94A121803899F0823809F00CC180917C
:10401000C2028F70873008F006C18093E90080915A
:10402000EB0085FB882780F91092E90006C080919B
:10403000BA029091BB02911182609091E800977F43
:104040009093E8008093F1001092F1008091E800D5
:104050008E77E5C0882309F4D3C0823009F0E3C02D
:104060008091C0028111D6C08091C2028F702FEF63
:10407000280F263008F0D7C08093E9002091EB008C
:1040800020FFC8C0933031F48091EB0080628093B0
:10409000EB00C0C09091EB0090619093EB0021E0A9
:1040A00030E001C0220F8A95EAF72093EA001092CF
:1040B000EA008091EB008860EACF8111B4C01091D2
:1040C000C0021F778091E3008078812B8093E3000A
:1040D0008091E800877F8093E8000E94F61D809120
:1040E000E80080FFFCCF8091E30080688093E300CC
:1040F00082E0111183E08093BD0295C08058823028
:1041000008F091C08091C0029091C1028C3D23E0E3
:104110009207A1F583E08A838AE289834FB7F894F6
:10412000DE01139620E03EE051E2E32FF0E05093F1
:104130005700E49120FF03C0E295EF703F5FEF70FE
:104140008E2F90E0EA30C0F0C7968D939D932F5F3D
:10415000243159F74FBF8091E800877F8093E800B2
:104160006AE270E0CE0101960E94051D8091E80090
:104170008B778093E80057C0C096E7CF6091C2026A
:104180007091C302AE014F5F5F4F0E94461CBC019D
:10419000892B09F448C09091E800977F9093E8003C
:1041A00089819A810E94631DE1CF8038E1F5809179
:1041B000E800877F8093E8008091B9028093F10046
:1041C00045CF811130C09091C002923060F580914E
:1041D000E800877F8093E8009093B9020E94F61D63
:1041E0008091B902882311F084E005C08091E3003A
:1041F00087FDFACF81E08093BD020E94361B13C079
:104200008091C002813079F481E0933009F080E040
:104210008093BB021092E9008091E800877F809331
:10422000E8000E94F61D8091E80083FF0AC080919B
:10423000E800877F8093E8008091EB0080628093A4
:10424000EB00AA960FB6F894DEBF0FBECDBFDF918C
:10425000CF911F9108950895CF938091BD02882337
:10426000A1F0C091E900CF709091EC00892F81708E
:1042700090FD80E8C82B1092E9008091E80083FD52
:104280000E94D91FCF70C093E900CF910895DB0140
:104290008F939F930E94B621BF91AF91A29F800DF3
:1042A000911DA39F900DB29F900D11240895AA1BFC
:1042B000BB1B51E107C0AA1FBB1FA617B70710F011
:1042C000A61BB70B881F991F5A95A9F78095909543
:1042D000BC01CD01089597FB072E16F4009407D07A
:1042E00077FD09D00E94572107FC05D03EF4909538
:1042F00081959F4F0895709561957F4F0895A1E234
:104300001A2EAA1BBB1BFD010DC0AA1FBB1FEE1F4F
:10431000FF1FA217B307E407F50720F0A21BB30B9A
:10432000E40BF50B661F771F881F991F1A9469F716
:1043300060957095809590959B01AC01BD01CF0172
:104340000895EE0FFF1F0590F491E02D0994A29FB0
:10435000B001B39FC001A39F700D811D1124911D59
:10436000B29F700D811D1124911D08950E94A721F7
:10437000A59F900DB49F900DA49F800D911D1124B9
:104380000895FB01DC0104C08D910190801921F496
:1043900041505040C8F7881B990B0895F999FECFFA
:1043A00092BD81BDF89A992780B50895A8E1B0E043
:1043B00042E050E00C940222262FF999FECF92BDE4
:1043C00081BDF89A019700B4021639F01FBA20BDDA
:1043D0000FB6F894FA9AF99A0FBE08950396272F0C
:1043E0000E94DD210E94DC21252F0E94DD21242F47
:1043F0000C94DD210196272F0E94DD210C94DC21F5
:10440000DC01CB01FC01F999FECF06C0F2BDE1BD94
:10441000F89A319600B40D9241505040B8F7089583
:10442000F894FFCF80048004B104B1044405600512
:10443000E004E0046B05F7050606060602202A20C4
:1044400013212A2013215D207E201321D520E12075
:10445000C8002802280850011E0A1401791A9E1A61
:104460007D1A0D1B091B7C1A01E200E900EA00B568
:1044700000B600B700CD008301CC008A0192019400
:10448000012102230224022502260227022A02B366
:1044900000B4006F007000818283E200E900EA004E
:1044A000B500B600B700CD008301CC008A019201AF
:1044B00094012102230224022502260227022A0255
:1044C000B300B4006F007000818283F0F1C66766AC
:1044D000379431303534979633F490919293950018
:00000001FF
