:100000000C9401020C9439020C9439020C943902BC
:100010000C9439020C9439020C9439020C94390274
:100020000C9439020C9439020C94D21E0C94A61F25
:100030000C94A3190C9439020C9439020C943902D3
:100040000C9439020C9439020C9439020C94390244
:100050000C9439020C942A1A0C9439020C9439022B
:100060000C9439020C9439020C9439020C94390224
:100070000C9439020C9439020C9439020C94390214
:100080000C9439020C9439020C9439020C94390204
:100090000C9439020C9439020C9439020C943902F4
:1000A0000C9439020C9439020C94390229001E0078
:1000B0001F0020002100220023002400250026002C
:1000C00027002D002E0000002A002B000000140045
:1000D0001A000800150017001C0018000C00120080
:1000E00013002F0030004C000251000004001600E5
:1000F000070009000A000B000D000E000F0033007E
:10010000340028000000E10000001D001B00060074
:1001100019000500110010003600370038000000FB
:1001200052000251E000E3000000E2002C00000059
:100130002C0000002C000000E600500000005100E0
:100140004F00010001000100010001000100010059
:100150000100010001000100010001000000010098
:100160000100000001000100010001000100010088
:100170000100010001000100010001000100025125
:100180000000010001000100010001000100010068
:100190000100010001000100010000000100000059
:1001A0000100010001000100010001000100010047
:1001B00001000100000052000251E200E0000000D6
:1001C000E300010000000100000001000000E60063
:1001D0005000000051004F0035003A003B003C0049
:1001E0003D003E003F00400041004200430044000B
:1001F000450000004C00010000003D04BE00BD00B1
:10020000E4000052F900F200ED00F3004600AA00FD
:10021000A9003100010000004200430044004500F5
:100220000152FA00EF00EE00F00033004900280010
:1002300000000100000048006500B200A60039007F
:1002400053004700AC00AB00AE0000004B000100C3
:100250000100010000000100F1000000F1000000B9
:10026000F100000001004A0000004E004D0038037C
:1002700047004E00410054003600300020004E0080
:1002800061006A006C006500700073007A00610014
:1002900020004B006C006100770069006100740071
:1002A0007500720061000000100344006F006200DE
:1002B00072007A0061006E00000004030904090264
:1002C0003B00020100A0FA09040000010301010043
:1002D00009211101000122400007058103080001E6
:1002E000090401000103000000092111010001229D
:1002F000B600070582032000011201000200000081
:10030000085A44602201000102000105010902A10E
:100310000185020901A10005091901290815002517
:100320000195087501810205010930093115812502
:100330007F95027508810609381581257F9501751D
:10034000088106050C0A38021581257F950175087C
:100350008106C0C005010980A101850319012AB7E2
:1003600000150126B700950175108100C0050C0924
:1003700001A101850419012AA002150126A00295F8
:100380000175108100C005010906A1018506050758
:1003900019E029E715002501950875018102050777
:1003A000190029EF1500250195F075018102050856
:1003B00019012905950575019102950175039101B2
:1003C000C005010906A101050719E029E715002567
:1003D00001950875018102950175088101050719CC
:1003E0000029FF150026FF00950675088100050805
:1003F0001901290595057501910295017503910172
:10040000C00011241FBECFEFDAE0DEBFCDBF04B6BF
:1004100003FE18C08091BC029091BD02A091BE0263
:10042000B091BF028730904BA740B04B59F4109267
:10043000BC021092BD021092BE021092BF02E0E018
:10044000F8E3099511E0A0E0B1E0ECEDF4E402C0BE
:1004500005900D92AE38B107D9F722E0AEE8B1E0D1
:1004600001C01D92AC3BB207E1F70E9474110C94DD
:1004700056220C94000081E0089581E008950E94C6
:100480003D02089508950E9442020895A5E0B0E05B
:10049000ECE4F2E00C94D62149835A833091950123
:1004A00089819A81311119C0662399F0222389F03C
:1004B0000E945008182F682F89819A810E942C0869
:1004C00069817A81812F0E94D50E2596E3E00C94F4
:1004D000F2210E943E08182FF3CF0E945008698134
:1004E0007A81F1CFFC01262F408151816281738195
:1004F00084810E944602089581E00895CF93DF939E
:10050000EC0160E00E947202BE010E944302DF9192
:10051000CF9108950E94151008950E941910089512
:1005200008950E94F7060E9490022FEF84E39CE05A
:10053000215080409040E1F700C0000008950E94E3
:1005400091020E944E1A08950E9491020E94721A0E
:1005500008950F931F93CF93DF938C0161E00E9466
:100560007202EC01B8010E943F02811106C080E0D6
:10057000DF91CF911F910F910895B801CE010E9494
:10058000EB148823A1F3B801CE010E94D41788236D
:1005900071F3B801CE010E94D815882341F3B80148
:1005A000CE010E944617882311F3F8018281882327
:1005B00061F0CB35FDE5DF0701F158F4C115ECE53D
:1005C000DE0791F0CF3DDC4591F0C8010E943B026F
:1005D000CFCFCD358DE5D80769F090F0C83ADD452D
:1005E000A1F70E94A402C3CF0E949F02C0CF0E9425
:1005F0000A0DF7CF0E94480CE8CF0E94520CE5CFBD
:100600000E94560CE2CF0E947F1980E00E942015C4
:100610000E94310308950E9417140E9435030E941E
:100620008419089508950E941203089581E00895A1
:10063000CF93C82F0E941603882319F0C1FD03C071
:100640002A9ACF9108952A98FCCF229A2A9A08953F
:10065000CF93C82F0E9413038C2F0E941803CF91B1
:10066000089580E00E94280308950E9430180E9497
:1006700028030895CF930E943018C82F80919001CD
:100680008C1779F0C09390010E940F1A609391012A
:100690007093920180939301909394018C2F0E9408
:1006A0002803CF910895ABE0B0E0E9E5F3E00C94C6
:1006B000D7214F83588769877A878B8761110E947A
:1006C000930B1E821D8285E0FE013796DE01119696
:1006D00001900D928A95E1F78C819D81892B61F4BF
:1006E00049815A816B817C818D819E810E94BC0AE7
:1006F0002B96E2E00C94F32189819A8189238F3F24
:1007000079F3CE0101960E947C028111E9CFF0CFEE
:10071000FC01808191810E9482080895CF93C82FA7
:100720008823C9F08238C9F40E94301881FD13C0B3
:1007300089E30E944B0B0E94B40B2FEF87EE93E0EE
:10074000215080409040E1F700C0000089E30E9402
:10075000530B0E94B40BCF9108958338A1F40E94EB
:10076000301880FDF8CF83E50E944B0B0E94B40B3C
:100770002FEF81EE94E0215080409040E1F700C0DF
:10078000000083E5E4CF8438A1F40E94301882FD94
:10079000E2CF87E40E944B0B0E94B40B2FEF81EE57
:1007A00094E0215080409040E1F700C0000087E4D1
:1007B000CECF8CEF8C0F813A90F46C2F809100019A
:1007C000909101010E94A518882329F08C2F0E9486
:1007D000530B0E94B40B8C2F0E944B0BBACF80E2BC
:1007E0008C0F883048F4C77081E001C0880FCA952B
:1007F000EAF70E94760BADCFEBE5EC0FE33040F467
:10080000F0E0EB5BFE4F808190E00E946518A3CF83
:10081000E8E5EC0FE73150F4F0E0EE0FFF1FE95E82
:10082000FE4F808191810E947B1895CFCD3E08F4C8
:1008300092CF8C2F0E94F6110E94C9128CCF882370
:1008400009F455C0823879F40E94301881FF4FC0F6
:1008500089E30E944B0B0E94B40B89E30E94530B67
:100860000E94B40B0895833859F40E94301880FF19
:100870003EC083E50E944B0B0E94B40B83E5EECF94
:10088000843859F40E94301882FF31C087E40E94F6
:100890004B0B0E94B40B87E4E1CF9CEF980F913A89
:1008A000E8F290E2980F983050F4877091E001C020
:1008B000990F8A95EAF7892F0E947C0BD1CF9BE58F
:1008C000980F933028F490E080E00E946518089516
:1008D00098E5980F973128F490E080E00E947B180B
:1008E00008958D3E20F00E9450120E94C912089572
:1008F0001F93CF93DF93182FEB010E948E03209755
:1009000039F4812F0E941F04DF91CF911F91089528
:100910008FE99FE00197F1F700C000002197EFCF2A
:1009200070E060E0893311F460E570E00E947804C3
:100930000895882321F00E94760B0E94B40B08953D
:10094000882321F00E947C0B0E94B40B0895B0E034
:10095000A0E0EDEAF4E00C94D0216C01D62FC72F73
:10096000FC011281F580F2949FE0F9220E946C0B49
:10097000E82E8823B9F0E12E1123A1F08C2F807F7F
:10098000803421F080E28D0F8830D0F08091950284
:1009900082FF16C082E00E94170C0E946C0B91E04F
:1009A000E82EE926BC2EB2948FE0B822FBE0FB15BE
:1009B00008F468C0EB2DF0E0E85AFD4D0C94A72137
:1009C000E12CF0CF0C2F0F70C07F11F00295007F4B
:1009D000112399F0002359F080E28D0F883010F038
:1009E000D11107C0802F0E94760B0E94B40B8D2F6F
:1009F00041C0802F0E94860BF8CF8D2F0E941F04CC
:100A0000002309F43FC080E28D0F883010F0D1112F
:100A100004C0802F0E947C0B03C0802F0E948C0B8F
:100A20000E94B40B2FC00C2F0F70C07FC03211F08A
:100A30000295007FDD2381F0D13009F463C01123DA
:100A400009F46DC0FF2009F463C0F601858180FFC1
:100A5000CECF8F7085835CC08091950282FD33C0BC
:100A6000112359F0002329F0802F0E94760B0E9459
:100A7000B40B80E00E948E0305C080E00E941F043A
:100A80000111C7CFEB2DE850FF0B349720F40E94E3
:100A900030180E942803EE2089F00E94680B80FD28
:100AA0000DC0F60112820E94620B0E948A07C601E5
:100AB0000E94B7060E94620B0E949A07CDB7DEB76C
:100AC000E9E00C94EC21112389F0F11006C00E949A
:100AD000960B802B0E949904D5CF21E0F212F7CF1C
:100AE0000E94960B802B0E949D0BCCCFF11006C06C
:100AF0000E94AA0B802F0E94A004C4CF31E0F316FD
:100B000009F2F6CF112331F085E08F1508F4BACF42
:100B1000802FE0CF94E09F1508F4B4CFEBCFFF20F7
:100B200049F3D93349F4FFEF27EE33E0F150204089
:100B30003040E1F700C000008D2F0E941F04A2CFBB
:100B40008C2F86958695837069F0813009F09ACF55
:100B50008D2F9C2F9370111102C090E080E00E94B5
:100B60007B1890CF8D2F9C2F9370111102C090E0B5
:100B700080E00E94651886CF8D2F112329F00E94F6
:100B8000F6110E94C9127ECF0E945012FACF8C2F0C
:100B90008370A1F5111176CF4D2F42954695477080
:100BA000440F440F2D2F2F7030E0042E02C0220F6F
:100BB000331F0A94E2F790E080E0D4FF09C08FE091
:100BC00090E002C0880F991F4A95E2F780959095B2
:100BD000C695C695C370822B932BC23049F058F44A
:100BE000C13019F00E9458074DCF0E944F074ACFDD
:100BF0000E94610747CF0E944C0744CF869511237E
:100C000011F08C2F8170882309F43CCF4D2F429531
:100C100046954770440F440F2D2F2F7030E0042E5F
:100C200002C0220F331F0A94E2F790E080E0D4FF65
:100C300009C08FE090E002C0880F991F4A95E2F743
:100C400080959095C695C695C370822B932BC23024
:100C500049F058F4C13019F00E94C50713CF0E9423
:100C6000BC0710CF0E94CE070DCF0E9470070ACF9D
:100C7000CF70112329F08C2F0E948A078D2F2ACF45
:100C80008D2F0E94A0048C2F0E949A07FBCED23F8A
:100C900051F160F4D03FB9F0D13F81F0112309F454
:100CA00049C0F110A4CE8C2F8F7121C0D33F11F118
:100CB000D43FA1F78091950282FD26C08C2F8F71C1
:100CC000112311F314C0112349F084E08F1508F4A7
:100CD000D9CE8C2F8F710E94AC07D4CE95E09F1592
:100CE00008F4D0CEF6CF8C2F8F711111CDCF0E948A
:100CF0008A07C8CE112329F08C2F8F710E947E079E
:100D0000C1CE0E947907BECE112349F0CF718C2F3E
:100D10000E948A0763E08C2F0E94F90BB3CE81E01A
:100D20000E94170CE1E0EF1508F0ACCE82E00E94C3
:100D3000170CA8CEF110F5CE8C2F8F71A5CF0F9385
:100D40001F93CF93DF93EC01688179818A810E94A0
:100D50008D088C010E94D7070E944B07B801CE0175
:100D60000E94A704DF91CF911F910F910895CF9317
:100D7000DF93EC018B819C81892B29F088819981FB
:100D800089238F3F51F4DF91CF910895CE010E94C6
:100D90009F06CE010E947E02F6CFCE010E94A902DC
:100DA0008111F4CF0E946C0B882369F38A81882318
:100DB00051F38091950282FFE6CF82E00E94170CEA
:100DC000E2CF90E080E00E94651890E080E00E9411
:100DD0007B180E94930B0E94B40B0E94E5120E94A4
:100DE000C91208950E945B0B0E94E10608950E94BB
:100DF000830B0E94F206089592959F70963091F0B1
:100E000058F4925F9F70923058F4803F19F030F49C
:100E1000883E30F481E008959A5FF4CF843FD1F3A7
:100E200080E00895883EB0F3813FD1F7F3CFFC0115
:100E300083819481892B29F08081918189238F3F3F
:100E400011F480E00895808191810E9482080E94BF
:100E5000FC060895A5E0B0E0E0E3F7E00C94D721AC
:100E60002596E2E00C94F321A6E0B0E0EAE3F7E097
:100E70000C94D7212696E2E00C94F32108950E9469
:100E80003E0708950E943F079093C1018093C001DF
:100E90000E94E106089508950E9442070895209156
:100EA000C0013091C101822B932B0E94420708950B
:100EB0002091C0013091C101822393230E944207F7
:100EC00008952091C0013091C101822793270E948B
:100ED000420708950E943E0708950E946A070895F8
:100EE0000E946D079093BF018093BE010E94E106AE
:100EF000089590E080E00E947007089521E030E0BE
:100F0000A90102C0440F551F8A95E2F7CA010E9449
:100F10007007089521E030E002C0220F331F8A9548
:100F2000E2F78091BE019091BF01822B932B0E942A
:100F30007007089521E030E002C0220F331F8A9528
:100F4000E2F7209530958091BE019091BF018223F8
:100F500093230E947007089521E030E002C0220F21
:100F6000331F8A95E2F78091BE019091BF018227DD
:100F700093270E94700708952091BE013091BF0110
:100F8000822B932B0E94700708952091BE0130910F
:100F9000BF01822393230E94700708952091BE0110
:100FA0003091BF01822793270E947007089508950A
:100FB000262F277091E001C0990F2A95EAF723E0C8
:100FC000769567952A95E1F7660F771F660F771F6D
:100FD000FA01E60FF71F50E040E0682F70E08191C2
:100FE000DF0111979B01042E02C0369527950A94C4
:100FF000E2F7217021952827292328272C934F5F7A
:101000005F4F4430510559F70895A82FA77023E08A
:10101000969587952A95E1F7880F991F880F991F54
:10102000FB01E80FF91F50E040E080E0219130E043
:101030000A2E02C0369527950A94E2F721703327CD
:10104000042E01C0220F0A94EAF7822B4F5F5F4FF4
:101050004430510559F70895262F953070F48F309C
:1010600060F4682F70E08FE0989F600D711D11246F
:1010700046E951E0822F0E94D8070895292F953024
:1010800068F48F3058F490E066E971E03FE0239F08
:10109000800D911D11240E940508089580E0089597
:1010A000B0E0A0E0E6E5F8E00C94D0217C010091EE
:1010B000BE011091BF018091C0019091C101082B28
:1010C000192BCFE0D0E0CC24C394D12CBC2EC60188
:1010D0000C2E02C0880F991F0A94E2F780239123F7
:1010E000892B49F4219790F7B12C8B2DCDB7DEB722
:1010F000E9E00C94EC21B7018C2F0E94F00E0197CF
:1011000089F3F3CFCF93DF93EC010E945008BE0127
:101110000E94F00EDF91CF9108951F93CF93DF933C
:10112000EB0190919501992339F0CB010E9482083F
:10113000DF91CF911F910895882369F0CB010E9420
:101140005008182F682FCE010E942C08BE01812F55
:101150000E94F00EEDCFCB010E943E08182FF6CF73
:101160001F93CF93DF93C091C20116E08091C3011A
:101170008C1304C0DF91CF911F910895D0E01C9F84
:10118000F0011D9FF00D1124EC53FE4F4081518161
:1011900062817381848195810E9434072196C77092
:1011A000E5CF4091F4015091F5016091F601709105
:1011B000F7018091F8019091F9010E943407089598
:1011C0001F93CF93DF938091F901807F09F049C08D
:1011D0008091F601882309F444C08091C201C09136
:1011E000C3016091F4017091F501A091F701B091F4
:1011F000F801D62FD72316E0C81799F190E0109781
:1012000011F0DF3F19F401968770F6CF189F900117
:10121000199F300D1124F901EC53FE4F4181471302
:10122000F2CF40814613EFCF42814111ECCF438191
:1012300054814A1B5B0B483C510528F78091F9010A
:101240008F7080618093F901F901E753FE4F80812F
:101250008F708061808384EF91E00E94B7060E94C6
:10126000B008DF91CF911F910895A1E1B0E0EBE3C9
:10127000F9E00C94CF218C0185E0F801DE011D9688
:1012800001900D928A95E1F7F801E28084EFC82E73
:1012900081E0D82E6091F7017091F8016115710518
:1012A00009F44EC19091F4012091F501892F822318
:1012B0008F3F09F445C140815181A380B480F090F3
:1012C000F601F501E61BF70BFF2009F4EAC0809157
:1012D000F901382F307FE83CF10508F0A3C0311147
:1012E0006DC0FE2C251316C0941314C0E11012C05B
:1012F0008F7080618093F9010E94D108C6010E941D
:10130000B7068091F901F80185838F2D6196EAE097
:101310000C94EB21A114B10429F0842F85238F3F75
:1013200009F027C180E0F82FF170DF2E80FF3CC06C
:101330008091C2012091C30136E0821315C04D8710
:101340005E878D859E850E948208292F22952F70A9
:101350002230F0F0243018F59F70F1F0F8019581FB
:10136000907FD1F4D12C1EC090E0389FF001399FBE
:10137000F00D1124EC53FE4F6181651306C06081AE
:10138000641303C06281E6120FC001968770D5CF47
:101390009F7011F0882331F3805E883018F3C80104
:1013A0000E94B706FD2CB1CFEE2009F4AECF80919C
:1013B000F90181608093F901F12CA7CF251306C0B4
:1013C000941304C0F801EE2009F487C0C8010E94FC
:1013D0001707882319F1EE2009F18091F901803275
:1013E00070F02091F4013091F50138872F83198630
:1013F000BB86AA868C87CE0107960E94B70686E038
:10140000F801A4EFB1E001900D928A95E1F70E94F6
:10141000E0080E94D108FF24F39477CFC8010E940E
:10142000B706F9CF311113C07A2DB98AA88A6E2D6B
:1014300089890E942A0784EF91E00E94B70686E01E
:10144000F60111928A95E9F70E94D108B5CF2513CC
:101450000FC094130DC0E1100BC0F8018583C801C3
:101460000E94B70686E0F60111928A95E9F74DCF02
:10147000C8010E941707882389F2EE2079F2809133
:10148000F901803208F4BBCF2091F4013091F501CD
:101490003A8329831B82BD82AC828E83CE01019662
:1014A000ACCFE83CF10508F03EC0FE2CEE2009F47C
:1014B000B5CF25132AC0941328C08091F90180FD6F
:1014C0001BC0982F907FC1F0F8018583903F31F0C9
:1014D000982F907F905F8F70892B8583C8010E9421
:1014E000B70686E0F801A4EFB1E001900D928A956D
:1014F000E1F70E94D10809CF86E0F801A4EFB1E03E
:1015000001900D928A95E1F700CFC8010E9417075C
:10151000811175CF8091F90181608093F901C80133
:101520000E94B706F2CE7A2DB98AA88A6E2D8989D3
:101530000E942A0786E0F60111928A95E9F7D9CF31
:10154000EE2009F46BCFC8010E941707F82E8823FC
:1015500009F464CF86E0F801A4EFB1E001900D92A8
:101560008A95E1F784EF91E00E9488030E94E008E9
:10157000C0CF81E08E25D7CEACE0B0E0E2ECFAE05F
:101580000C94D6214F83588769877A878B879C87ED
:10159000CE0107960E943509882369F08A859B85CC
:1015A000892B39F04F815885842F85238F3F09F08F
:1015B0006BC016E05FC086E0FE013796DE01119633
:1015C00001900D928A95E1F78A859B85892B89F395
:1015D00088859F8189238F3F61F32091C30130E08B
:1015E000C9010196877099274091C20148171906D1
:1015F00071F40E94F7061092C3011092C20186E0B6
:10160000E4EFF1E0DF011D928A95E9F7D2CF96E091
:10161000929FD001939FB00D1124AC53BE4FFE0199
:10162000319601900D929A95E1F78093C3010E9443
:10163000B008BFCF819FC00111248C539E4F0E94E0
:1016400035098823E9F0E091C2011E9FF0011124C1
:10165000EC53FE4F40815181628173818481958179
:101660000E9434078091C20190E00196877099270B
:101670008093C2018091C2019091C3018913DACF96
:101680002C96E3E00C94F22169857A858B859C8504
:101690000E9434078ECF682F809100019091010144
:1016A0000E9425190895682F8091000190910101F1
:1016B0000E943319089580910001909101010E94C8
:1016C0004119089580911A0285958595859508950B
:1016D00080911A028770089590911A02977081E0A4
:1016E00009F480E0089580913D02089590913D02B3
:1016F000892B80933D020895809590913D02982317
:1017000090933D02089510923D02089590913C02FD
:10171000892B80933C020895809590913C029823F8
:1017200090933C02089510923C02089580911B0210
:10173000089508950E94990B08959091950292FF43
:1017400008C090911B02981721F080931B020E9401
:101750009A0B089580911B02882329F010921B0296
:1017600080E00E949A0B0895CF93DF93E0910001EF
:10177000F091010180913D028083E0910001F091A0
:101780000101808190913C02892B808390911B0202
:10179000992381F0E0910001F09101018081892B72
:1017A000808380910001909101010E949118811124
:1017B0000E94AA0BC0910001D091010140E250E0CB
:1017C0006AEF71E0CE010E94FE21892B59F080E280
:1017D000FE01AAEFB1E001900D928A95E1F7CE01EA
:1017E0000E943D18DF91CF91089508950E94F50B56
:1017F00008959091950292FF11C098E0899F900101
:101800001124622B60931A020E948A0780911A02A7
:101810008595859585950E94F60B08950E948A0707
:10182000089510921A0280E00E94F60B089590919C
:101830001A028095892380931A02282F277091F429
:10184000282F082E000C330B9217130659F0909195
:10185000950292FF07C08595859585950E949A0708
:101860000E94110C08959091950292FB222720F975
:10187000281769F080FB92F9909395028091940269
:10188000909195020E94840C82E00E94170C0895AA
:101890008091950282FB882780F991E089270E9438
:1018A000330C089581E00E94330C089580E00E947B
:1018B000330C08956FEF7FEF90E080E00E944022AC
:1018C000089590E080E00E941C2221E0883E9E4F17
:1018D00009F020E0822F089582E090E00E94142217
:1018E000089583E090E00E9414220895CF9384E04D
:1018F00090E00E941422C82F82E290E00E941422FD
:10190000982F8C2FCF910895CF93C92F682F84E003
:1019100090E00E9422226C2F82E290E00E9422221C
:10192000CF910895AB01BC018FE090E00E9434227A
:101930000895AB01BC0183E190E00E943422089538
:1019400060E070E0CB010E94990C089560E070E0C7
:10195000CB010E94920C0E94A00C089568EE7EEFCD
:1019600090E080E00E94402260E082E090E00E94EF
:10197000222260E083E090E00E9422221092C101C6
:101980001092C00160E084E090E00E94222264E0B6
:1019900082E290E00E94222260E085E090E00E94D6
:1019A000222260E086E090E00E9422226FEF87E032
:1019B00090E00E94222240E050E0BA0188E090E0EE
:1019C0000E94342260E08DE090E00E94222240E0FC
:1019D00050E0BA0188E190E00E94342260E087E1A3
:1019E00090E00E94222240E050E0BA018CE190E0B9
:1019F0000E94342270E060E080E290E00E94402289
:101A000040E050E0BA0188E190E00E9434220E9458
:101A1000A60C08950E94AE0C0895682F8EE090E009
:101A20000E94222208950E940F1A60934E02709322
:101A30004F02809350029093510260934A02709338
:101A40004B0280934C0290934D020895089508959F
:101A50000E94270D089508950E942B0D08958AED88
:101A60009FE00E9426180E94260D0E94280D0895CE
:101A700081E008950E94380D0895089508950E9408
:101A80003D0D0E943E0D08950E94F60F0E94250311
:101A90000E94C71508950E94FA190E94D5100E944D
:101AA000440D0E9417140E942C0D0895AAE0B0E086
:101AB000ECE5FDE00C94CC210E94EB1020E4822E9A
:101AC00022E0922E640110E0F601E190F1906F01A6
:101AD000812F0E941C101F5F153009F449C0E816C1
:101AE000F90691F38091520281FD0E9425100E9417
:101AF0003A0D782E10E0812F0E941C107C01F40119
:101B0000A190B1904F018A159B0561F100E0CC24B2
:101B1000C394D12CAE24BF24C5018C219D21892BD7
:101B2000C1F07720B1F00E831F8321E0C7018C2123
:101B30009D21892B09F420E028870E94031A8160E7
:101B4000782F9A8789874E815F8168858A850E9470
:101B500053030F5FCC0CDD1C0F30F1F6F40132970C
:101B6000F182E0821F5F153031F60E94130D22C012
:101B7000E816F90609F0B6CF0E94031A8C0180918D
:101B80003E0290913F0208171907A1F08FEF898359
:101B90008A831B820E94031A8160782F9D838C8325
:101BA00049815A816B818D810E94530310933F02BA
:101BB00000933E020E94C6150E9407130E943A033A
:101BC0002A96EDE00C94E821CF93DF930E94F50E66
:101BD000EC01811521E5920708F042C0811530E53E
:101BE000930708F09FC0883E910530F5803E91052F
:101BF00008F094C0883A910588F4853A910508F078
:101C000086C08130910509F489C0009709F486C027
:101C1000049708F083C0D0E0C0E080C08F3B9105FE
:101C2000D0F7C85AD0E0CC0FDD1FC85BDE4F09905B
:101C3000D881C02DD46472C0811540E2940750F45D
:101C4000C11581E0D80708F069C0CD3ED10518F371
:101C5000D06564C081159044F0F2DF70D06A5EC038
:101C6000811535E5930718F5811544E5940708F0CB
:101C700085C0C11583E5D80708F06CC0C11522E501
:101C8000D20708F462C0CE018370992721E030E0CA
:101C900002C0220F331F8A95E2F7C695C69580E2EF
:101CA000C89FE0011124C22BD32BDC6837C08115FB
:101CB00039E59307A8F4811548E5940708F063C057
:101CC000C11586E5D80708F0A6CF8C2F0E94970F84
:101CD000C82FD0E0DC2FCC27CC27DF71D0621EC00C
:101CE00081152AE5920708F453C090568115904259
:101CF00008F091CF8D2F8F710E94970F90E0982F51
:101D0000882788279F719C012C2BE901E7CFC55AB2
:101D1000D0E0CA58DE4FC881D0E0D064CE01DF9158
:101D2000CF9108958370992721E030E002C0220FFF
:101D3000331F8A95E2F7C695C69540E2C49FE0013D
:101D40001124C22BD32BDD68E9CFDC2FCC27C16F48
:101D5000D06AE4CFCE018370992721E030E002C041
:101D6000220F331F8A95E2F7C695C69540E2C49FBD
:101D7000E0011124C22BD32BDA68D0CFD82FCC2787
:101D8000C46FD06ACBCFD82FCC27C06FD06AC6CF54
:101D90008F700E94970F34E0D695C7953A95E1F77A
:101DA000CF709C2FEC01D069B9CF972F7530A8F474
:101DB0006F3098F470E02FE0929F600D711D112438
:101DC000FB019BE4899FE00DF11D1124EE0FFF1F25
:101DD000E455FF4F85919491089580E090E0089537
:101DE0000E94D50E0E94E40D089582389105B9F144
:101DF000B0F48133910509F47DC048F4893291052E
:101E000009F46DC08A32910509F47BC008958533C9
:101E1000910509F45FC08933910509F10895833E66
:101E20009105D9F138F4803E910529F1823E910562
:101E300079F10895863E9105D9F1873E910509F41F
:101E40003EC0843E910541F52091950221FF24C0BA
:101E50008091940284FD19C087EE90E0089520914E
:101E60009402237009F05AC02091950223FF14C0F8
:101E700089E290E008952091940220FD38C03091CD
:101E8000950230FF09C024FF43C090E080E0089530
:101E90002091940222FDF7CF08952091940222FD13
:101EA0003AC03091950230FD39C024FFF5CFEDCF17
:101EB0002091940223FFF0CF24FDE7CFCDCF2091D6
:101EC000940223FD2EC03091950231FFEECF84EEB7
:101ED00090E008952091940225FFDECFC9CF209194
:101EE000940225FD21C02091950223FFD5CF89E3DF
:101EF00090E0D2CF2091940226FFCECF8AE290E0EC
:101F000008952091940226FFC7CF81E390E00895C1
:101F100083EE90E0089582EE90E0089580EE90E0E8
:101F2000089586EE90E0089585E390E008959091FD
:101F3000940292FF06C0282F28712830F9F4877F79
:101F4000846093FF06C0282F28712831F1F4877E22
:101F500084612091950220FF06C0382F38713830F7
:101F6000D9F4877F816021FF06C0282F287128318E
:101F7000D1F4877E816194FD877E0895282F247196
:101F80002430F9F68B7F8860DCCF282F2471243130
:101F900001F78B7E8861DDCF382F3171313019F731
:101FA0008E7F8860E0CF282F2171213121F78E7E2E
:101FB0008861E1CF80E008950E945A0C08950E9444
:101FC000EB108FE39CE90197F1F700C000000E943D
:101FD000EB1080E00E941C1080FF04C00E94DC0F08
:101FE0000E944E1A08950E94DF0F08950E94610C0E
:101FF000811102C00E940A0D0E946C0C8093520253
:102000000E94760C90939502809394020E94F30FA5
:102010000E94710C90E00E944C078091BE0190914B
:10202000BF010E946D07089508950E94141008953D
:1020300008950E9418100895E82FF0E0EE0FFF1F9A
:10204000E056FD4F808191810895089580EA8A9538
:10205000F1F7089500C008950E9426100895F8949D
:10206000E82FE295EF70F0E031A1282F2F7081E08A
:1020700090E001C0880F2A95EAF7982F9095932356
:1020800091A392A1892B82A3789408950F931F9313
:10209000CF93DF93C8E8D1E089918F3F11F00E9480
:1020A0002F1081E0CD38D807B9F7C9E7D1E008E8AB
:1020B00011E089918F3F11F00E942F100C171D071E
:1020C000C1F7DF91CF911F910F910895AF92BF9209
:1020D000DF92EF92FF920F931F93CF93DF938C01C8
:1020E000D62EC62FD0E0CE0188579E4F7C01FC0132
:1020F00020812F3F09F44CC0F894E22FE295EF7055
:10210000F0E031A12F7081E090E001C0880F2A95A6
:10211000EAF7932F982B91A392A18095892382A30C
:1021200078940E942A10E9E7F1E041E050E0B12CF8
:10213000A12C21912F3FB1F1A22FA295AF70B0E059
:1021400090968C9190E02F7002C0959587952A9576
:10215000E2F780FD27C0CA01A82AB92A440F551FFB
:1021600081E0E838F80729F7F70180818F3F11F007
:102170000E942F1061E0A114B10409F460E08D2DDC
:102180000E942C10CC0FDD1FC00FD11FB982A88276
:10219000DF91CF911F910F91FF90EF90DF90BF9053
:1021A000AF90089590E080E0D7CF0E9446108AE07B
:1021B000E0EAF2E0DF01982F1D929A95E9F7E6E94F
:1021C000F2E0DF011D928A95E9F785E00E94261171
:1021D0000E948A020895AAE0B0E0E1EFF0E10C94D9
:1021E000D4218E010F5F1F4F8AE0F80111928A956A
:1021F000E9F7F12C6F2DC8010E946610F394F5E009
:10220000FF12F8CF4AE050E0B80186E992E00E9460
:10221000FE2121E0009709F420E0892B41F08AE0BB
:10222000F801A6E9B2E001900D928A95E1F745E048
:1022300060EA72E086E992E00E942711182F0E945E
:102240008D02812F2A96E5E00C94F0210895CF921B
:10225000DF92EF92FF921F93CF93DF936C017B018C
:10226000C42F222349F081E0809355020E94031A73
:1022700090935402809353021091550211110AC099
:1022800010E0812FDF91CF911F91FF90EF90DF90B1
:10229000CF90089580915302909154020E941B1A8E
:1022A000059770F3D0E0CC0FDD1FAE01B601C7017A
:1022B0000E94FE21892B41F0AE01B601C7010E94A8
:1022C0000B2210925502DDCF10E0FBCF0E94281C9C
:1022D0000E944B0D0E94351C08950E943A1C0E94DA
:1022E000560D0E94541C08950E949C190E940E1CB9
:1022F0000E942F0D0E9466110E946D110E943F0DD9
:10230000FBCF80915C026091070170E080FD07C007
:1023100081FF0DC06091070170E0660F771F603884
:10232000710538F56115710531F1862F08956091B9
:10233000070182FD0AC080915B028823B9F02091D9
:10234000060160910701821728F084E0689FB001C0
:102350001124E5CF869FC0011124880F991F880F93
:10236000991F622F70E00E947121D9CF64E070E064
:10237000DCCF8FE7089581E0089580915C0280FFB3
:102380000CC06091030170E0759567957595679530
:102390006115710549F1862F089581FF06C060918E
:1023A000030170E075956795F3CF6091030182FD9D
:1023B0000BC090915A029923A1F060910201809183
:1023C0000301961738F0682F70E06038710500F34C
:1023D0008FE70895899FC001112470E00E94712148
:1023E000F4CF61E070E0D7CF81E008958D3E31F405
:1023F0000E94811181958093600208958E3E19F4A8
:102400000E948111F8CF8F3E31F40E948111819595
:1024100080935F020895803F19F40E948111F8CFE4
:10242000893F29F40E94BD118093610208958A3F7B
:1024300021F40E94BD118195F7CF8B3F31F40E94AA
:10244000BD1181958093620208958C3F19F40E941A
:10245000BD11F8CF9FE0980F983070F4815F990B11
:1024600021E030E001C0220F8A95EAF780915E02F8
:10247000822B80935E0208958D3F31F480915C023F
:10248000816080935C0208958E3F21F480915C020C
:102490008260F7CF8F3FB9F780915C028460F1CF03
:1024A00040915F028D3E59F48091600287FF0DC01C
:1024B0001092600241110BC010925B0208C08E3E68
:1024C00081F48091600218169CF3442381F080917E
:1024D000610290916202892B09F05AC010925A024F
:1024E00008958F3E49F447FFF0CF10925F0280912C
:1024F00060028111ECCFE0CF803F19F41416ACF3E9
:10250000E4CF90916102893F29F41916F4F61092F4
:102510006102DBCF8A3F19F497FFD7CFF8CF9091B4
:1025200062028B3F29F497FFD0CF10926202CDCF89
:102530008C3F19F41916CCF3C8CF9FE0980F983050
:1025400090F4815F990B21E030E0B90102C0660F81
:10255000771F8A95E2F7CB01809590915E028923DF
:1025600080935E02B2CF8D3F31F480915C028E7F0A
:1025700080935C02AACF8E3F21F480915C028D7F14
:10258000F7CF8F3F09F0A1CF80915C028B7FF0CF16
:1025900008950E94031A9C0190915F02809160024D
:1025A000982B21F0309359022093580290916102A8
:1025B00080916202982B21F03093570220935602AB
:1025C0008DE592E00E945718089586E0EDE5F2E06F
:1025D000DF011D928A95E9F710925B0210925A0270
:1025E00010925C020895FC01828181110EC08381EA
:1025F00081110BC08481811108C091E08581811116
:1026000001C090E0892F8170089581E0FCCFA6E0A1
:10261000B0E0EDE0F3E10C94D62186E0EDE5F2E0E8
:10262000DE01119601900D928A95E1F710925F02FA
:102630001092600210926102109262028B819C8162
:10264000892B89F080915802909159020E941B1A9F
:10265000AC0190915B029923C9F180910801841724
:10266000150608F440C08D819E81892B91F08091E0
:102670005602909157020E941B1AAC0190915A0287
:10268000992309F471C0809104018417150608F498
:1026900079C0BE016F5F7F4F8DE592E00E945319B4
:1026A000811105C08DE592E00E94F31281110E9414
:1026B000C91286E0FE013196ADE5B2E001900D92BF
:1026C0008A95E1F72696E3E00C94F2212091090126
:1026D0008AE0289F900111242417350720F69F5F78
:1026E00090935B0202C09F3FD1F71B81112359F0E9
:1026F0000E9481119FEF11160CF491E0899F802DAB
:10270000112480935F021C81112359F00E948111D2
:102710009FEF11160CF491E0899F802D1124809376
:10272000600230915F02332309F49DCF2091600253
:10273000222309F498CF45EB3403C00111249923D7
:1027400059F090935F0245EB240390011124332349
:1027500039F03093600287CF81E080935F02F3CF3E
:1027600081E0809360027FCF209105018AE0289F5D
:10277000900111242417350708F08BCF9F5F9093A9
:102780005A0202C09F3FD1F71D81112359F00E94C8
:10279000BD119FEF11160CF491E0899F802D11243B
:1027A000809361021E81112359F00E94BD119FEF99
:1027B00011160CF491E0899F802D11248093620200
:1027C00030916102332309F464CF20916202222305
:1027D00009F45FCF45EB3403C0011124992359F06C
:1027E0009093610245EB240390011124332339F0C7
:1027F000309362024ECF81E080936102F3CF81E09B
:102800008093620246CF86E090E00E9414220895F1
:10281000682F86E090E00E9422220895EAEAF2E022
:1028200080818470896280830E94081408950E94C8
:10283000610C811104C00E940A0D0E940E140E94B6
:1028400003148093AA02803320F0877088628093FB
:10285000AA029091AA02892F817090FF04C0892F4B
:102860008695869586950E94201508958091AA02E6
:10287000982F969596959695953040F49F5F990F71
:10288000990F990F8770892B8093AA028091AA02D1
:1028900081608093AA020E9408148091AA02869502
:1028A000869586950E94201508958091AA02982FFA
:1028B000987F79F088508093AA02887F91E009F48C
:1028C00090E08091AA0290FB80F98093AA020E9476
:1028D00008148091AA028695869586950E942015F7
:1028E00008958091AA0280FD13C081608093AA029E
:1028F000813019F489E08093AA028091AA020E9493
:1029000008148091AA028695869586950E942015C6
:1029100008958091AA0280FF08C08E7F8093AA024A
:102920000E94081480E00E94201508958091AA0258
:1029300080FF03C00E94891408950E9471140895B5
:102940009091AA02892F8695869586958F5F8F71C3
:1029500097708630E0F4880F880F880F892B80935A
:10296000AA028091AA02887F91E009F490E0809108
:10297000AA0290FB80F98093AA020E940814809119
:10298000AA028695869586950E94201508959093B3
:10299000AA02E7CF863008F085E09091AA029770EE
:1029A000282F220F220F220F922B9093AA02987F9A
:1029B00021E009F420E09091AA0220FB90F9909385
:1029C000AA020E94201508950E94CA148091AA02AA
:1029D0000E94081408959C01FB018281882349F11B
:1029E0002E3BFCE53F07C9F040F42C3BECE53E07ED
:1029F00069F02D3B3C4579F00895203C9CE5390772
:102A000091F070F0213C3C4589F0089585E00E94EA
:102A1000E41480E0089580E0FACF0E945514F9CFC5
:102A20000E943614F6CF0E949614F3CF0E94A01491
:102A3000F0CF81E00895269A2E9808952E98089553
:102A40008F929F92AF92BF92EF92FF920F931F933C
:102A5000CF93DF93C82F8630C0F5811137C08091A6
:102A600080008F7D809380000E941E15A0918600BB
:102A7000B09187002C2F30E00E94AD2125E030E09E
:102A800040E050E00E94852189019A0180918600F2
:102A9000909187006CE070E00E945D2160177107E3
:102AA000D8F0C80169E070E00E945D2170938B004E
:102AB00060938A00DF91CF911F910F91FF90EF906B
:102AC000BF90AF909F908F900895C5E08091800057
:102AD000806280938000CACF8091860090918700A9
:102AE000E0908600F0908700E0918600F0918700EA
:102AF000C6E0D0E0BE010E945D21060F171F211D18
:102B0000311D4801590185E0880C991CAA1CBB1C89
:102B10008A95D1F7C701BE010E945D219F0150E057
:102B200040E0260F371F411D511DC501B4010E9411
:102B3000852149015A01E0918600F0918700CA0180
:102B4000B9010E944D219B01AC01DF010E94BC2113
:102B50009B01AC01C501B4010E944D212FE0969567
:102B60008795779567952A95D1F700918600109102
:102B7000870030E020E0061717072807390708F01C
:102B800095CF609186007091870090CF08950E9444
:102B90001B1582E28093800089E1809381008FEF92
:102BA0009FEF90938700809386000E9417140895EA
:102BB000CF93DF93EC01FB018281882309F464C188
:102BC000C430FDE5DF07E0F5CB3F9CE5D90730F4E5
:102BD0009E0122503C4524313105D8F50E94760CE7
:102BE0009093950280939402C231ECE5DE0709F4DC
:102BF0001FC108F06EC0C9308CE5D80709F4F2C0D7
:102C000008F03FC0C530ECE5DE0709F4DBC058F53D
:102C1000C3308CE5D80709F4CDC008F0CFC080914F
:102C200094028160C230DC4509F4AEC08091940208
:102C3000909195020E94840C0E94F70680E009C0E2
:102C4000C63AEDE5DE0751F238F4C2369DE5D90704
:102C500029F2DF91CF9108959E012E5A3D452330F0
:102C60003105B8F7BBCF809194028062C730FCE594
:102C7000DF0709F489C008F4B1C080919402806430
:102C800083C0CD309CE5D90709F4BAC070F48091B7
:102C900094028E7FCB30FCE5DF0709F475C008F4A1
:102CA000A7C0809194028D7F6FC0CF309CE5D9077B
:102CB00009F4B6C008F4A8C0C031FCE5DF0709F488
:102CC000B3C0C131DC4509F0B1CF809194028F7B54
:102CD0005BC0C1159DE5D90709F4B4C098F5CB3F99
:102CE000FCE5DF0709F472C0B8F4C4319CE5D907EC
:102CF00009F4B6C008F4A2C0C531DC4509F096CF8E
:102D00008091940282FB992790F921E0922790FB11
:102D100082F990FB83F938C0CD3F8CE5D80709F4E0
:102D200077C008F457C0CE3FECE5DE0709F474C065
:102D3000809195028360CF3FDC4509F077CF809387
:102D4000950274CFC2368DE5D80709F496C068F4B1
:102D5000C230EDE5DE0709F48CC008F477C0C3305B
:102D6000DD4509F063CF80E085C0CE3A9DE5D90707
:102D7000E9F068F490919402892F8E7F90FF816032
:102D8000C63ADD4509F052CF809394024FCFCF3A37
:102D90008DE5D80789F1C03BDD4509F047CF90911B
:102DA0009502892F877F93FF8860C9CF8091950214
:102DB0008860C5CF809194028260E6CF80919402B2
:102DC0008460E2CF809194028860DECF809195028A
:102DD0008160B5CF809195028260B1CF80919402DD
:102DE0008061D2CF0E94F706809194028068CCCF98
:102DF000809194028C60C8CF80919502877F9FCF8D
:102E0000809194028B7FC0CF80919402877FBCCF4A
:102E1000809195028E7F93CF809195028D7F8FCF89
:102E2000809194028F7EB0CF809194028F7DACCF41
:102E30000E94F706809194028F77A6CF809194022A
:102E4000837FA2CF809195028C7F79CF809195026C
:102E5000982F909591708E7F892B90FB81F96FCF81
:102E60000E94F70690919402892F97FB87F980586A
:102E70008BCF81E00E940D0DD9CE90919402892FC5
:102E80008F7E94FF806180CF81E0E3CECF93DF938C
:102E9000EB0186319C4511F50E94730B9A819923B1
:102EA00099F08A7A91E009F490E09093630281119D
:102EB00009C089E20E944B0B0E94B40B80E0DF91B5
:102EC000CF91089585E3F6CF80916302811104C00C
:102ED00089E20E94530BF0CF85E3FBCF81E0EFCF77
:102EE0000F931F93CF93DF93C42FD22FFC018281C6
:102EF0008823C9F0409366020E94031A90936502EA
:102F00008093640280E28C0F883040F4C77081E0C7
:102F100001C0880FCA95EAF70E949904DF91CF910A
:102F20001F910F91089510916602141332C0809181
:102F30006402909165020E941B1A883C910548F535
:102F4000C0E2CD0F1D17B9F080E2810F883040F448
:102F5000177081E001C0880F1A95EAF70E94A0045B
:102F6000C83048F481E09D2F977001C0880F9A9572
:102F7000EAF70E949904802F0E949004C83070F6EE
:102F8000D77081E001C0880FDA95EAF70E94A004AB
:102F9000C5CF80E28C0F883008F6C77081E001C091
:102FA000880FCA95EAF7F2CF0F939C01CB01243F1B
:102FB0004CE5340759F1A8F4293DFCE53F0701F140
:102FC0002A3D4CE53407D1F1283D3C4591F406E219
:102FD00021EE41EE68ED7CE50E94701780E00F91D4
:102FE0000895263FFCE53F07E9F0B0F0273F3C4558
:102FF000F9F0FC018281882339F110926602EFCF4B
:1030000007E225EE45EE69ED7CE5E6CF06E221EE2E
:1030100040EE64EF7CE5E0CF07E225EE44EE65EF9D
:103020007CE5DACF06E221EE42EE66EF7CE5D4CF16
:1030300007E225EE46EE67EF7CE5CECF08E221E021
:1030400045EE6AED7CE5C8CF81E0C9CF90938F0152
:1030500080938E01089590936C0280936B02089583
:10306000E0916B02F0916C02309729F00190F081B1
:10307000E02D0995089580E00895E0916B02F091AC
:103080006C02309799F020911601222359F020917B
:10309000940227FF07C0DC012C9111962C93119705
:1030A00026E02C930280F381E02D09950895E091AC
:1030B0006B02F0916C02309739F022E0DC012C9326
:1030C0000480F581E02D09950895209169023091E1
:1030D0006A022817390771F090936A028093690297
:1030E000E0916B02F0916C02309721F00680F7813D
:1030F000E02D099508952091670230916802281704
:10310000390771F09093680280936702E0916B0237
:10311000F0916C02309721F00084F185E02D099543
:103120000895FC01329680911601882321F0809148
:1031300094029EE187FF96E080E0915008F40895A4
:1031400021912223D1F38F5FF8CF662301F12091E3
:1031500016012223F1F02091940227FF1AC0462F76
:103160004695469546954E3190F4677021E030E0E3
:1031700002C0220F331F6A95E2F7840F911DFC01F4
:10318000828190E02823392381E0232B69F480E0B9
:103190000895FC01329608962191261721F0E81730
:1031A000F907D1F7F4CF81E008959C01FC01329634
:1031B0009FEF80E04191461751F09F3F19F4411174
:1031C00001C0982F8F5F8630A9F79F3F09F40895BB
:1031D000290F311D97FD3A95F90162830895FC018D
:1031E000329608962191261303C0DF0111971C9295
:1031F000E817F907B9F70895E62FE695E695E695FD
:10320000EE3168F4E80FF92FF11D677021E030E02E
:1032100001C0220F6A95EAF78281822B828308958A
:10322000E62FE695E695E695EE3170F4E80FF92F76
:10323000F11D677021E030E001C0220F6A95EAF7C6
:10324000209582812823228308952091160122232C
:1032500039F02091940227FF03C00E94FC180895C2
:103260000E94D518089520911601222339F020914B
:10327000940227FF03C00E94101908950E94EF18BE
:103280000895FC01329680911601882351F08091B7
:10329000940287FF06C08EE1DF011D928A95E9F74F
:1032A000089586E0F9CF46E050E00E94FE2121E03B
:1032B000892B09F420E0822F089508950E945D195A
:1032C0000895811106C081E080936D020E945E190D
:1032D000089582E0F9CF83E080936D020E945E1929
:1032E00008950E946119089581E080936D020E9403
:1032F0005E1908950E9474190895089508950E9412
:103300007E190895089508950E947D190895CF9318
:103310000E9482190E94EB100E948319C0E08C2F3A
:103320000E941C10892B31F4CF5FC530C1F780E0BB
:10333000CF91089581E0FCCF85B7806885BF85B7C0
:10334000806885BF08951F921FB61F9211248F9326
:103350009F93AF93BF9380916E02811113C08091B0
:10336000AB029091AC02A091AD02B091AE02419639
:10337000A11DB11D8093AB029093AC02A093AD024E
:10338000B093AE02BF91AF919F918F911F901FBEDE
:103390001F9018958091B302843031F10E9403038D
:1033A00010926E0288E190E020E40FB6F894A895A0
:1033B000809360000FBE2093600083B7817F84609C
:1033C00083BF83B7816083BF7894889583B78E7FEE
:1033D00083BF0FB6F894A8958091600088618093B0
:1033E0006000109260000FBE08950E94F7060E94D0
:1033F0000B03089582E084BD93E095BD9AEF97BDDD
:1034000080936E0008952FB7F8948091AB0290914D
:10341000AC02A091AD02B091AE022FBF08952FB7BC
:10342000F8946091AB027091AC028091AD029091E2
:10343000AE022FBF08959C014FB7F8948091AB0264
:103440009091AC02A091AD02B091AE024FBF821B31
:10345000930B089578941F921FB61F9211248F9397
:103460009F93AF93BF938091AB029091AC02A091D8
:10347000AD02B091AE020196A11DB11D8093AB02C9
:103480009093AC02A093AD02B093AE02BF91AF9106
:103490009F918F911F901FBE1F90189581E0809380
:1034A000E00080E28093D8001092C9008FE19EE492
:1034B0000197F1F700C0000087E090EBDC018093FA
:1034C000BC029093BD02A093BE02B093BF0288E1FC
:1034D0009CE00FB6F894A895809360000FBE90937F
:1034E0006000FFCF88E19CE00FB6F894A895809328
:1034F00060000FBE90936000FFCF8091920208950C
:1035000008959C0182E08093E9009FEF8091E8009C
:10351000915085FD06C085ED8A95F1F70000911167
:10352000F5CF8091E80085FF0CC050E040E066E0F8
:1035300070E0C9010E94C61C8091E8008E778093DC
:10354000E8000895CF93DF93EC0180911601882362
:10355000B1F18091940287FF32C060E282E08093F3
:10356000E9008FEF9091E800815095FD06C095ED40
:103570009A95F1F700008111F5CF8091E80085FF61
:103580001BC08091160170E050E040E0811104C042
:1035900050E040E068E070E0CE010E94C61C8091DF
:1035A000E8008E778093E80080E2FE01A2E7B2E0B7
:1035B00001900D928A95E1F7DF91CF91089568E02F
:1035C00081E0CDCF80936F0270937102609370029F
:1035D0008091B302843001F582E08093E9008FEF9F
:1035E0009091E800815095FD06C095ED9A95F1F710
:1035F00000008111F5CF8091E80085FF0DC050E0FB
:1036000040E063E070E08FE692E00E94C61C80918B
:10361000E8008E778093E8000895BC0184E00E9462
:10362000E21A0895BC0183E00E94E21A0895809195
:10363000B202811109C00E94561E0E94B31E8091E1
:10364000E20084608093E20008951092B20208952F
:103650000E94741908956091AF0281E0611101C068
:1036600080E00E946B1908959091B30281E094303C
:1036700009F080E06091AF020E947119089542E064
:1036800061EC81E00E94D21D42E261EC82E00E9486
:10369000D21D9091B30281E0943009F080E06091F6
:1036A000AF020E94611908958091B502833009F438
:1036B00061C030F48130D1F1823009F49EC00895A8
:1036C0008A3009F48AC08B3009F46FC0893009F060
:1036D00050C08091B402813209F04BC08091B80291
:1036E0009091B902029708F044C08091E800877F6A
:1036F0008093E8008091E80082FF37C09091F3004A
:103700008091F200029731F48091F100813011F044
:10371000863021F48091F100809392028091E8003C
:103720008B778093E8000E94061E23C08091B4022C
:10373000813AF9F48091E800877F8093E8008091D6
:10374000B8029091B902892B61F460E282E792E0BD
:1037500070E00E94151D8091E8008B778093E8004F
:10376000089560E090E080E0F3CF8091B302811192
:10377000C1CF08958091B402813AD9F78091B802FF
:103780009091B902892BA9F78091E800877F8093F7
:10379000E8008091E80080FFFCCF809116018093C3
:1037A000F1008091E8008E77BCCF8091B402813225
:1037B00001F78091B8029091B902892BD1F68091DE
:1037C000E800877F8093E8000E94061E8091B60281
:1037D000809316010E94F70608958091B402813209
:1037E00041F68091E800877F8093E8000E94061EE2
:1037F0008091B7028093930208958091B402813A38
:1038000009F0B7CF8091E800877F8093E80080912E
:10381000E80080FFFCCF80919302C1CF84B7877FFF
:1038200084BF0FB6F894A89580916000886180935A
:103830006000109260000FBE80E890E00FB6F89430
:1038400080936100909361000FBE0E947A190895E1
:103850000E94561E0E94B31EE2EEF0E0808184605A
:10386000808378940E94322108958AE091E00E943A
:103870002B1808958091B302853031F48091B30202
:10388000853019F00E94F51908950E94CA19809197
:10389000B102882399F30E948719882379F30E9443
:1038A000B01C0E94F706EACF08950E94581C0895A4
:1038B000292F33272330310519F168F421303105E0
:1038C00009F444C02230310509F445C090E080E09D
:1038D00030E020E025C02132310549F122323105A6
:1038E000A9F780E490E021EC33E061157105C1F0A7
:1038F00086EB90E02BE033E06130710589F0E6CF94
:1039000099278130910581F0009729F00297F1F60F
:10391000EEE6F2E002C0EAEBF2E0849190E09F0173
:10392000FA01318320830895E8EAF2E0F6CF89E0D6
:1039300090E020ED32E06115710591F389E090E0AF
:1039400029EE32E06130710559F3C0CF82E190E099
:1039500029EF32E0E5CF8BE390E02EEB32E0E0CFD1
:1039600080E189BD82E189BD09B400FEFDCF80916F
:10397000D8008F7D8093D8008091E0008260809392
:10398000E0008091E00081FDFCCF0895AF92BF92EE
:10399000CF92DF92FF920F931F93CF93DF936C012F
:1039A000EB018A010E94251EF82E811123C001150A
:1039B000110539F0F80180819181C81BD90BC80E1F
:1039C000D91EB12CA12C2097A9F08091E80085FD8B
:1039D00022C08091E8008E778093E80001151105E0
:1039E000A1F0F80180819181A80EB91EB182A08258
:1039F00085E0F82E8F2DDF91CF911F910F91FF90D1
:103A0000DF90CF90BF90AF9008950E94251E88232D
:103A1000D1F2F82EEFCFF60181916F018093F10082
:103A20002197FFEFAF1ABF0ACECFFC018091BA02F7
:103A30009091BB0286179707A0F06115710529F4D4
:103A40009091E8009E779093E80090E061157105F1
:103A500051F4911108C08091E80082FF34C080E0E9
:103A60000895BC01F2CF8091B3028823C1F1853063
:103A7000C1F18091E80083FD30C08091E80082FDB3
:103A8000EACF8091E80080FFE1CF8091F3002091A0
:103A9000F200382F6115710519F02830310558F002
:103AA00091E02830310509F090E02091E8002E7770
:103AB0002093E800CBCF81918093F1006150710990
:103AC0002F5F3F4FE7CF8091B302882341F08530CD
:103AD00041F08091E80083FFBECF81E0089582E04D
:103AE000089583E00895FC018091BA029091BB0291
:103AF00086179707A0F06115710529F48091E800F9
:103B00008E778093E80090E06115710551F4911172
:103B100008C08091E80082FF35C080E00895BC01B4
:103B2000F2CF8091B3028823C9F18530C9F1809129
:103B3000E80083FD31C08091E80082FDEACF8091EA
:103B4000E80080FFE1CF8091F3002091F200382F50
:103B50006115710519F02830310558F091E02830D1
:103B6000310509F090E08091E8008E778093E800BD
:103B7000CBCF84918093F1003196615071092F5F12
:103B80003F4FE6CF8091B302882341F0853041F06A
:103B90008091E80083FFBDCF81E0089582E0089521
:103BA00083E00895982F973028F08F708093E90074
:103BB00081E008959093E900242F762F50E0981724
:103BC00031F07091EC002091ED005091F00021FD5A
:103BD00002C09F5FE8CF3091EB003E7F3093EB0057
:103BE0003091ED003D7F3093ED003091EB0031607E
:103BF0003093EB007093EC002093ED005093F000B5
:103C00002091EE0027FDE5CF80E008958091B40279
:103C100087FF13C08091E80082FF06C08091E80012
:103C20008B778093E80004C08091B3028111F2CFBA
:103C300008958091B3028823D9F38091E80080FF32
:103C4000F8CF8091E8008E77ECCF2091E40030919E
:103C5000E50095E6A9012091EC00822F817020FFFC
:103C600006C08091E80080FF06C080E008952091A2
:103C7000E80022FD1AC08091B302882389F08530C4
:103C800089F08091EB0085FD0FC02091E400309118
:103C9000E50042175307F9F29150E1F684E00895E8
:103CA00082E0089583E0089581E008950E94C51E92
:103CB0000E94CD1EE0EEF0E0808181608083E8ED1F
:103CC000F0E080818F77808319BCA7EDB0E08C9104
:103CD0008E7F8C9380818F7E80831092B2020895B4
:103CE0000F931F93CF93DF930E94C51E0E94CD1E9A
:103CF000C8EDD0E088818F77888388818068888349
:103D000088818F7D888319BC1092B3021092AF0214
:103D10001092B1021092B00200EE10E0F801808122
:103D20008B7F808388818160888342E060E080E0CF
:103D30000E94D21DE1EEF0E080818E7F8083E2EE72
:103D4000F0E0808181608083808188608083F801D9
:103D500080818E7F8083888180618883DF91CF918D
:103D60001F910F910895E8EDF0E080818F7E8083B0
:103D7000E7EDF0E080818160808384E082BF81E0B4
:103D80008093B2020E94701E0895E8EDF0E08081F9
:103D90008E7F80831092E20008951092DA001092D4
:103DA000E10008951F920F920FB60F9211242F93E6
:103DB0003F934F935F936F937F938F939F93AF93B3
:103DC000BF93EF93FF938091E10082FF0BC080913E
:103DD000E20082FF07C08091E1008B7F8093E100C9
:103DE0000E9431218091DA0080FF19C08091D800B3
:103DF00080FF15C08091DA008E7F8093DA00809179
:103E0000D90080FF96C080E189BD82E189BD09B4F7
:103E100000FEFDCF81E08093B3020E94171B8091CA
:103E2000E10080FF19C08091E20080FF15C0809101
:103E3000E2008E7F8093E2008091E20080618093B7
:103E4000E2008091D80080628093D80019BC85E0A0
:103E50008093B3020E942B1B8091E10084FF2BC052
:103E60008091E20084FF27C080E189BD82E189BDA5
:103E700089B5982F917080FFFBCF8091D8008F7DFE
:103E80008093D8008091E1008F7E8093E100809143
:103E9000E2008F7E8093E2008091E2008160809357
:103EA000E2008091AF02882309F449C084E0809346
:103EB000B3020E94341B8091E10083FF29C08091EE
:103EC000E20083FF25C08091E100877F8093E100BD
:103ED00082E08093B3021092AF028091E1008E7F66
:103EE0008093E1008091E2008E7F8093E2008091D8
:103EF000E20080618093E20042E060E080E00E94A6
:103F0000D21D8091F00088608093F0000E94281BF1
:103F1000FF91EF91BF91AF919F918F917F916F91A1
:103F20005F914F913F912F910F900FBE0F901F9077
:103F3000189519BC1092B3020E94251B70CF809176
:103F4000E30087FD93E09093B302B3CF1F920F92EB
:103F50000FB60F9211242F933F934F935F936F935C
:103F60007F938F939F93AF93BF93CF93DF93EF9301
:103F7000FF93D091E900DF708091EC00C82FC170F1
:103F800080FDC0E81092E9008091F000877F809367
:103F9000F00078940E94EA1F1092E9008091F000EE
:103FA00088608093F000CD2BCF70C093E900FF9123
:103FB000EF91DF91CF91BF91AF919F918F917F91C1
:103FC0006F915F914F913F912F910F900FBE0F9086
:103FD0001F901895AAE2B0E0E0EFFFE10C94D62123
:103FE00084EB92E02091F100FC012193CF01F2E0FB
:103FF0008C3B9F07B9F70E94541B8091E80083FF18
:104000001EC18091B4029091B5029A3008F017C198
:10401000E92FF0E0EC59FD4D0C94A721803899F080
:10402000823809F00CC18091B8028F70873008F097
:1040300006C18093E9008091EB0085FB882780F919
:104040001092E90006C08091B0029091B1029111E6
:1040500082609091E800977F9093E8008093F10050
:104060001092F1008091E8008E77E5C0882309F472
:10407000D3C0823009F0E3C08091B6028111D6C06E
:104080008091B8028F702FEF280F263008F0D7C02C
:104090008093E9002091EB0020FFC8C0933031F4F9
:1040A0008091EB0080628093EB00C0C09091EB00A8
:1040B00090619093EB0021E030E001C0220F8A95DF
:1040C000EAF72093EA001092EA008091EB00886002
:1040D000EACF8111B4C01091B6021F778091E3003E
:1040E0008078812B8093E3008091E800877F809324
:1040F000E8000E94061E8091E80080FFFCCF8091BE
:10410000E30080688093E30082E0111183E08093F4
:10411000B30295C08058823008F091C08091B602F9
:104120009091B7028C3D23E09207A1F583E08A834A
:104130008AE289834FB7F894DE01139620E03EE0CF
:1041400051E2E32FF0E050935700E49120FF03C0C9
:10415000E295EF703F5FEF708E2F90E0EA30C0F095
:10416000C7968D939D932F5F243159F74FBF809150
:10417000E800877F8093E8006AE270E0CE01019654
:104180000E94151D8091E8008B778093E80057C04E
:10419000C096E7CF6091B8027091B902AE014F5F4F
:1041A0005F4F0E94551CBC01892B09F448C09091B7
:1041B000E800977F9093E80089819A810E94731D9F
:1041C000E1CF8038E1F58091E800877F8093E800B7
:1041D0008091AF028093F10045CF811130C0909162
:1041E000B602923060F58091E800877F8093E80006
:1041F0009093AF020E94061E8091AF02882311F0B7
:1042000084E005C08091E30087FDFACF81E08093D0
:10421000B3020E943F1B13C08091B602813079F433
:1042200081E0933009F080E08093B1021092E900C0
:104230008091E800877F8093E8000E94061E8091AD
:10424000E80083FF0AC08091E800877F8093E80040
:104250008091EB0080628093EB00AA96E3E00C94DF
:10426000F2210895CF938091B3028823A1F0C091E9
:10427000E900CF709091EC00892F817090FD80E86B
:10428000C82B1092E9008091E80083FD0E94EA1F8C
:10429000CF70C093E900CF910895DB018F939F9376
:1042A0000E94BC21BF91AF91A29F800D911DA39F41
:1042B000900DB29F900D11240895AA1BBB1B51E1D4
:1042C00007C0AA1FBB1FA617B70710F0A61BB70B86
:1042D000881F991F5A95A9F780959095BC01CD012B
:1042E000089597FB072E16F4009407D077FD09D0A8
:1042F0000E945D2107FC05D03EF4909581959F4F6B
:104300000895709561957F4F0895A1E21A2EAA1B1A
:10431000BB1BFD010DC0AA1FBB1FEE1FFF1FA21775
:10432000B307E407F50720F0A21BB30BE40BF50B72
:10433000661F771F881F991F1A9469F760957095FB
:10434000809590959B01AC01BD01CF010895EE0FC2
:10435000FF1F0590F491E02D0994A29FB001B39F37
:10436000C001A39F700D811D1124911DB29F700D7E
:10437000811D1124911D08950E94AD21A59F900DCE
:10438000B49F900DA49F800D911D112408952F922C
:104390003F924F925F926F927F928F929F92AF92D5
:1043A000BF92CF92DF92EF92FF920F931F93CF9322
:1043B000DF93CDB7DEB7CA1BDB0B0FB6F894DEBFB9
:1043C0000FBECDBF09942A88398848885F846E84DF
:1043D0007D848C849B84AA84B984C884DF80EE8029
:1043E000FD800C811B81AA81B981CE0FD11D0FB632
:1043F000F894DEBF0FBECDBFED010895FB01DC01D7
:1044000004C08D910190801921F441505040C8F7AB
:10441000881B990B0895FB01DC0102C001900D92ED
:1044200041505040D8F70895F999FECF92BD81BD13
:10443000F89A992780B50895A8E1B0E042E050E0ED
:104440000C944822262FF999FECF92BD81BDF89A8F
:10445000019700B4021639F01FBA20BD0FB6F894C8
:10446000FA9AF99A0FBE08950396272F0E942322E5
:104470000E942222252F0E942322242F0C942322E3
:104480000196272F0E9423220C942222DC01CB01CB
:10449000FC01F999FECF06C0F2BDE1BDF89A319654
:1044A00000B40D9241505040B8F70895F894FFCFF2
:1044B000E204E20413051305A005BC05420542050C
:1044C000C7053806470647060E2036201F2136202E
:0C44D0001F2169208A201F21E120ED201F
:1044DC001C02280850011E0814017D1AA21A811A08
:1044EC00121B0D1B801A01E200E900EA00B500B6B0
:1044FC0000B700CD008301CC008A01920194012108
:10450C0002230224022502260227022A02B300B447
:10451C00006F007000818283E200E900EA00B500C0
:10452C00B600B700CD008301CC008A019201940142
:10453C002102230224022502260227022A02B300AA
:10454C00B4006F007000818283F0F1C66766379407
:0E455C0031303534979633F490919293950058
:00000001FF
