:100000000C9422080C9469080C9469080C946908F3
:100010000C9469080C9469080C9469080C9469089C
:100020000C9469080C9469080C9400300C94D2303C
:100030000C9400270C9469080C9469080C946908C6
:100040000C9469080C9469080C9469080C9469086C
:100050000C9469080C9474270C9469080C94690832
:100060000C9469080C9469080C9469080C9469084C
:100070000C9469080C9469080C9469080C9469083C
:100080000C9469080C9469080C9469080C9469082C
:100090000C9469080C9469080C9469080C9469081C
:1000A0000C9469080C9469080C946908D714DA1444
:1000B000E214E714EC14F114F614FB140015051502
:1000C0000A150F151115141517151A151D152015DC
:1000D000221527157C1C7C1CAE1CAE1CFB1C391E7B
:1000E000391E391E1B1DB81DC91DC91D291E391EEB
:1000F000391E321EB71EB71EC91EC91EC01EC91E1C
:10010000C91EC91EB71EB71EC51EC91EC91EC51EE3
:10011000B429A229C62904289F2A9F2A9F299F2AF9
:100120009F2AF3299F2A072A7F2A9F2A9F2A9F2AEC
:100130009F2A3B2A9F2A9F2A242A9F2ADF299F2A17
:100140009F2A992A992A992A992A992A992A992A91
:10015000992A992A9B2A9F2AB42997299F2A9F2A5C
:100160009F2A9F2A9F2A9F2A9F2A9F2A9F2A9F2A47
:100170009B2A9F2A9F2A9F299F2A972A972A972A54
:10018000972A972A972A972A972A972A9B2A3F31B4
:100190006631583266315832B231D53158322B324D
:1001A0003A3229001E001F002000210022002300F7
:1001B00024002500260027002D002E002A002B00F9
:1001C00014001A000800150017001C0018000C008D
:1001D000120013002F0030004C00015104001600E3
:1001E000070009000A000B000D000E000F0033008D
:1001F000340000002800E10000001D001B00060084
:1002000019000500110010003600370038000151B8
:100210005200E000E300E200000000002C000000BB
:10022000000000000000E600500051004F003500C3
:100230003A003B003C003D003E003F0040004100D2
:1002400042004300440045004C002B003D04560092
:100250005700E400000000004A0052004D00460034
:10026000AA00A900310001004200430044004500FB
:100270000000B300500051004F0000004900000092
:100280002800E100000048006500B2000000000006
:1002900053000000AC00AB00AE0001004B00E000DA
:1002A000E300E200000000002C000000000000005D
:1002B0000000E6004A004E004D0044454255473AD2
:1002C0002064697361626C65642E0A00444542557E
:1002D000473A20656E61626C65642E0A000A00254B
:1002E00030313662003A200025303258000A722F31
:1002F0006320303132333435363738394142434464
:1003000045460A007267626C696768742074696D9B
:1003100065722064697361626C652E0A007267629F
:100320006C696768742074696D657220656E6162BE
:100330006C65642E0A007267626C6967687420736A
:10034000657420687376205B4E4F454550524F4D83
:100350005D3A2025752C25752C25750A007267627B
:100360006C696768742073657420687376205B45D8
:100370004550524F4D5D3A2025752C25752C25751D
:100380000A007267626C69676874207261696E62E4
:100390006F7720736574206873763A2025642C2566
:1003A000642C25642C25750A007267626C69676885
:1003B000742064697361626C65205B454550524FDF
:1003C0004D5D3A207267626C696768745F636F6E37
:1003D0006669672E656E61626C65203D2025750A31
:1003E000007267626C6967687420656E61626C6533
:1003F000205B454550524F4D5D3A207267626C69F3
:100400006768745F636F6E6669672E656E61626CA4
:1004100065203D2025750A007267626C6967687403
:1004200020746F67676C65205B454550524F4D5D8A
:100430003A207267626C696768745F636F6E6669A1
:10044000672E656E61626C65203D2025750A00721D
:1004500067626C69676874206D6F6465205B4E4FDE
:10046000454550524F4D5D3A2025750A007267622E
:100470006C69676874206D6F6465205B45455052F8
:100480004F4D5D3A2025750A007267626C69676896
:10049000745F696E6974207267626C696768745F03
:1004A000636F6E6669672E6D6F6465203D20302E28
:1004B0002057726974652064656661756C74207676
:1004C000616C75657320746F20454550524F4D2EF9
:1004D0000A007267626C696768745F696E6974208C
:1004E0006565636F6E666967206973206E6F74203F
:1004F000656E61626C65642E0A007267626C696782
:1005000068745F696E6974207374617274210A0083
:100510007267626C696768745F696E697420636191
:100520006C6C65642E0A007267626C696768745F40
:10053000636F6E6669672E7370656564203D202564
:10054000640A007267626C696768745F636F6E66E5
:1005500069672E76616C203D2025640A007267620F
:100560006C696768745F636F6E6669672E73617428
:10057000203D2025640A007267626C696768745FB9
:10058000636F6E6669672E687565203D2025640A75
:10059000007267686C696768745F636F6E6669672D
:1005A0002E6D6F6465203D2025640A007267626CC1
:1005B000696768745F636F6E6669672E656E6162F6
:1005C0006C65203D2025640A007267626C6967686B
:1005D000745F636F6E66696720454550524F4D3AB0
:1005E0000A0000047F3F1F643214643214783C1EFA
:1005F0001E140A052223252628292A2C2D2F3032C5
:10060000333536383A3B3D3E4042434547494A4CF4
:100610004E5051535557595A5C5E60626466686922
:100620006B6D6F71737577797B7D7F81838587892A
:100630008A8C8E90929496989A9C9E9FA1A3A5A72F
:10064000A8AAACAEAFB1B3B4B6B8B9BBBCBEBFC15B
:10065000C2C3C5C6C7C9CACBCCCDCED0D1D2D2D3E6
:10066000D4D5D6D7D7D8D9D9DADADBDBDBDCDCDCFA
:10067000DCDCDDDDDDDDDCDCDCDCDCDBDBDBDADABD
:10068000D9D9D8D7D7D6D5D4D3D2D2D1D0CECDCC34
:10069000CBCAC9C7C6C5C3C2C1BFBEBCBBB9B8B649
:1006A000B4B3B1AFAEACAAA8A7A5A3A19F9E9C9AD4
:1006B00098969492908E8C8A89878583817F7D7BA2
:1006C00079777573716F6D6B6968666462605E5C83
:1006D0005A5957555351504E4C4A49474543424049
:1006E0003E3D3B3A3836353332302F2D2C2A2928DF
:1006F00026252322FFAA7F55406261636B6C6967E0
:10070000687420737465703A2025750A006261630D
:100710006B6C696768742064697361626C650A0058
:100720006261636B6C6967687420656E61626C6599
:100730000A006261636B6C6967687420746F676735
:100740006C653A2025750A006261636B6C696768A5
:10075000742064656372656173653A2025750A00CB
:100760006261636B6C6967687420696E637265614E
:1007700073653A2025750A0000010101010101019C
:100780000101020202020202020202030303030346
:100790000303030404040404040405050505050615
:1007A00006060606070707070708080808090909D3
:1007B000090A0A0A0B0B0B0C0C0C0D0D0D0E0E0E7C
:1007C0000F0F0F101011111112121313141415150D
:1007D00016161717181819191A1A1B1B1C1D1D1E7F
:1007E0001E1F2020212222232424252626272829D3
:1007F000292A2B2C2D2D2E2F303132323334353601
:100800003738393A3B3C3D3E3F4041424344454600
:100810004748494A4C4D4E4F5051535455565859DC
:100820005A5B5D5E5F616264656668696B6C6D6F83
:100830007072737577787A7B7D7E808283858788F6
:100840008A8C8E8F91939596989A9C9EA0A2A3A530
:10085000A7A9ABADAFB1B3B5B7BABCBEC0C2C4C631
:10086000C9CBCDCFD1D4D6D8DBDDDFE2E4E7E9EBED
:10087000EEF0F3F5F8FAFDFF0A00253032582000BB
:100880006B6579626F6172645F7265706F72743AE2
:1008900020000A0025303258006B6579626F617262
:1008A000645F7365745F6C65643A200064656C5FB7
:1008B0006B65795F6269743A2063616E27742064A6
:1008C000656C3A20253032580A006164645F6B65BC
:1008D000795F6269743A2063616E27742061646491
:1008E0003A20253032580A003F00433E20004C2574
:1008F000640A0074696D65725F72656164333228E1
:10090000293A202530346C580A006B65796D617086
:100910005F636F6E6669672E6E6B726F3A20255843
:100920000A006B6579626F6172645F69646C653A35
:100930002025580A006B6579626F6172645F70727E
:100940006F746F636F6C3A2025580A00686F737478
:100950005F6B6579626F6172645F6C65647328298F
:100960003A2025580A000A092D20537461747573C2
:10097000202D0A004743433A20342E392E3220419D
:1009800056522D4C4942433A20312E382E30737640
:100990006E204156525F415243483A20617672358B
:1009A0000A004F5054494F4E533A204C554641206F
:1009B00045585452414B455920434F4E534F4C4597
:1009C00020434F4D4D414E44204E4B524F2034302A
:1009D00039360A004255494C443A2022302E382EEE
:1009E00032312D322D676366343063332D64697282
:1009F000747922202831373A31393A3438204D6120
:100A0000722020382032303230290A005649443AC8
:100A10002030784645454428534154414E292050C2
:100A200049443A2030783630363028474836302925
:100A3000205645523A203078303030330A00444551
:100A400053433A20363025206B6579626F617264BA
:100A50002077697468206261636B6C6967687420D1
:100A6000616E642057533238313220737570706F65
:100A700072740A000A092D2056657273696F6E2020
:100A80002D0A000A092D20436F6E736F6C65202DAF
:100A90000A4553432F713A09717569740A000A09AE
:100AA0002D204D61676963202D0A443A094465622F
:100AB0007567204D65737361676520546F67676C58
:100AC000650A583A094D6174726978204465627507
:100AD00067204D6F646520546F67676C65202D201B
:100AE00053686F77206B65797072657373657320D7
:100AF000696E206D617472697820677269640A4B4F
:100B00003A094B6579626F6172642044656275676A
:100B100020546F67676C65202D2053686F77206BBA
:100B200065797072657373207265706F72740A4DA7
:100B30003A094465627567204D6F75736520546F7F
:100B400067676C650A563A0956657273696F6E0A73
:100B5000533A095374617475730A433A09416374D3
:100B6000697661746520436F6E736F6C65204D6F9D
:100B700064650A46312D4631303A0953776974630A
:100B80006820746F204C6179657220302D392028DF
:100B9000463130203D204C30290A302D393A095356
:100BA000776974636820746F204C617965722030B6
:100BB0002D390A47524156453A095377697463689B
:100BC00020746F204C6179657220302028616C742C
:100BD00065726E617465290A423A094A756D702022
:100BE000746F20426F6F746C6F616465720A455355
:100BF000433A094A756D7020746F20426F6F746CB0
:100C00006F616465722028616C7465726E617465D1
:100C1000290A453A095072696E7420454550524F71
:100C20004D2053657474696E67730A425350414393
:100C3000453A09436C65617220454550524F4D0A53
:100C40004E3A094E4B524F20546F67676C650A004D
:100C50000A002575002E6C6576656C3A20000A0046
:100C60002575002E656E61626C653A20000A0025CC
:100C7000303258006261636B6C696768745F636FE0
:100C80006E6669672E7261773A20000A002575004A
:100C90002E6E6B726F3A20000A002575002E737756
:100CA00061705F6261636B736C6173685F626163E3
:100CB0006B73706163653A20000A002575002E731E
:100CC0007761705F67726176655F6573633A200074
:100CD0000A002575002E6E6F5F6775693A20000A5D
:100CE000002575002E737761705F72616C745F729E
:100CF0006775693A20000A002575002E73776170C8
:100D00005F6C616C745F6C6775693A20000A00253E
:100D100075002E737761705F7263746C5F726775B4
:100D2000693A20000A002575002E737761705F6CA8
:100D300063746C5F6C6775693A20000A0025750062
:100D40002E636170736C6F636B5F746F5F636F6E44
:100D500074726F6C3A20000A002575002E7377615B
:100D6000705F636F6E74726F6C5F636170736C6FD2
:100D7000636B3A20000A0025303258006B65796DAC
:100D800061705F636F6E6669672E7261773A2000EB
:100D90000A002575002E6D6F7573653A20000A00F4
:100DA0002575002E6B6579626F6172643A20000AC6
:100DB000002575002E6D61747269783A20000A0072
:100DC0002575002E656E61626C653A20000A00256B
:100DD0003032580064656275675F636F6E6669677D
:100DE0002E7261773A20000A0025750064656661FD
:100DF000756C745F6C617965723A20003F004E4BF0
:100E0000524F3A206F66660A004E4B524F3A206F9F
:100E10006E0A000A6D6F7573653A206F66660A0088
:100E20000A6D6F7573653A206F6E0A000A6B6579FB
:100E3000626F6172643A206F66660A000A6B6579B8
:100E4000626F6172643A206F6E0A000A6D6174729B
:100E500069783A206F66660A000A6D617472697873
:100E60003A206F6E0A000A64656275673A206F6601
:100E7000660A000A64656275673A206F6E0A000AA6
:100E80000A4A756D70696E6720746F20626F6F74A7
:100E90006C6F616465722E2E2E2000433E2000434D
:100EA0006C656172696E6720454550524F4D0A006E
:100EB0006565636F6E6669673A0A005B735D004B38
:100EC0006579626F6172642073746172742E0A00B6
:100ED0005B575D005B535D005B525D005B445D00F2
:100EE0005B435D000403300000000A034700480034
:100EF0003600300000000C03530041005400410054
:100F00004E0000000403090409025B00030100A075
:100F1000FA09040000010301010009211101000187
:100F20002240000705810308000A090401000103AB
:100F3000000000092111010001226D000705820354
:100F400020000A0904020002030000000921110127
:100F50000001222200070583032000010705030387
:100F60002000011201100100000008EDFE60600386
:100F700000010203010631FF0974A1010975150082
:100F800026FF009520750881020976150026FF00CE
:100F9000952075089102C005010980A101850319FA
:100FA000012AB700150126B700950175108100C010
:100FB000050C0901A101850419012AA002150126C9
:100FC000A002950175108100C005010906A10185E7
:100FD00005050719E029E715002501950875018128
:100FE000020507190029EF1500250195F07501810B
:100FF00002050819012905950575019102950175EC
:10100000039101C005010906A101050719E029E7BF
:10101000150025019508750181029501750881016A
:101020000507190029FF150026FF009506750881A0
:1010300000050819012905950575019102950175AD
:10104000039101C011241FBECFEFDAE0DEBFCDBF98
:1010500004B603FE27C08091EF029091F002A091A8
:10106000F102B091F2028730904BA740B04BD1F41F
:101070001092EF021092F0021092F1021092F2021E
:1010800014BE84B7877F84BF0FB6F894A89580916B
:101090006000886180936000109260000FBEE0E005
:1010A000F8E3099511E0A0E0B1E0E0EDF6E602C05A
:1010B00005900D92A63CB107D9F722E0A6ECB1E06D
:1010C00001C01D92AF3EB207E1F70E94202D0C94A3
:1010D00066330C940000FF93EF93E091C601F0910A
:1010E000C701309709F00995EF91FF910895FC0130
:1010F0008591803011F0EFDFFBCF0895FF27E0E20C
:1011000030E247FF0CC0419597FF09C0EDE26095C2
:10111000709580959095611D711D811D911D27FF12
:1011200002C0219530E350E2AA27660F771F881F7F
:10113000991FAA1FA41710F0A41B63955A95A9F72D
:10114000AA3008F0A95FA05DAF93F3956115710512
:101150008105910541F7ED3211F4EF93F395F21704
:1011600018F43F93F395FBCF8F91B5DFFA95E1F734
:101170000895E991F9918591803021F0853219F037
:10118000AADFF9CF089520E0E89455915532C1F3D4
:10119000503311F4689455915A3348F4505390F3F6
:1011A000220F022E220F220F200D250FF4CF0EF456
:1011B000219589919991533619F3533729F1533574
:1011C00059F1BC0188279927E8945C3621F489916C
:1011D000999168945591543639F446EF7EF077FF33
:1011E0000DC08FEF9FEF0AC055374AE039F05835F0
:1011F00040E121F0523642E009F00895FF93EF9369
:101200007DDFEF91FF91B7CFFF93EF93FC018191C9
:101210008030B9F360DFFBCFFF93EF9368DFF1CF4E
:10122000DF93CF93CDB7DEB72596A3DFCF91DF91C4
:1012300008950C940D0C229A08950E940C0C0C94A5
:101240001B0981FF02C02A9808952A9A089581E017
:10125000089581E008950C9429091F93CF93DF939B
:1012600000D000D01F92CDB7DEB749835A832091BA
:10127000EE0189819A81211112C0662349F00E94F2
:10128000DC23182F682F89819A810E94812303C053
:101290000E94B023182F69817A81812F04C00E9497
:1012A000DC2369817A810F900F900F900F900F903F
:1012B000DF91CF911F910C940D0AFC014081518167
:1012C0006281738184810C942D090E94AD0C8FE39F
:1012D0009CE90197F1F700C000000E94AD0C80E08E
:1012E0000E940E0C80FF04C00E9441250C949A2796
:1012F00008950E9465090E944725811102C00E943D
:10130000F0250E9417170C941D090C94190981E00F
:1013100008950C948709CF93C82F0E9421098C2F20
:101320000E948909CF91089508950E94A71E0E94E6
:1013300094092FEF84E39CE0215080409040E1F736
:1013400000C000000C949A270F931F93CF93DF9354
:10135000EC010E945D098C01BE010E942B098823CB
:1013600009F450C0BE01C8010E947716882309F411
:1013700049C0BE01C8010E94C917882309F442C0B0
:10138000BE01C8010E940A188823E1F1BE01C8010C
:101390000E9435198823B1F1BE01C8010E94C01412
:1013A000882381F18A81882331F101308CE5180787
:1013B00051F00E3D8CE51807D9F001151C45D9F404
:1013C0000E9495091FC080918102C82FC095C170ED
:1013D000C0FB80F980938102CC2329F08CEC92E051
:1013E0000E9477080FC08AEB92E00E9477080BC03A
:1013F0000E94F02507C0CE01DF91CF911F910F9180
:101400000C942709C0E08C2FDF91CF911F910F9191
:10141000089580E090E0089508959EE0799FF0019E
:10142000112496E4899FE00DF11D1124E60FF11DB2
:10143000EE0FFF1FEE55FE4F859194910895880F92
:10144000991FFC01E352FD4F859194910895CF932C
:10145000DF930E940D0A0E94350BEC01811520E5F7
:10146000920708F041C0811530E4930708F0C7C027
:10147000803E910520F5803C910508F0B1C0883A86
:10148000910570F4853A910508F0A2C0813091056C
:1014900009F4E7C008F4E3C0049708F0E2C0DFC035
:1014A0008F3B910508F0DBC0C85AD0E0CC0FDD1FA0
:1014B000C35EDE4F0990D881C02DD464D2C081159F
:1014C00040E2940750F4C11581E0D80708F0C9C084
:1014D000C83ED10508F4C5C0C2C0811520E39207FB
:1014E00008F084C09F707EC0811535E5930708F031
:1014F00044C0811544E5940708F098C0C11582E501
:10150000D80708F5C11521E5D20708F07BC08C2F5C
:10151000837021E030E002C0220F331F8A95E2F78A
:101520003C68CE0174E0969587957A95E1F78370D3
:10153000382BCF70C695C69580E2C89FE001112474
:10154000C22BD32B8EC02C2F26952695CE018370CF
:101550009927C115D34508F05AC040E2249F900155
:101560001124C1E0D0E002C0CC0FDD1F8A95E2F764
:101570002C2B3D2BE901DC6874C0811549E59407EB
:10158000A0F4C11588E5D80708F055C0C11526E5B7
:10159000D20708F064C08C2F0E94C90B8F71C82F2E
:1015A000D0E0DC2FCC27D0625CC081153AE59307F0
:1015B00008F446C090568115904208F050C08D2F17
:1015C0008F710E94C90BDD27D0628F71D82B49C063
:1015D000C55AD0E0C55BDE4FC881D0E0D06441C0C1
:1015E000805C91090E941F0AEC013BC09927D3FF40
:1015F00003C0EC01D86C35C0EC01D06C32C0DF7098
:10160000D06A2FC0DC2FCC27C16FD06A2AC040E23D
:10161000249F90011124C1E0D0E002C0CC0FDD1F57
:101620008A95E2F7C22BD32BDA681BC0D82FCC27C0
:10163000C46FD06A16C0DC2FCC27C06FD06A11C02F
:101640008F700E94C90B94E0D695C7959A95E1F7E3
:10165000CF70D0E0DC2FCC27D069C82B02C0C0E00F
:10166000D0E0CE01DF91CF9108958238910569F1E4
:10167000B0F48133910509F46DC048F489329105C5
:1016800009F463C08A32910509F469C0089585336D
:10169000910509F455C089339105B9F00895833E49
:1016A000910569F138F4803E9105B1F0823E9105D3
:1016B00009F10895863E9105A9F1873E9105B9F19A
:1016C000843E910509F064C023C02091E00220FD12
:1016D0004FC021FD4DC008958091E00280FD44C0BF
:1016E0008091E10280FF44C08091E00284FD42C00D
:1016F00083EE4DC08091E00282FF38C0F5CF80912B
:10170000E00282FD33C08091E10280FD31C0ECCF68
:101710008091E10281FF32C08091E00284FD2AC005
:1017200087EE35C08091E00283FF26C0F5CF80911F
:10173000E00283FD21C08091E10281FD1FC0ECCF5A
:101740008091E00285FD1CC01DC08091E00285FDF6
:1017500019C016C08091E00286FD16C017C08091A6
:10176000E00286FD13C010C089E311C082EE0FC0F5
:1017700080EE0DC080E00BC086EE09C084EE07C08D
:1017800089E205C085E303C08AE201C081E390E0FD
:1017900008959091E00292FF0DC0282F2871283003
:1017A00019F4877F846006C0282F2471243011F437
:1017B0008B7F886093FF0DC0282F2871283119F482
:1017C000877E846106C0282F2471243111F48B7E1A
:1017D00088612091E10220FF0DC0382F3871383028
:1017E00019F4877F816006C0382F3171313011F4D0
:1017F0008E7F886021FF0DC0282F2871283119F4B1
:10180000877E816106C0282F2171213111F48E7EDF
:10181000886194FD877E089508950895E82FF0E08B
:10182000EE0FFF1FEC54FD4F808191810895CF9200
:10183000DF92EF92FF920F931F93CF93DF938DEE82
:1018400092E00E94770884EBE82E82E0F82EC0E058
:10185000D0E098EEC92E92E0D92E0FED12E0DF9382
:10186000CF93DF92CF920E94100985EE92E00E9402
:101870007708F701819191917F010E9427259F931D
:101880008F931F930F930E9410098DED92E00E9499
:10189000770821968DB79EB708960FB6F8949EBF2D
:1018A0000FBE8DBFC530D105D1F6DF91CF911F910D
:1018B0000F91FF90EF90DF90CF90089580EA8A9586
:1018C000F1F70895ACE5B1E041E050E025E02A0FE2
:1018D0008D91E82FE295EF70F0E031A18F70BA01A1
:1018E00002C0660F771F8A95E2F7CB01962F90957D
:1018F000932391A392A1892B82A32A13E9CFAEE46B
:10190000B1E041E050E02EE02A0F8D91E82FE29502
:10191000EF70F0E031A18F70BA0102C0660F771F3F
:101920008A95E2F7CB01962F9095932391A392A1EC
:10193000892B82A32A13E9CFEAEAF2E0A4EBB2E012
:10194000119211921D921D9272E0E43BF707C1F7CC
:1019500085E00E94420D0C9479094F925F926F923C
:101960007F928F929F92AF92BF92CF92DF92EF922F
:10197000FF920F931F93CF93DF938CE5A82E81E006
:10198000B82E0AEA12E0D12C88248394912C3801D5
:10199000D8014D905C9011971D921C92F501819198
:1019A0005F01C82FC295CF70D0E099A18F707401EC
:1019B00001C0EE0C8A95EAF7892F8E2989A38AA1A6
:1019C000CE2CC0948C218AA30E945E0CEEE4F1E040
:1019D00080E090E06191A62FA295AF70B0E0909664
:1019E0004C91D8012D913C9150E06F7002C05595FB
:1019F00047956A95E2F740FD08C0A401082E02C091
:101A0000440F551F0A94E2F702C040E050E0242B37
:101A1000352BD8012D933C9301968E309105D1F64C
:101A200089A1C822C9A28AA1E82AEAA20E5F1F4F93
:101A300081E0F301208131814216530609F480E0F0
:101A4000D82AF2E0043B1F0709F0A1CF2D2D45E075
:101A500064EB72E08AEA92E00E94430D0E948509DD
:101A60008D2DDF91CF911F910F91FF90EF90DF901F
:101A7000CF90BF90AF909F908F907F906F905F902E
:101A80004F9008950895FF920F931F93CF93DF9384
:101A9000F82E092F162FD72FC42F222349F081E0CB
:101AA0008093CA010E9432279093C9018093C80194
:101AB0008091CA018823D9F08091C8019091C90111
:101AC0000E944A27069798F0EF2DF02FA12FBD2FE7
:101AD00080E090E04C2F50E08417950734F421917A
:101AE00031912D933D930196F7CF1092CA01DF916A
:101AF000CF911F910F91FF900895AF92BF92CF9217
:101B0000DF92FF920F931F93CF93DF93D62E372F41
:101B1000E82FF0E0711106C0E858F84F6491762F75
:101B2000862F75C0C72FD0E0E858F84F2491F22EC9
:101B3000022F10E046E0649FC0011124EFEFF0E0B7
:101B4000BF010E94A732AB016BEA6403C001659F2D
:101B5000900D11248D0D911D8D0D911D982F990FB4
:101B6000890FDF01AC1BBD0B0A9FB0010B9F700DED
:101B70001A9F700D1124972F839FD0011124AB2F32
:101B8000BB276F01CA1ADB0A0C9DD0010D9DB00D59
:101B90001C9DB00D11245F01A81AB108AC9E600114
:101BA000AD9ED00CBC9ED00C1124CD2DDD27EC1B9E
:101BB000FD0B0E9FE0010F9FD00D1E9FD00D112435
:101BC000ED2F4230510591F04CF441155105E1F0F3
:101BD00041305105B9F4E22F2B2F16C04430510586
:101BE00069F044F04630510579F00CC0E22F272F00
:101BF0009D2F0AC0272F9F2DEB2F06C0E72F922F76
:101C00002D2F02C0E72F9B2F6E2F722F892FDF9170
:101C1000CF911F910F91FF90DF90CF90BF90AF9029
:101C200008950895CF93DF93762FE901682F842FCD
:101C30000E947D0D798368838A83DF91CF91089517
:101C40008091BE02282F269530E02115310519F428
:101C50008170826005C02532310524F0817088646E
:101C60008093BE02089588E090E00C942633CF93D1
:101C7000DF9300D000D0CDB7DEB7AB01BC01498304
:101C80005A836B837C830E94200E49815A816B8129
:101C90007C8188E090E00F900F900F900F90DF9183
:101CA000CF910C944433EEEBF2E083E08083118219
:101CB0008FEF82838383148260817181828193811B
:101CC0000C94370E8091810280FF08C089EC95E06A
:101CD0009F938F930E9410090F900F908091810223
:101CE00080FF0FC08091BE0281701F928F938CEA9B
:101CF00095E09F938F930E9410090F900F900F9083
:101D00000F908091810280FF0FC08091BE02869566
:101D10001F928F9381E995E09F938F930E94100902
:101D20000F900F900F900F908091810280FF0EC056
:101D30008091BF021F928F9387E795E09F938F93C7
:101D40000E9410090F900F900F900F9080918102C8
:101D500080FF0EC08091C0021F928F938DE595E0A9
:101D60009F938F930E9410090F900F900F900F90E8
:101D70008091810280FF0EC08091C1021F928F93DB
:101D800083E495E09F938F930E9410090F900F902A
:101D90000F900F908091810280FF0EC08091C2024F
:101DA0001F928F9387E295E09F938F930E94100973
:101DB0000F900F900F900F9008958091BE0280FFBA
:101DC00002C08695089580E008958091C202833014
:101DD00018F48F5F8093C2026091BE027091BF02BF
:101DE0008091C0029091C1020C94370E8091C20282
:101DF000882319F081508093C2026091BE027091D5
:101E0000BF028091C0029091C1020C94370E609184
:101E1000040170E08091BE0280FF0AC08091CF0172
:101E200023E0829FC00111248D539D4F0C945917BC
:101E30008091CE0190910301891780F7E82FF0E09F
:101E40009F01220F331FE20FF31FED53FD4F11824D
:101E5000108212828F5FF0CF9091BE0290FF16C069
:101E60009091CE0120910301921770F4E92FF0E0D8
:101E7000DF01AA0FBB1FEA0FFB1FED53FD4F81834C
:101E8000608342839F5FF0CF0C94070F0895CF9338
:101E9000DF9300D01F92CDB7DEB79091BE0290FFC6
:101EA0000AC09E012F5F3F4F0E94120E4B81698135
:101EB0008A810E942C0F0F900F900F90DF91CF918D
:101EC0000895CF93DF93EC01EC81F0E0EC50FA4FF2
:101ED0004491EEEBF2E0628181810E94470F8C8198
:101EE0008F5F8C83DF91CF910895CF93DF93EC01C7
:101EF000EEEBF2E0438162818C810E94470F8C817E
:101F00008F5F8C83DF91CF9108950F931F93CF93B1
:101F1000DF9300D01F92CDB7DEB78C018091CB014B
:101F200081110AC09E012F5F3F4F4FEF6FEF0E945C
:101F3000120E8A818093CB01F8018481813051F0A7
:101F400028F0823061F44091CB010AC08091CB012E
:101F500040E007C06091CB0140E080E003C040E07A
:101F600080E060E00E942C0FF801248130E0C9017C
:101F7000019663E070E00E94BB3284830F900F9063
:101F80000F90DF91CF911F910F9108956F927F92E3
:101F90008F929F92AF92BF92CF92DF92EF92FF9279
:101FA0000F931F93CF93DF9300D000D0CDB7DEB750
:101FB000182FD62E042FB22E9091BE0290FFB2C0E1
:101FC000E92FE695AE2FB0E0AF59BE4F8C918093CC
:101FD000D7019E7F923061F49E012F5F3F4F812F8A
:101FE0000E94120E4B8169818A810E942C0F60C071
:101FF000823019F40091C1025BC0863019F410914F
:10200000BF0256C08930D9F3893109F051C0E95176
:102010008E2F80958170C82EE695F0E0EC50F94F38
:10202000E590F490A12CFF2422E8822E23E0922E4A
:1020300060910201A616D0F56A2C712C6E9CC0012D
:102040006F9C900D7E9C900D112470E00E94A73231
:10205000812FCC2011F0860F01C0861B9091810248
:1020600090FF13C0FF92EF921F92CF921F928F9317
:102070001F92AF929F928F928C830E9410090FB68D
:10208000F894DEBF0FBECDBF8C819091CE01690E5A
:10209000711C9301220F331F260D371D2D533D4F09
:1020A000402F6D2D0E94120EA394C2CF0E94070FE5
:1020B0001093BF02D092C0020093C102BB20E9F08E
:1020C0006091BE027091BF028091C0029091C102E6
:1020D0000E94370E8091810280FF24C08091C1024E
:1020E0001F928F938091C0021F928F938091BF02A5
:1020F0001F928F938DE593E00CC08091810280FF49
:1021000011C01F920F931F92DF921F921F9386E3BD
:1021100093E09F938F930E9410090FB6F894DEBF4F
:102120000FBECDBF0F900F900F900F90DF91CF910A
:102130001F910F91FF90EF90DF90CF90BF90AF90E5
:102140009F908F907F906F900895EEEBF2E09181D9
:10215000282F438162818AE0890F0C94C60F81E0A9
:102160000C94A510EEEBF2E09181282F438162815F
:1021700086EF890F0C94C60F81E00C94B210EEEB41
:10218000F2E0628121E1620F08F46FEF282F4381B2
:1021900081810C94C60F81E00C94BF10EEEBF2E04D
:1021A000628121E1621B08F460E0282F4381818174
:1021B0000C94C60F81E00C94CE10EEEBF2E043815C
:1021C00021E1420F08F44FEF282F628181810C94A6
:1021D000C60F81E00C94DD10EEEBF2E0438121E1CB
:1021E000421B08F440E0282F628181810C94C60FC5
:1021F00081E00C94EC1020E00C94C60FFF920F933A
:102200001F93CF93DF93EC01F12C0FEF10E060915F
:102210000201F616E8F42091CE0130E02F0D311DB9
:10222000C901880F991F280F391F2D533D4F70E0AA
:10223000C8010E94BB32962F8C814091C1026091EF
:10224000C002F99E800D11240E94120EF394DFCF7C
:102250000E94070F9A818C8190FF02C08F5F01C09E
:1022600081508C83DF91CF911F910F91FF90089542
:10227000BF92CF92DF92EF92FF920F931F93CF9373
:10228000DF93FC01828180FF02C00FEF01C001E0FB
:1022900010E080910201181708F040C0C12ED12C27
:1022A0008091CE01E601C80FD11DCE01880F991F84
:1022B000C80FD91FCD53DD4F198218821A8234E01E
:1022C000E32EF12CB12C8091CD018B0D893014F0CF
:1022D000877005C087FF03C090910201890F082E07
:1022E000000C990BC816D90691F48091C1028E9DFD
:1022F000A0018F9D500D11245595479555954795F3
:102300009E016091C0028091BF020E94120EB00E29
:10231000F1E0EF1AF108B9F61F5FBBCF0E94070F7B
:102320008091CD01013031F4811102C08091020110
:10233000815007C090E001966091020170E00E9418
:10234000BB328093CD01DF91CF911F910F91FF9010
:10235000EF90DF90CF90BF900895CF938091CE0102
:1023600090910301891770F4E82FF0E09F01220F8C
:10237000331FE20FF31FED53FD4F118210821282C3
:102380008F5FF0CFC0E060910201C617B8F5EC2F67
:10239000F0E070E0CF010E94BB324091CE01480FC7
:1023A0008091CC01082E000C990B50E0E817F9073A
:1023B000C4F020910101022E000C330B2E173F07B1
:1023C00084F09A01220F331F240F351F2D533D4FE8
:1023D0004091C1026091C0028091BF020E94120E22
:1023E0000BC0FA01EE0FFF1F4E0F5F1FFA01ED53F6
:1023F000FD4F118210821282CF5FC5CF0E94070F5E
:10240000209100018091CC01820F8093CC019091AA
:102410000101920F9093010119165CF4082E000C33
:10242000990B4091020150E04150510984179507E2
:102430001CF0219520930001CF9108950F931F93D5
:10244000CF93DF938C01FC0184819581019681708B
:10245000992795838483C0E0D5E580910201C81750
:10246000F8F42091CE0130E02C0F311DC901880F06
:10247000991F280F391F2D533D4F4C2F4695F801BA
:1024800084819581840F911D81704091C10260917A
:10249000C0028D9F802D11240E94120ECF5FDDCFD0
:1024A000DF91CF911F910F910C94070F0F931F9302
:1024B000CF93DF93EC0100E010E080910201282F20
:1024C00030E00217130724F59091CE019801290FEF
:1024D000311DA901440F551F240F351F2D533D4FAA
:1024E000869590E04C81081719071CF4442331F0BD
:1024F00002C0411103C04091C10201C040E060919F
:10250000C0028091BF020E94120E0F5F1F4FD5CFF5
:102510000E94070F2C8130E02F5F3F4F217033273F
:102520002C83DF91CF911F910F9108956091BE028E
:10253000669570E04BE050E085E091E00E94113339
:10254000892B19F481E08093D8010E94322790935F
:10255000D1018093D0018091810280FF08C08DE17C
:1025600093E09F938F930E9410090F900F9008950E
:102570001092D8018091810280FF08C084E093E02E
:102580009F938F930E9410090F900F900895909140
:10259000BE0290FF54C09170811102C0926006C0CB
:1025A000853210F0986402C0880F982B9093BE0279
:1025B0006623B1F06091BE027091BF028091C002AB
:1025C0009091C1020E94370E8091810280FF1BC052
:1025D0008091BE0286951F928F938DE694E00BC08A
:1025E0008091810280FF0FC08091BE0286951F926C
:1025F0008F938FE494E09F938F930E9410090F9024
:102600000F900F900F906091BE02669570E04BE0C6
:1026100050E085E091E00E941133892B19F00E946F
:10262000B81202C00E94961281E08093D3014091BB
:10263000C1026091C0028091BF020C94FB1008950A
:10264000682F9091BE02969581E0890F853208F03F
:1026500081E00C94C71281E00C942013682F9091B4
:10266000BE0296958FEF890F09F484E20C94C7128D
:1026700081E00C942E1361E00C94C7128091BE028D
:1026800081608093BE028091810280FF0DC01F9205
:1026900081E08F9381EE93E09F938F930E941009C6
:1026A0000F900F900F900F908091BE0286950C9422
:1026B0003B1360E00C94C7128091D601811160C079
:1026C0008091810280FF08C080E195E09F938F9305
:1026D0000E9410090F900F908091810280FF08C026
:1026E0008AEF94E09F938F930E9410090F900F90B0
:1026F0000E944725811110C08091810280FF08C08F
:1027000082ED94E09F938F930E9410090F900F9099
:102710000E94F0250E94530E0E94330E6093BE0269
:102720007093BF028093C0029093C1026E7FC1F488
:102730008091810280FF08C089E894E09F938F9385
:102740000E9410090F900F900E94530E0E94330EAA
:102750006093BE027093BF028093C0029093C10247
:102760000E94200E0E94620E1092D8018091BE023B
:1027700080FF03C086950E94591381E08093D601A3
:1027800008958091BE028E7F8093BE026091BE024A
:102790007091BF028091C0029091C1020E94370ED9
:1027A0008091810280FF0FC08091BE0281701F92D4
:1027B0008F9389EA93E09F938F930E9410090F9063
:1027C0000F900F900F900E94B8122FEF80E792E0C9
:1027D000215080409040E1F700C000000C94070FAA
:1027E0008091810280FF10C08091BE02809581702F
:1027F0001F928F9388E194E09F938F930E9410091A
:102800000F900F900F900F908091BE0280FD0C945E
:10281000C1130C943E130F931F93CF93DF938091BA
:10282000D801882309F48CC08091D701E091BE02C1
:10283000E695E81BE093D201823049F4F0E0E051E4
:10284000FA4FE491CE2FD0E001E61FE049C0863078
:1028500049F4F0E0E351FA4FE491CE2FD0E005E7E0
:102860001FE03EC0893051F4E695F0E0E651FA4FA2
:10287000E491CE2FD0E00EEF10E132C08F3051F452
:10288000E695F0E0E951FA4FE491CE2FD0E008E36D
:1028900011E126C0853149F4F0E0EC51FA4FE491A2
:1028A000CE2FD0E00DEA11E11BC0883181F08332D8
:1028B00039F4E2EEF5E0C591D49105E81FE010C0CF
:1028C000843251F4C4EFD1E006E512E109C0C8EE4C
:1028D000D3E00EE112E104C0C0EDD7E001E11EE05B
:1028E0008091D301882389F01092D3010E9432276E
:1028F0009E0120953095820F931F9093D101809374
:10290000D0011092D5011092D4018091D001909104
:10291000D1010E944A278C179D0790F0E091D001C9
:10292000F091D101CE0FDF1FD093D101C093D00120
:1029300080ED91E0F801DF91CF911F910F91099403
:10294000DF91CF911F910F910895882311F0FA0123
:1029500001C0FB010994CF93DF93C82FD62F0E94AB
:10296000DD0E8C1740F00E94DD0E8D1720F4DF91F4
:10297000CF910C942B138C2FDF91CF910C943B13A0
:102980000F931F93CF93FB01C281CC2309F463C043
:102990008C010E945C248272F801E25CFC45E43107
:1029A000F10508F059C0EA5AFF4F0C94F1320E9429
:1029B000F01306C048E353E16BE273E10E94A514F3
:1029C000C0E04AC04BE253E168E373E1F7CF4CEB60
:1029D00050E16FEA70E1F2CF4FEA50E16CEB70E149
:1029E000EDCF4AED50E16BEC70E1E8CF4BEC50E1FC
:1029F0006AED70E1E3CF48EF50E169EE70E1DECFC0
:102A000049EE50E168EF70E1D9CF46EF5EE065EE48
:102A10007EE0D4CF45EE5EE066EF7EE0CFCF81E092
:102A200017C065E082E010C068E086E00DC06EE08F
:102A300089E00AC064E18FE007C067E185E104C076
:102A400088E106C062E289E10E94AB14B9CF83E25B
:102A50000E943B13B5CFC1E08C2FCF911F910F91F6
:102A600008950E944725811102C00E94F0250E940E
:102A700078258093DB02282F26952695269530E031
:102A80002530310524F0877080628093DB028091CD
:102A9000DB0280FF04C086958695869501C080E0A4
:102AA0000C94AC162091DB02822F86958695869534
:102AB000482F50E04430510554F48F5F982F990F00
:102AC000990F990F822F8770892B8093DB02809159
:102AD000DB0281608093DB020E947C258091810271
:102AE00080FF11C08091DB028695869586951F92A6
:102AF0008F9380E697E09F938F930E9410090F9029
:102B00000F900F900F908091DB02869586958695A9
:102B10000C94AC168091DB02982F9695969596951D
:102B2000A1F0915E990F990F990F8770892B80936F
:102B3000DB02887F91E009F490E08091DB0290FB5A
:102B400080F98093DB020E947C258091810280FFC6
:102B500011C08091DB028695869586951F928F9392
:102B600088E497E09F938F930E9410090F900F9035
:102B70000F900F908091DB028695869586950C9438
:102B8000AC168091DB0280FD1FC081608093DB0268
:102B9000813019F489E08093DB028091DB020E948E
:102BA0007C258091810280FF08C080E297E09F939E
:102BB0008F930E9410090F900F908091DB028695F1
:102BC000869586950C94AC1608958091DB0280FF63
:102BD00014C08E7F8093DB020E947C25809181024D
:102BE00080FF08C08DE097E09F938F930E941009AB
:102BF0000F900F9080E00C94AC160895CF93C09185
:102C0000DB02C1708091810280FF0CC01F92CF93C4
:102C100082E397E09F938F930E9410090F900F908B
:102C20000F900F90CC2319F0CF910C94E515CF9114
:102C30000C94C1159091DB02892F86958695869517
:102C40008F5F8F719770853038F4880F880F880FE9
:102C5000892B8093DB0202C09093DB028091DB0220
:102C6000887F91E009F490E08091DB0290FB80F98D
:102C70008093DB020E947C258091810280FF11C03D
:102C80008091DB028695869586951F928F9389EFBA
:102C900096E09F938F930E9410090F900F900F90D2
:102CA0000F908091DB028695869586950C94AC16E4
:102CB000853008F084E09091DB029770282F220F76
:102CC000220F220F922B9093DB02987F21E009F4D0
:102CD00020E09091DB0220FB90F99093DB020C94B2
:102CE000AC160E9458168091DB020C947C259C0146
:102CF000FB018281882349F12D3BFCE53F07C9F0A8
:102D000040F42B3BECE53E0769F02C3B3C4561F081
:102D100008952F3B9CE5390791F070F0203C3C452D
:102D200089F0089584E001C080E00E94711680E07F
:102D300008950E948A15FBCF0E945215F8CF0E9479
:102D4000FE15F5CF0E941A16F2CF81E00895269A5B
:102D50002E9808952E980895CF92DF92EF92FF92C9
:102D6000CF93DF931F92CDB7DEB7853060F481112A
:102D70000BC0909180009F7D9093800089830E947A
:102D8000AA16898106C084E0909180009062909399
:102D90008000282F30E0AFEFBFEF0E94F732DC0158
:102DA000CB0142E0B695A795979587954A95D1F7BF
:102DB0008C3724E19207A105B10528F469E070E0A1
:102DC0000E94A73227C08A50974DAF4FBF4F66274A
:102DD000782F892F9A2F25EF38E241E050E00E94AA
:102DE000CF3269017A01CA01B9010E948B329B017D
:102DF000AC01C701B6010E948B32BB27A92F982FC7
:102E0000872F009721E0A207B10511F0BC0102C095
:102E10006FEF7FEF70938B0060938A000F90DF91CC
:102E2000CF91FF90EF90DF90CF90089508950E948A
:102E3000A71682E28093800089E1809381008FEF62
:102E40009FEF90938700809386000C9431152EB1EC
:102E5000342F309523233EB1432B3FB7F894FC0128
:102E6000680F791FE617F70789F0819198E04EB94E
:102E7000000000C087FF2EB9880F000000C000C00E
:102E800000C02EB900C09A9591F7ECCF3FBF0895CE
:102E90002DB1242B2DB99B01220F331F620F731FFD
:102EA0000E94271787EC90E00197F1F700C000001F
:102EB000089544E00C9448170F931F93CF93DF932A
:102EC000C62FD42F022FFC0182818823C9F0609382
:102ED000DB010E9432279093DA018093D90180E2CE
:102EE0008C0F883008F050C0C77081E001C0880F97
:102EF000CA95EAF7DF91CF911F910F910C943C1C7A
:102F00001091DB01161330C08091D9019091DA0144
:102F10000E944A27883C910538F5C0E2CD0F1D1765
:102F2000B9F080E2810F883040F4177081E001C071
:102F3000880F1A95EAF70E94431CC83048F481E0D4
:102F40009D2F977001C0880F9A95EAF70E943C1C4C
:102F5000802F0E94291CC830B8F4D77081E001C0CE
:102F6000880FDA95EAF70AC080E28C0F883060F4A7
:102F7000C77081E001C0880FCA95EAF7DF91CF9151
:102F80001F910F910C94431CDF91CF911F910F91D2
:102F900008959C01CB01233F4CE53407F9F078F408
:102FA000283DFCE53F07B9F0293D4CE5340711F118
:102FB000273D3C4531F526E241EE61EE1EC0253F3E
:102FC000FCE53F0799F070F0263F3C45D1F427E23D
:102FD00045EE66EE12C027E245EE0EC026E241EE57
:102FE00060EE0BC027E245EE64EE07C026E241EE3C
:102FF00062EE03C028E241E065EE0E945C1780E0CB
:103000000895FC018281882319F01092DB01089554
:1030100081E00895CF93DF93EC01FB018281882347
:1030200009F41FC1C230FCE5DF0708F41BC1C6313B
:103030009CE5D90738F09E012A5F3C4529303105CF
:1030400008F010C10E945A259093E1028093E0029B
:10305000C031ECE5DE0709F4C3C008F041C0C83058
:103060008CE5D80709F49AC0F0F4C430ECE5DE072B
:1030700009F487C068F4C2308CE5D80709F477C03A
:10308000C330DC4509F0E3C08091E002826076C085
:10309000C630ECE5DE0709F46EC008F07BC0809115
:1030A000E00288606BC0CC308CE5D80709F485C09D
:1030B00068F4CA30ECE5DE0709F474C008F079C0A2
:1030C0000E94A71E8091E002806858C0CE308CE537
:1030D000D80709F476C008F07FC08091E0028BC069
:1030E000CB3FECE5DE0709F44FC018F5C3318CE5A2
:1030F000D80709F47DC078F4C131ECE5DE0709F4A6
:1031000073C0C231DC4509F0A2C00E94A71E8091A5
:10311000E0028F7733C0C5318CE5D80709F472C05F
:1031200008F486C0CA3FDC4509F091C08091E102F5
:103130003EC0CF3FFCE5DF0709F45FC058F4CD3F48
:103140009CE5D90709F444C008F43FC08091E1022E
:1031500082602DC0C130FDE5DF0709F475C008F4B9
:103160005DC0C230DD4509F072C080E06EC0809164
:10317000E002816003C08091E00280618093E00200
:1031800066C08091E00211C08091E102826080936C
:10319000E1025DC08091E0028062F0CF8091E002A8
:1031A0008064ECCF8091E00288608460E7CF81602A
:1031B000EECF8091E0028E7FE1CF8091E0028D7FA3
:1031C000DDCF8091E002877FD9CF8091E10218C0E6
:1031D0008091E1028D7FDBCF8091E0028F7ECECFA8
:1031E0008091E0028F7DCACF8091E0028F7BC6CFB5
:1031F0008091E002877F8B7FC1CF8091E1028D7F3C
:103200008E7FC5CF8091E00282FB222720F991E0DA
:10321000922790FB82F990FB83F9B0CF8091E10275
:10322000982F909591708E7F892B90FB81F9AFCF6D
:103230000E94A71E8091E00287FB222720F991E0DF
:10324000922790FB87F99ACF81E00E94F225809126
:10325000E0029091E1020E946B250E94A71E80E08F
:1032600001C081E0DF91CF910895CF93DF93863144
:103270009C4541F5EB010E945C24282F8A814091F6
:10328000100150911101882379F02A7A91E009F414
:1032900090E09093DC01911102C069E201C065E306
:1032A000CA010E947E260AC08091DC01811102C001
:1032B00069E201C065E3CA010E9489260E94A82430
:1032C00080E001C081E0DF91CF9108959093E20109
:1032D0008093E1010895E091E101F091E2013097DE
:1032E00021F00190F081E02D099480E00895EF92A3
:1032F000FF921F93CF93DF93FC01A091E101B09166
:10330000E201109709F442C080911C01882341F02A
:103310008091E00287FF04C08081818385E0808303
:10332000EF011296ED91FC911397CE0109958091D2
:10333000810282FF2BC080FF04C080E898E00E94D9
:10334000770818E08AE7E82E88E0F82E809181025D
:1033500080FF0BC088811F928F93FF92EF920E9493
:1033600010090F900F900F900F901150219611118E
:10337000EDCF8091810280FF09C088E798E0DF915E
:10338000CF911F91FF90EF900C947708DF91CF9130
:103390001F91FF90EF9008952091DF013091E0019F
:1033A0008217930771F09093E0018093DF01E09121
:1033B000E101F091E201309721F00680F781E02DE4
:1033C000099408952091DD013091DE018217930761
:1033D00071F09093DE018093DD01E091E101F091C5
:1033E000E201309721F00084F185E02D09940895E1
:1033F00085B7806885BF85B7806885BF08950895C3
:1034000008950C94001A08950C94031A0E94F81958
:103410000E94FF190C94011A81E008950E94292747
:103420000E94620C0E94BE270E9431150E945C130C
:103430000C94041ACF93C82F8091810282FF1EC082
:1034400080FF04C089E998E00E947708809181029A
:1034500080FF0CC01F92CF9384E998E09F938F93D5
:103460000E9410090F900F900F900F908091810291
:1034700080FF04C082E998E00E9477088C2FCF91EA
:103480000C948B097F928F929F92AF92BF92CF92B2
:10349000DF92EF92FF920F931F93CF93DF93CDB7FD
:1034A000DEB72A970FB6F894DEBF0FBECDBF0E94DD
:1034B000AD0C0E940C1A811111C08FEF89838A8391
:1034C0001B820E9432278160782F9D838C834981E3
:1034D0005A816B818D810E94F41A4FC034EE832E85
:1034E00031E0932E00E010E0702E802F0E940E0C31
:1034F0006C01F401A190B1904F01A826B926A11446
:10350000B10431F40F5F1F4F0530110569F7D5CFB6
:103510008091810281FD0E94170C90E0EE24E394DB
:10352000F12C97012A213B21232B09F19E837F82D5
:10353000CE20DF2091E0CD2809F490E098870E940A
:1035400032278160782F9A8789874E815F816885CD
:103550008A850E94F41A000F111FF801EC51FE4FEA
:1035600080819181E826F926F182E08206C09F5F82
:10357000EE0CFF1C9E30A9F6C5CF0E940B140E94D2
:1035800016171091E3010E946B191817C9F00E94D9
:103590006B198093E3012A960FB6F894DEBF0FBE35
:1035A000CDBFDF91CF911F910F91FF90EF90DF90F2
:1035B000CF90BF90AF909F908F907F900C941A1AED
:1035C0002A960FB6F894DEBF0FBECDBFDF91CF9124
:1035D0001F910F91FF90EF90DF90CF90BF90AF9031
:1035E0009F908F907F900895CF93DF93CDB7DEB7F4
:1035F0002B970FB6F894DEBF0FBECDBF4F83588711
:1036000069877A878B87DE01119686E0FD0111922A
:103610008A95E9F785E0FE01379601900D928A952B
:10362000E1F749815A816B817C818D819E810E9465
:1036300051212B960FB6F894DEBF0FBECDBFDF91A0
:10364000CF910895FC01808191810E941D240895ED
:10365000CF93DF931F92CDB7DEB7882309F496C0CE
:10366000682F8238C1F40E946B1981FD8FC069E315
:1036700080911001909111010E947E260E94A82441
:103680002FEF81EE94E0215080409040E1F700C0A0
:10369000000069E319C0833811F50E946B1980FDA1
:1036A00075C063E580911001909111010E947E2602
:1036B0000E94A8242FEF81EE94E02150804090409A
:1036C000E1F700C0000063E58091100190911101C5
:1036D0000E9489260F90DF91CF910C94A824843802
:1036E000C1F40E946B1982FD51C067E48091100102
:1036F000909111010E947E260E94A8242FEF81EE56
:1037000094E0215080409040E1F700C0000067E461
:10371000DBCF8CEF860F813A70F4862F69830E948D
:10372000AC2A6981811132C0809110019091110100
:103730000E947E26CFCF80E2860F883048F46770E3
:1037400081E001C0880F6A95EAF70E945F24C2CF2A
:10375000EBE5E60FE33050F4F0E0EC54FE4F8081EF
:1037600090E00F90DF91CF910C94CC19685A67319B
:1037700068F4E62FF0E0EE0FFF1FEA57FE4F80815E
:1037800091810F90DF91CF910C94E2190F90DF910E
:10379000CF910895882309F45BC0682F823879F4AB
:1037A0000E946B1981FF54C069E3809110019091D0
:1037B00011010E947E260E94A82469E310C083386C
:1037C000B1F40E946B1980FF43C063E58091100142
:1037D000909111010E947E260E94A82463E58091A9
:1037E0001001909111010E9489260C94A82484381C
:1037F00079F40E946B1982FF2BC067E4809110015D
:10380000909111010E947E260E94A82467E4E7CFD0
:103810008CEF860F813A18F380E2860F883048F4E7
:10382000677081E001C0880F6A95EAF70E946524FD
:10383000DCCF8BE5860F833020F480E090E00C94A1
:10384000CC19685A673120F480E090E00C94E219BA
:103850000895CF93C82F0E94281BC93349F42FEF36
:1038600087EE93E0215080409040E1F700C00000D7
:103870008C2FCF910C94CA1B882321F00E945F24C7
:103880000C94A8240895882321F00E9465240C94A8
:10389000A8240895BF92CF92DF92EF92FF920F93E8
:1038A0001F93CF93DF937C01062FC72FFC01158157
:1038B00012951F70D281D1110E947C240E94552440
:1038C000882379F0DD2369F080E2800F883048F0AA
:1038D00082E00E94F3240E94552491E0B82EB9267C
:1038E00001C0B12CCC2EC2948FE0C822D12CF6019D
:1038F000E659FF4F0C94F1328C2F807FCF708823D4
:1039000011F0C295C07FDD2399F0CC2309F48CC15E
:1039100080E2800F883010F0011104C08C2F0E94CB
:103920005F2403C08C2F0E946F240E94A8247CC1B6
:10393000802F0E94CA1BCC2309F49BC180E2800F18
:10394000883010F0011104C08C2F0E94652403C040
:103950008C2F0E9475240E94A8248BC18C2F807FFD
:10396000CF70803211F0C295C07F002319F0013072
:10397000C9F022C0DD2371F0112341F0113031F480
:103980000E948F248C2B0E94952473C10E948F2447
:103990008C2B1DC0112319F0113009F46AC10E944B
:1039A0009E2425C0DD2321F0163008F062C10EC030
:1039B000153008F05EC11BC0DD2361F0112331F02A
:1039C000F701858180FF30C18F7085838C2F0E9425
:1039D0003C1C4FC1112359F0093309F036C1FFEFE8
:1039E00027EE83E0F15020408040E1F72CC18C2F7E
:1039F0000E94431C3EC18C2F86958695837090E073
:103A0000009719F0019761F034C1DD2321F0802F78
:103A10009C2F937002C080E090E00E94CC1934C1CA
:103A2000DD2321F0802F9C2F937002C080E090E076
:103A30000E94E21929C18C2F837009F049C0D1116D
:103A40001FC1402F429546954770440F440F602F89
:103A50006F70862F90E0A0E0B0E0042E04C0880FC5
:103A6000991FAA1FBB1F0A94D2F704FF10C00FE0D2
:103A700010E020E030E004C0000F111F221F331FB0
:103A80004A95D2F7009510952095309503C000E037
:103A900010E09801C695C695C370D0E0BC01CD0179
:103AA000602B712B822B932BC230D10559F0C33080
:103AB000D10559F0219719F00E949622E1C00E9489
:103AC0008422DEC00E94A822DBC00E948222D8C0CD
:103AD000DD2319F08C2F817001C08695882309F4AD
:103AE000CFC0402F429546954770440F440F602F3A
:103AF0006F70862F90E0A0E0B0E0042E04C0880F25
:103B0000991FAA1FBB1F0A94D2F704FF10C00FE031
:103B100010E020E030E004C0000F111F221F331F0F
:103B20004A95D2F7009510952095309503C000E096
:103B300010E09801C695C695C370D0E0BC01CD01D8
:103B4000602B712B822B932BC230D10559F0C330DF
:103B5000D10559F0219719F00E945C2391C00E9471
:103B60004A238EC00E946E238BC00E94BD2288C053
:103B7000CF70DD2339F08C2F0E94E322802F0E942A
:103B80003C1C7EC0802F0E94431C8C2F0E9404236B
:103B900077C0023F01F128F4003F41F0013FA1F05E
:103BA0003FC0033FF9F0043F39F13AC0DD2341F053
:103BB000153008F05EC08C2F8F710E94292359C0E8
:103BC000163008F056C0F7CFDD2339F08C2F8F71F7
:103BD0000E94E3224EC0DD23C9F38C2F8F710E9417
:103BE000042347C0DD2329F08C2F8F710E94CE2241
:103BF00040C00E94C9223DC0DD2349F0CF718C2F07
:103C00000E94E32263E08C2F0E94DE2432C081E018
:103C10000E94F324123068F182E00E94F32429C04C
:103C2000DD2331F0112391F2802F0E94281B21C047
:103C3000112399F2093349F49FEFE7EEF3E0915035
:103C4000E040F040E1F700C00000802F0E94CA1B56
:103C500010C04C2F4F70602FC7010E94090A0E94AC
:103C6000F52112C04C2F4F70602FC7010E940C0A23
:103C70000BC028E0C21AD10884E0C816D10420F491
:103C80000E946B190E948B09BB20D1F00E94512425
:103C900080FD16C0F70112820E944B240E94E3228D
:103CA000C7010E946A1E0E944B24DF91CF911F9191
:103CB0000F91FF90EF90DF90CF90BF900C94042372
:103CC000DF91CF911F910F91FF90EF90DF90CF90F8
:103CD000BF9008950F931F93CF93DF93EC018881DA
:103CE00099812B813C81232BB9F09F3F11F48F3FA9
:103CF00099F0CE010E94A409882371F0688179812E
:103D00008A810E9428248C010E9480230E948122A3
:103D1000B801CE010E944A1CDF91CF911F910F91F3
:103D200008950E947C240E948C240E94A82480E094
:103D300090E00E94CC1980E090E00C94E219809110
:103D40001001909111010E9494260C94911E0E94E2
:103D50006C240C949F1EE92FE295EF70F0E03297EF
:103D6000EE30F105B0F4E658FF4F0C94F132803F8D
:103D700091F018F4883E68F40EC0843F51F40BC0F3
:103D8000883E48F0813F29F406C093FB882780F9DC
:103D9000089580E0089581E008950E941D240E9406
:103DA000AB1E0895CF93DF9300D000D01F92CDB704
:103DB000DEB70F900F900F900F900F90DF91CF9183
:103DC0000895CF93DF9300D000D000D0CDB7DEB7F9
:103DD00026960FB6F894DEBF0FBECDBFDF91CF9110
:103DE00008951F93CF93DF93C091EF0116E0809168
:103DF000F001C81799F0D0E01C9FF0011D9FF00D55
:103E00001124EF50FE4F4081518162817381848182
:103E100095810E94E11E2196C770E9CFDF91CF9175
:103E20001F91089540912102509122026091230236
:103E30007091240280912502909126020C94E11E3B
:103E40008091260282958F7009F054C080912302E0
:103E5000882309F44FC08091EF01A091F001609197
:103E60002102709122024091240250912502B6E075
:103E70008A1709F43FC090E041155105C1F17F3F19
:103E800011F46F3FA1F1B89FF001B99FF00D11241B
:103E9000EF50FE4F218172132AC02081621327C088
:103EA0002281211124C0238134812417350710F485
:103EB00021503109241B350B283C3105C0F42091D9
:103EC00026022F7020612093260226E0289FF00111
:103ED000299FF00D1124EA50FE4F80818F70806180
:103EE000808381E292E00E946A1E0C94F11E01968A
:103EF0008770BECF0895CF92DF92EF92FF920F931B
:103F00001F93CF93DF93CDB7DEB762970FB6F894C8
:103F1000DEBF0FBECDBF8C0185E0F801DE011D962E
:103F200001900D928A95E1F7D8014C9111965C9120
:103F3000119712966C9112971396CD90DC9014976E
:103F400030912102709122028091240290912502E9
:103F5000009709F46BC17F3F19F43F3F09F466C134
:103F6000E0902302EE2009F4C0C020912602C8167A
:103F7000D90628F0F601E81BF90BCF0104C08095A3
:103F800090958C0D9D1DFF24F394883C910578F04D
:103F9000F12C207F09F0C6C07C2DD98AC88A898976
:103FA0000E94D21E81E292E00E946A1EB1C0822F5E
:103FB000807F09F046C0751314C0341312C061111C
:103FC00010C02F702061209326020E94121F81E2F0
:103FD00092E00E946A1E80912602D80115968C9369
:103FE0002EC0CD2819F15F3F11F44F3FF9F0F62EA6
:103FF00061111CC08091EF012091F00136E0821721
:1040000009F45AC090E0389FF001399FF00D112457
:10401000EF50FE4F7181571306C07081471303C0E4
:104020007281711103C001968770E9CFF62E662365
:1040300009F427C180912602816080932602F12C29
:1040400020C1751308C0341306C0611104C08091EB
:104050002602D801C3C04D875E878D859E856A8BF9
:104060000E94CD1E6A898823E1F16623D1F1209157
:104070002602822F82958F7090E0029774F08091D3
:1040800021029091220298878F831986DB86CA8647
:104090002C87CE0107960E946A1E86E0F801A1E2F5
:1040A000B2E001900D928A95E1F70E94201F0E94D4
:1040B000121FFF24F394E5C04D875E878D859E8592
:1040C0000E941D24292F22952F7030E022303105C7
:1040D0000CF0CBC09F7009F0C5C0805E883008F43A
:1040E000D0C0C8010E946A1EE4CFC816D90608F4E1
:1040F00053C0F601E81BF90BCF01883C910508F489
:1041000050C0F12C7C2DD98AC88A89890E94D21E80
:10411000E1E2F2E086E0DF011D928A95E9F70E9474
:10412000121FAFC0751314C0341312C0611110C038
:1041300080912602F8018583C8010E946A1E86E0EC
:10414000E1E2F2E0DF011D928A95E9F7FE2C99C0C9
:104150004D875E878D859E856A8B0E94CD1E6A89FC
:10416000882309F4BECF662309F4BBCF2091260231
:10417000822F82958F7090E002970CF48ECF809101
:104180002102909122029A8389831B82DD82CC8254
:104190002E83CE0101967FCF809590958C0D9D1D2D
:1041A000ACCFF62E662309F49CCF75132EC03413C2
:1041B0002CC02091260220FD1FC0822F82958F7077
:1041C000D9F0D80115962C9315978F3049F08F5F51
:1041D000982F9295907F822F8F70892B15968C93B4
:1041E000C8010E946A1E86E0F801A1E2B2E00190D7
:1041F0000D928A95E1F793CF86E0F801A1E2B2E053
:1042000001900D928A95E1F73CC04D875E878D85C0
:104210009E850E94CD1E811140CF80912602816033
:1042200080932602C8010E946A1E2BC0662309F4EF
:1042300058CF4D875E878D859E850E94CD1EF82EB6
:10424000882309F44ECF86E0F801A1E2B2E00190A4
:104250000D928A95E1F781E292E00E94221B0E9472
:10426000201F5DCF811139CF0CC0243031050CF0F7
:1042700038CF9F7009F431CFF8019581907F09F014
:104280002CCF8F2D62960FB6F894DEBF0FBECDBF38
:10429000DF91CF911F910F91FF90EF90DF90CF9022
:1042A00008951F93CF93DF93CDB7DEB72C970FB64A
:1042B000F894DEBF0FBECDBF4F83588769877A87DA
:1042C0008B879C87CE0107960E947B1F882369F00D
:1042D0008F8198852A853B85232BF1F19F3F09F03B
:1042E00063C08F3F09F060C037C086E0FE0137969B
:1042F000DE01119601900D928A95E1F76F81788524
:10430000EA85FB85309741F17F3F11F46F3F21F142
:104310002091F00130E0C901019687709927409102
:10432000EF0150E08417950709F447C069837A8349
:10433000FD83EC8396E0929FD001939FB00D1124F2
:10434000AF50BE4FFE01319601900D929A95E1F764
:104350008093F0010E94F11E16E08091EF01909190
:10436000F0018917C1F1189FC00111248F509E4F91
:104370000E947B1F882379F1E091EF011E9FF001DD
:104380001124EF50FE4F40815181628173818481FD
:1043900095810E94E11E8091EF0190E00196877067
:1043A00099278093EF01D9CF4F81588569857A8508
:1043B0008B859C850E94E11ECFCF0E94A71E109284
:1043C000F0011092EF01E1E2F2E086E0DF011D92E0
:1043D0008A95E9F7C1CF2C960FB6F894DEBF0FBED1
:1043E000CDBFDF91CF911F910895EF92FF920F9370
:1043F0001F93CF93DF938C01892B09F46CC0F12CB0
:10440000EE24E394E8012196F8018491843740F486
:10441000843008F051C0813081F0823019F15BC0E6
:10442000853709F444C0A8F19CE7980F903708F04D
:1044300052C08F770E94CA1B41C00E5F1F4FFE0102
:10444000C49180E28C0F883048F4C7708E2D01C073
:10445000880FCA95EAF70E947F2414C08C2F0E940F
:10446000281B2DC00E5F1F4FFE01C49180E28C0FF0
:10447000883058F4C7708E2D01C0880FCA95EAF7AE
:104480000E9485240E94A8241AC08C2F0E94CA1B57
:1044900016C00E5F1F4FFE01C491CC2381F08FE93F
:1044A0009FE00197F1F700C00000C150F6CF0E5F0A
:1044B0001F4FFE01F49003C00E94281B8E018F2D18
:1044C000882309F49FCFEFE9FFE03197F1F700C0AF
:1044D00000008150F5CFDF91CF911F910F91FF9098
:1044E000EF90089508950C9472220E9473226093B5
:1044F00058027093590280935A0290935B020C9475
:10450000911E08950C9475220F931F9300915802E9
:104510001091590220915A0230915B02602B712B4D
:10452000822B932B1F910F910C9475220F931F9345
:10453000009158021091590220915A0230915B0269
:1045400060237123822393231F910F910C94752272
:104550000F931F93009158021091590220915A0213
:1045600030915B0260277127822793271F910F915B
:104570000C94752208950C94BA220E94BB22609379
:1045800054027093550280935602909357020C94F4
:10459000911E60E070E0CB010C94BD220F931F933D
:1045A00041E050E060E070E08A019B0104C0000F30
:1045B000111F221F331F8A95D2F7C901B8011F911D
:1045C0000F910C94BD220F931F9341E050E060E0E7
:1045D00070E004C0440F551F661F771F8A95D2F7FD
:1045E0008091540290915502A0915602B0915702C9
:1045F0008A019B01082B192B2A2B3B2BC901B801DF
:104600001F910F910C94BD220F931F9341E050E036
:1046100060E070E004C0440F551F661F771F8A9545
:10462000D2F7409550956095709580915402909185
:104630005502A0915602B09157028A019B010823AE
:1046400019232A233B23C901B8011F910F910C9410
:10465000BD220F931F9341E050E060E070E004C082
:10466000440F551F661F771F8A95D2F78091540219
:1046700090915502A0915602B09157028A019B0178
:10468000082719272A273B27C901B8011F910F9135
:104690000C94BD220F931F93009154021091550268
:1046A0002091560230915702602B712B822B932B55
:1046B0001F910F910C94BD220F931F9300915402F0
:1046C00010915502209156023091570260237123B8
:1046D000822393231F910F910C94BD220F931F935C
:1046E00000915402109155022091560230915702C8
:1046F00060277127822793271F910F910C94BD2269
:1047000008952EE0929F800D1124A82FA695A695BE
:10471000A695877051E001C0550F8A95EAF785E0AC
:10472000A89FD001112420E030E070E0F901EA0FE9
:10473000FB1FE95DFD4F4081CB01022E02C0969523
:1047400087950A94E2F781709927819584278523BC
:10475000842780832F5F3F4F2530310539F7089537
:104760002EE0929F800D1124682F669566956695C0
:10477000982F977085E0689FB001112440E050E0C9
:1047800080E0FA01E60FF71FE95DFD4F208130E080
:10479000092E02C0369527950A94E2F72170332737
:1047A000042E01C0220F0A94EAF7822B4F5F5F4F5D
:1047B0004530510531F70895BF92CF92DF92EF92C5
:1047C000FF920F931F93CF93DF938C01C0905802F9
:1047D000D0905902E0905A02F0905B02809154020E
:1047E00090915502A0915602B0915702C82AD92A39
:1047F000EA2AFB2ACFE1D0E0D701C6010C2E04C083
:10480000B695A795979587950A94D2F780FF07C02C
:10481000BC2EB8018C2F0E94270A019719F421970A
:1048200058F7B12C8B2DDF91CF911F910F91FF90F5
:10483000EF90DF90CF90BF900895CF93DF93EC017E
:104840000E94DC23BE010E94270ADF91CF910895C8
:104850001F93CF93DF93EB019091EE01992321F009
:10486000CB010E941D2413C0882349F0CB010E9474
:10487000DC23182F682FCE010E94812304C0CB01B6
:104880000E94B023182FBE01812F0E94270ADF91BA
:10489000CF911F91089580915C02859585958595AE
:1048A000089580915C028770089590915C029770E2
:1048B00081E009F480E0089580918002089590914C
:1048C0008002892B809380020895809590918002C8
:1048D0008923809380020895109280020895909118
:1048E0007F02892B80937F020895809590917F02AB
:1048F000892380937F02089510927F0208959091FA
:104900007E02892B80937E020895809590917E028D
:10491000892380937E02089510927E0208958091EB
:104920005D02089508950C94922490915D02981769
:1049300021F080935D020C949324089580915D0290
:10494000882329F010925D0280E00C94932408954E
:10495000E0911001F0911101809180028083E0913B
:104960001001F0911101908180917F02892B808349
:10497000E0911001F0911101908180917E02892BCC
:10498000808380915D02882381F0E0911001F09195
:1049900011019081892B80838091100190911101E8
:1049A0000E94F72581110E949E2480911001909110
:1049B00011010C94771908950C94DB2498E0899FD9
:1049C00090011124262B20935C020E94E322809107
:1049D0005C028595859585950C94DC2410925C028B
:1049E00080E00C94DC2420915C02809582238093EB
:1049F0005C02982F977079F430E0482F082E000C55
:104A0000550B2417350739F08595859585950E94B6
:104A100004230C94EE2408959093C7018093C6015B
:104A200008958295982F9C7C392F36953695282F9E
:104A3000237344E0249FC0011124932F982B292F26
:104A40002A7A2695892F8575880F822B08951F93C2
:104A5000CF93DF931F92CDB7DEB799830E941125C4
:104A6000182F9981892F0E941125212F30E0322F94
:104A70002227A901482BCA010F90DF91CF911F91E6
:104A800008956FEF7FEF80E090E00C94503380E06A
:104A900090E00E942C3321E08C3E9E4F09F020E0F4
:104AA000822F089582E090E00C941E3383E090E022
:104AB0000C941E33CF9384E090E00E941E33C82FE5
:104AC00081E290E00E941E332C2F30E0A901582B88
:104AD000CA01CF910895CF93C92F682F84E090E049
:104AE0000E9432336C2F81E290E0CF910C943233EC
:104AF00086E090E00C941E33682F86E090E00C94E2
:104B00003233AB01BC018FE090E00C944433AB0135
:104B1000BC0183E190E00C94443360E070E0CB0191
:104B20000C94872560E070E0CB010E9481250C94F5
:104B30008D256CEE7EEF80E090E00E94503360E0C7
:104B400082E090E00E94323360E083E090E00E94D7
:104B50003233109258021092590210925A02109257
:104B60005B0260E084E090E00E94323360E081E22A
:104B700090E00E94323360E085E090E00E943233A2
:104B800060E086E090E00E9432336FEF87E090E0D3
:104B90000E94323340E050E0BA0188E090E00E9489
:104BA000443360E08DE090E00E94323340E050E01A
:104BB000BA0188E190E00E94443360E087E190E030
:104BC0000E94323340E050E0BA018CE190E00E9454
:104BD000443360E080E290E00E9432330C949225EE
:104BE0000C949925682F8EE090E00C943233FC01F0
:104BF000329680911C01882331F08091E00287FF7A
:104C000002C09EE101C096E080E0915028F0219121
:104C10002223D9F38F5FF9CF08959C01FC013296CE
:104C20009FEF80E04191461789F09F3F19F44111B1
:104C300001C0982F8F5F8630A9F79F3F39F0F901A7
:104C4000E90FF11D97FDFA95628308950895FC011F
:104C5000329608962081261301C010823196E817FB
:104C6000F907C1F70895262F2695269526952E310A
:104C700070F4FC01E20FF11D677021E030E001C02B
:104C8000220F6A95EAF78281282B2283089580916A
:104C9000810280FF0CC01F926F938AEC98E09F9373
:104CA0008F930E9410090F900F900F900F9008950E
:104CB000262F2695269526952E3178F4FC01E20FB5
:104CC000F11D677021E030E001C0220F6A95EAF71C
:104CD000209582812823228308958091810280FF7C
:104CE0000CC01F926F938CEA98E09F938F930E9461
:104CF00010090F900F900F900F90089520911C01B4
:104D0000222329F02091E00227FD0C9433260C94F5
:104D10000D2620911C01222329F02091E00227FD7D
:104D20000C9458260C94272620911C01FC013296E5
:104D3000222331F08091E00287FF02C08EE101C0A2
:104D400086E0DF011D928A95E9F7089508950C9495
:104D5000A6260E94A7268091E602843061F1109277
:104D6000820220E488E190E00FB6F894A895809341
:104D700060000FBE2093600080E00E94AC1680E0CF
:104D80000E948B090E94A72683B7817F846083BF1E
:104D900083B7816083BF7894889583B78E7F83BF04
:104DA0000FB6F894A89580916000886180936000A8
:104DB000109260000FBE089508950895CF930E9449
:104DC000DC260E94AD0C0E94DD26C0E08C2F0E94E4
:104DD0000E0C892B29F4CF5FC530C1F780E001C0EC
:104DE00081E0CF91089508950C94F3260E94A71EA8
:104DF0000E9431150E946B190E948B090C94F426B5
:104E00001F920F920FB60F9211248F939F93AF931F
:104E1000BF9380918202811113C08091DC02909136
:104E2000DD02A091DE02B091DF024196A11DB11D0D
:104E30008093DC029093DD02A093DE02B093DF0248
:104E4000BF91AF919F918F910F900FBE0F901F90C8
:104E5000189582E084BD93E095BD9AEF97BD80934D
:104E60006E0008952FB7F8948091DC029091DD02D6
:104E7000A091DE02B091DF022FBF08952FB7F89402
:104E80006091DC027091DD028091DE029091DF0280
:104E90002FBF0895CF92DF92EF92FF920F931F934F
:104EA0002FB7F8944091DC025091DD026091DE0250
:104EB0007091DF022FBF6A017B01EE24FF248C0179
:104EC00020E030E0C016D106E206F30610F44150AF
:104ED00051099A01281B390BC9011F910F91FF90AD
:104EE000EF90DF90CF90089578941F920F920FB6B5
:104EF0000F9211248F939F93AF93BF938091DC0205
:104F00009091DD02A091DE02B091DF020196A11D19
:104F1000B11D8093DC029093DD02A093DE02B0937A
:104F2000DF02BF91AF919F918F910F900FBE0F90B5
:104F30001F90189581E08093E00080E28093D80074
:104F40001092C9008FE19EE40197F1F700C00000C4
:104F500087E090EBDC018093EF029093F002A09346
:104F6000F102B093F2029CE088E10FB6F894A895A4
:104F7000809360000FBE90936000FFCF0E94472592
:104F8000811102C00E94F0250E9452258093810267
:104F90000E945A259093E1028093E0020E945625D8
:104FA000682F70E080E090E00C948222CF93C82FAD
:104FB0001F928F938EEE98E09F938F930E9410091B
:104FC00081E090E0A0E0B0E0BC01CD0104C0660F3C
:104FD000771F881F991FCA95D2F70E9482220F90CF
:104FE0000F900F900F90CF910C94A71ECF93DF934B
:104FF000482F50E0FA013597EF33F10508F09FC2D2
:10500000E857FF4F0C94F13280EB9EE00E94770846
:105010008CEE9DE00E9477080E9456251F928F9388
:1050200089EE9DE09F938F930E94100987EE9DE08B
:105030000E9477080E945225C82F84ED9DE00E94AF
:1050400077081F92CF938FEC9DE09F938F930E94E0
:1050500010098DEC9DE00E94770883EC9DE00E9492
:1050600077088C2F81701F928F9380EC9DE09F9327
:105070008F930E9410098EEB9DE00E94770884EBCD
:105080009DE00E947708C1FB882780F91F928F93CB
:1050900081EB9DE09F938F930E9410098FEA9DE022
:1050A0000E94770883EA9DE00E947708C2FB882768
:1050B00080F91F928F9380EA9DE09F938F930E94C7
:1050C00010098EE99DE00E94770885E99DE00E9425
:1050D0007708C3FBCC27C0F91F92CF9382E99DE0EC
:1050E0009F938F930E94100980E99DE00E947708AA
:1050F0000E945A25EC018CE79DE00E947708DF931F
:10510000CF9387E79DE09F938F930E94100985E7D7
:105110009DE00E9477088CE59DE00E9477088C2F27
:1051200081701F928F9389E59DE09F938F930E94DA
:1051300010098DB79EB780960FB6F8949EBF0FBE2C
:105140008DBF87E59DE00E94770880E49DE00E9486
:105150007708C1FB882780F91F928F938DE39DE02C
:105160009F938F930E9410098BE39DE00E94770824
:1051700089E29DE00E9477088D2F81701F928F93A6
:1051800086E29DE09F938F930E94100984E29DE048
:105190000E94770882E19DE00E947708D695D17041
:1051A0001F92DF938FE09DE09F938F930E941009E1
:1051B0008DE09DE00E9477088BEF9CE00E947708CD
:1051C000C2FB882780F91F928F9388EF9CE09F9302
:1051D0008F930E94100986EF9CE00E94770884EE6E
:1051E0009CE00E947708C3FB882780F91F928F9369
:1051F00081EE9CE09F938F930E9410098FED9CE0BD
:105200000E94770885ED9CE00E947708C4FB882700
:1052100080F91F928F9382ED9CE09F938F930E9461
:10522000100980ED9CE00E9477088EEB9CE00E94C4
:105230007708C5FB882780F91F928F938BEB9CE042
:105240009F938F930E94100989EB9CE00E9477083E
:105250008DE99CE00E947708C6FB882780F91F92A1
:105260008F938AE99CE09F938F930E9410098DB7DA
:105270009EB780960FB6F8949EBF0FBE8DBF88E98B
:105280009CE00E94770880E99CE00E947708C7FBB9
:10529000CC27C0F91F92CF938DE89CE09F938F930A
:1052A0000E9410098BE89CE00E9477080E947825F4
:1052B000C82F84E79CE00E9477081F92CF938FE667
:1052C0009CE09F938F930E9410098DE69CE00E94C2
:1052D000770883E69CE00E9477088C2F81701F92EC
:1052E0008F9380E69CE09F938F930E9410098EE538
:1052F0009CE00E94770885E59CE00E947708C695AF
:10530000C695C6951F92CF9382E59CE09F938F939D
:105310000E94100980E59CE00E9477088DB79EB737
:1053200040960FB6F8949EBF0FBE8DBF06C08FE9A2
:105330009EE00E9477080E94F025C1E005C18EE939
:105340009AE07FC080918102817F8E7F809381026D
:1053500083E89AE00E9477088BE99EE00E94770834
:1053600081E080938302E9CF0E94A71E8FE79EE031
:105370000E9477089FEF23ED80E39150204080400A
:10538000E1F700C000000E949A27D7CF80918102E8
:10539000C82FC095C170C0FB80F980938102CC23D7
:1053A00019F083E79EE0BDC086E69EE00E94770884
:1053B00080918102897F877F80938102BECF909107
:1053C000810291FBCC27C0F981E0C827892FC0FB5F
:1053D00081F980938102CC2319F089E59EE027C0F2
:1053E0008BE49EE02EC09091810292FBCC27C0F905
:1053F00081E0C827892FC0FB82F980938102CC23EA
:1054000019F08CE39EE013C08CE29EE01AC09091EC
:10541000810293FBCC27C0F981E0C827892FC0FB0C
:1054200083F980938102CC2351F080E29EE00E94B8
:1054300077088091810281608093810285C083E139
:105440009EE00E94770879CF84E79AE00E9477086F
:105450008EE39AE00E9477088CE09AE00E94770839
:1054600084ED99E00E94770882EA99E00E9477082B
:1054700084E799E0E6CF86E699E00E9477080E94EB
:105480006B191F928F938CE499E09F938F930E94E6
:10549000100980911C011F928F9385E399E09F93DF
:1054A0008F930E9410098091A8021F928F9382E22D
:1054B00099E09F938F930E9410098091E00287FBEF
:1054C000882780F91F928F938AE099E09F938F93AA
:1054D0000E9410090E943E279F938F937F936F93A2
:1054E00083EF98E09F938F930E9410098DB79EB72A
:1054F00046960FB6F8949EBF0FBE8DBF1ECF0E947A
:10550000A71E9091E00297FBCC27C0F981E0C82745
:10551000892FC0FB87F98093E002CC2329F089E032
:105520009EE00E94770810C08EEF9DE08ACF8953DD
:1055300003C08D5101C080E00E94D627FECE8CEFC3
:105540009DE00E947708C0E08C2FDF91CF910895F5
:1055500080E0089580E00895CF93C82F8091830262
:10556000882319F0813031F038C00E945C248232E7
:10557000B1F504C00E945C24823261F48C2F0E9439
:10558000A82A811104C08C2F0E94F62724C081E034
:1055900090E021C08C2F0E94AA2A81111BC0C43127
:1055A00089F018F4CB3029F010C0C93259F0C83353
:1055B00061F483E89AE00E9477088AEE98E00E94FE
:1055C000770808C0109283020CC088EE98E00E9411
:1055D000770807C081E0817006C01092830280E0E6
:1055E00002C080E0F8CFCF9108958091A70208957E
:1055F00008959FB7F894109286029FBF9091E6029B
:10560000943009F057C09091E9009F703091EC0000
:10561000232F217030FD20E8922B23E02093E90016
:105620002091EB0020FF43C02091EE0027FF3FC0F8
:1056300020918402222321F02091E80025FF37C029
:105640001092840226E03091E80035FD15C03091BB
:10565000E602343061F53091EB0035FD28C0215071
:1056600021F481E08093840222C0EFE9FFE03197CA
:10567000F1F700C00000E7CF8093F1008091E800CF
:1056800085FD0AC08091E80080FFFCCF8091E80092
:105690008E778093E80006C08FB7F89421E02093BE
:1056A00086028FBF9F709093E90080E008959F70FD
:1056B0009093E9008FEF0895CF93DF9300D01F926E
:1056C000CDB7DEB79091E602943019F589837B83DC
:1056D0006A8382E08093E9008FEF9091E800815027
:1056E00095FD06C095ED9A95F1F700008111F5CF73
:1056F0008091E80085FF0DC040E050E063E070E07D
:10570000CE0101960E94F02D8091E8008E77809363
:10571000E8000F900F900F90DF91CF910895CF93F5
:10572000DF93EC010E94D32D823011F0843031F4EC
:10573000BE0184E0DF91CF910C945C2BDF91CF917F
:105740000895BC0183E00C945C2BCF93DF93EC01B4
:105750000E94D32D823011F08430D9F580911C0144
:10576000882339F08091E00287FF03C060E282E085
:1057700002C068E081E08093E9008FEF9091E8003B
:10578000815095FD06C095ED9A95F1F700008111C5
:10579000F5CF8091E80085FF1CC080911C0181112C
:1057A00005C040E050E068E070E003C070E040E019
:1057B00050E0CE010E94F02D8091E8008E7780931A
:1057C000E80080E2FE01A7E8B2E001900D928A9520
:1057D000E1F7DF91CF91089580EE9EE00E94770877
:1057E0008091E502811109C00E94852F0E94E22F5D
:1057F0008091E20084608093E20008958CED9EE049
:105800000E9477081092E502089588ED9EE00C94BE
:10581000770884ED9EE00C94770880ED9EE00E946E
:1058200077080C94F626209185022F5F822F62E381
:105830000E949B32992319F02093850208951092BB
:10584000850280918602882371F18091E60284307E
:1058500041F58091E9008F702091EC00922F9170BA
:1058600020FD90E8892B93E09093E9009091EB0064
:1058700090FF14C09091EE0097FF10C09091E80047
:1058800095FF03C01092F100F9CF9091E80090FFCE
:1058900005C09091E8009E779093E8008F70809308
:1058A000E90010928602089542E061EC81E00E94D6
:1058B000FF2E42E261EC82E00E94FF2E42E261ECA8
:1058C00083E00C94FF2E8091E802833009F460C0DD
:1058D00030F4813071F0823009F499C008958A3033
:1058E00009F485C08B3009F46BC0893009F0A7C07A
:1058F00020C08091E702813A09F0A1C08091E800C0
:10590000877F8093E8008091EB029091EC02892BD5
:1059100021F460E287E892E003C060E080E090E07C
:1059200070E00E943B2E8091E8008B778093E80026
:1059300008958091E702813209F081C08091EB02E5
:105940009091EC02029708F07AC08091E800877F7E
:105950008093E8008091E80082FD05C08091E60216
:105960008111F8CF6CC02091F3008091F20090E09B
:10597000922B029729F48091F1008B7F813021F4E2
:105980008091F1008093A7028091E8008B7753C04B
:105990008091E702813A09F052C08091EB02909128
:1059A000EC02892B09F04BC08091E800877F80933F
:1059B000E8008091E80080FFFCCF80911C0136C098
:1059C0008091E7028132D9F58091EB029091EC024F
:1059D000892BA9F58091E800877F8093E8000E94D9
:1059E000342F8091E90280931C010C94A71E8091B2
:1059F000E702813221F58091E800877F8093E800FB
:105A00000E94342F8091EA028093A8020895809129
:105A1000E702813AA1F48091E800877F8093E80053
:105A20008091E80080FFFCCF8091A8028093F10074
:105A30008091E8008E778093E8000C94342F0895CD
:105A400084B7877F84BF0FB6F894A89580916000D3
:105A5000886180936000109260000FBE90E080E843
:105A60000FB6F89480936100909361000FBE0E947E
:105A7000061A0E94852F0E94E22F8091E200846026
:105A80008093E20089EF9AE20E940C2578940E94AC
:105A900070320E940E1A82E191E00E9466198FEB2B
:105AA0009EE00E9477088091E602853089F48BEBB6
:105AB0009EE00E9477080E94A9268091E402882334
:105AC00091F30E94DE26882371F30E94DA2DEBCF3A
:105AD0000E94421AE8CF0C946D2D292F33272330D2
