:100000000C9443080C948A080C948A080C948A086F
:100010000C948A080C948A080C948A080C948A0818
:100020000C948A080C948A080C94E3310C94B53231
:100030000C94212C0C948A080C948A080C948A083D
:100040000C948A080C948A080C948A080C948A08E8
:100050000C948A080C947A2C0C948A080C948A08C4
:100060000C948A080C948A080C948A080C948A08C8
:100070000C948A080C948A080C948A080C948A08B8
:100080000C948A080C948A080C948A080C948A08A8
:100090000C948A080C948A080C948A080C948A0898
:1000A0000C948A080C948A080C948A08B10F9F0F4C
:1000B000B80F010E8D108D109C0F8D108D10E50F57
:1000C0008D10F90F6D108D108D108D108D10291061
:1000D0008D108D1016108D10D10F8D108D10871072
:1000E0008710871087108710871087108710871058
:1000F00089108D10B10F940F8D108D108D108D10F3
:100100008D108D108D108D108D108D1089108D100B
:100110008D109C0F8D108510851085108510851011
:1001200085108510851085108910841987198F19FD
:10013000941999199E19A319A819AD19B219B719CB
:10014000BC19BE19C119C419C719CA19CD19CF19BB
:10015000D4196F216F21A121A121EE212223222375
:1001600022230C22A122B222B222122322232223F2
:100170001B23BE23BE23D023D023C723D023D023C9
:10018000D023BE23BE23CC23D023D023CC232233A1
:1001900049334134493341349533B83341340F3412
:1001A0001E3429001E001F00200021002200230011
:1001B00024002500260027002D002E002A002B00F9
:1001C00014001A000800150017001C0018000C008D
:1001D000120013002F0030004C00015104001600E3
:1001E000070009000A000B000D000E000F0033008D
:1001F000340000002800E10000001D001B00060084
:1002000019000500110010003600370038000151B8
:100210005200E000E300E200000000002C000000BB
:10022000000000000000E600500051004F003500C3
:100230003A003B003C003D003E003F0040004100D2
:1002400042004300440045004C002B003D04B60032
:10025000B700E40000004B004A0052004D00460089
:10026000AA00A900310001004200430044004500FB
:1002700000004E00500051004F00000049000000F7
:100280000251E100000048006500B200095C125C08
:1002900053000000AC00AB00AE0001004B00E000DA
:1002A000E300E200000000002C000000000000005D
:1002B0000000E6004A004E004D0000000000000073
:1002C000000000000000000000000000000000002E
:1002D0000000000000000000000000000000005CC2
:1002E000000000000000000000000000000000000E
:1002F00000000100000000000000000000000000FD
:1003000000000000000000000000000001000000EC
:1003100000000000000000000000000000000000DD
:1003200000000000000001000000000000000000CC
:1003300000000000000000000000000000000000BD
:1003400000000000000044454255473A20646973AC
:1003500061626C65642E0A0044454255473A206547
:100360006E61626C65642E0A000A002530313662C7
:10037000003A200025303258000A722F63203031B5
:1003800032333435363738394142434445460A0022
:100390003F00433E20004C25640A0074696D65727D
:1003A0005F72656164333228293A202530346C58F5
:1003B0000A006B65796D61705F636F6E6669672EA9
:1003C0006E6B726F3A2025580A006B6579626F6117
:1003D00072645F69646C653A2025580A006B657920
:1003E000626F6172645F70726F746F636F6C3A20DA
:1003F00025580A00686F73745F6B6579626F61726C
:10040000645F6C65647328293A2025580A000A093C
:100410002D20537461747573202D0A004743433AAD
:1004200020352E342E30204156522D4C4942433A2D
:1004300020322E302E30204156525F415243483AEE
:1004400020617672350A004F5054494F4E533A207E
:100450004C5546412045585452414B455920434F35
:100460004E534F4C4520434F4D4D414E44204E4B33
:10047000524F20343039360A004255494C443A2014
:1004800020284D61722031312032303231290A006A
:100490005649443A20307834333335285341544157
:1004A0004E29205049443A203078303030322847A5
:1004B00048363020536174616E29205645523A20E7
:1004C0003078303030330A000A092D2056657273B7
:1004D000696F6E202D0A000A092D20436F6E736F1D
:1004E0006C65202D0A4553432F713A097175697463
:1004F0000A000A092D204D61676963202D0A443ADC
:10050000094465627567204D6573736167652054A2
:100510006F67676C650A583A094D61747269782093
:100520004465627567204D6F646520546F67676C22
:1005300065202D2053686F77206B65797072657325
:1005400073657320696E206D6174726978206772BB
:1005500069640A4B3A094B6579626F6172642044A1
:100560006562756720546F67676C65202D2053683E
:100570006F77206B65797072657373207265706F29
:1005800072740A4D3A094465627567204D6F757340
:100590006520546F67676C650A563A095665727331
:1005A000696F6E0A533A095374617475730A433A5A
:1005B00009416374697661746520436F6E736F6C73
:1005C00065204D6F64650A46312D4631303A095336
:1005D000776974636820746F204C6179657220308C
:1005E0002D392028463130203D204C30290A302D2D
:1005F000393A0953776974636820746F204C6179C4
:10060000657220302D390A47524156453A095377D1
:100610006974636820746F204C61796572203020A2
:1006200028616C7465726E617465290A423A094AE0
:10063000756D7020746F20426F6F746C6F616465AC
:10064000720A4553433A094A756D7020746F20420F
:100650006F6F746C6F616465722028616C74657271
:100660006E617465290A453A095072696E742045B5
:100670004550524F4D2053657474696E67730A423A
:1006800053504143453A09436C65617220454550DA
:10069000524F4D0A4E3A094E4B524F20546F6767E6
:1006A0006C650A000A002575002E6C6576656C3A4B
:1006B00020000A002575002E656E61626C653A2087
:1006C000000A0025303258006261636B6C6967680C
:1006D000745F636F6E6669672E7261773A20000AF5
:1006E000002575002E6E6B726F3A20000A0025758A
:1006F000002E737761705F6261636B736C61736806
:100700005F6261636B73706163653A20000A002564
:1007100075002E737761705F67726176655F6573D0
:10072000633A20000A002575002E6E6F5F677569B9
:100730003A20000A002575002E737761705F7261A0
:100740006C745F726775693A20000A002575002E87
:10075000737761705F6C616C745F6C6775693A2068
:10076000000A002575002E737761705F7263746CE8
:100770005F726775693A20000A002575002E73774D
:1007800061705F6C63746C5F6C6775693A20000A16
:10079000002575002E636170736C6F636B5F746FFF
:1007A0005F636F6E74726F6C3A20000A00257500EB
:1007B0002E737761705F636F6E74726F6C5F6361CD
:1007C00070736C6F636B3A20000A0025303258005A
:1007D0006B65796D61705F636F6E6669672E7261BC
:1007E000773A20000A002575002E6D6F7573653A03
:1007F00020000A002575002E6B6579626F617264B6
:100800003A20000A002575002E6D61747269783AED
:1008100020000A002575002E656E61626C653A2025
:10082000000A00253032580064656275675F636FA7
:100830006E6669672E7261773A20000A002575009E
:1008400064656661756C745F6C617965723A2000ED
:100850003F004E4B524F3A206F66660A004E4B5295
:100860004F3A206F6E0A000A6D6F7573653A206FFC
:1008700066660A000A6D6F7573653A206F6E0A002E
:100880000A6B6579626F6172643A206F66660A006E
:100890000A6B6579626F6172643A206F6E0A000AB2
:1008A0006D61747269783A206F66660A000A6D613C
:1008B000747269783A206F6E0A000A64656275671F
:1008C0003A206F66660A000A64656275673A206FAF
:1008D0006E0A000A0A4A756D70696E6720746F208F
:1008E000626F6F746C6F616465722E2E2E200043F0
:1008F0003E2000436C656172696E67204545505229
:100900004F4D0A006565636F6E6669673A0A00724B
:1009100067626C696768742074696D6572206469C8
:100920007361626C652E0A007267626C6967687435
:100930002074696D657220656E61626C65642E0A53
:10094000007267626C6967687420736574206873ED
:1009500076205B4E4F454550524F4D5D3A202575F0
:100960002C25752C25750A007267626C696768749E
:100970002073657420687376205B454550524F4D57
:100980005D3A2025752C25752C25750A0072676245
:100990006C69676874207261696E626F7720736535
:1009A00074206873763A2025642C25642C25642CE9
:1009B00025750A007267626C6967687420646973E0
:1009C00061626C65205B454550524F4D5D3A207227
:1009D00067626C696768745F636F6E6669672E65CE
:1009E0006E61626C65203D2025750A007267626C3D
:1009F0006967687420656E61626C65205B4545506F
:100A0000524F4D5D3A207267626C696768745F632C
:100A10006F6E6669672E656E61626C65203D20258C
:100A2000750A007267626C6967687420746F676723
:100A30006C65205B454550524F4D5D3A20726762B0
:100A40006C696768745F636F6E6669672E656E6157
:100A5000626C65203D2025750A007267626C6967CB
:100A60006874206D6F6465205B4E4F454550524F52
:100A70004D5D3A2025750A007267626C696768747B
:100A8000206D6F6465205B454550524F4D5D3A20A7
:100A900025750A007267626C696768745F696E69C0
:100AA00074207267626C696768745F636F6E6669F1
:100AB000672E6D6F6465203D20302E20577269745B
:100AC000652064656661756C742076616C7565730C
:100AD00020746F20454550524F4D2E0A00726762B8
:100AE0006C696768745F696E6974206565636F6EB1
:100AF000666967206973206E6F7420656E61626C31
:100B000065642E0A007267626C696768745F696E5B
:100B10006974207374617274210A007267626C696F
:100B20006768745F696E69742063616C6C65642EBC
:100B30000A007267626C696768745F636F6E6669EA
:100B4000672E7370656564203D2025640A00726716
:100B5000626C696768745F636F6E6669672E766141
:100B60006C203D2025640A007267626C69676874B6
:100B70005F636F6E6669672E736174203D20256424
:100B80000A007267626C696768745F636F6E66699A
:100B9000672E687565203D2025640A007267686CC1
:100BA000696768745F636F6E6669672E6D6F6465F1
:100BB000203D2025640A007267626C696768745F73
:100BC000636F6E6669672E656E61626C65203D209D
:100BD00025640A007267626C696768745F636F6E90
:100BE00066696720454550524F4D3A0A001E0F0571
:100BF00000047F3F1F643214643214783C1E1E14BC
:100C00000A052223252628292A2C2D2F3032333578
:100C100036383A3B3D3E4042434547494A4C4E50A8
:100C200051535557595A5C5E6062646668696B6DD2
:100C30006F71737577797B7D7F81838587898A8CD6
:100C40008E90929496989A9C9E9FA1A3A5A7A8AADD
:100C5000ACAEAFB1B3B4B6B8B9BBBCBEBFC1C2C312
:100C6000C5C6C7C9CACBCCCDCED0D1D2D2D3D4D5AC
:100C7000D6D7D7D8D9D9DADADBDBDBDCDCDCDCDCD5
:100C8000DDDDDDDDDCDCDCDCDCDBDBDBDADAD9D9AD
:100C9000D8D7D7D6D5D4D3D2D2D1D0CECDCCCBCA3B
:100CA000C9C7C6C5C3C2C1BFBEBCBBB9B8B6B4B361
:100CB000B1AFAEACAAA8A7A5A3A19F9E9C9A9896F7
:100CC0009492908E8C8A89878583817F7D7B7977CA
:100CD0007573716F6D6B6968666462605E5C5A59AA
:100CE00057555351504E4C4A4947454342403E3D6B
:100CF0003B3A3836353332302F2D2C2A29282625F9
:100D00002322FFAA7F55406261636B6C6967687438
:100D100020737465703A2025750A006261636B6CFC
:100D2000696768742064697361626C650A00626156
:100D3000636B6C6967687420656E61626C650A003C
:100D40006261636B6C6967687420746F67676C6558
:100D50003A2025750A006261636B6C6967687420CC
:100D600064656372656173653A2025750A00626186
:100D7000636B6C6967687420696E63726561736523
:100D80003A2025750A00000101010101010101015C
:100D9000020202020202020202030303030303032C
:100DA00003040404040404040505050505060606F9
:100DB0000606070707070708080808090909090AB6
:100DC0000A0A0B0B0B0C0C0C0D0D0D0E0E0E0F0F5B
:100DD0000F101011111112121313141415151616E9
:100DE0001717181819191A1A1B1B1C1D1D1E1E1F58
:100DF0002020212222232424252626272829292AA7
:100E00002B2C2D2D2E2F30313232333435363738CE
:100E1000393A3B3C3D3E3F404142434445464748CA
:100E2000494A4C4D4E4F50515354555658595A5BA0
:100E30005D5E5F616264656668696B6C6D6F707240
:100E4000737577787A7B7D7E8082838587888A8CAC
:100E50008E8F91939596989A9C9EA0A2A3A5A7A9E0
:100E6000ABADAFB1B3B5B7BABCBEC0C2C4C6C9CBD7
:100E7000CDCFD1D4D6D8DBDDDFE2E4E7E9EBEEF08D
:100E8000F3F5F8FAFDFF0A002530325820006B65B3
:100E900079626F6172645F7265706F72743A20007C
:100EA0000A0025303258006B6579626F6172645FA9
:100EB0007365745F6C65643A200064656C5F6B6594
:100EC000795F6269743A2063616E27742064656C8F
:100ED0003A20253032580A006164645F6B65795F9F
:100EE0006269743A2063616E2774206164643A20F9
:100EF000253032580A005B735D004B6579626F6183
:100F000072642073746172742E0A005B575D005B1B
:100F1000535D005B525D005B445D005B435D00160A
:100F20000347004800360030002000530061007481
:100F30000061006E0000000C0353004100540041AA
:100F4000004E0000000403090409025B00030100D5
:100F5000A0FA0904000001030101000921110100A8
:100F6000012240000705810308000A09040100016D
:100F700003000000092111010001226D0007058214
:100F80000320000A090402000203000000092111E5
:100F90000100012222000705830320000107050349
:100FA0000320000112011001000000083543020077
:100FB0000300010200010631FF0974A10109751542
:100FC0000026FF009520750881020976150026FF8E
:100FD00000952075089102C005010980A1018503D3
:100FE00019012AB700150126B70095017510810077
:100FF000C0050C0901A101850419012AA0021501EF
:1010000026A002950175108100C005010906A10105
:101010008505050719E029E71500250195087501E3
:1010200081020507190029EF1500250195F07501CA
:10103000810205081901290595057501910295019F
:1010400075039101C005010906A101050719E029F1
:10105000E715002501950875018102950175088144
:10106000010507190029FF150026FF0095067508E0
:101070008100050819012905950575019102950161
:1010800075039101C00011241FBECFEFDAE0DEBF6F
:10109000CDBF04B603FE27C080912A0390912B0395
:1010A000A0912C03B0912D038730904BA740B04BFB
:1010B000D1F410922A0310922B0310922C03109259
:1010C0002D0314BE84B7877F84BF0FB6F894A8950C
:1010D00080916000886180936000109260000FBE74
:1010E000E0E0F8E3099511E0A0E0B1E0E6ECFBE612
:1010F00002C005900D92A43DB107D9F723E0A4EDFD
:10110000B1E001C01D92AA32B207E1F70E94162F8A
:101110000C94E1350C940000FF93EF93E091D4011F
:10112000F091D501309709F00995EF91FF9108955D
:10113000FC018591803011F0EFDFFBCF0895FF2790
:10114000E0E230E247FF0CC0419597FF09C0EDE2B5
:101150006095709580959095611D711D811D911D03
:1011600027FF02C0219530E350E2AA27660F771FC0
:10117000881F991FAA1FA41710F0A41B63955A95E6
:10118000A9F7AA3008F0A95FA05DAF93F3956115A8
:1011900071058105910541F7ED3211F4EF93F39557
:1011A000F21718F43F93F395FBCF8F91B5DFFA95C3
:1011B000E1F70895E991F9918591803021F0853228
:1011C00019F0AADFF9CF089520E0E894559155323F
:1011D000C1F3503311F4689455915A3348F4505385
:1011E00090F3220F022E220F220F200D250FF4CF95
:1011F0000EF4219589919991533619F3533729F1BA
:10120000533559F1BC0188279927E8945C3621F4BD
:101210008991999168945591543639F446EF7EF04E
:1012200077FF0DC08FEF9FEF0AC055374AE039F0C6
:10123000583540E121F0523642E009F00895FF931D
:10124000EF937DDFEF91FF91B7CFFF93EF93FC0119
:1012500081918030B9F360DFFBCFFF93EF9368DFBC
:10126000F1CFDF93CF93CDB7DEB72596A3DFCF9134
:10127000DF91089581E0089581E008950C943C0980
:1012800008950C9440091F93CF93DF9300D000D0B2
:101290001F92CDB7DEB749835A836B8330912B02FF
:1012A00089819A81311114C0662359F0222349F0B3
:1012B0000E94F728182F682F89819A810E94A02800
:1012C00003C00E94CB28182F69817A81812F04C026
:1012D0000E94F72869817A810F900F900F900F90EC
:1012E0000F90DF91CF911F910C94570AFC01262F8C
:1012F000408151816281738184810C944309CF9331
:10130000DF93EC0160E00E947609BE01DF91CF918E
:101310000C9441090E94CB2C0E942F2A811102C0FB
:101320000E94DF2A0E94470A0E94BB1B0C94BA0C41
:101330000C94B60C08950E94AC230E949A092FEFDA
:1013400084E39CE0215080409040E1F700C0000021
:101350000C94A02C0F931F93CF93DF93EC0161E0CB
:101360000E9476098C01BE010E943E09882309F47F
:1013700050C0BE01C8010E94241B882309F449C043
:10138000BE01C8010E94691C882309F442C0BE0145
:10139000C8010E94BB1C8823E1F1BE01C8010E9464
:1013A000E61D8823B1F1BE01C8010E946D19882392
:1013B00081F18A81882331F101308CE5180751F0E1
:1013C0000F3D8CE51807D9F001151C45D9F40E9492
:1013D0009B091FC08091BE02C82FC095C170C0FB81
:1013E00080F98093BE02CC2329F088E593E00E9427
:1013F00098080FC086E493E00E9498080BC00E94F2
:10140000DF2A07C0CE01DF91CF911F910F910C947D
:101410003A09C0E08C2FDF91CF911F910F91089571
:101420008295982F937344E0949F900111248C7CB3
:1014300086958695282B822F8575880F2A7A269582
:10144000822B0895CF93DF93D92F0E94100AC82FC3
:101450008D2F0E94100A2C2F30E0322F2227A90155
:10146000482BCA01DF91CF91089508950C94350A55
:1014700081E00895CF93C82F0E94380A882329F06D
:10148000C1FD02C02A9A01C02A98CF910895229ADC
:101490002A9A0895CF93C82F0E94360A8C2F0E9453
:1014A0003A0ACF91089580E090E00895089526E4E7
:1014B000829FC0011124FC012EE0729FE00DF11DFE
:1014C0001124E60FF11DEE0FFF1FEE55FE4F859123
:1014D00094910895880F991FFC01E759FC4F85915D
:1014E00094910895CF93DF930E94570A0E94840B32
:1014F000EC018115904508F043C0C11580E4D80780
:1015000008F0CBC0C03ED10528F5C03CD10508F09D
:10151000B3C0C83AD10578F4C53AD10508F0A4C0E3
:10152000C130D10509F4ECC008F4E8C0C430D105DD
:1015300008F0E6C0E3C0CF3BD10508F0DFC0C85AD1
:10154000D0E0CC0FDD1FCC5DDE4F0990D881C02DDF
:10155000D464D6C0C11590E2D90750F4C11521E07A
:10156000D20708F0CDC0C83ED10508F4C9C0C6C036
:10157000C11580E3D80708F086C0CE019F707FC0F8
:10158000C11595E5D90708F043C0C11524E5D20778
:1015900008F09AC0C11582E5D80708F5C11591E594
:1015A000D90708F07DC0CE0174E0969587957A95AD
:1015B000E1F783709C2F937021E030E002C0220F8E
:1015C000331F9A95E2F73C68382BCF70C695C695C5
:1015D00080E2C89FE0011124C22BD32B91C09E0151
:1015E000237033278C2F86958695C115D34508F037
:1015F0005CC0C1E0D0E002C0CC0FDD1F2A95E2F74D
:1016000020E2829FC0011124C82BD92BDC6878C04E
:10161000C11529E5D207A0F4C11588E5D80708F05F
:1016200058C0C11596E5D90708F068C08C2F0E94F4
:10163000180C8F71C82FD0E0DC2FCC27D06260C08F
:10164000C1152AE5D20708F449C0CE01905681158C
:10165000904208F053C08D2F8F710E94180CDD2727
:10166000D0628F71D82B4CC0C55AD0E0CE5ADE4F15
:10167000C881D0E0D06444C0CE01805C91090E9452
:101680006A0AEC013DC0CE019927D3FF03C0EC01EB
:10169000D86C36C0EC01D06C33C0DF70D06A30C07B
:1016A000DC2FCC27C16FD06A2BC0C1E0D0E002C0D4
:1016B000CC0FDD1F2A95E2F720E2829FC0011124A2
:1016C000C82BD92BDA681CC0DC2FCC27C46FD06A9A
:1016D00017C0DC2FCC27C06FD06A12C08C2F8F7040
:1016E0000E94180C94E0D695C7959A95E1F7CF70B3
:1016F000D0E0DC2FCC27D069C82B02C0C0E0D0E0FE
:10170000CE01DF91CF9108958238910569F1B0F44F
:101710008133910509F46DC048F48932910509F4CB
:1017200063C08A32910509F469C008958533910533
:1017300009F455C089339105B9F00895833E9105A8
:1017400069F138F4803E9105B1F0823E910509F1CE
:101750000895863E9105A9F1873E9105B9F1843E31
:10176000910509F064C023C020911B0320FD4FC0E8
:1017700021FD4DC0089580911B0380FD44C08091E0
:101780001C0380FF44C080911B0384FD42C083EE94
:101790004DC080911B0382FF38C0F5CF80911B03A1
:1017A00082FD33C080911C0380FD31C0ECCF80915D
:1017B0001C0381FF32C080911B0384FD2AC087EE89
:1017C00035C080911B0383FF26C0F5CF80911B039A
:1017D00083FD21C080911C0381FD1FC0ECCF80914F
:1017E0001B0385FD1CC01DC080911B0385FD19C016
:1017F00016C080911B0386FD16C017C080911B0385
:1018000086FD13C010C089E311C082EE0FC080EEC8
:101810000DC080E00BC086EE09C084EE07C089E2EF
:1018200005C085E303C08AE201C081E390E008952A
:1018300090911B0392FF0DC0282F2871283019F4B6
:10184000877F846006C0282F2471243011F48B7F99
:10185000886093FF0DC0282F2871283119F4877EE6
:10186000846106C0282F2471243111F48B7E886195
:1018700020911C0320FF0DC0382F3871383019F427
:10188000877F816006C0382F3171313011F48E7F2F
:10189000886021FF0DC0282F2871283119F4877E18
:1018A000816106C0282F2171213111F48E7E88615B
:1018B00094FD877E0895E82FF0E0EE0FFF1FE151C1
:1018C000FD4F808191810895CF92DF92EF92FF9238
:1018D0000F931F93CF93DF9389E793E00E949808BB
:1018E0008FEEE82E82E0F82EC0E0D0E094E7C92E1B
:1018F00093E0D92E0BE613E0DF93CF93DF92CF92E4
:101900000E94310981E793E00E949808F7018191D4
:1019100091917F010E94220A9F938F931F930F93AF
:101920000E94310989E693E00E94980821968DB7BC
:101930009EB708960FB6F8949EBF0FBE8DBFC530F8
:10194000D105D1F6DF91CF911F910F91FF90EF90CC
:10195000DF90CF90089580EA8A95F1F7089500C04E
:1019600008950C94AB0C08950C94B30C0C94B40C27
:101970000C94B30C0C94B80CF894E82FE295EF702B
:10198000F0E031A1282F2F7081E090E001C0880F96
:101990002A95EAF7982F9095932391A392A1892BEA
:1019A00082A3789408950F931F93CF93DF9380E9D8
:1019B0000E94BC0C81E90E94BC0C82E90E94BC0C14
:1019C00083E90E94BC0C85E90E94BC0CC5E5D1E00E
:1019D00003E611E089910E94BC0C0C171D07D1F79A
:1019E000E5EEF2E0AFEEB2E0119211921D921D927F
:1019F00082E0EF3EF807C1F785E00E94980DDF9185
:101A0000CF911F910F910C948A097F928F929F9290
:101A1000AF92BF92CF92DF92EF92FF920F931F93FC
:101A2000CF93DF9305EE12E083E6E82E81E0F82EF7
:101A3000C0E0D0E0712CAA24A394B12C4701F70197
:101A40008081F894E82FE295EF70F0E021A18F708B
:101A5000A50102C0440F551F8A95E2F7CA01922FD3
:101A6000982B91A392A18095892382A378940E94B8
:101A7000AF0CE5E5F1E020E030E0C12CD12C419144
:101A8000A42FA295AF70B0E090968C9190E04F702B
:101A900002C0959587954A95E2F780FD08C0C5017B
:101AA000022E02C0880F991F0A94E2F702C080E05C
:101AB00090E0C82AD92A2F5F3F4F2E303105F9F622
:101AC0005FEFE51AF50AF40180810E94BC0CC43076
:101AD000D10511F00E94B10CF80180819181C816E6
:101AE000D90621F0D182C08281E001C080E0782A4D
:101AF00021960E5F1F4FC530D10509F09FCF272DCE
:101B000045E06FEE72E085EE92E00E94990D0E9432
:101B10009809872DDF91CF911F910F91FF90EF9042
:101B2000DF90CF90BF90AF909F908F907F9008955F
:101B30000895FF920F931F93CF93DF93F82E092FF1
:101B4000162FD72FC42F222349F081E08093D8018C
:101B50000E94532C9093D7018093D6018091D80195
:101B60008823D9F08091D6019091D7010E946B2CE7
:101B7000069798F0EF2DF02FA12FBD2F80E090E079
:101B80004C2F50E08417950734F4219131912D9317
:101B90003D930196F7CF1092D801DF91CF911F911D
:101BA0000F91FF900895CF93C82F1F928F9386E9CE
:101BB00093E09F938F930E94310981E090E0A0E031
:101BC000B0E0BC01CD0104C0660F771F881F991FCC
:101BD000CA95D2F70E94A2270F900F900F900F90F6
:101BE000CF910C94AC23CF93DF93482F50E0FA01B0
:101BF0003597EF33F10508F090C2EA5AFF4F0C9485
:101C0000DA3484E099E00E94980880E498E00E9429
:101C100098080E943E2A1F928F938DE398E09F932D
:101C20008F930E9431098BE398E00E9498080E94EC
:101C30003A2AC82F88E298E00E9498081F92CF9312
:101C400083E298E09F938F930E94310981E298E0AC
:101C50000E94980887E198E00E9498088C2F817074
:101C60001F928F9384E198E09F938F930E94310994
:101C700082E198E00E94980888E098E00E94980825
:101C8000C1FB882780F91F928F9385E098E09F938E
:101C90008F930E94310983E098E00E94980887EFB3
:101CA00097E00E949808C2FB882780F91F928F93C3
:101CB00084EF97E09F938F930E94310982EF97E022
:101CC0000E94980889EE97E00E949808C3FBCC27F1
:101CD000C0F91F92CF9386EE97E09F938F930E9457
:101CE000310984EE97E00E9498080E94422AEC0194
:101CF00080ED97E00E949808DF93CF938BEC97E0FC
:101D00009F938F930E94310989EC97E00E94980875
:101D100080EB97E00E9498088C2F81701F928F9320
:101D20008DEA97E09F938F930E9431098DB79EB7FC
:101D300080960FB6F8949EBF0FBE8DBF8BEA97E0DA
:101D40000E94980884E997E00E949808C1FB8827C0
:101D500080F91F928F9381E997E09F938F930E9460
:101D600031098FE897E00E9498088DE797E00E947C
:101D700098088D2F81701F928F938AE797E09F9329
:101D80008F930E94310988E797E00E94980886E6C1
:101D900097E00E949808D695D1701F92DF9383E652
:101DA00097E09F938F930E94310981E697E00E940C
:101DB00098088FE497E00E949808C2FB882780F972
:101DC0001F928F938CE497E09F938F930E94310929
:101DD0008AE497E00E94980888E397E00E949808B8
:101DE000C3FB882780F91F928F9385E397E09F9329
:101DF0008F930E94310983E397E00E94980889E25B
:101E000097E00E949808C4FB882780F91F928F935F
:101E100086E297E09F938F930E94310984E297E0D6
:101E20000E94980882E197E00E949808C5FB8827E5
:101E300080F91F928F938FE097E09F938F930E947A
:101E400031098DE097E00E94980881EF96E00E94AA
:101E50009808C6FB882780F91F928F938EEE96E034
:101E60009F938F930E9431098DB79EB780960FB6CE
:101E7000F8949EBF0FBE8DBF8CEE96E00E9498082E
:101E800084EE96E00E949808C7FBCC27C0F91F9209
:101E9000CF9381EE96E09F938F930E9431098FED4F
:101EA00096E00E9498080E94602AC82F88EC96E06D
:101EB0000E9498081F92CF9383EC96E09F938F9394
:101EC0000E94310981EC96E00E94980887EB96E029
:101ED0000E9498088C2F81701F928F9384EB96E05C
:101EE0009F938F930E94310982EB96E00E9498089D
:101EF00089EA96E00E949808C695C695C6951F92F5
:101F0000CF9386EA96E09F938F930E94310984EAEB
:101F100096E00E9498088DB79EB740960FB6F89449
:101F20009EBF0FBE8DBF06C083EF98E00E94980849
:101F30000E94DF2AC1E0F6C082EF94E074C0809175
:101F4000BE02817F8E7F8093BE0287ED94E00E9467
:101F500098088FEE98E00E94980881E08093D9015C
:101F6000E9CF83ED98E00E9498080E949B09E2CF98
:101F70008091BE02C82FC095C170C0FB80F98093CC
:101F8000BE02CC2319F087EC98E0B9C08AEB98E048
:101F90000E9498088091BE02897F877F8093BE024D
:101FA000C9CF9091BE0291FBCC27C0F981E0C82730
:101FB000892FC0FB81F98093BE02CC2319F08DEAF2
:101FC00098E027C08FE998E02EC09091BE0292FB66
:101FD000CC27C0F981E0C827892FC0FB82F9809304
:101FE000BE02CC2319F080E998E013C080E898E0A5
:101FF0001AC09091BE0293FBCC27C0F981E0C8279C
:10200000892FC0FB83F98093BE02CC2351F084E773
:1020100098E00E9498088091BE0281608093BE0281
:1020200081C087E698E00E94980884CF88EC94E00D
:102030000E94980880E994E00E94980889E794E05B
:102040000E94980887E494E00E9498088CE194E04C
:10205000EACF8EE094E00E9498080E941C1E1F9216
:102060008F9384EF93E09F938F930E943109809127
:1020700023011F928F938DED93E09F938F930E9486
:1020800031098091E4021F928F938AEC93E09F9331
:102090008F930E94310980911B0387FB882780F969
:1020A0001F928F9382EB93E09F938F930E9431094D
:1020B0000E945F2C9F938F937F936F938BE993E0A4
:1020C0009F938F930E9431098DB79EB746960FB6A6
:1020D000F8949EBF0FBE8DBF2DCF0E94AC23909170
:1020E0001B0397FBCC27C0F981E0C827892FC0FBD1
:1020F00087F980931B03CC2329F08DE598E00E949B
:10210000980810C082E598E08ECF895303C08D51A6
:1021100001C080E00E94D30D0DCF80E598E00E94C1
:102120009808C0E08C2FDF91CF91089580E008954A
:102130000C949610CF93C82F8091D901882319F061
:10214000813031F038C00E9478298232B1F504C064
:102150000E947829823261F48C2F0E94981081119C
:1021600004C08C2F0E94F30D24C081E090E021C0B8
:102170008C2F0E94961081111BC0C43189F018F475
:10218000CB3029F010C0C93259F0C83361F487ED63
:1021900094E00E94980882E993E00E94980808C0A1
:1021A0001092D9010CC080E993E00E94980807C002
:1021B00081E0817006C01092D90180E002C080E009
:1021C000F8CFCF910895EF92FF920F931F93CF9383
:1021D000DF938B01682F11110AC0442329F0E82FE7
:1021E000F0E0EA57F24F6491762F862F75C0212FC9
:1021F00030E0E82FF0E0442321F0EA57F24FE49179
:10220000F0E046E0049FC0011124CFEFD0E0BE0112
:102210000E9490344BEA4603C001479F900D112461
:10222000800F911D800F911D982F990F890FAE017E
:10223000421B530B4E9FD0014F9FB00D5E9FB00DC0
:1022400011249B2F189FA0011124452F55278E0183
:10225000041B150B0E9FA0010F9F500D1E9F500DCC
:1022600011247E01E81AF108E29E8001E39E100D20
:10227000F29E100D1124212F3327C21BD30BCE9FAA
:102280009001CF9F300DDE9F300D1124623071051B
:10229000A9F048F46115710569F061307105C9F460
:1022A0008B2F752F0DC06430710581F058F06630AA
:1022B000710579F47E2F8B2F932F0DC0832F7B2FE9
:1022C0009E2F09C08E2F7B2F952F05C08E2F732F29
:1022D00002C07E2F852F692FDF91CF911F910F9123
:1022E000FF90EF90089541E00E94E3100895089553
:1022F0000E9473110895CF93DF93762FE901682F21
:10230000842F0E947811798368838A83DF91CF912B
:1023100008958091F902282F269530E02115310586
:1023200019F48170826005C02B32310524F0817070
:1023300084658093F902089588E090E00C948235DA
:10234000CF92DF92EF92FF926B017C010E94891184
:10235000B701A60188E090E0FF90EF90DF90CF906A
:102360000C94A035E9EFF2E083E0808311828FEFD7
:1023700082838383148260817181828193810C9432
:10238000A0118091BE0280FF08C084ED9BE09F9366
:102390008F930E9431090F900F908091BE0280FFB1
:1023A0000FC08091F90281701F928F9387EB9BE0A1
:1023B0009F938F930E9431090F900F900F900F9071
:1023C0008091BE0280FF0FC08091F90286951F9216
:1023D0008F938CE99BE09F938F930E9431090F901C
:1023E0000F900F900F908091BE0280FF0EC08091E1
:1023F000FA021F928F9382E89BE09F938F930E9433
:1024000031090F900F900F900F908091BE0280FFC6
:102410000EC08091FB021F928F9388E69BE09F93F2
:102420008F930E9431090F900F900F900F90809121
:10243000BE0280FF0EC08091FC021F928F938EE43B
:102440009BE09F938F930E9431090F900F900F9004
:102450000F908091BE0280FF0EC08091FD021F92FE
:102460008F9382E39BE09F938F930E9431090F909B
:102470000F900F900F9008958091F90280FF02C095
:102480008695089580E008959091FD02933018F4A8
:102490009F5F9093FD02882351F06091F902709143
:1024A000FA028091FB029091FC020C94A011089515
:1024B00081E00C9444129091FD02992319F09150FF
:1024C0009093FD02882351F06091F9027091FA0215
:1024D0008091FB029091FC020C94A011089581E080
:1024E0000C945B1270E00C94CB1B609108018091FE
:1024F000F90280FF0AC08091070123E0829FC0019A
:10250000112482509D4F0C94721280910901909178
:102510000A01891780F7E82FF0E09F01220F331F8F
:10252000E20FF31FE250FD4F1182108212828F5F83
:10253000F0CF9091F90290FF16C09091090120917F
:102540000A01921770F4E92FF0E0DF01AA0FBB1F18
:10255000EA0FFB1FE250FD4F8183608342839F5F40
:10256000F0CF0C9475120895CF93DF9300D01F9293
:10257000CDB7DEB79091F90290FF0AC09E012F5FA0
:102580003F4F0E947B114B8169818A810E94991281
:102590000F900F900F90DF91CF910895CF93DF931D
:1025A000EC01EC81F0E0EE5FF34F4491E9EFF2E0F3
:1025B000628181810E94B4128C818F5F8C83DF9154
:1025C000CF910895CF93DF93EC01E9EFF2E04381DF
:1025D00062818C810E94B4128C818F5F8C83DF9129
:1025E000CF9108950F931F93CF93DF9300D01F9245
:1025F000CDB7DEB78C018091DA0181110AC09E014E
:102600002F5F3F4F4FEF6FEF0E947B118A818093C6
:10261000DA01F8018481813051F028F0823061F4D0
:102620004091DA010AC08091DA0140E007C0609170
:10263000DA0140E080E003C040E080E060E00E941A
:102640009912F801848190E0019663E070E00E94A5
:10265000A43484830F900F900F90DF91CF911F913E
:102660000F9108954F925F926F927F928F929F92F7
:10267000AF92BF92CF92DF92EF92FF920F931F9390
:10268000CF93DF9300D01F92CDB7DEB7F82EB62ED2
:10269000E42E622E9091F90290FFB4C0E92FE695E6
:1026A000AE2FB0E0A859BE4F8C9180930C029E7F54
:1026B000923061F49E012F5F3F4F8F2D0E947B115E
:1026C0004B8169818A810E94991262C0823019F41B
:1026D000E090FC025DC0863019F4F090FA0258C018
:1026E0008930D9F3893109F053C0E9518E2F8170B7
:1026F000782E81E0A72CA826E695F0E0EE5FF24F59
:10270000C590D490412CDD249DE8892E99E0992E26
:1027100060910B014616D0F5042D10E00C9DC00110
:102720000D9D900D1C9D900D112470E00E94903421
:102730005F2C711002C0560E01C0561A8091BE0265
:1027400080FF11C0DF92CF921F92AF921F925F92D3
:102750001F924F929F928F920E9431090FB6F89468
:10276000DEBF0FBECDBF80910901080F111D98017A
:10277000220F331F020F131F980122503D4F4E2D81
:102780006B2D852D0E947B114394C2CF0E94751240
:10279000F092FA02B092FB02E092FC026620E9F0AD
:1027A0006091F9027091FA028091FB029091FC0213
:1027B0000E94A0118091BE0280FF24C08091FC0283
:1027C0001F928F938091FB021F928F938091FA0248
:1027D0001F928F9388E699E00CC08091BE0280FF23
:1027E00011C01F92EF921F92BF921F92FF9281E43D
:1027F00099E09F938F930E9431090FB6F894DEBF42
:102800000FBECDBF0F900F900F90DF91CF911F9112
:102810000F91FF90EF90DF90CF90BF90AF909F907F
:102820008F907F906F905F904F900895E9EFF2E066
:102830009181282F438162818AE0890F0C943213A1
:1028400081E00C941614E9EFF2E09181282F438186
:10285000628186EF890F0C94321381E00C9423146B
:10286000E9EFF2E0628121E1620F08F46FEF282FB7
:10287000438181810C94321381E00C943014E9EF90
:10288000F2E0628121E1621B08F460E0282F4381BD
:1028900081810C94321381E00C943F14E9EFF2E053
:1028A000438121E1420F08F44FEF282F628181819B
:1028B0000C94321381E00C944E14E9EFF2E0438162
:1028C00021E1421B08F440E0282F628181810C94B1
:1028D000321381E00C945D1420E00C943213FF92CB
:1028E0000F931F93CF93DF93EC01F12C0FEF10E0C8
:1028F00060910B01F616F0F4809109012F2D30E064
:10290000280F311DC901880F991F280F391F225028
:102910003D4F70E0C8010E94A434962F8C814091F5
:10292000FC026091FB02F99E800D11240E947B1134
:10293000F394DECF0E9475129A818C8190FF02C0C1
:102940008F5F01C081508C83DF91CF911F910F91D8
:10295000FF900895BF92CF92DF92EF92FF920F9374
:102960001F93CF93DF93FC01828180FF02C00FEFA2
:1029700001C001E010E080910B01181708F040C081
:1029800080910901C12ED12CE601C80FD11DCE01C5
:10299000880F991FC80FD91FC250DD4F19821882A6
:1029A0001A8234E0E32EF12CB12C8091DC018B0DE6
:1029B000893014F0877005C087FF03C090910B0128
:1029C000890F082E000C990BC816D90691F4809136
:1029D000FC028E9DA0018F9D500D112455954795A9
:1029E000559547959E016091FB028091FA020E94E5
:1029F0007B11B00EF1E0EF1AF108B9F61F5FBBCF03
:102A00000E9475128091DC01013031F4811102C005
:102A100080910B01815007C090E0019660910B01FD
:102A200070E00E94A4348093DC01DF91CF911F916C
:102A30000F91FF90EF90DF90CF90BF900895CF93CC
:102A40008091090190910A01891770F4E82FF0E054
:102A50009F01220F331FE20FF31FE250FD4F11823F
:102A6000108212828F5FF0CFC0E060910B01C61719
:102A7000C0F5EC2FF0E070E0CF010E94A43420916B
:102A80000901820F2091DB01022E000C330B90E034
:102A9000E217F307CCF020910601022E000C330B55
:102AA0002E173F078CF09C01220F331F820F931FBC
:102AB0009C0122503D4F4091FC026091FB028091AD
:102AC000FA020E947B110BC0FC01EE0FFF1F8E0F5C
:102AD0009F1FFC01E250FD4F118210821282CF5FD6
:102AE000C4CF0E947512209105018091DB01820FF5
:102AF0008093DB0190910601920F909306011916C5
:102B00005CF4082E000C990B40910B0150E04150F1
:102B10005109841795071CF0219520930501CF9149
:102B200008958F929F92AF92BF92CF92DF92EF92D1
:102B3000FF920F931F93CF93DF938C01FC0144818D
:102B4000C42FD0E09E01DE010E94E8349B01AC015D
:102B50000E94FE346B017C01E0E2F0E0EC1BFD0B17
:102B6000A5E5B0E09B01AC010E94FE344B015C0185
:102B70009F01DF010E94E0349B01AC010E940935F6
:102B80009B01AC012C0D3D1D4E1D5F1DC501B40107
:102B90000E94B834C22FD22F2A3228F4F3E02F9F9C
:102BA000900111240DC025E530E02C1B3109C9012D
:102BB000880F991F280F391F37FF02C02F5F3F4F23
:102BC00035952795C22FC095F12C85E5E82EED1A95
:102BD00080910B01F816C8F4F1FC02C08E2D01C0E3
:102BE0008D2F909109012F2D30E0290F311DA90162
:102BF000440F551F240F351F22503D4F4C2F60911D
:102C0000FB020E947B11F394E3CF0E947512F8013E
:102C10008481811102C091E003C0803219F49FEFDA
:102C20009093040190910401890FF8018483DF914E
:102C3000CF911F910F91FF90EF90DF90CF90BF90B9
:102C4000AF909F908F9008950F931F93CF93DF9332
:102C5000EC0100E010E080910B01282F30E002171A
:102C6000130724F5909109019801290F311DA9013D
:102C7000440F551F240F351F22503D4F869590E07D
:102C80004C81081719071CF4442331F002C041118C
:102C900003C04091FC0201C040E06091FB028091C2
:102CA000FA020E947B110F5F1F4FD5CF0E94751251
:102CB0008C8190E00196817099278C83DF91CF9170
:102CC0001F910F9108957F928F929F92AF92BF9222
:102CD000CF92DF92EF92FF920F931F93CF93DF93E8
:102CE000FC018280748081E08483E2E0FCE09490C7
:102CF000E1E8FCE0E491A12CF5E0BF2ECC24CA94DD
:102D0000D12CE9190E2F10E080910B01A81608F0C4
:102D1000A2C0EA2CF12C22E0281568F0BE9CF0013C
:102D2000BF9CF00D1124E352FE4F8091FA02808384
:102D30008091FB02818371100AC0BE9CF001BF9C90
:102D4000F00D1124E352FE4F138212826AC0BE9C22
:102D5000E001BF9CD00D1124C352DE4F8B8188232C
:102D6000F9F081508B832FEF829FC00111246C8179
:102D700070E00E949034FB01FF27EE5FF34F8491D7
:102D8000E82FE9192FEFE29FC0011124B8010E943A
:102D900090348091FC02689FB00111247A8341C075
:102DA0000E945D352091FC022695215830E0A90152
:102DB000440F551F322F2227240F351F232F33276F
:102DC0008217930774F582E0881588F40E945D35B8
:102DD000B6010E94A43488830E945D352091FB02D5
:102DE0002695622F70E00E94A434280F2983BE9C90
:102DF000F001BF9CF00D1124E352FE4F128280912E
:102E0000FC02843120F0893C18F088EC01C084E198
:102E1000BE9CF001BF9CF00D1124E352FE4F848351
:102E20008383809109019701280F311DC901880F03
:102E3000991F280F391F22503D4FBE9CF001BF9CA7
:102E4000F00D1124E352FE4F4281618180810E9486
:102E50007B11A39459CFDF91CF911F910F91FF90D8
:102E6000EF90DF90CF90BF90AF909F908F907F902A
:102E70000C9475126091F902669570E04BE050E099
:102E80008CE091E00E946D35892B19F481E08093EC
:102E90000D020E94532C90930602809305028091AC
:102EA000BE0280FF08C088E299E09F938F930E9442
:102EB00031090F900F90089510920D028091BE027B
:102EC00080FF08C08FE099E09F938F930E943109A3
:102ED0000F900F9008959091F90290FF54C0917057
:102EE000811102C0926006C08B3210F0946502C05E
:102EF000880F982B9093F9026623B1F06091F90244
:102F00007091FA028091FB029091FC020E94A01144
:102F10008091BE0280FF1BC08091F90286951F92AE
:102F20008F9388E79AE00BC08091BE0280FF0FC0AC
:102F30008091F90286951F928F938AE59AE09F937C
:102F40008F930E9431090F900F900F900F90609116
:102F5000F902669570E04BE050E08CE091E00E9451
:102F60006D35892B19F00E945C1702C00E943A1738
:102F700081E0809308024091FC026091FB02809105
:102F8000FA020C946C140895682F9091F9029695AA
:102F900081E0890F8B3208F081E00C946B1781E09F
:102FA0000C94C417682F9091F90296958FEF890FB2
:102FB00009F48AE20C946B1781E00C94D21761E05B
:102FC0000C946B178091F90281608093F9028091D3
:102FD000BE0280FF0DC01F9281E08F938CEE99E0BE
:102FE0009F938F930E9431090F900F900F900F9035
:102FF0008091F90286950C94DF1760E00C946B17B2
:1030000080910B02811160C08091BE0280FF08C0D8
:103010008BE19BE09F938F930E9431090F900F905B
:103020008091BE0280FF08C085E09BE09F938F9354
:103030000E9431090F900F900E942F2A811110C019
:103040008091BE0280FF08C08DED9AE09F938F9320
:103050000E9431090F900F900E94DF2A0E94B21146
:103060000E949C116093F9027093FA028093FB0214
:103070009093FC026E7FC1F48091BE0280FF08C075
:1030800084E99AE09F938F930E9431090F900F90EB
:103090000E94B2110E949C116093F9027093FA028F
:1030A0008093FB029093FC020E9489110E94C1113F
:1030B00010920D028091F90280FF03C086950E9454
:1030C000FD1781E080930B0208958091F9028E7FB5
:1030D0008093F9026091F9027091FA028091FB02EB
:1030E0009091FC020E94A0118091BE0280FF0FC04F
:1030F0008091F90281701F928F9384EB99E09F93E6
:103100008F930E9431090F900F900F900F900E94A3
:103110005C172FEF80E792E0215080409040E1F76C
:1031200000C000000C9475128091BE0280FF10C098
:103130008091F902809581701F928F9383E29AE0CB
:103140009F938F930E9431090F900F900F900F90D3
:103150008091F90280FD0C9465180C94E2170F938E
:103160001F93CF93DF9380910D02882309F495C0BC
:1031700080910C02E091F902E695E81BE0930702CA
:10318000823049F4F0E0E250F44FE491CE2FD0E0E9
:103190000EEC12E159C0863049F4F0E0E550F44FEE
:1031A000E491CE2FD0E002EE12E14EC0893051F40E
:1031B000E695F0E0E850F44FE491CE2FD0E00FE632
:1031C00014E142C08F3051F4E695F0E0EB50F44F3B
:1031D000E491CE2FD0E00AEA14E136C0853149F4FB
:1031E000F0E0EE50F44FE491CE2FD0E00FE115E186
:1031F0002BC08831D9F0833239F4E0EFFBE0C59180
:10320000D49102EF12E120C08432A9F08532C1F4DA
:103210008E2F63E00E948434E92FF0E0E351F44FF5
:10322000E491CE2FD0E003E616E10EC0C8E2D0E074
:1032300001E915E109C0C4EFD1E004E216E104C0E0
:10324000C0EDD7E007E711E180910802882361F023
:10325000109208020E94532C90930602809305025C
:1032600010920A02109209020E94532CE09105026A
:10327000F09106028E1B9F0B8F3F9F4770F4EC0F5F
:10328000FD1FF0930602E093050285E092E0F8014D
:10329000DF91CF911F910F910994DF91CF911F91F1
:1032A0000F910895882311F0FA0101C0FB010994E0
:1032B000CF93DF93C82FD62F0E943C128C1740F07B
:1032C0000E943C128D1720F4DF91CF910C94CF1700
:1032D0008C2FDF91CF910C94DF170F931F93CF9317
:1032E000FB01C281CC2309F463C08C010E947829C0
:1032F0008272F801E35CFC45E431F10508F059C045
:10330000EB56FF4F0C94DA340E94941806C04CED33
:1033100057E16FEC77E10E945219C0E04AC04FECD0
:1033200057E16CED77E1F7CF4DE254E160E274E1F3
:10333000F2CF40E254E16DE274E1EDCF4BE454E1B1
:103340006CE374E1E8CF4CE354E16BE474E1E3CF68
:1033500049E654E16AE574E1DECF4AE554E169E605
:1033600074E1D9CF4FE652E168E572E1D4CF48E588
:1033700052E16FE672E1CFCF81E017C065E082E0F5
:1033800010C068E086E00DC06EE089E00AC064E12C
:103390008FE007C067E185E104C088E106C062E212
:1033A00089E10E945819B9CF83E20E94DF17B5CF97
:1033B000C1E08C2FCF911F910F9108950E942F2A69
:1033C000811102C00E94DF2A0E94602A80931603A6
:1033D000282F26952695269530E02530310524F0B6
:1033E00087708062809316038091160380FF04C06B
:1033F00086958695869501C080E00C94591B209196
:103400001603822F869586958695482F50E0443086
:10341000510554F48F5F982F990F990F990F822FB0
:103420008770892B809316038091160381608093A7
:1034300016030E94642A8091BE0280FF11C0809111
:1034400016038695869586951F928F938EE69DE04E
:103450009F938F930E9431090F900F900F900F90C0
:10346000809116038695869586950C94591B8091BC
:103470001603982F969596959695A1F0915E990FC3
:10348000990F990F8770892B80931603887F91E09D
:1034900009F490E08091160390FB80F98093160365
:1034A0000E94642A8091BE0280FF11C080911603A1
:1034B0008695869586951F928F9386E59DE09F93CE
:1034C0008F930E9431090F900F900F900F90809171
:1034D00016038695869586950C94591B8091160344
:1034E00080FD1FC0816080931603813019F489E04C
:1034F00080931603809116030E94642A8091BE0275
:1035000080FF08C08EE29DE09F938F930E94310957
:103510000F900F90809116038695869586950C9452
:10352000591B08958091160380FF14C08E7F8093ED
:1035300016030E94642A8091BE0280FF08C08BE1BE
:103540009DE09F938F930E9431090F900F9080E030
:103550000C94591B0895CF93C0911603C1708091AC
:10356000BE0280FF0CC01F92CF9380E49DE09F932A
:103570008F930E9431090F900F900F900F90CC23E2
:1035800019F0CF910C94921ACF910C946E1A9091DD
:103590001603892F8695869586958F5F8F71977014
:1035A000853038F4880F880F880F892B8093160395
:1035B00002C09093160380911603887F91E009F46E
:1035C00090E08091160390FB80F9809316030E948F
:1035D000642A8091BE0280FF11C0809116038695F7
:1035E000869586951F928F9387E09DE09F938F939A
:1035F0000E9431090F900F900F900F908091160349
:103600008695869586950C94591B853008F084E044
:10361000909116039770282F220F220F220F922BC2
:1036200090931603987F21E009F420E0909116030F
:1036300020FB90F9909316030C94591B0E94051BD4
:10364000809116030C94642A9C01FB0182818823DB
:1036500049F12E3BFCE53F07C9F040F42C3BECE57B
:103660003E0769F02D3B3C4561F00895203C9CE508
:10367000390791F070F0213C3C4589F0089584E0D1
:1036800001C080E00E941E1B80E008950E94371A4E
:10369000FBCF0E94FF19F8CF0E94AB1AF5CF0E9412
:1036A000C71AF2CF81E00895269A2E9808952E9891
:1036B0000895CF92DF92EF92FF92CF93C82F85307B
:1036C00050F4811109C0809180008F7D809380002B
:1036D0000E94571B06C0C4E08091800080628093E6
:1036E00080002C2F30E0AFEFBFEF0E94E834DC0108
:1036F000CB0142E0B695A795979587954A95D1F766
:103700008C3744E1940728F469E070E00E9490341B
:1037100027C08A50974DAF4FBF4F6627782F892F0C
:103720009A2F25EF38E241E050E00E94B834690159
:103730007A01CA01B9010E9474349B01AC01C7012E
:10374000B6010E947434BB27A92F982F872F0097AA
:1037500021E0A207B10511F0BC0102C06FEF7FEFBD
:1037600070938B0060938A00CF91FF90EF90DF9071
:10377000CF90089508950E94541B82E280938000A8
:1037800089E1809381008FEF9FEF90938700809372
:1037900086000C94DE196A9A2EB12B7F3EB13460FC
:1037A0004FB7F894FC01CB01880F991F680F791F60
:1037B0006E0F7F1FE617F70789F0819198E03EB9F9
:1037C000000000C087FF2EB9880F000000C000C0B5
:1037D00000C02EB900C09A9591F7ECCF4FBF8FE58E
:1037E00094E00197F1F700C0000008950F931F9334
:1037F000CF93DF93C42FD22FFC0182818823C9F09D
:10380000409310020E94532C90930F0280930E025B
:1038100080E28C0F883008F057C0C77081E001C08B
:10382000880FCA95EAF7DF91CF911F910F910C9401
:103830002E2180911002481330C080910E02909189
:103840000F020E946B2C883C910538F510E21D0F89
:10385000CD17B9F080E28C0F883040F4C77081E05A
:1038600001C0880FCA95EAF70E943521183028F563
:1038700081E09D2F977001C0880F9A95EAF70E940A
:103880002E21802F0E9425211830F0F4D77081E07E
:1038900001C0880FDA95EAF70AC080E28C0F883001
:1038A00098F4C77081E001C0880FCA95EAF7DF91EC
:1038B000CF911F910F910C943521802FDF91CF91E3
:1038C0001F910F910C942521DF91CF911F910F91A2
:1038D00008950F939C01CB01243F4CE5340731F14F
:1038E00088F4293DFCE53F07D9F02A3D4CE5340733
:1038F00079F1283D3C45A9F506E221EE41EE68ED5F
:103900007CE52BC0263FFCE53F07E1F0A8F0273F10
:103910003C4539F507E225EE46EE67EF7CE51DC034
:1039200007E225EE45EE69ED7CE517C006E221EEE3
:1039300040EE64EF7CE511C007E225EE44EE65EF52
:103940007CE50BC006E221EE42EE66EF7CE505C0A9
:1039500008E221E045EE6AED7CE50E94F61B80E07E
:1039600008C0FC018281882319F01092100201C066
:1039700081E00F910895CF93DF93EC01FB018281E9
:10398000882309F41FC1C230FCE5DF0708F41BC11E
:10399000C6319CE5D90738F09E012B5F3C452930A4
:1039A000310508F010C10E94422A90931C038093B5
:1039B0001B03C031ECE5DE0709F4C3C008F041C0C9
:1039C000C8308CE5D80709F49AC0F0F4C430ECE5AF
:1039D000DE0709F487C068F4C2308CE5D80709F423
:1039E00077C0C330DC4509F0E3C080911B038260DF
:1039F00076C0C630ECE5DE0709F46EC008F07BC087
:103A000080911B0388606BC0CC308CE5D80709F42B
:103A100085C068F4CA30ECE5DE0709F474C008F02C
:103A200079C00E94AC2380911B03806858C0CE30BF
:103A30008CE5D80709F476C008F07FC080911B039D
:103A40008BC0CC3FECE5DE0709F44FC018F5C3315D
:103A50008CE5D80709F47DC078F4C131ECE5DE07C8
:103A600009F473C0C231DC4509F0A2C00E94AC2346
:103A700080911B038F7733C0C5318CE5D80709F4DB
:103A800072C008F486C0CB3FDC4509F091C080913C
:103A90001C033EC0C115FDE5DF0709F45FC058F403
:103AA000CE3F9CE5D90709F444C008F43FC080919B
:103AB0001C0382602DC0C230FDE5DF0709F475C02C
:103AC00008F45DC0C330DD4509F072C080E06EC00F
:103AD00080911B03816003C080911B0380618093F0
:103AE0001B0366C080911B0311C080911C03826080
:103AF00080931C035DC080911B038062F0CF809196
:103B00001B038064ECCF80911B0388608460E7CF47
:103B10008160EECF80911B038E7FE1CF80911B03EC
:103B20008D7FDDCF80911B03877FD9CF80911C03D0
:103B300018C080911C038D7FDBCF80911B038F7E8B
:103B4000CECF80911B038F7DCACF80911B038F7BCB
:103B5000C6CF80911B03877F8B7FC1CF80911C03D1
:103B60008D7F8E7FC5CF80911B0382FB222720F99A
:103B700091E0922790FB82F990FB83F9B0CF80917E
:103B80001C03982F909591708E7F892B90FB81F963
:103B9000AFCF0E94AC2380911B0387FB222720F923
:103BA00091E0922790FB87F99ACF81E00E94E12A69
:103BB00080911B0390911C030E94532A0E94AC2306
:103BC00080E001C081E0DF91CF910895CF93DF9332
:103BD00086319C4541F5EB010E947829982F8A8116
:103BE0002091170130911801882379F09A7A81E0A9
:103BF00009F480E080931102911102C069E201C0D2
:103C000065E3C9010E949E2B0AC0809111028111B7
:103C100002C069E201C065E3C9010E94A92B0E94AC
:103C2000C62980E001C081E0DF91CF910895909393
:103C30001702809316020895E0911602F091170280
:103C4000309721F00190F081E02D099480E00895F3
:103C5000EF92FF921F93CF93DF93FC01A091160286
:103C6000B0911702109709F442C080912301882374
:103C700041F080911B0387FF04C08081818385E030
:103C80008083EF011296ED91FC911397CE01099577
:103C90008091BE0282FF2BC080FF04C08EE89EE0B0
:103CA0000E94980818E088E8E82E8EE0F82E8091AF
:103CB000BE0280FF0BC088811F928F93FF92EF920C
:103CC0000E9431090F900F900F900F901150219684
:103CD0001111EDCF8091BE0280FF09C086E89EE001
:103CE000DF91CF911F91FF90EF900C949808DF9196
:103CF000CF911F91FF90EF90089520911402309181
:103D000015022817390771F0909315028093140259
:103D1000E0911602F0911702309721F00680F781AA
:103D2000E02D099408952091120230911302281772
:103D3000390771F09093130280931202E0911602FA
:103D4000F0911702309721F00084F185E02D09945D
:103D500008950E945F2C609327027093280280933D
:103D6000290290932A026093230270932402809385
:103D7000250290932602089585B7806885BF85B790
:103D8000806885BF089581E008950C94C31E08954E
:103D90000C94C71E0C94C71E0C94CA1E0C94C71E0C
:103DA0000C94CE1E0C94C71E0E94BC1E83EB9EE298
:103DB0000E94C42C0E94D21E0C94D01E0E944A2C39
:103DC0000E94D30C0E94DF2C0E94DE190E94001872
:103DD0000C94CC1ECF93C82F8091BE0282FF1EC0D0
:103DE00080FF04C087EA9EE00E9498088091BE028E
:103DF00080FF0CC01F92CF9382EA9EE09F938F9327
:103E00000E9431090F900F900F900F908091BE0289
:103E100080FF04C080EA9EE00E9498088C2FCF911A
:103E20000C944A0A6F927F928F929F92AF92BF92A8
:103E3000CF92DF92EF92FF920F931F93CF93DF9376
:103E4000CDB7DEB72A970FB6F894DEBF0FBECDBF51
:103E50000E94C81E0E94C71E0E94050D81110E946B
:103E6000A91E39E1832E32E0932E00E010E0C02E2F
:103E7000802F0E945B0C5C01F401619071904F01F6
:103E80006826792661147104B1F40F5F1F4F053065
:103E9000110569F78FEF89838A831B820E94532C57
:103EA0008160782F9D838C8349815A816B818D81BC
:103EB0000E94CE1F3AC08091BE0281FD0E94640C18
:103EC000D12CEE24E394F12CC3018E219F21892B68
:103ED00029F10E94C51E8823A9F0DE82CF82AE2080
:103EE000BF2081E0AB2809F480E088870E94532C32
:103EF0008160782F9A8789874E815F8168858A855E
:103F00000E94CE1F000F111FF801E75EFD4F808158
:103F10009181E826F926F182E08207C0D394EE0C65
:103F2000FF1CFEE0DF12D0CFB0CF0E94AF180E947E
:103F3000BA1B0E941C1E909118028917D1F00E9492
:103F40001C1E809318022A960FB6F894DEBF0FBE8F
:103F5000CDBFDF91CF911F910F91FF90EF90DF9038
:103F6000CF90BF90AF909F908F907F906F900C9468
:103F7000EA1E2A960FB6F894DEBF0FBECDBFDF91C2
:103F8000CF911F910F91FF90EF90DF90CF90BF9056
:103F9000AF909F908F907F906F900895DF92EF92F7
:103FA000FF920F931F93CF93DF93CDB7DEB72B977D
:103FB0000FB6F894DEBF0FBECDBFF42E052F162F1F
:103FC000E72ED82E61110E949829FE01319686E0D5
:103FD000DF011D928A95E9F77E2D4F2D502F612F1D
:103FE0008D2D9E810E9465262B960FB6F894DEBF1C
:103FF0000FBECDBFDF91CF911F910F91FF90EF903A
:10400000DF900895FC01808191810E9439290895F3
:10401000CF93882309F4A1C0C82F8238C1F40E942D
:104020001C1E81FD9AC069E38091170190911801CF
:104030000E949E2B0E94C6292FEF81EE94E0215012
:1040400080409040E1F700C0000069E319C0833868
:1040500001F50E941C1E80FD80C063E58091170160
:10406000909118010E949E2B0E94C6292FEF81EE8D
:1040700094E0215080409040E1F700C0000063E5EB
:1040800080911701909118010E94A92BCF910C9457
:10409000C6298438C1F40E941C1E82FD5EC067E4FC
:1040A00080911701909118010E949E2B0E94C629B1
:1040B0002FEF81EE94E0215080409040E1F700C066
:1040C000000067E4DDCF8CEF8C0F813AF8F48C2F81
:1040D0000E949A10811141C06C2F8091170190911C
:1040E00018010E94FC2A882349F06C2F8091170147
:1040F000909118010E94A92B0E94C6296C2F8091D3
:104100001701909118010E949E2BC0CF80E28C0F66
:10411000883048F4C77081E001C0880FCA95EAF77B
:104120000E947B29B3CFEBE5EC0FE33040F4F0E0E5
:10413000EF53FE4F808190E0CF910C947D1EC85AC2
:10414000C73158F4EC2FF0E0EE0FFF1FED56FE4F95
:1041500080819181CF910C94931ECF9108958823F3
:1041600009F45BC0682F823879F40E941C1E81FF1D
:1041700054C069E380911701909118010E949E2B11
:104180000E94C62969E310C08338B1F40E941C1E46
:1041900080FF43C063E580911701909118010E9450
:1041A0009E2B0E94C62963E580911701909118010A
:1041B0000E94A92B0C94C629843879F40E941C1EF5
:1041C00082FF2BC067E480911701909118010E9433
:1041D0009E2B0E94C62967E4E7CF8CEF860F813AB9
:1041E00018F380E2860F883048F4677081E001C0E0
:1041F000880F6A95EAF70E948129DCCF8BE5860F4C
:10420000833020F480E090E00C947D1E685A673182
:1042100020F480E090E00C94931E08951F93CF93B8
:10422000DF93182FEB010E940820209741F08FE9BF
:104230009FE00197F1F700C000002197F6CF812F92
:10424000DF91CF911F910C94AF20893319F060E07A
:1042500070E002C060E570E00C940E21882321F02C
:104260000E947B290C94C6290895882321F00E947E
:1042700081290C94C6290895CF92DF92EF92FF9284
:104280000F931F93CF93DF937C01062FC72FFC0161
:10429000D281158112951F700E947129882399F08F
:1042A000DD2389F08C2F807F803421F080E2800F25
:1042B000883048F082E00E94102A0E94712991E023
:1042C000D82ED92601C0D12CCC2EC2948FE0C82282
:1042D0008C2D90E0FC01E755FF4F0C94DA348C2FC5
:1042E000807FCF70882311F0C295C07FDD2399F0C5
:1042F000CC2309F482C180E2800F883010F00111D4
:1043000004C08C2F0E947B2903C08C2F0E948B2914
:104310000E94C62972C1802F0E94AF20CC2309F4CD
:1043200091C180E2800F883010F0011104C08C2F01
:104330000E94812903C08C2F0E9491290E94C629C6
:1043400081C18C2F807FCF70803211F0C295C07FE9
:10435000002319F00130C9F022C0DD2371F01123D0
:1043600041F0113031F40E94AB298C2B0E94B3290B
:1043700069C10E94AB298C2B1DC0112319F011308B
:1043800009F460C10E94BC2925C0DD2321F016304C
:1043900008F058C10EC0153008F054C11BC0DD2311
:1043A00061F0112331F0F701858180FF26C18F7004
:1043B00085838C2F0E942E2145C1112359F009338A
:1043C00009F02CC1FFEF27EE83E0F1502040804040
:1043D000E1F722C18C2F0E94352134C18C2F8695A4
:1043E0008695837019F0813061F02CC1DD2321F0B6
:1043F000802F9C2F937002C080E090E00E947D1E71
:1044000029C1DD2321F0802F9C2F937002C080E012
:1044100090E00E94931E1EC18C2F837009F045C04E
:10442000D11114C1402F429546954770440F440F57
:10443000602F6F70862F90E0A0E0B0E0042E04C0E3
:10444000880F991FAA1FBB1F0A94D2F704FF10C040
:104450000FE010E020E030E004C0000F111F221F29
:10446000331F4A95D2F7009510952095309503C0DB
:1044700000E010E09801C695C695C370BC01CD015F
:10448000602B712B822B932BC23049F058F4C13032
:1044900019F00E94B627DAC00E94A427D7C00E9454
:1044A000C827D4C00E94A227D1C0DD2319F08C2FC9
:1044B000817001C08695882309F4C8C0402F4295B9
:1044C00046954770440F440F602F6F70862F90E021
:1044D000A0E0B0E0042E04C0880F991FAA1FBB1FE4
:1044E0000A94D2F704FF10C00FE010E020E030E0A3
:1044F00004C0000F111F221F331F4A95D2F70095E9
:1045000010952095309503C000E010E09801C69505
:10451000C695C370BC01CD01602B712B822B932BF0
:10452000C23049F058F4C13019F00E947B288EC087
:104530000E9469288BC00E948D2888C00E94DC27B9
:1045400085C0CF70DD2339F08C2F0E940228802F88
:104550000E942E217BC0802F0E9435218C2F0E942B
:10456000232874C0023F01F128F4003F41F0013FCD
:10457000A1F03FC0033FF9F0043F39F13AC0DD2319
:1045800041F0153008F05EC08C2F8F710E944828D2
:1045900059C0163008F056C0F7CFDD2339F08C2F04
:1045A0008F710E9402284EC0DD23C9F38C2F8F71BA
:1045B0000E94232847C0DD2329F08C2F8F710E9491
:1045C000ED2740C00E94E8273DC0DD2349F0CF71B0
:1045D0008C2F0E94022863E08C2F0E94FB2932C09E
:1045E00081E00E94102A123068F182E00E94102AB5
:1045F00029C0DD2331F0112391F2802F0E94082081
:1046000021C0112399F2093349F49FEFE7EEF3E05B
:104610009150E040F040E1F700C00000802F0E9480
:10462000AF2010C04C2F4F70602FC7010E94530A5B
:104630000E9413270FC04C2F4F70602FC7010E949C
:10464000560A08C088EF8C0D843020F40E941C1E8E
:104650000E944A0ADD20C9F00E946D2980FD15C024
:10466000F70112820E9467290E940228C7010E9456
:1046700066230E946729DF91CF911F910F91FF90D0
:10468000EF90DF90CF900C942328DF91CF911F9172
:104690000F91FF90EF90DF90CF9008950F931F93AD
:1046A000CF93DF93EC01688179818A810E9444294C
:1046B0008C010E949F280E949027B801CE010E9481
:1046C0003C21DF91CF911F910F910895CF93DF93FC
:1046D000EC01988189812B813C81232B31F08F3F24
:1046E00031F481E09F3F19F403C081E001C080E014
:1046F00080FD19C0CE010E94AA0981110CC00E9440
:104700007129882381F08A81882369F082E0DF9112
:10471000CF910C94102ACE010E944E23CE01DF913E
:10472000CF910C947F09DF91CF91089580E090E0C4
:104730000E947D1E80E090E00E94931E0E949829B6
:104740000E94A8290C94C629809117019091180104
:104750000E94B42B0C9496230E9488290C94A423C5
:10476000E92FE295EF704E2F50E0FA013297EE30CC
:10477000F105B0F4E754FF4F0C94DA34803F91F028
:1047800018F4883E68F40EC0843F51F40BC0883E94
:1047900048F0813F29F406C093FB882780F90895EB
:1047A00080E0089581E008950E9439290E94B02395
:1047B0000895CF93DF9300D000D01F92CDB7DEB71E
:1047C0000F900F900F900F900F90DF91CF91089561
:1047D000CF93DF9300D000D000D0CDB7DEB72696C0
:1047E0000FB6F894DEBF0FBECDBFDF91CF91089515
:1047F0001F93CF93DF93C0912C0216E080912D027E
:10480000C81799F0D0E01C9FF0011D9FF00D1124F6
:10481000E25DFD4F40815181628173818481958188
:104820000E94E8232196C770E9CFDF91CF911F91B5
:10483000089540915E0250915F0260916002709114
:10484000610280916202909163020C94E8230F93BD
:104850001F93CF93DF938091630282958F7009F04D
:104860005DC080916002882309F458C080912C02B9
:1048700010912D0260915E0270915F02C091610201
:10488000D091620291E06F3F09F090E0292F06E09D
:10489000811709F443C0209721F07F3F21F030E0D9
:1048A00003C031E001C0322F90E030FD34C0089FDA
:1048B000F001099FF00D1124DF01A25DBD4F11969B
:1048C0003C911197371327C03C91361324C01296A0
:1048D0003C91129731111FC013964D915C91149722
:1048E0004C1B5D0B483C5105B0F4809163028F7006
:1048F000806180936302ED5CFD4F80818F708061E9
:1049000080838EE592E00E946623DF91CF911F9114
:104910000F910C94F82301968770BACFDF91CF9155
:104920001F910F9108959F92AF92BF92CF92DF9205
:10493000EF92FF920F931F93CF93DF93CDB7DEB724
:1049400061970FB6F894DEBF0FBECDBF8C0185E036
:10495000F801DE011D9601900D928A95E1F7F801AC
:1049600040815181E28090915E0260915F022091CE
:104970006102309162022115310531F06F3F31F44F
:1049800081E09F3F19F403C081E001C080E0F82F6F
:10499000F1709F2E80FD46C1F801A380B4808EE5A2
:1049A000C82E82E0D82EF0906002F501E21BF30BD6
:1049B000FF2009F4DFC080916302E83CF10508F0B4
:1049C0009BC0282F207F09F052C0561313C04913F3
:1049D00011C0FE2CE1100EC08F70806180936302C5
:1049E0000E941924C6010E94662380916302F80187
:1049F000858358C1AB2831F05F3F31F481E04F3FF0
:104A000019F403C081E001C080E080FD03C081E0B3
:104A10008E2502C080E090E0F82FF170FF2E80FF1D
:104A20001CC080912C0220912D0236E0821709F4DF
:104A300017C190E0389FF001399FF00D1124E25D1D
:104A4000FD4F6181561306C06081461303C0628129
:104A5000E61203C001968770E9CFFE2CEE2009F420
:104A600021C1809163028160809363025AC0561312
:104A700006C0491304C0E11002C0F8019FC04D8771
:104A80005E878D859E850E94D423882379F1EE2050
:104A900069F120916302822F82958F7090E00297D6
:104AA00074F080915E0290915F0298878F831986DF
:104AB000BB86AA862C87CE0107960E94662386E0D5
:104AC000F801AEE5B2E001900D928A95E1F70E94FF
:104AD00027240E9419240DC0561729F14D875E879F
:104AE0008D859E850E94D42381112CC0C8010E940F
:104AF0006623FF24F394D6C0282F207F69F77A2DF0
:104B0000B98AA88A6E2D89890E94D9238EE592E000
:104B10000E94662386E0F60111928A95E9F70E94C9
:104B20001924F12CBFC04913D9CFE110D7CFF80118
:104B30008583C8010E94662386E0F60111928A955A
:104B4000E9F7B0C0EE2091F220916302822F8295A6
:104B50008F7090E002970CF4B2CF80915E0290913A
:104B60005F029A8389831B82BD82AC822E83CE0131
:104B70000196A3CFE83CF10508F047C0FE2CEE20DB
:104B800009F4B4CF561330C049132EC020916302EC
:104B900020FD21C0822F82958F70482F50E0411553
:104BA0005105C9F0F80125834F30510541F08F5F61
:104BB000982F9295907F822F8F70892B8583C801C3
:104BC0000E94662386E0F801AEE5B2E001900D9206
:104BD0008A95E1F742C086E0F801AEE5B2E00190C7
:104BE0000D928A95E1F75EC04D875E878D859E8523
:104BF0000E94D423811163CF8091630281608093EE
:104C00006302C8010E9466234DC07A2DB98AA88A22
:104C10006E2D89890E94D92386E0F60111928A952A
:104C2000E9F71BC0EE2009F461CF4D875E878D85C3
:104C30009E850E94D423F82E882309F457CF86E05E
:104C4000F801AEE5B2E001900D928A95E1F78EE5AC
:104C500092E00E9402200E9427240E94192422C070
:104C60004D875E878D859E850E943929292F229543
:104C70002F70223028F49F7039F0811105C00BC0CD
:104C8000243028F49F7049F4805E883020F0C801F9
:104C90000E9466239F2CF92C05C0F8019581907F16
:104CA00099F7F9CF8F2D61960FB6F894DEBF0FBE3E
:104CB000CDBFDF91CF911F910F91FF90EF90DF90CB
:104CC000CF90BF90AF909F9008951F93CF93DF93A5
:104CD000CDB7DEB72C970FB6F894DEBF0FBECDBFB1
:104CE0004F83588769877A878B879C87CE01079681
:104CF0000E9493248823D1F09F8188852A853B8553
:104D0000232B31F08F3F31F481E09F3F19F403C032
:104D100081E001C080E080FD47C04F8158856985F2
:104D20007A858B859C850E94E8233EC086E0FE0143
:104D30003796DE01119601900D928A95E1F7FF8179
:104D4000E8856A857B856115710531F0EF3F31F4A7
:104D500081E0FF3F19F403C081E001C080E080FDE5
:104D600023C020912D0230E0C90101968770992758
:104D700040912C0250E084179507F1F1F983EA8302
:104D80007D836C8396E0929FD001939FB00D112498
:104D9000A25DBD4FFE01319601900D929A95E1F70B
:104DA00080932D020E94F82316E080912C029091AE
:104DB0002D02891771F1189FC0011124825D9D4F4A
:104DC0000E949324882329F1E0912C021E9FF00178
:104DD0001124E25DFD4F40815181628173818481A4
:104DE00095810E94E82380912C0290E001968770C3
:104DF000992780932C02D9CF0E94AC2310922D02C8
:104E000010922C02EEE5F2E086E0DF011D928A9519
:104E1000E9F72C960FB6F894DEBF0FBECDBFDF9139
:104E2000CF911F910895EF92FF920F931F93CF930D
:104E3000DF938C01892B09F46CC0F12CEE24E394F0
:104E4000E8012196F8018491843740F4843008F019
:104E500051C0813081F0823019F15BC0853709F48F
:104E600044C0A8F19CE7980F903708F052C08F77A4
:104E70000E94AF2041C00E5F1F4FFE01849190E25F
:104E8000980F983050F48770FE2D01C0FF0F8A955F
:104E9000EAF78F2F0E949B2914C00E9408202DC082
:104EA0000E5F1F4FFE01849190E2980F983060F4DE
:104EB0008770FE2D01C0FF0F8A95EAF78F2F0E94A1
:104EC000A1290E94C62919C00E94AF2016C00E5FFA
:104ED0001F4FFE01C491CC2381F08FE99FE0019721
:104EE000F1F700C00000C150F6CF0E5F1F4FFE016A
:104EF000F49003C00E9408208E018F2D882309F4AE
:104F00009FCFEFE9FFE03197F1F700C0000081503B
:104F1000F5CFDF91CF911F910F91FF90EF90089502
:104F2000089508950C9491270C9492270E94942739
:104F300060939502709396028093970290939802E3
:104F40000C9496230C9496270F931F93009195022F
:104F5000109196022091970230919802602B712B4C
:104F6000822B932B1F910F910C9496270F931F93D5
:104F7000009195021091960220919702309198022B
:104F800060237123822393231F910F910C94962702
:104F90000F931F9300919502109196022091970212
:104FA0003091980260277127822793271F910F91D4
:104FB0000C9496270C9491270E94DA276093910213
:104FC0007093920280939302909394020C94962390
:104FD00060E070E0CB010C94DC270F931F9341E05D
:104FE00050E060E070E08A019B0104C0000F111FD7
:104FF000221F331F8A95D2F7C901B8011F910F9163
:105000000C94DC270F931F9341E050E060E070E0C8
:1050100004C0440F551F661F771F8A95D2F78091F1
:10502000910290919202A0919302B09194028A0110
:105030009B01082B192B2A2B3B2BC901B8011F916F
:105040000F910C94DC270F931F9341E050E060E038
:1050500070E004C0440F551F661F771F8A95D2F772
:105060004095509560957095809191029091920233
:10507000A0919302B09194028A019B010823192305
:105080002A233B23C901B8011F910F910C94DC27FF
:105090000F931F9341E050E060E070E004C0440FC4
:1050A000551F661F771F8A95D2F7809191029091C4
:1050B0009202A0919302B09194028A019B01082769
:1050C00019272A273B27C901B8011F910F910C947A
:1050D000DC270F931F93009191021091920220916F
:1050E000930230919402602B712B822B932B1F9192
:1050F0000F910C94DC270F931F9300919102109154
:1051000092022091930230919402602371238223B2
:1051100093231F910F910C94DC270F931F93009101
:105120009102109192022091930230919402602793
:105130007127822793271F910F910C94DC270895E4
:105140002EE0929F800D1124E82FE695E695E695D6
:10515000877051E001C0550F8A95EAF785E0E89F16
:10516000F0011124EC59FD4F20E030E070E0408167
:10517000CB01022E02C0969587950A94E2F78170C2
:10518000819584278523842781932F5F3F4F253086
:10519000310569F708952EE0929F800D1124682F44
:1051A000669566956695982F977085E0689FB00123
:1051B000112440E050E080E0FB01E40FF51FEC59C2
:1051C000FD4F208130E0092E02C0369527950A94C4
:1051D000E2F721703327042E01C0220F0A94EAF768
:1051E000822B4F5F5F4F4530510531F70895BF92D5
:1051F000CF92DF92EF92FF920F931F93CF93DF93A3
:105200008C01C0909102D0909202E0909302F090B5
:1052100094028091950290919602A0919702B0918C
:105220009802C82AD92AEA2AFB2ACFE1D0E0D7017E
:10523000C6010C2E04C0B695A795979587950A943C
:10524000D2F780FD04C0219790F7B12C07C0BC2E87
:10525000B8018C2F0E94720A0197A9F38B2DDF9160
:10526000CF911F910F91FF90EF90DF90CF90BF9063
:105270000895CF93DF93EC010E94F728BE010E94AE
:10528000720ADF91CF9108951F93CF93DF93EB01C3
:1052900090912B02992321F0CB010E94392913C050
:1052A000882349F0CB010E94F728182F682FCE01E0
:1052B0000E94A02804C0CB010E94CB28182FBE0159
:1052C000812F0E94720ADF91CF911F9108958091E2
:1052D00099028595859585950895809199028770A5
:1052E000089590919902977081E009F480E0089503
:1052F0008091BD0208959091BD02892B8093BD02DB
:10530000089580959091BD0289238093BD020895F0
:105310001092BD0208959091BC02892B8093BC022B
:10532000089580959091BC0289238093BC020895D2
:105330001092BC0208959091BB02892B8093BB020E
:10534000089580959091BB0289238093BB020895B4
:105350001092BB02089580919A02089508950C94CA
:10536000AE290C94AF2990919A02981721F080935E
:105370009A020C94B129089580919A02882329F009
:1053800010929A0280E00C94B1290895E0911701DF
:10539000F09118018091BD028083E0911701F09196
:1053A000180190818091BC02892B8083E0911701C4
:1053B000F091180190818091BB02892B80838091AC
:1053C0009A02882381F0E0911701F09118019081F1
:1053D000892B808380911701909118010E94E62A01
:1053E00081110E94BC2980911701909118010C94A1
:1053F000281E0C94AE2998E0899F90011124262B39
:10540000209399020E9402288091990285958595A2
:1054100085950C94F9291092990280E00C94F92951
:10542000209199028095822380939902982F9770FA
:1054300079F430E0482F082E000C550B241735075F
:1054400039F08595859585950E9423280C940B2A23
:1054500008956FEF7FEF80E090E00C94AC3580E032
:1054600090E00E94883521E08B3E9E4F09F020E0BD
:10547000822F089582E090E00C947A3583E090E0EA
:105480000C947A35CF9384E090E00E947A35C82F4F
:1054900081E290E00E947A352C2F30E0A901582B50
:1054A000CA01CF910895CF93C92F682F84E090E06F
:1054B0000E948E356C2F81E290E0CF910C948E3556
:1054C00086E090E00C947A35682F86E090E00C94AA
:1054D0008E35AB01BC018FE090E00C94A035AB01A0
:1054E000BC0183E190E00C94A03560E070E0CB015A
:1054F0000C946F2A60E070E0CB010E94692A0C9442
:10550000752A6BEE7EEF80E090E00E94AC3560E0A3
:1055100082E090E00E948E3560E083E090E00E949F
:105520008E35109295021092960210929702109268
:10553000980260E084E090E00E948E3560E081E2B5
:1055400090E00E948E3560E085E090E00E948E350C
:1055500060E086E090E00E948E356FEF87E090E09B
:105560000E948E3540E050E0BA0188E090E00E9451
:10557000A03560E08DE090E00E948E3540E050E084
:10558000BA0188E190E00E94A03560E087E190E0F8
:105590000E948E3540E050E0BA018CE190E00E941C
:1055A000A03560E080E290E00E948E3540E050E05F
:1055B000BA0188E190E00E94A0350C947A2A0C94FC
:1055C000812A682F8EE090E00C948E35FC01329693
:1055D00080912301882331F080911B0387FF02C053
:1055E0009EE101C096E080E0915028F021912223B5
:1055F000D9F38F5FF9CF0895662351F120912301EC
:105600002223E9F020911B0327FF19C0462F46955E
:10561000469546954E31E0F4677021E030E002C0D7
:10562000220F331F6A95E2F7FC01E40FF11D82811E
:1056300090E02823392381E0232B69F409C0FC0181
:10564000329608962191621729F0E817F907D1F7E9
:1056500080E0089581E008959C01FC0132969FEF5F
:1056600080E04191461789F09F3F19F4411101C034
:10567000982F8F5F8630A9F79F3F39F0F901E90F26
:10568000F11D97FDFA956283089508959C012A5FA4
:105690003F4FFC014281461301C0128201968217DE
:1056A0009307B9F70895262F2695269526952E312E
:1056B00070F4FC01E20FF11D677021E030E001C0E1
:1056C000220F6A95EAF78281282B22830895809120
:1056D000BE0280FF0CC01F926F9388ED9EE09F93E7
:1056E0008F930E9431090F900F900F900F900895A3
:1056F000262F2695269526952E3178F4FC01E20F6B
:10570000F11D677021E030E001C0220F6A95EAF7D1
:10571000209582812823228308958091BE0280FFF4
:105720000CC01F926F938AEB9EE09F938F930E9411
:1057300031090F900F900F900F9008952091230141
:10574000222329F020911B0327FD0C94532B0C944A
:105750002C2B20912301222329F020911B0327FDCC
:105760000C94782B0C94462B20912301FC0132964B
:10577000222331F080911B0387FF02C08EE101C01C
:1057800086E0DF011D928A95E9F7089508950C944B
:10579000C62B0C94C62BCF930E94C92B0E94050DDB
:1057A0000E94C72BC0E08C2F0E945B0C892B29F430
:1057B000CF5FC530C1F780E001C081E0CF9108958F
:1057C0000C94C62B0C94E02B80912103843061F162
:1057D0000E94E22B80E00E94591B80E00E944A0A4E
:1057E0001092BF0220E488E190E00FB6F894A895EB
:1057F000809360000FBE2093600083B7817F846038
:1058000083BF83B7816083BF7894889583B78E7F89
:1058100083BF0FB6F894A89580916000886180934B
:105820006000109260000FBE08950C94C62B0E9479
:10583000AC230E94DE190E941C1E0E944A0A0C948E
:10584000152C1F920F920FB60F9211248F939F93D6
:10585000AF93BF938091BF02811113C08091170352
:1058600090911803A0911903B0911A034196A11DBC
:10587000B11D8093170390931803A0931903B0935D
:105880001A03BF91AF919F918F910F900FBE0F9010
:105890001F90189582E084BD93E095BD9AEF97BD67
:1058A00080936E0008952FB7F8948091170390911C
:1058B0001803A0911903B0911A032FBF08952FB7B1
:1058C000F8946091170370911803809119039091D7
:1058D0001A032FBF08959C014FB7F89480911703C6
:1058E00090911803A0911903B0911A034FBF821B26
:1058F000930B089578941F920F920FB60F92112474
:105900008F939F93AF93BF93809117039091180348
:10591000A0911903B0911A030196A11DB11D8093A6
:10592000170390931803A0931903B0931A03BF9120
:10593000AF919F918F910F900FBE0F901F90189570
:1059400081E08093E00080E28093D8001092C9004B
:105950008FE19EE40197F1F700C0000087E090EB33
:10596000DC0180932A0390932B03A0932C03B09324
:105970002D039CE088E10FB6F894A8958093600011
:105980000FBE90936000FFCF9093D5018093D40118
:1059900008950C94292A0E94050D8FE39CE9019734
:1059A000F1F700C000000E94050D80E00E945B0C32
:1059B00080FF04C00E94C92C0C94A02C08950E9462
:1059C0002F2A811102C00E94DF2A0E943A2A809366
:1059D000BE020E94422A90931C0380931B030E94E4
:1059E0003E2A682F70E080E090E00E94A22760913C
:1059F00091027091920280919302909194020C9482
:105A0000DA278091E30208950895CF93DF9300D0C1
:105A10001F92CDB7DEB790912103943019F5898399
:105A20007B836A8382E08093E9008FEF9091E800A6
:105A3000815095FD06C095ED9A95F1F70000811112
:105A4000F5CF8091E80085FF0DC040E050E063E0B5
:105A500070E0CE0101960E94D72F8091E8008E77EA
:105A60008093E8000F900F900F90DF91CF910895F1
:105A7000BC0184E00C94052DBC0183E00C94052D41
:105A8000CF93DF9320912301222339F020911B0330
:105A900027FF03C060E222E002C068E021E020931B
:105AA000E9002FEF3091E800215035FD06C035EDBB
:105AB0003A95F1F700002111F5CF2091E80025FF7C
:105AC0001DC0EC0180912301811105C040E050E030
:105AD00068E070E003C070E040E050E0CE010E945A
