:100000000C9432030C9479030C9479030C947903C7
:100010000C9479030C9479030C9479030C94790370
:100020000C9479030C9479030C9432280C940429D1
:100030000C9411230C9479030C9479030C94790398
:100040000C9479030C9479030C9479030C94790340
:100050000C9479030C946A230C9479030C9479031F
:100060000C9479030C9479030C9479030C94790320
:100070000C9479030C9479030C9479030C94790310
:100080000C9479030C9479030C9479030C94790300
:100090000C9479030C9479030C9479030C947903F0
:1000A0000C9479030C9479030C94790348114B1147
:1000B000531158115D11621167116C117111761194
:1000C0007B1180118211851188118B118E11911174
:1000D0009311981170187018A218A218EF180D1922
:1000E0002E1A2E1A1819AD19BE19BE191E1A2E1A5B
:1000F0002E1A271ACE1ACE1AE01AE01AD71AE01AC8
:10010000E01AE01ACE1ACE1ADC1AE01AE01ADC1A4B
:1001100071299829902A9829902AE429072A902A57
:100120005E2A6D2A29001E001F00200021002200E7
:10013000230024002500260027002D002E000000AB
:100140002A002B0014001A000800150017001C00DC
:1001500018000C00120013002F0030004C000000AB
:10016000015104001600070009000A000B000D00F1
:100170000E000F0033003400000028000000E100F2
:1001800000001D001B0006001900050011001000F2
:10019000360037003800000052000151E000E30053
:1001A000E20000000000000000002C000000E6005B
:1001B0005000000051004F00000035003A003B00A5
:1001C0003C003D003E003F00400041004200430033
:1001D0004400450000004C002B003D04B600B70071
:1001E000E40000004B004A0052004D004600AA0007
:1001F000A900310000000100420043004400450016
:1002000000004E00500051004F0000004900000067
:1002100028420000E100000048006500B200000034
:10022000C35C53000000AC00AB00AE0000004B000C
:100230000100E000E300E200000000000000000018
:1002400000000000E6004A0000004E004D000000E3
:10025000000000000000000000000000000000009E
:10026000000000000000000000000000000000008E
:10027000000000000000005C000000000000000022
:10028000000000000000000000000000000000006E
:10029000000000000000000000000000000000005E
:1002A000000000000000010000000000000000004D
:1002B000000000000000000000000000000000003E
:1002C000000000000000010000000000000000002D
:1002D000000000000000000000000000000000001E
:1002E0000000000000001E0F0500047F3F1F643265
:1002F00014643214783C1E1E140A05222325262875
:10030000292A2C2D2F3032333536383A3B3D3E40AA
:1003100042434547494A4C4E5051535557595A5CF0
:100320005E6062646668696B6D6F71737577797B07
:100330007D7F81838587898A8C8E90929496989A06
:100340009C9E9FA1A3A5A7A8AAACAEAFB1B3B4B61B
:10035000B8B9BBBCBEBFC1C2C3C5C6C7C9CACBCC76
:10036000CDCED0D1D2D2D3D4D5D6D7D7D8D9D9DA49
:10037000DADBDBDBDCDCDCDCDCDDDDDDDDDCDCDCBE
:10038000DCDCDBDBDBDADAD9D9D8D7D7D6D5D4D3E6
:10039000D2D2D1D0CECDCCCBCAC9C7C6C5C3C2C1BB
:1003A000BFBEBCBBB9B8B6B4B3B1AFAEACAAA8A718
:1003B000A5A3A19F9E9C9A98969492908E8C8A89D0
:1003C000878583817F7D7B79777573716F6D6B69AD
:1003D00068666462605E5C5A5957555351504E4C82
:1003E0004A4947454342403E3D3B3A383635333231
:1003F000302F2D2C2A292826252322FFAA7F55407D
:1004000000010101010101010101020202020202D7
:1004100002020203030303030303030404040404AA
:100420000404050505050506060606060707070771
:100430000708080808090909090A0A0A0B0B0B0C26
:100440000C0C0D0D0D0E0E0E0F0F0F1010111111C3
:100450001212131314141515161617171818191944
:100460001A1A1B1B1C1D1D1E1E1F202021222223A9
:100470002424252626272829292A2B2C2D2D2E2FEA
:1004800030313232333435363738393A3B3C3D3E01
:100490003F404142434445464748494A4C4D4E4FF0
:1004A00050515354555658595A5B5D5E5F616264B2
:1004B000656668696B6C6D6F7072737577787A7B3F
:1004C0007D7E8082838587888A8C8E8F9193959696
:1004D000989A9C9EA0A2A3A5A7A9ABADAFB1B3B5B6
:1004E000B7BABCBEC0C2C4C6C9CBCDCFD1D4D6D892
:1004F000DBDDDFE2E4E7E9EBEEF0F3F5F8FAFDFF30
:100500000E0359004400360030004D005100000039
:100510000A0359004D0044004B0000000403090485
:1005200009023B00020100A0FA09040000010301D6
:100530000100092111010001224000070581030883
:10054000000A090401000103000000092111010053
:100550000122B6000705820320000A1201100100E3
:100560000000084D594D600200010200010501091B
:1005700002A10185020901A1000509190129081537
:100580000025019508750181020501093009311521
:1005900081257F95027508810609381581257F958B
:1005A0000175088106050C0A38021581257F950121
:1005B00075088106C0C005010980A10185031901E4
:1005C0002AB700150126B700950175108100C005F6
:1005D0000C0901A101850419012AA002150126A018
:1005E00002950175108100C005010906A10185056C
:1005F000050719E029E71500250195087501810215
:100600000507190029EF1500250195F075018102F4
:1006100005081901290595057501910295017503D4
:100620009101C005010906A101050719E029E71597
:100630000025019508750181029501750881010564
:1006400007190029FF150026FF009506750881008F
:100650000508190129059505750191029501750394
:100660009101C00011241FBECFEFDAE0DEBFCDBF85
:1006700004B603FE27C08091720390917303A0918A
:100680007403B09175038730904BA740B04BD1F401
:1006900010927203109273031092740310927503F8
:1006A00014BE84B7877F84BF0FB6F894A895809155
:1006B0006000886180936000109260000FBEE0E0EF
:1006C000F8E3099511E0A0E0B1E0E6E6F8E502C044
:1006D00005900D92AE3CB107D9F723E0AEECB1E046
:1006E00001C01D92A237B207E1F70E946A250C945F
:1006F000312C0C940000849A8C9A0895CF93C82FC3
:100700000E944504882329F0C1FD02C08C9A01C0D3
:100710008C98CF91089581E0089581E008950C941C
:100720008D0308950C9491031F93CF93DF9300D012
:1007300000D01F92CDB7DEB749835A836B833091C7
:10074000590289819A81311114C0662359F02223FC
:1007500049F00E940720182F682F89819A810E94F2
:10076000B01F03C00E94DB1F182F69817A81812F7F
:1007700004C00E94072069817A810F900F900F902A
:100780000F900F90DF91CF911F910C945404FC01B6
:10079000262F408151816281738184810C9494035E
:1007A000CF93DF93EC0160E00E94C703BE01DF91AD
:1007B000CF910C9492030E94BB230E94412181118E
:1007C00002C00E94F1210E941B130C947B030C9425
:1007D000730608950E94BC1A0E94E9032FEF84E378
:1007E0009CE0215080409040E1F700C000000C9454
:1007F00090230F931F93CF93DF93EC0161E00E944E
:10080000C7038C01BE010E948F038823A9F1BE019A
:10081000C8010E947C12882379F1BE01C8010E94A0
:10082000C913882349F1BE01C8010E941B14882303
:1008300019F1BE01C8010E9446158823E9F0BE01E6
:10084000C8010E9431118823B9F08A81882369F098
:1008500001158CE5180731F00F3D1C4531F40E945D
:10086000F1210AC00E94EA0307C0CE01DF91CF91B7
:100870001F910F910C948B0380E0DF91CF911F911A
:100880000F91089508950C94420481E00895CF9348
:10089000C82F0E9443048C2F0E947E03CF9108959D
:1008A00080E090E0089508952BE4829FC001112418
:1008B000FC012FE0729FE00DF11D1124E60FF11DE8
:1008C000EE0FFF1FEC5DFE4F859194910895880F08
:1008D000991FFC01EA51FD4F859194910895CF93A2
:1008E000DF930E9454040E948705EC018115904516
:1008F00008F041C0C11580E4D80708F0D1C0C83E57
:10090000D10510F5C03ED10508F0FDC0C83AD105AB
:1009100078F4C53AD10508F0A2C0C130D10509F478
:10092000F2C008F4EEC0C430D10508F0ECC0E9C054
:10093000CF3BD10508F49BC0C03CD10508F4E1C011
:10094000CE01805C91099EC0C11590E2D90758F490
:10095000C11521E0D20708F0D6C0CD3ED10508F47C
:10096000D0C0D065D0C0C11580E3D80708F08EC0D4
:10097000CE019F7087C0C11595E5D90708F043C027
:10098000C11524E5D20708F0A2C0C11582E5D80739
:1009900008F5C11591E5D90708F085C0CE0174E0CE
:1009A000969587957A95E1F783709C2F937021E057
:1009B00030E002C0220F331F9A95E2F73C68382BD3
:1009C000CF70C695C69580E2C89FE0011124C22B66
:1009D000D32B99C09E01237033278C2F8695869543
:1009E000C115D34508F064C0C1E0D0E002C0CC0F0F
:1009F000DD1F2A95E2F720E2829FC0011124C82B57
:100A0000D92BDC6880C0C11529E5D207A0F4C11537
:100A100088E5D80708F060C0C11596E5D90708F049
:100A200070C08C2F0E941B068F71C82FD0E0DC2F66
:100A3000CC27D06268C0C1152AE5D20708F451C09E
:100A4000CE0190568115904208F05BC08D2F8F71BA
:100A50000E941B06DD27D0628F71D82B54C0C55A67
:100A6000D0E0C65ADE4FC881D0E0D0644CC0C85A2E
:100A7000D0E0CC0FDD1FC45DDE4F0990D881C02DC2
:100A8000D46441C00E946704EC013DC0CE019927A7
:100A9000D3FF03C0EC01D86C36C0EC01D06C33C07E
:100AA000DF70D06A30C0DC2FCC27C16FD06A2BC07A
:100AB000C1E0D0E002C0CC0FDD1F2A95E2F720E2B2
:100AC000829FC0011124C82BD92BDA681CC0DC2FEF
:100AD000CC27C46FD06A17C0DC2FCC27C06FD06A78
:100AE00012C08C2F8F700E941B0694E0D695C7957C
:100AF0009A95E1F7CF70D0E0DC2FCC27D069C82BD6
:100B000002C0C0E0D0E0CE01DF91CF9108958238DD
:100B1000910569F1B0F48133910509F46DC048F491
:100B20008932910509F463C08A32910509F469C0DC
:100B300008958533910509F455C089339105B9F0BD
:100B40000895833E910569F138F4803E9105B1F036
:100B5000823E910509F10895863E9105A9F1873EEF
:100B60009105B9F1843E910509F064C023C020913C
:100B7000630320FD4FC021FD4DC0089580916303A4
:100B800080FD44C08091640380FF44C08091630372
:100B900084FD42C083EE4DC08091630382FF38C064
:100BA000F5CF8091630382FD33C08091640380FDA3
:100BB00031C0ECCF8091640381FF32C08091630328
:100BC00084FD2AC087EE35C08091630383FF26C071
:100BD000F5CF8091630383FD21C08091640381FD83
:100BE0001FC0ECCF8091630385FD1CC01DC08091A8
:100BF000630385FD19C016C08091630386FD16C08E
:100C000017C08091630386FD13C010C089E311C033
:100C100082EE0FC080EE0DC080E00BC086EE09C0F2
:100C200084EE07C089E205C085E303C08AE201C003
:100C300081E390E008959091630392FF0DC0282F07
:100C40002871283019F4877F846006C0282F24710A
:100C5000243011F48B7F886093FF0DC0282F2871FA
:100C6000283119F4877E846106C0282F247124312D
:100C700011F48B7E88612091640320FF0DC0382F12
:100C80003871383019F4877F816006C0382F317190
:100C9000313011F48E7F886021FF0DC0282F28711C
:100CA000283119F4877E816106C0282F21712131F6
:100CB00011F48E7E886194FD877E0895E82FF0E020
:100CC000EE0FFF1FE15EFC4F808191810895089532
:100CD00080EA8A95F1F7089500C008950C9468069B
:100CE00008950C9470060C947106F894E82FE29520
:100CF000EF70F0E031A1282F2F7081E090E001C06B
:100D0000880F2A95EAF7982F9095932391A392A1A3
:100D1000892B82A3789408950F931F93CF93DF9329
:100D200080E90E94750681E90E94750682E90E94A9
:100D3000750683E90E94750685E90E947506CDE572
:100D4000D1E00CE611E089910E9475060C171D0791
:100D5000D1F7E5E1F3E0AFE1B3E0119211921D921A
:100D60001D9283E0EF31F807C1F785E00E9451073B
:100D7000DF91CF911F910F910C94DB037F928F92A3
:100D80009F92AF92BF92CF92DF92EF92FF920F931A
:100D90001F93CF93DF9305E113E08CE6E82E81E00B
:100DA000F82EC0E0D0E0712CAA24A394B12C470106
:100DB000F7018081F894E82FE295EF70F0E021A12F
:100DC0008F70A50102C0440F551F8A95E2F7CA0132
:100DD000922F982B91A392A18095892382A3789436
:100DE0000E946C06EDE5F1E020E030E0C12CD12C52
:100DF0004191A42FA295AF70B0E090968C9190E0B5
:100E00004F7002C0959587954A95E2F780FD08C01E
:100E1000C501022E02C0880F991F0A94E2F702C092
:100E200080E090E0C82AD92A2F5F3F4F2F3031054C
:100E3000F9F65FEFE51AF50AF40180810E94750664
:100E4000C430D10511F00E946E06F80180819181B5
:100E5000C816D90621F0D182C08281E001C080E0AD
:100E6000782A21960E5F1F4FC530D10509F09FCF1C
:100E7000272D45E06FE173E085E193E00E94520782
:100E80000E94E703872DDF91CF911F910F91FF9073
:100E9000EF90DF90CF90BF90AF909F908F907F901A
:100EA00008950895FF920F931F93CF93DF93F82E29
:100EB000092F162FD72FC42F222349F081E08093CA
:100EC000D2010E9443239093D1018093D00180915D
:100ED000D2018823D9F08091D0019091D1010E9454
:100EE0005B23069798F0EF2DF02FA12FBD2F80E008
:100EF00090E04C2F50E08417950734F42191319104
:100F00002D933D930196F7CF1092D201DF91CF91AF
:100F10001F910F91FF9008958091D90180FF0BC020
:100F20006091090185E0689FB0011124759567956E
:100F3000759567952BC081FF09C06091090185E017
:100F4000689FB00111247595679520C082FF07C086
:100F50006091090185E0689FB001112417C090914C
:100F6000D8019923D1F060910801961788F7209154
:100F7000090185E0289F90011124929FA001939F71
:100F8000500D112470E0CA010E94F42A60387105E6
:100F900040F46115710519F406C065E070E0862F14
:100FA00008958FE7089581E008958091D90180FF29
:100FB00008C06091050170E0759567957595679516
:100FC00021C081FF06C06091050170E075956795AD
:100FD00019C082FF04C06091050170E010C09091BB
:100FE000D701992399F0609104019617A0F7809199
:100FF0000501899FC001112470E00E94F42A603825
:10100000710540F46115710519F406C061E070E0E6
:10101000862F08958FE7089581E008958D3E21F48D
:101020000E948C07819504C08E3E29F40E948C0793
:101030008093DD0108958F3E21F40E948C078195F5
:1010400004C0803F29F40E948C078093DC0108953E
:10105000893F19F40E94D50705C08A3F31F40E94E8
:10106000D50781958093DE0108958B3F21F40E947E
:10107000D507819504C08C3F29F40E94D507809341
:10108000DF0108959FE0980F983078F421E030E078
:10109000A90102C0440F551F9A95E2F7CA01909129
:1010A000DB01892B8093DB0108958D3F21F4809132
:1010B000D90181600BC08E3F21F48091D9018260FB
:1010C00005C08F3F29F48091D90184608093D901B4
:1010D00008958D3E39F49091DD0197FF35C010924F
:1010E000DD0159C08E3E29F49091DD011916BCF343
:1010F0002BC09091DC018F3E29F497FF25C0109200
:10110000DC0149C0803F19F41916CCF31DC0909141
:10111000DE01893F29F41916BCF41092DE013BC0B0
:101120008A3F19F497FF10C0F8CF8B3F39F49091A4
:10113000DF0197FF09C01092DF012DC08C3F21F421
:101140009091DF011916BCF39FE0980F983080F45E
:1011500021E030E0A90102C0440F551F9A95E2F743
:10116000CA0180959091DB0189238093DB0113C034
:101170008D3F21F48091D9018E7F0BC08E3F21F4E9
:101180008091D9018D7F05C08F3F29F48091D901CD
:101190008B7F8093D9018091DC01811106C0809101
:1011A000DD01811102C01092D8018091DE01811110
:1011B00006C08091DF01811102C01092D70108950D
:1011C0000E9443232091DC01211104C02091DD0104
:1011D000222321F09093D6018093D5012091DE0146
:1011E000211104C02091DF01222321F09093D4012A
:1011F0008093D3018AED91E00C94A215EF92FF92B7
:101200000F931F93CF93DF9300D000D000D0CDB7C2
:10121000DEB786E0EAEDF1E0DE01119601900D9275
:101220008A95E1F7E090DC01F090DD010091DE01AC
:101230001091DF011092DC011092DD011092DE01AD
:101240001092DF01E11003C0FF2009F45DC080911E
:10125000D5019091D6010E945B23AC019091D801F9
:10126000992339F020910A0130E02417350758F00E
:101270004BC020910B018AE0289F90011124241774
:10128000350718F041C09F3F19F09F5F9093D80138
:10129000EE2061F00E948C071E1414F09FEF01C035
:1012A00091E0989F902D11249093DC01FF2061F034
:1012B0000E948C071F1414F09FEF01C091E0989FCB
:1012C000902D11249093DD013091DC013323E1F066
:1012D0002091DD012223C1F045EB3403C00111242C
:1012E000992319F09093DC0103C081E08093DC0125
:1012F00035EB2303C0011124992319F09093DD01EC
:1013000003C081E08093DD01011103C0112309F4C2
:101310005DC08091D3019091D4010E945B23AC0108
:101320009091D701992339F02091060130E02417DC
:10133000350758F04BC0209107018AE0289F9001A3
:1013400011242417350718F041C09F3F19F09F5F03
:101350009093D701002361F00E94D507101614F076
:101360009FEF01C091E0989F902D11249093DE0192
:10137000112361F00E94D507111614F09FEF01C0F0
:1013800091E0989F902D11249093DF013091DE0120
:101390003323E1F02091DF012223C1F045EB340338
:1013A000C0011124992319F09093DE0103C081E05C
:1013B0008093DE0135EB2303C0011124992319F03A
:1013C0009093DF0103C081E08093DF018091DC0115
:1013D00081110BC08091DD01811107C08091DE0178
:1013E000811103C08091DF0181110E94E008EB822E
:1013F000FC820D831E8386E0FE013196AAEDB1E0EA
:1014000001900D928A95E1F726960FB6F894DEBF0B
:101410000FBECDBFDF91CF911F910F91FF90EF9045
:101420000895EAEDF1E086E0DF011D928A95E9F783
:101430001092D8011092D7011092D9010895EF921D
:10144000FF920F931F93CF93DF938B01682F11119E
:101450000AC0442329F0E82FF0E0E050FC4F6491EB
:10146000762F862F75C0212F30E0E82FF0E044233F
:1014700021F0E050FC4FE491F0E046E0049FC00111
:101480001124CFEFD0E0BE010E94E02A4BEA4603D0
:10149000C001479F900D1124800F911D800F911D59
:1014A000982F990F890FAE01421B530B4E9FD0010D
:1014B0004F9FB00D5E9FB00D11249B2F189FA00170
:1014C0001124452F55278E01041B150B0E9FA001DB
:1014D0000F9F500D1E9F500D11247E01E81AF10838
:1014E000E29E8001E39E100DF29E100D1124212F2B
:1014F0003327C21BD30BCE9F9001CF9F300DDE9FB1
:10150000300D112462307105A9F048F461157105A0
:1015100069F061307105C9F48B2F752F0DC06430EF
:10152000710581F058F06630710579F47E2F8B2FAC
:10153000932F0DC0832F7B2F9E2F09C08E2F7B2FC3
:10154000952F05C08E2F732F02C07E2F852F692FF8
:10155000DF91CF911F910F91FF90EF90089541E09F
:101560000E941F0A089508950E94AF0A0895CF931C
:10157000DF93762FE901682F842F0E94B40A7983C4
:1015800068838A83DF91CF91089580912903282F62
:10159000269530E02115310519F48170826005C06F
:1015A0002B32310524F081708465809329030895DE
:1015B00088E090E00C94D22BCF92DF92EF92FF92D2
:1015C0006B017C010E94C50AB701A60188E090E08A
:1015D000FF90EF90DF90CF900C94F02BE9E2F3E0D6
:1015E00083E0808311828FEF828383831482608102
:1015F0007181828193810C94DC0A8091290380FFA0
:1016000002C08695089580E0089590912D0393304F
:1016100018F49F5F90932D03882351F06091290364
:1016200070912A0380912B0390912C030C94DC0A77
:10163000089581E00C94050B90912D03992319F0E6
:10164000915090932D03882351F06091290370915C
:101650002A0380912B0390912C030C94DC0A0895AB
:1016600081E00C941C0B70E00C942B136091100122
:101670008091290380FF0AC080910F0123E0829F9F
:10168000C0011124825D9C4F0C94330B8091110199
:1016900090911201891780F7E82FF0E09F01220F47
:1016A000331FE20FF31FE25DFC4F118210821282A2
:1016B0008F5FF0CF9091290390FF16C09091110198
:1016C00020911201921770F4E92FF0E0DF01AA0FC8
:1016D000BB1FEA0FFB1FE25DFC4F818360834283E7
:1016E0009F5FF0CF0C94360B0895CF93DF9300D01B
:1016F0001F92CDB7DEB79091290390FF0AC09E01DB
:101700002F5F3F4F0E94B70A4B8169818A810E94F7
:101710005A0B0F900F900F90DF91CF910895CF93B8
:10172000DF93EC01EC81F0E0E550FD4F4491E9E2FC
:10173000F3E0628181810E94750B8C818F5F8C83C5
:10174000DF91CF910895CF93DF93EC01E9E2F3E0CD
:10175000438162818C810E94750B8C818F5F8C83A9
:10176000DF91CF9108950F931F93CF93DF9300D014
:101770001F92CDB7DEB78C018091E00181110AC0C4
:101780009E012F5F3F4F4FEF6FEF0E94B70A8A8194
:101790008093E001F8018481813051F028F082309B
:1017A00061F44091E0010AC08091E00140E007C08F
:1017B0006091E00140E080E003C040E080E060E054
:1017C0000E945A0BF801848190E0019663E070E07A
:1017D0000E94F42A84830F900F900F90DF91CF9195
:1017E0001F910F910895AF92BF92CF92DF92EF9227
:1017F000FF920F931F93CF93DF9300D01F92CDB72B
:10180000DEB7182FF62E042FE22E9091290390FFB9
:101810006DC0E92FE695AE2FB0E0AF58BE4F8C916A
:1018200080933A029E7F923061F49E012F5F3F4F7A
:10183000812F0E94B70A4B8169818A810E945A0BCD
:1018400043C0823019F400912C033EC0863019F455
:1018500010912A0339C08930D9F38931A9F5E951AA
:101860008E2F8170D82EE695F0E0E550FC4FA590C4
:10187000B490C12CBB2460911301C61618F52C2D11
:1018800030E0A29EC001A39E900DB29E900D112447
:1018900070E00E94E02A812FD11002C0860F01C0A3
:1018A000861B90911101290F311DA901440F551F6D
:1018B000240F351F225D3C4F402F6F2D0E94B70A29
:1018C000C394D9CF0E94360B10932A03F0922B03B6
:1018D00000932C03EE2051F06091290370912A03AC
:1018E00080912B0390912C030E94DC0A0F900F90A3
:1018F0000F90DF91CF911F910F91FF90EF90DF90AC
:10190000CF90BF90AF900895E9E2F3E09181282F46
:101910004381628188E0890F0C94F30B81E00C9481
:10192000840CE9E2F3E09181282F4381628188EF02
:10193000890F0C94F30B81E00C94910CE9E2F3E035
:10194000628128E0620F08F46FEF282F43818181C4
:101950000C94F30B81E00C949E0CE9E2F3E06281BD
:1019600028E0621B08F460E0282F438181810C94F9
:10197000F30B81E00C94AD0CE9E2F3E0438128E045
:10198000420F08F44FEF282F628181810C94F30BF2
:1019900081E00C94BC0CE9E2F3E0438128E0421BB7
:1019A00008F440E0282F628181810C94F30B81E0E0
:1019B0000C94CB0C20E00C94F30BFF920F931F932D
:1019C000CF93DF93EC01F12C0FEF10E06091130146
:1019D000F616F0F4809111012F2D30E0280F311D03
:1019E000C901880F991F280F391F225D3C4F70E0F5
:1019F000C8010E94F42A962F8C8140912C0360919B
:101A00002B03F99E800D11240E94B70AF394DECFB8
:101A10000E94360B9A818C8190FF02C08F5F01C0BB
:101A200081508C83DF91CF911F910F91FF9008958A
:101A3000BF92CF92DF92EF92FF920F931F93CF93BB
:101A4000DF93FC01828180FF02C00FEF01C001E043
:101A500010E080911301181708F040C08091110127
:101A6000C12ED12CE601C80FD11DCE01880F991FC0
:101A7000C80FD91FC25DDC4F198218821A8234E068
:101A8000E32EF12CB12C8091E2018B0D813114F009
:101A90008F7005C087FF03C090911301890F082E36
:101AA000000C990BC816D90691F480912C038E9DD9
:101AB000A0018F9D500D112455954795559547953B
:101AC0009E0160912B0380912A030E94B70AB00EF9
:101AD000F1E0EF1AF108B9F61F5FBBCF0E94360B99
:101AE0008091E201013031F4811102C08091130133
:101AF000815007C090E001966091130170E00E9450
:101B0000F42A8093E201DF91CF911F910F91FF9012
:101B1000EF90DF90CF90BF900895CF938091110107
:101B200090911201891770F4E82FF0E09F01220FC5
:101B3000331FE20FF31FE25DFC4F1182108212820D
:101B40008F5FF0CFC0E060911301C617C0F5EC2F96
:101B5000F0E070E0CF010E94F42A20911101820F81
:101B60002091E101022E000C330B90E0E217F30705
:101B7000CCF020910E01022E000C330B2E173F07E4
:101B80008CF09C01220F331F820F931F9C01225D5A
:101B90003C4F40912C0360912B0380912A030E94BB
:101BA000B70A0BC0FC01EE0FFF1F8E0F9F1FFC0139
:101BB000E25DFC4F118210821282CF5FC4CF0E947F
:101BC000360B20910D018091E101820F8093E1019C
:101BD00090910E01920F90930E0119165CF4082E4D
:101BE000000C990B4091130150E0415051098417AA
:101BF00095071CF0219520930D01CF9108958F92A8
:101C00009F92AF92BF92CF92DF92EF92FF920F938B
:101C10001F93CF93DF938C01FC014481C42FD0E04C
:101C20009E01DE010E94382B9B01AC010E944E2BCD
:101C30006B017C01E0E2F0E0EC1BFD0BA5E5B0E000
:101C40009B01AC010E944E2B4B015C019F01DF0107
:101C50000E94302B9B01AC010E94592B9B01AC01CF
:101C60002C0D3D1D4E1D5F1DC501B4010E94082BAA
:101C7000C22FD22F2A3228F4F3E02F9F9001112493
:101C80000DC025E530E02C1B3109C901880F991FD3
:101C9000280F391F37FF02C02F5F3F4F359527951B
:101CA000C22FC095F12C85E5E82EED1A8091130125
:101CB000F816C8F4F1FC02C08E2D01C08D2F909152
:101CC00011012F2D30E0290F311DA901440F551F9F
:101CD000240F351F225D3C4F4C2F60912B030E9437
:101CE000B70AF394E3CF0E94360BF8018481811187
:101CF00002C091E003C0803219F49FEF90930C0171
:101D000090910C01890FF8018483DF91CF911F918D
:101D10000F91FF90EF90DF90CF90BF90AF909F908A
:101D20008F9008950F931F93CF93DF93EC0100E002
:101D300010E080911301282F30E00217130724F5DB
:101D4000909111019801290F311DA901440F551FD0
:101D5000240F351F225D3C4F869590E04C8108177B
:101D600019071CF4442331F002C0411103C0409113
:101D70002C0301C040E060912B0380912A030E9454
:101D8000B70A0F5F1F4FD5CF0E94360B8C8190E0B2
:101D90000196817099278C83DF91CF911F910F91CC
:101DA00008957F928F929F92AF92BF92CF92DF92CF
:101DB000EF92FF920F931F93CF93DF93FC018280EA
:101DC000748081E08483EBEFF2E09490EAE7F3E043
:101DD000E491A12CF5E0BF2ECC24CA94D12CE919B2
:101DE0000E2F10E080911301A81608F0A2C0EA2C73
:101DF000F12C22E0281568F0BE9CF001BF9CF00D8C
:101E00001124ED51FE4F80912A03808380912B0392
:101E1000818371100AC0BE9CF001BF9CF00D11249B
:101E2000ED51FE4F138212826AC0BE9CE001BF9C3E
:101E3000D00D1124CD51DE4F8B818823F9F08150D4
:101E40008B832FEF829FC00111246C8170E00E9470
:101E5000E02AFB01FF27E550FD4F8491E82FE919A7
:101E60002FEFE29FC0011124B8010E94E02A809167
:101E70002C03689FB00111247A8341C00E94AD2BCE
:101E800020912C032695215830E0A901440F551FBD
:101E9000322F2227240F351F232F33278217930732
:101EA00074F582E0881588F40E94AD2BB6010E947B
:101EB000F42A88830E94AD2B20912B032695622F54
:101EC00070E00E94F42A280F2983BE9CF001BF9C79
:101ED000F00D1124ED51FE4F128280912C038431BC
:101EE00020F0893C18F088EC01C084E1BE9CF00130
:101EF000BF9CF00D1124ED51FE4F848383838091AC
:101F000011019701280F311DC901880F991F280F52
:101F1000391F225D3C4FBE9CF001BF9CF00D112487
:101F2000ED51FE4F4281618180810E94B70AA394E6
:101F300059CFDF91CF911F910F91FF90EF90DF90DC
:101F4000CF90BF90AF909F908F907F900C94360B66
:101F5000E9E2F3E080818E7F8083608171818281FC
:101F600093810E94DC0A10923B022FEF80E792E0FF
:101F7000215080409040E1F700C000000C94360BE7
:101F800060912903669570E04BE050E084E191E0B8
:101F90000E94BD2B892B19F481E080933B020E94A3
:101FA0004323909334028093330208959091290340
:101FB00090FF35C09170811102C0926006C08B32D3
:101FC00010F0946502C0880F982B90932903662324
:101FD00051F06091290370912A0380912B03909115
:101FE0002C030E94DC0A60912903669570E04BE0A7
:101FF00050E084E191E00E94BD2B892B19F01092F2
:102000003B0202C00E94C00F81E0809336024091E3
:102010002C0360912B0380912A030C94DA0C089511
:10202000682F90912903969581E0890F8B3208F0F3
:1020300081E00C94D60F81E00C941010682F9091E1
:10204000290396958FEF890F09F48AE20C94D60F35
:1020500081E00C941E1061E00C94D60FE9E2F3E0ED
:1020600080818160808386950C942B108091290358
:1020700080FD0C94A80F0C942E1060E00C94D60FE9
:102080008091390281112EC00E944121811104C02A
:102090000E94F1210E94EE0A0E94D80A609329034F
:1020A00070932A0380932B0390932C036E7F61F42B
:1020B0000E94EE0A0E94D80A6093290370932A03B3
:1020C00080932B0390932C030E94C50A10923B022D
:1020D0008091290380FF03C086950E943D1081E016
:1020E0008093390208950F931F93CF93DF938091CC
:1020F0003B02882309F495C080913A02E0912903BC
:10210000E695E81BE0933502823049F4F0E0E950AF
:10211000FD4FE491CE2FD0E00FE81BE059C0863090
:1021200049F4F0E0EC50FD4FE491CE2FD0E003EA0B
:102130001BE04EC0893051F4E695F0E0EF50FD4FC2
:10214000E491CE2FD0E00DED1CE042C08F3051F471
:10215000E695F0E0E251FD4FE491CE2FD0E008E1AA
:102160001DE036C0853149F4F0E0E551FD4FE491C2
:10217000CE2FD0E00DE81DE02BC08831D9F083329E
:1021800039F4E9EEF2E0C591D49103EB1BE020C0F5
:102190008432A9F08532C1F48E2F63E00E94D42AE4
:1021A000E92FF0E0EA51FD4FE491CE2FD0E001EDB0
:1021B0001EE00EC0C8E2D0E00FEF1DE009C0C4EF82
:1021C000D1E002E91EE004C0C0EDD7E003EB1AE065
:1021D00080913602882361F0109236020E944323D8
:1021E0009093340280933302109238021092370297
:1021F0000E944323E0913302F09134028E1B9F0B27
:102200008F3F9F4770F4EC0FFD1FF0933402E09373
:10221000330283E392E0F801DF91CF911F910F9198
:102220000994DF91CF911F910F910895882311F0A8
:10223000FA0101C0FB010994CF93DF93C82FD62F79
:102240000E94FD0A8C1740F00E94FD0A8D1720F4B1
:10225000DF91CF910C941B108C2FDF91CF910C94B8
:102260002B100F931F93CF93FB01C281CC2309F452
:1022700063C08C010E9488208272F801E35CFC45F7
:10228000E431F10508F059C0EA5AFF4F0C942A2BAB
:102290000E94361006C048E250E16BE170E10E94F6
:1022A0001611C0E04AC04BE150E168E270E1F7CF9F
:1022B0004BE95CE06EE87CE0F2CF4EE85CE06BE975
:1022C0007CE0EDCF49EB5CE06AEA7CE0E8CF4AEAEB
:1022D0005CE069EB7CE0E3CF47ED5CE068EC7CE040
:1022E000DECF48EC5CE067ED7CE0D9CF40E35BE01B
:1022F00069E17BE0D4CF49E15BE060E37BE0CFCFF5
:1023000081E017C065E082E010C068E086E00DC0A3
:102310006EE089E00AC064E18FE007C067E185E113
:1023200004C088E106C062E289E10E941C11B9CFB5
:1023300083E20E942B10B5CFC1E08C2FCF911F916B
:102340000F9108950E944121811102C00E94F12144
:102350000E94722180935E03282F2695269526954C
:1023600030E02630310524F08770886280935E0368
:1023700080915E0380FF04C086958695869501C096
:1023800080E00C94B11220915E03822F8695869591
:102390008695482F50E04530510554F48F5F982FB3
:1023A000990F990F990F822F8770892B80935E0365
:1023B00080915E03816080935E030E94762180910C
:1023C0005E038695869586950C94B11280915E0386
:1023D000982F969596959695A1F0915E990F990FE5
:1023E000990F8770892B80935E03887F91E009F4B1
:1023F00090E080915E0390FB80F980935E030E94E1
:10240000762180915E038695869586950C94B1120F
:1024100080915E0380FD13C0816080935E038130F4
:1024200019F489E080935E0380915E030E94762117
:1024300080915E038695869586950C94B1120895D9
:1024400080915E0380FF08C08E7F80935E030E94B0
:10245000762180E00C94B112089580915E0380FD96
:102460000C9420120C94081290915E03892F86958B
:10247000869586958F5F8F719770863038F4880FB8
:10248000880F880F892B80935E0302C090935E03B0
:1024900080915E03887F91E009F490E080915E0373
:1024A00090FB80F980935E030E94762180915E0309
:1024B0008695869586950C94B112863008F085E055
:1024C00090915E039770282F220F220F220F922BDC
:1024D00090935E03987F21E009F420E090915E03E1
:1024E00020FB90F990935E030C94B1120E945D1250
:1024F00080915E030C9476219C01FB0182818823EC
:1025000049F12E3BFCE53F07C9F040F42C3BECE5DC
:102510003E0769F02D3B3C4561F00895203C9CE569
:10252000390791F070F0213C3C4589F0089585E031
:1025300001C080E00E94761280E008950E94E611BA
:10254000FBCF0E94C311F8CF0E942D12F5CF0E943D
:102550003412F2CF81E00895279A2F9808952F988A
:102560000895CF92DF92EF92FF92CF93C82F8630DB
:1025700050F4811109C080918000877F8093800092
:102580000E94AF1206C0C5E08091800088608093F1
:1025900080002C2F30E0AFEFBFEF0E94382B25E0FA
:1025A00030E040E050E00E94082BB42FA32F922F80
:1025B0008827492F5A2F6B2F7727CA014C3724E1E0
:1025C000520728F469E070E00E94E02A29C0DB018C
:1025D000CA018A50974DAF4FBF4F6627782F892F7A
:1025E0009A2F25EF38E241E050E00E94082B690164
:1025F0007A01CA01B9010E94C42A9B01AC01C7013A
:10260000B6010E94C42ABB27A92F982F872F0097B5
:1026100021E0A207B10511F0BC0102C06FEF7FEF0E
:1026200070938D0060938C00CF91FF90EF90DF90BE
:10263000CF90089508950E94AC128AE080938000A4
:1026400089E1809381008FEF9FEF909387008093C3
:1026500086000C94A2116A9A2EB12B7F3EB1346091
:102660004FB7F894FC01CB01880F991F680F791FB1
:102670006E0F7F1FE617F70789F0819198E03EB94A
:10268000000000C087FF2EB9880F000000C000C006
:1026900000C02EB900C09A9591F7ECCF4FBF8FE5DF
:1026A00094E00197F1F700C0000008950F931F9385
:1026B000CF93DF93C42FD22FFC0182818823C9F0EE
:1026C00040933E020E94432390933D0280933C023C
:1026D00080E28C0F883008F057C0C77081E001C0DD
:1026E000880FCA95EAF7DF91CF911F910F910C9453
:1026F0002F1880913E02481330C080913C02909187
:102700003D020E945B23883C910538F510E21D0FC5
:10271000CD17B9F080E28C0F883040F4C77081E0AB
:1027200001C0880FCA95EAF70E943618183028F5BC
:1027300081E09D2F977001C0880F9A95EAF70E945B
:102740002F18802F0E9426181830F0F4D77081E0DF
:1027500001C0880FDA95EAF70AC080E28C0F883052
:1027600098F4C77081E001C0880FCA95EAF7DF913D
:10277000CF911F910F910C943618802FDF91CF913C
:102780001F910F910C942618DF91CF911F910F91FB
:1027900008950F939C01CB01243F4CE5340731F1A0
:1027A00088F4293DFCE53F07D9F02A3D4CE5340784
:1027B00079F1283D3C45A9F506E221EE41EE68EDB0
:1027C0007CE52BC0263FFCE53F07E1F0A8F0273F62
:1027D0003C4539F507E225EE46EE67EF7CE51DC086
:1027E00007E225EE45EE69ED7CE517C006E221EE35
:1027F00040EE64EF7CE511C007E225EE44EE65EFA4
:102800007CE50BC006E221EE42EE66EF7CE505C0FA
:1028100008E221E045EE6AED7CE50E94561380E077
:1028200008C0FC018281882319F010923E0201C089
:1028300081E00F910895CF93DF93EC01FB0182813A
:10284000882309F41FC1C230FCE5DF0708F41BC16F
:10285000C6319CE5D90738F09E012B5F3C452930F5
:10286000310508F010C10E945421909364038093B5
:102870006303C031ECE5DE0709F4C3C008F041C0D2
:10288000C8308CE5D80709F49AC0F0F4C430ECE500
:10289000DE0709F487C068F4C2308CE5D80709F474
:1028A00077C0C330DC4509F0E3C0809163038260E8
:1028B00076C0C630ECE5DE0709F46EC008F07BC0D8
:1028C0008091630388606BC0CC308CE5D80709F435
:1028D00085C068F4CA30ECE5DE0709F474C008F07E
:1028E00079C00E94BC1A80916303806858C0CE30C2
:1028F0008CE5D80709F476C008F07FC080916303A7
:102900008BC0CC3FECE5DE0709F44FC018F5C331AE
:102910008CE5D80709F47DC078F4C131ECE5DE0719
:1029200009F473C0C231DC4509F0A2C00E94BC1A90
:10293000809163038F7733C0C5318CE5D80709F4E4
:1029400072C008F486C0CB3FDC4509F091C080918D
:1029500064033EC0C115FDE5DF0709F45FC058F40C
:10296000CE3F9CE5D90709F444C008F43FC08091EC
:10297000640382602DC0C230FDE5DF0709F475C035
:1029800008F45DC0C330DD4509F072C080E06EC060
:1029900080916303816003C08091630380618093B1
:1029A000630366C08091630311C0809164038260F9
:1029B000809364035DC0809163038062F0CF809157
:1029C00063038064ECCF8091630388608460E7CF09
:1029D0008160EECF809163038E7FE1CF80916303AE
:1029E0008D7FDDCF80916303877FD9CF8091640392
:1029F00018C0809164038D7FDBCF809163038F7E4D
:102A0000CECF809163038F7DCACF809163038F7B8C
:102A1000C6CF80916303877F8B7FC1CF8091640392
:102A20008D7F8E7FC5CF8091630382FB222720F9A3
:102A300091E0922790FB82F990FB83F9B0CF8091CF
:102A40006403982F909591708E7F892B90FB81F96C
:102A5000AFCF0E94BC1A8091630387FB222720F925
:102A600091E0922790FB87F99ACF81E00E94F321B1
:102A700080916303909164030E9465210E94BC1AB7
:102A800080E001C081E0DF91CF910895CF93DF9383
:102A900086319C4541F5EB010E948820982F8A8160
:102AA00020911F0130912001882379F09A7A81E0EA
:102AB00009F480E080933F02911102C069E201C0F5
:102AC00065E3C9010E948E220AC080913F028111F4
:102AD00002C069E201C065E3C9010E9499220E9417
:102AE000D62080E001C081E0DF91CF9108959093DE
:102AF0004502809344020895E0914402F09145021A
:102B0000309721F00190F081E02D099480E0089544
:102B1000E0914402F0914502309799F020912B0109
:102B2000222359F02091630327FF07C0DC012C9179
:102B300011962C93119725E02C930280F381E02DC0
:102B400009940895E0914402F0914502309739F0DC
:102B500022E0DC012C930480F581E02D0994089596
:102B600020914202309143022817390771F0909367
:102B7000430280934202E0914402F0914502309773
:102B800021F00680F781E02D0994089520914002FC
:102B9000309141022817390771F0909341028093D8
:102BA0004002E0914402F0914502309721F0008408
:102BB000F185E02D099408950E944F2360935502FA
:102BC000709356028093570290935802609351027B
:102BD000709352028093530290935402089585B7E4
:102BE000806885BF85B7806885BF089581E00895B6
:102BF0000C94F61508950C94FA150C94FA150C948F
:102C0000FD150C94FA150C9401160C94FA150E94FB
:102C1000EF1589E391E20E94B4230E9405160C94FB
:102C200003160E943A230E948C060E94CF230E9422
:102C3000A2110E9440100C94FF156F927F928F9208
:102C40009F92AF92BF92CF92DF92EF92FF920F933B
:102C50001F93CF93DF93CDB7DEB72A970FB6F894C3
:102C6000DEBF0FBECDBF0E94FB150E94FA150E9469
:102C7000BE0681110E94DC1537E4832E32E0932ECC
:102C800000E010E0C02E802F0E945E065C01F4017F
:102C9000619071904F016826792661147104B1F436
:102CA0000F5F1F4F0530110569F78FEF89838A8306
:102CB0001B820E9443238160782F9D838C834981EE
:102CC0005A816B818D810E94DB163AC08091F1029E
:102CD00081FD0E946706D12CEE24E394F12CC30100
:102CE0008E219F21892B29F10E94F8158823A9F0B4
:102CF000DE82CF82AE20BF2081E0AB2809F480E0E5
:102D000088870E9443238160782F9A8789874E8124
:102D10005F8168858A850E94DB16000F111FF8010C
:102D2000E95BFD4F80819181E826F926F182E082FE
:102D300007C0D394EE0CFF1CFFE0DF12D0CFB0CF62
:102D40000E9473100E941A130E94FE080E947C15B4
:102D5000909146028917D1F00E947C15809346021B
:102D60002A960FB6F894DEBF0FBECDBFDF91CF918C
:102D70001F910F91FF90EF90DF90CF90BF90AF9099
:102D80009F908F907F906F900C9447042A960FB677
:102D9000F894DEBF0FBECDBFDF91CF911F910F9191
:102DA000FF90EF90DF90CF90BF90AF909F908F906B
:102DB0007F906F900895DF92EF92FF920F931F9391
:102DC000CF93DF93CDB7DEB72B970FB6F894DEBF66
:102DD0000FBECDBFF42E052F162FE72ED82E611172
:102DE0000E94A820FE01319686E0DF011D928A959F
:102DF000E9F77E2D4F2D502F612F8D2D9E810E9442
:102E0000751D2B960FB6F894DEBF0FBECDBFDF91B8
:102E1000CF911F910F91FF90EF90DF900895FC01EB
:102E2000808191810E9449200895CF93882309F4DD
:102E300098C0C82F8238A1F469E380911F01909156
:102E400020010E948E220E94D6202FEF81EE94E076
:102E5000215080409040E1F700C0000069E315C0B8
:102E60008338E1F463E580911F01909120010E9475
:102E70008E220E94D6202FEF81EE94E021508040D8
:102E80009040E1F700C0000063E580911F01909140
:102E900020010E949922CF910C94D6208438A1F46D
:102EA00067E480911F01909120010E948E220E9470
:102EB000D6202FEF81EE94E0215080409040E1F742
:102EC00000C0000067E4E1CF8CEF8C0F813AD0F4B2
:102ED0006C2F80911F01909120010E940E22882367
:102EE00049F06C2F80911F01909120010E9499223E
:102EF0000E94D6206C2F80911F01909120010E948A
:102F00008E22C9CF80E28C0F883048F4C77081E0F0
:102F100001C0880FCA95EAF70E948B20BCCFEBE571
:102F2000EC0FE33040F4F0E0E653FE4F808190E098
:102F3000CF910C94B015E8E5EC0FE73150F4F0E0D8
:102F4000EE0FFF1FE456FE4F80819181CF910C94CC
:102F5000C615CD3E30F08C2F0E940E08CF910C94F8
:102F6000E008CF910895882309F458C0823859F4B5
:102F700069E380911F01909120010E948E220E949E
:102F8000D62069E30CC0833891F463E580911F017A
:102F9000909120010E948E220E94D62063E58091AC
:102FA0001F01909120010E9499220C94D620843810
:102FB00059F467E480911F01909120010E948E22B4
:102FC0000E94D62067E4EBCF9CEF980F913A10F463
:102FD000682FE5CF90E2980F983050F4877091E019
:102FE00001C0990F8A95EAF7892F0E949120DDCFC1
:102FF0009BE5980F933020F480E090E00C94B0159E
:1030000098E5980F973120F480E090E00C94C61575
:103010008D3E20F00E9469080C94E00808951F93EB
:10302000CF93DF93182FEB010E941517209741F0E3
:103030008FE99FE00197F1F700C000002197F6CFDC
:10304000812FDF91CF911F910C94B317893319F021
:1030500060E070E002C060E570E00C940F18882317
:1030600021F00E948B200C94D6200895882321F013
:103070000E9491200C94D6200895CF92DF92EF9277
:10308000FF920F931F93CF93DF937C01062FC72FDF
:10309000FC01D281158112951F700E948120882326
:1030A00099F0DD2389F08C2F807F803421F080E23D
:1030B000800F883048F082E00E9420210E94812009
:1030C00091E0D82ED92601C0D12CCC2EC2948FE00D
:1030D000C8228C2D90E0FC01E659FF4F0C942A2B5E
:1030E0008C2F807FCF70882311F0C295C07FDD23A5
:1030F00099F0CC2309F48DC180E2800F883010F064
:10310000011104C08C2F0E948B2003C08C2F0E94C1
:103110009B200E94D6207DC1802F0E94B317CC2314
:1031200009F49CC180E2800F883010F0011104C0C6
:103130008C2F0E94912003C08C2F0E94A1200E94FE
:10314000D6208CC18C2F807FCF70803211F0C29539
:10315000C07F002319F00130C9F022C0DD2371F0D7
:10316000112341F0113031F40E94BB208C2B0E94BE
:10317000C32074C10E94BB208C2B1DC0112319F0E9
:10318000113009F46BC10E94CC2025C0DD2321F051
:10319000163008F063C10EC0153008F05FC11BC0C7
:1031A000DD2361F0112331F0F701858180FF31C10A
:1031B0008F7085838C2F0E942F1850C1112359F0D6
:1031C000093309F037C1FFEF27EE83E0F1502040CB
:1031D0008040E1F72DC18C2F0E9436183FC18C2F03
:1031E00086958695837019F0813061F037C1DD23B3
:1031F00021F0802F9C2F937002C080E090E00E940D
:10320000B01534C1DD2321F0802F9C2F937002C0B4
:1032100080E090E00E94C61529C1802FDD2319F0BF
:103220000E940E0802C00E9469080E94E0081EC1A8
:103230008C2F837009F045C0D11114C1402F4295E5
:1032400046954770440F440F602F6F70862F90E0B3
:10325000A0E0B0E0042E04C0880F991FAA1FBB1F76
:103260000A94D2F704FF10C00FE010E020E030E035
:1032700004C0000F111F221F331F4A95D2F700957B
:1032800010952095309503C000E010E09801C69598
:10329000C695C370BC01CD01602B712B822B932B83
:1032A000C23049F058F4C13019F00E94C61EDAC08D
:1032B0000E94B41ED7C00E94D81ED4C00E94B21E65
:1032C000D1C0DD2319F08C2F817001C08695882331
:1032D00009F4C8C0402F429546954770440F440FEB
:1032E000602F6F70862F90E0A0E0B0E0042E04C045
:1032F000880F991FAA1FBB1F0A94D2F704FF10C0A2
:103300000FE010E020E030E004C0000F111F221F8A
:10331000331F4A95D2F7009510952095309503C03C
:1033200000E010E09801C695C695C370BC01CD01C0
:10333000602B712B822B932BC23049F058F4C13093
:1033400019F00E948B1F8EC00E94791F8BC00E94B3
:103350009D1F88C00E94EC1E85C0CF70DD2339F010
:103360008C2F0E94121F802F0E942F187BC0802F4D
:103370000E9436188C2F0E94331F74C0023F01F147
:1033800028F4003F41F0013FA1F03FC0033FF9F0B6
:10339000043F39F13AC0DD2341F0153008F05EC03A
:1033A0008C2F8F710E94581F59C0163008F056C0DC
:1033B000F7CFDD2339F08C2F8F710E94121F4EC082
:1033C000DD23C9F38C2F8F710E94331F47C0DD238B
:1033D00029F08C2F8F710E94FD1E40C00E94F81EA4
:1033E0003DC0DD2349F0CF718C2F0E94121F63E096
:1033F0008C2F0E940B2132C081E00E9420211230CC
:1034000068F182E00E94202129C0DD2331F01123E0
:1034100091F2802F0E94151721C0112399F20933D0
:1034200049F49FEFE7EEF3E09150E040F040E1F720
:1034300000C00000802F0E94B31710C04C2F4F70A7
:10344000602FC7010E9450040E94231E0FC04C2F02
:103450004F70602FC7010E94530408C088EF8C0D85
:10346000843020F40E947C150E944704DD20C9F0BE
:103470000E947D2080FD15C0F70112820E947720F6
:103480000E94121FC7010E94721A0E947720DF91CA
:10349000CF911F910F91FF90EF90DF90CF900C9400
:1034A000331FDF91CF911F910F91FF90EF90DF902D
:1034B000CF9008950F931F93CF93DF93EC01688112
:1034C00079818A810E9454208C010E94AF1F0E9442
:1034D000A01EB801CE010E943D18DF91CF911F912F
:1034E0000F910895CF93DF93EC01988189812B810F
:1034F0003C81232B31F08F3F31F481E09F3F19F461
:1035000003C081E001C080E080FD19C0CE010E94AF
:10351000F90381110CC00E948120882381F08A81E7
:10352000882369F082E0DF91CF910C942021CE01B5
:103530000E945A1ACE01DF91CF910C94D003DF91F3
:10354000CF91089580E090E00E94B01580E090E077
:103550000E94C6150E94A8200E94B8200E94D62072
:103560000E94110A0C94E00880911F0190912001A3
:103570000E94A4220C94A21A0E9498200C94B41ABF
:10358000E92FE295EF704E2F50E0FA013297EE30BE
:10359000F105B0F4E658FF4F0C942A2B803F91F0D0
:1035A00018F4883E68F40EC0843F51F40BC0883E86
:1035B00048F0813F29F406C093FB882780F90895DD
:1035C00080E0089581E008950E9449200E94C01A79
:1035D0000895CF93DF9300D000D01F92CDB7DEB710
:1035E0000F900F900F900F900F90DF91CF91089553
:1035F000CF93DF9300D000D000D0CDB7DEB72696B2
:103600000FB6F894DEBF0FBECDBFDF91CF91089506
:103610001F93CF93DF93C0915A0216E080915B0213
:10362000C81799F0D0E01C9FF0011D9FF00D1124E8
:10363000E45AFD4F4081518162817381848195817B
:103640000E94F81A2196C770E9CFDF91CF911F91A0
:10365000089540918C0250918D0260918E0270917C
:103660008F0280919002909191020C94F81A0F931E
:103670001F93CF93DF938091910282958F7009F011
:103680005DC080918E02882309F458C080915A024F
:1036900010915B0260918C0270918D02C0918F023B
:1036A000D091900291E06F3F09F090E0292F06E061
:1036B000811709F443C0209721F07F3F21F030E0CB
:1036C00003C031E001C0322F90E030FD34C0089FCC
:1036D000F001099FF00D1124DF01A45ABD4F11968E
:1036E0003C911197371327C03C91361324C0129692
:1036F0003C91129731111FC013964D915C91149714
:103700004C1B5D0B483C5105B0F4809191028F70C9
:10371000806180939102EF59FD4F80818F708061AD
:1037200080838CE892E00E94721ADF91CF911F9102
:103730000F910C94081B01968770BACFDF91CF913F
:103740001F910F9108959F92AF92BF92CF92DF92F7
:10375000EF92FF920F931F93CF93DF93CDB7DEB716
:1037600061970FB6F894DEBF0FBECDBF8C0185E028
:10377000F801DE011D9601900D928A95E1F7F8019E
:1037800040815181E28090918C0260918D02209164
:103790008F02309190022115310531F06F3F31F4E5
:1037A00081E09F3F19F403C081E001C080E0F82F61
:1037B000F1709F2E80FD46C1F801A380B4808CE893
:1037C000C82E82E0D82EF0908E02F501E21BF30B9A
:1037D000FF2009F4DFC080919102E83CF10508F078
:1037E0009BC0282F207F09F052C0561313C04913E5
:1037F00011C0FE2CE1100EC08F7080618093910289
:103800000E94291BC6010E94721A80919102F80140
:10381000858358C1AB2831F05F3F31F481E04F3FE1
:1038200019F403C081E001C080E080FD03C081E0A5
:103830008E2502C080E090E0F82FF170FF2E80FF0F
:103840001CC080915A0220915B0236E0821709F475
:1038500017C190E0389FF001399FF00D1124E45A10
:10386000FD4F6181561306C06081461303C062811B
:10387000E61203C001968770E9CFFE2CEE2009F412
:1038800021C1809191028160809391025AC05613A8
:1038900006C0491304C0E11002C0F8019FC04D8763
:1038A0005E878D859E850E94E41A882379F1EE203B
:1038B00069F120919102822F82958F7090E002979A
:1038C00074F080918C0290918D0298878F83198675
:1038D000BB86AA862C87CE0107960E94721A86E0C4
:1038E000F801ACE8B2E001900D928A95E1F70E94F0
:1038F000371B0E94291B0DC0561729F14D875E8783
:103900008D859E850E94E41A81112CC0C8010E94F9
:10391000721AFF24F394D6C0282F207F69F77A2DDE
:10392000B98AA88A6E2D89890E94E91A8CE892E0EA
:103930000E94721A86E0F60111928A95E9F70E94B8
:10394000291BF12CBFC04913D9CFE110D7CFF80103
:103950008583C8010E94721A86E0F60111928A9549
:10396000E9F7B0C0EE2091F220919102822F82956A
:103970008F7090E002970CF4B2CF80918C029091FE
:103980008D029A8389831B82BD82AC822E83CE01F5
:103990000196A3CFE83CF10508F047C0FE2CEE20CD
:1039A00009F4B4CF561330C049132EC020919102B0
:1039B00020FD21C0822F82958F70482F50E0411545
:1039C0005105C9F0F80125834F30510541F08F5F53
:1039D000982F9295907F822F8F70892B8583C801B5
:1039E0000E94721A86E0F801ACE8B2E001900D92F4
:1039F0008A95E1F742C086E0F801ACE8B2E00190B8
:103A00000D928A95E1F75EC04D875E878D859E8514
:103A10000E94E41A811163CF8091910281608093AA
:103A20009102C8010E94721A4DC07A2DB98AA88AE3
:103A30006E2D89890E94E91A86E0F60111928A9515
:103A4000E9F71BC0EE2009F461CF4D875E878D85B5
:103A50009E850E94E41AF82E882309F457CF86E049
:103A6000F801ACE8B2E001900D928A95E1F78CE89C
:103A700092E00E940F170E94371B0E94291B22C050
:103A80004D875E878D859E850E944920292F22952E
:103A90002F70223028F49F7039F0811105C00BC0BF
:103AA000243028F49F7049F4805E883020F0C801EB
:103AB0000E94721A9F2CF92C05C0F8019581907F05
:103AC00099F7F9CF8F2D61960FB6F894DEBF0FBE30
:103AD000CDBFDF91CF911F910F91FF90EF90DF90BD
:103AE000CF90BF90AF909F9008951F93CF93DF9397
:103AF000CDB7DEB72C970FB6F894DEBF0FBECDBFA3
:103B00004F83588769877A878B879C87CE01079672
:103B10000E94A31B8823D1F09F8188852A853B853D
:103B2000232B31F08F3F31F481E09F3F19F403C024
:103B300081E001C080E080FD47C04F8158856985E4
:103B40007A858B859C850E94F81A3EC086E0FE012E
:103B50003796DE01119601900D928A95E1F7FF816B
:103B6000E8856A857B856115710531F0EF3F31F499
:103B700081E0FF3F19F403C081E001C080E080FDD7
:103B800023C020915B0230E0C9010196877099271C
:103B900040915A0250E084179507F1F1F983EA83C6
:103BA0007D836C8396E0929FD001939FB00D11248A
:103BB000A45ABD4FFE01319601900D929A95E1F7FE
:103BC00080935B020E94081B16E080915A0290913C
:103BD0005B02891771F1189FC0011124845A9D4F0F
:103BE0000E94A31B882329F1E0915A021E9FF00135
:103BF0001124E45AFD4F4081518162817381848197
:103C000095810E94F81A80915A0290E0019687707F
:103C1000992780935A02D9CF0E94BC1A10925B0256
:103C200010925A02ECE8F2E086E0DF011D928A95DC
:103C3000E9F72C960FB6F894DEBF0FBECDBFDF912B
:103C4000CF911F910895EF92FF920F931F93CF93FF
:103C5000DF938C01892B09F46CC0F12CEE24E394E2
:103C6000E8012196F8018491843740F4843008F00B
:103C700051C0813081F0823019F15BC0853709F481
:103C800044C0A8F19CE7980F903708F052C08F7796
:103C90000E94B31741C00E5F1F4FFE01849190E256
:103CA000980F983050F48770FE2D01C0FF0F8A9551
:103CB000EAF78F2F0E94AB2014C00E9415172DC069
:103CC0000E5F1F4FFE01849190E2980F983060F4D0
:103CD0008770FE2D01C0FF0F8A95EAF78F2F0E9493
:103CE000B1200E94D62019C00E94B31716C00E5FE3
:103CF0001F4FFE01C491CC2381F08FE99FE0019713
:103D0000F1F700C00000C150F6CF0E5F1F4FFE015B
:103D1000F49003C00E9415178E018F2D882309F49B
:103D20009FCFEFE9FFE03197F1F700C0000081502D
:103D3000F5CFDF91CF911F910F91FF90EF900895F4
:103D4000089508950C94A11E0C94A21E0E94A41E16
:103D50006093C8027093C9028093CA029093CB0209
:103D60000C94A21A0C94A61E0F931F930091C802E4
:103D70001091C9022091CA023091CB02602B712BA5
:103D8000822B932B1F910F910C94A61E0F931F93C0
:103D90000091C8021091C9022091CA023091CB0251
:103DA00060237123822393231F910F910C94A61EED
:103DB0000F931F930091C8021091C9022091CA026B
:103DC0003091CB0260277127822793271F910F9193
:103DD0000C94A61E0C94A11E0E94EA1E6093C402BD
:103DE0007093C5028093C6029093C7020C94A21AE6
:103DF00060E070E0CB010C94EC1E0F931F9341E048
:103E000050E060E070E08A019B0104C0000F111FC8
:103E1000221F331F8A95D2F7C901B8011F910F9154
:103E20000C94EC1E0F931F9341E050E060E070E0B3
:103E300004C0440F551F661F771F8A95D2F78091E3
:103E4000C4029091C502A091C602B091C7028A0136
:103E50009B01082B192B2A2B3B2BC901B8011F9161
:103E60000F910C94EC1E0F931F9341E050E060E023
:103E700070E004C0440F551F661F771F8A95D2F764
:103E800040955095609570958091C4029091C502BF
:103E9000A091C602B091C7028A019B010823192391
:103EA0002A233B23C901B8011F910F910C94EC1EEA
:103EB0000F931F9341E050E060E070E004C0440FB6
:103EC000551F661F771F8A95D2F78091C402909183
:103ED000C502A091C602B091C7028A019B010827C2
:103EE00019272A273B27C901B8011F910F910C946C
:103EF000EC1E0F931F930091C4021091C5022091F4
:103F0000C6023091C702602B712B822B932B1F911D
:103F10000F910C94EC1E0F931F930091C40210910B
:103F2000C5022091C6023091C7026023712382230B
:103F300093231F910F910C94EC1E0F931F930091EC
:103F4000C4021091C5022091C6023091C7026027B9
:103F50007127822793271F910F910C94EC1E0895CF
:103F60002FE0929F800D1124E82FE695E695E695C7
:103F7000877051E001C0550F8A95EAF785E0E89F08
:103F8000F0011124EE56FD4F20E030E070E040815A
:103F9000CB01022E02C0969587950A94E2F78170B4
:103FA000819584278523842781932F5F3F4F253078
:103FB000310569F708952FE0929F800D1124682F35
:103FC000669566956695982F977085E0689FB00115
:103FD000112440E050E080E0FB01E40FF51FEE56B5
:103FE000FD4F208130E0092E02C0369527950A94B6
:103FF000E2F721703327042E01C0220F0A94EAF75A
:10400000822B4F5F5F4F4530510531F70895BF92C6
:10401000CF92DF92EF92FF920F931F93CF93DF9394
:104020008C01C090C402D090C502E090C602F0900E
:10403000C7028091C8029091C902A091CA02B091B2
:10404000CB02C82AD92AEA2AFB2ACFE1D0E0D7013D
:10405000C6010C2E04C0B695A795979587950A942E
:10406000D2F780FD04C0219790F7B12C07C0BC2E79
:10407000B8018C2F0E946F040197A9F38B2DDF915B
:10408000CF911F910F91FF90EF90DF90CF90BF9055
:104090000895CF93DF93EC010E940720BE010E9498
:1040A0006F04DF91CF9108951F93CF93DF93EB01BE
:1040B00090915902992321F0CB010E94492013C00D
:1040C000882349F0CB010E940720182F682FCE01CA
:1040D0000E94B01F04C0CB010E94DB1F182FBE013D
:1040E000812F0E946F04DF91CF911F9108958091DD
:1040F000CC0285958595859508958091CC02877031
:1041000008959091CC02977081E009F480E00895C1
:104110008091F00208959091F002892B8093F00233
:10412000089580959091F00289238093F00208957C
:104130001092F00208959091EF02892B8093EF0284
:10414000089580959091EF0289238093EF0208955E
:104150001092EF0208959091EE02892B8093EE0267
:10416000089580959091EE0289238093EE02089540
:104170001092EE0208958091CD02089508950C9456
:10418000BE200C94BF209091CD02981721F080930F
:10419000CD020C94C12008958091CD02882329F08E
:1041A0001092CD0280E00C94C1200895E0911F018F
:1041B000F09120018091F0028083E0911F01F09145
:1041C000200190818091EF02892B8083E0911F0173
:1041D000F091200190818091EE02892B8083809163
:1041E000CD02882381F0E0911F01F09120019081A0
:1041F000892B808380911F01909120010E94F821DA
:1042000081110E94CC2080911F01909120010C947B
:1042100088150C94BE2098E0899F90011124262BCC
:104220002093CC020E94121F8091CC028595859527
:1042300085950C9409211092CC0280E00C94092100
:104240002091CC02809582238093CC02982F977086
:1042500079F430E0482F082E000C550B2417350751
:1042600039F08595859585950E94331F0C941B2107
:10427000089580E008956FEF7FEF80E090E00C9468
:10428000FC2B80E090E00E94D82B21E08B3E9E4FDB
:1042900009F020E0822F089582E090E00C94CA2B70
:1042A00083E090E00C94CA2BCF9384E090E00E94CE
:1042B000CA2BC82F81E290E00E94CA2B2C2F30E03D
:1042C000A901582BCA01CF910895CF93C92F682F08
:1042D00084E090E00E94DE2B6C2F81E290E0CF9191
:1042E0000C94DE2B86E090E00C94CA2B682F86E0BD
:1042F00090E00C94DE2BAB01BC018FE090E00C94BD
:10430000F02BAB01BC0183E190E00C94F02B60E05A
:1043100070E0CB010C94812160E070E0CB010E9441
:104320007B210C9487216BEE7EEF80E090E00E9471
:10433000FC2B60E082E090E00E94DE2B60E083E0F6
:1043400090E00E94DE2B1092C8021092C9021092D7
:10435000CA021092CB0260E084E090E00E94DE2B63
:1043600060E081E290E00E94DE2B60E085E090E07A
:104370000E94DE2B60E086E090E00E94DE2B6FEF73
:1043800087E090E00E94DE2B40E050E0BA0188E038
:1043900090E00E94F02B60E08DE090E00E94DE2B28
:1043A00040E050E0BA0188E190E00E94F02B60E02C
:1043B00087E190E00E94DE2B40E050E0BA018CE102
:1043C00090E00E94F02B60E080E290E00E94DE2B03
:1043D00040E050E0BA0188E190E00E94F02B0C949C
:1043E0008C210C949321682F8EE090E00C94DE2BAE
:1043F000FC01329680912B01882331F08091630378
:1044000087FF02C09EE101C096E080E0915028F055
:1044100021912223D9F38F5FF9CF0895662351F1BB
:1044200020912B012223E9F02091630327FF19C07B
:10443000462F4695469546954E31E0F4677021E04B
:1044400030E002C0220F331F6A95E2F7FC01E40F4F
:10445000F11D828190E02823392381E0232B69F428
:1044600009C0FC01329608962191621729F0E817DD
:10447000F907D1F780E0089581E008959C01FC01DF
:1044800032969FEF80E04191461789F09F3F19F4E3
:10449000411101C0982F8F5F8630A9F79F3F39F0F7
:1044A000F901E90FF11D97FDFA95628308950895CA
:1044B0009C012A5F3F4FFC014281461301C01282DA
:1044C000019682179307B9F70895262F269526950A
:1044D00026952E3168F4FC01E20FF11D677021E092
:1044E00030E001C0220F6A95EAF78281282B2283EF
:1044F0000895262F2695269526952E3170F4FC01D9
:10450000E20FF11D677021E030E001C0220F6A95D3
:10451000EAF72095828128232283089520912B0198
:10452000222329F02091630327FD0C9465220C942B
:104530003E2220912B01222329F02091630327FDA5
:104540000C9479220C94582220912B01FC01329674
:10455000222331F08091630387FF02C08EE101C006
:1045600086E0DF011D928A95E9F7089508950C947D
:10457000B6220C94B622CF930E94B9220E94BE06A6
:104580000E94B722C0E08C2F0E945E06892B29F47E
:10459000CF5FC530C1F780E001C081E0CF910895C1
:1045A0000C94B6220C94D02280916903843061F17E
:1045B0000E94D22280E00E94B11280E00E94470453
:1045C0001092F20220E488E190E00FB6F894A895EA
:1045D000809360000FBE2093600083B7817F84606A
:1045E00083BF83B7816083BF7894889583B78E7FBC
:1045F00083BF0FB6F894A89580916000886180937E
:104600006000109260000FBE08950C94B6220E94C4
:10461000BC1A0E94A2110E947C150E9447040C94AF
:1046200005231F920F920FB60F9211248F939F9321
:10463000AF93BF938091F202811113C080915F0309
:1046400090916003A0916103B09162034196A11D16
:10465000B11D80935F0390936003A0936103B093B7
:104660006203BF91AF919F918F910F900FBE0F90FA
:104670001F90189582E084BD93E095BD9AEF97BD99
:1046800080936E0008952FB7F89480915F03909106
:104690006003A0916103B09162032FBF08952FB70B
:1046A000F89460915F037091600380916103909131
:1046B00062032FBF08959C014FB7F89480915F0368
:1046C00090916003A0916103B09162034FBF821B80
:1046D000930B089578941F920F920FB60F921124A6
:1046E0008F939F93AF93BF9380915F0390916003EB
:1046F000A0916103B09162030196A11DB11D809349
:104700005F0390936003A0936103B0936203BF9132
:10471000AF919F918F910F900FBE0F901F901895A2
:1047200081E08093E00080E28093D8001092C9007D
:104730008FE19EE40197F1F700C0000087E090EB65
:10474000DC018093720390937303A0937403B0937E
:1047500075039CE088E10FB6F894A89580936000FB
:104760000FBE90936000FFCF9093CF018093CE0156
:1047700008950C943B210E94BE068FE39CE90197AB
:10478000F1F700C000000E94BE0680E00E945E06B5
:1047900080FF04C00E94B9230C94902308950E94C6
:1047A0004121811102C00E94F1210E944C2180937D
:1047B000F1020E94542190936403809363030E944A
:1047C0005021682F70E080E090E00E94B21E60915E
:1047D000C4027091C5028091C6029091C7020C94E8
:1047E000EA1E809113030895CF93DF9300D01F92A8
:1047F000CDB7DEB790916903943019F589837B8337
:104800006A8382E08093E9008FEF9091E800815005
:1048100095FD06C095ED9A95F1F700008111F5CF51
:104820008091E80085FF0DC040E050E063E070E05B
:10483000CE0101960E9426268091E8008E77809313
:10484000E8000F900F900F90DF91CF910895BC0179
:1048500084E00C94F423BC0183E00C94F42322E064
:104860002093E9002FEF3091E800215035FD06C07C
:1048700035ED3A95F1F700002111F5CF2091E800D0
:1048800025FF0BC040E050E066E070E00E94262665
:104890008091E8008E778093E8000895CF93DF93AE
:1048A00020912B01222339F02091630327FF03C0BD
:1048B00060E222E002C068E021E02093E9002FEFEF
:1048C0003091E800215035FD06C035ED3A95F1F7FD
:1048D00000002111F5CF2091E80025FF1DC0EC015B
:1048E00080912B01811105C040E050E068E070E04C
:1048F00003C070E040E050E0CE010E942626809187
:10490000E8008E778093E80080E2FE01A3EFB2E03A
:1049100001900D928A95E1F7DF91CF9108958091F2
:104920006803811109C00E94B7270E941428809152
:10493000E20084608093E200089510926803089575
:1049400008950895089542E061EC81E00E943027C7
:1049500042E261EC82E00C94302780916B0383305B
:1049600009F460C030F4813071F0823009F499C0EC
:1049700008958A3009F485C08B3009F46BC0893002
:1049800009F0A7C020C080916A03813A09F0A1C054
:104990008091E800877F8093E80080916E0390917A
:1049A0006F03892B21F460E283EF92E003C060E0A3
:1049B00080E090E070E00E9471268091E8008B77A3
:1049C0008093E800089580916A03813209F081C0E4
:1049D00080916E0390916F03029708F07AC08091E6
:1049E000E800877F8093E8008091E80082FD05C0A1
:1049F000809169038111F8CF6CC02091F300809100
:104A0000F20090E0922B029729F48091F1008B7FC5
:104A1000813021F48091F100809313038091E800AC
:104A20008B7753C080916A03813A09F052C080911C
:104A30006E0390916F03892B09F04BC08091E800C1
:104A4000877F8093E8008091E80080FFFCCF809111
:104A50002B0136C080916A038132D9F580916E03B3
:104A600090916F03892BA9F58091E800877F80934F
:104A7000E8000E94652780916C0380932B010C94C1
:104A8000BC1A80916A03813221F58091E800877F0A
:104A90008093E8000E94652780916D038093140342
:104AA000089580916A03813AA1F48091E800877F9C
:104AB0008093E8008091E80080FFFCCF8091140390
:104AC0008093F1008091E8008E778093E8000C9449
:104AD0006527089584B7877F84BF0FB6F894A8959B
:104AE00080916000886180936000109260000FBE2A
:104AF00090E080E80FB6F894809361009093610095
:104B00000FBE0E9407160E94B7270E9414288091AA
:104B1000E20084608093E20078940E94A92A0E94B7
:104B2000111681E291E00E9477158091690385302A
:104B3000A9F480916903853079F40E94D422809190
:104B400067038823B1F30E94BB22882391F30E945C
:104B500010260E94BC1AEDCF0E9407230E941D164A
:104B60000E94FB150E94FA15E0CF0C94B725292F5F
:104B7000332723303105C9F060F42130310581F04D
:104B80002230310509F044C08BE390E020E235E0AB
:104B900043C021323105E1F02232310549F138C0FC
:104BA00082E190E02BE535E037C09927813091050F
:104BB00049F028F0029761F5E0E0F5E005C0ECE18E
:104BC000F5E002C0E0E1F5E0849190E09F0124C0AF
:104BD0006115710541F061307105D1F489E090E013
:104BE0002BE435E019C089E090E022E335E014C001
:104BF0006115710541F06130710551F486EB90E06B
:104C00002DE635E009C080E490E023E236E004C000
:104C100080E090E020E030E0FA01318320830895C5
:104C200080E189BD82E189BD09B400FEFDCF80919C
:104C3000D8008F7D8093D8008091E00082608093BF
:104C4000E0008091E00081FDFCCF0895CF92DF92DB
:104C5000EF92FF920F931F93CF93DF93EC018B01A1
:104C60007A010E948427811133C0E114F10439F0E4
:104C7000F70180819181081B190BC80FD91FC12C26
:104C8000D12C0115110519F18091E80085FD16C0A0
:104C90008091E8008E778093E800E114F10449F0F8
:104CA000F70180819181C80ED91ED182C08285E032
:104CB0000FC00E948427882321F30AC08991809322
:104CC000F10001501109FFEFCF1ADF0ADACF80E0BF
:104CD000DF91CF911F910F91FF90EF90DF90CF90D8
:104CE000089520917003309171032617370748F01B
:104CF0006115710539F42091E8002E772093E800C2
:104D000001C0B901FC0120E06115710579F18091C4
:104D100069038823F1F18530F1F18091E80083FD8A
:104D20003CC08091E80082FD2EC08091E80080FFA9
:104D3000EBCF2091F3008091F20090E0922B61156F
:104D4000710551F08830910538F421912093F100DC
:104D5000615071090196F3CF21E0089709F020E036
:104D60008091E8008E778093E800CECF2111CFCFDD
:104D70000AC080916903882361F0853061F08091D9
:104D8000E80083FD0AC08091E80082FFF2CF80E056
:104D9000089582E0089583E0089581E008952091C8
:104DA0007003309171032617370748F061157105BC
:104DB00039F42091E8002E772093E80001C0B90172
:104DC000FC0120E06115710591F180916903882350
:104DD00009F440C0853009F43FC08091E80083FDAC
:104DE0003DC08091E80082FD2FC08091E80080FFE7
:104DF000E9CF2091F3008091F20090E0922B6115B1
:104E0000710559F08830910540F424912093F10008
:104E10003196615071090196F2CF21E0089709F0AF
:104E200020E08091E8008E778093E800CBCF2111BD
:104E3000CCCF0AC080916903882361F0853061F08E
:104E40008091E80083FD0AC08091E80082FFF2CFE4
:104E500080E0089582E0089583E0089581E0089558
:104E6000982F973068F59093E900981739F0709172
:104E7000EC002091ED005091F00003C0242F762F1C
:104E800050E021FD02C09F5FECCF3091EB003E7FF0
:104E90003093EB003091ED003D7F3093ED00309189
:104EA000EB0031603093EB007093EC002093ED0049
:104EB0005093F0002091EE0027FDE5CF80E00895AB
:104EC0008F708093E90081E0089580916A0387FFE5
:104ED00011C08091E80082FD05C0809169038111B5
:104EE000F8CF11C08091E8008B770BC080916903E7
:104EF000882349F08091E80080FFF8CF8091E80096
:104F00008E778093E80008952091E4003091E500C9
:104F100095E64091EC00842F817040FF23C0809182
:104F2000E80080FD1DC080916903882399F08530D9
:104F300099F08091EB0085FD11C04091E400509103
:104F4000E5002417350729F3915011F09A01E1CFBC
:104F500084E0089582E0089583E0089581E0089553
:104F600080E008954091E80042FFDDCF08950E945F
:104F700025280E942D28E0EEF0E08081816080836A
:104F8000E8EDF0E080818F77808319BCA7EDB0E079
:104F90008C918E7F8C9380818F7E808310926803AA
:104FA00008950F931F93CF93DF930E9425280E94AB
:104FB0002D28C8EDD0E088818F778883888180682C
:104FC000888388818F7D888319BC10926903109231
:104FD0006503109267031092660300EE10E0F8017B
:104FE00080818B7F808388818160888342E060E05C
:104FF00080E00E943027E1EEF0E080818E7F8083A8
:10500000E2EEF0E08081816080838081886080832F
:10501000F80180818E7F8083888180618883DF9121
:10502000CF911F910F910895E8EDF0E080818F7E80
:105030008083E7EDF0E080818160808384E082BF3F
:1050400081E0809368030C94D127E8EDF0E0808143
:105050008E7F80831092E20008951092DA00109201
:10506000E10008951F920F920FB60F9211242F9313
:105070003F934F935F936F937F938F939F93AF93E0
:10508000BF93EF93FF938091E10082FF0BC080916B
:10509000E20082FF07C08091E1008B7F8093E100F6
:1050A0000E94A82A8091DA0080FF1FC08091D8005A
:1050B00080FF1BC08091DA008E7F8093DA008091A0
:1050C000D90080FF0DC080E189BD82E189BD09B4AE
:1050D00000FEFDCF81E0809369030E948F2405C00C
:1050E00019BC109269030E949D248091E10080FF09
:1050F00019C08091E20080FF15C08091E2008E7F90
:105100008093E2008091E20080618093E2008091D0
:10511000D80080628093D80019BC85E08093690331
:105120000E94A1248091E10084FF30C08091E200C0
:1051300084FF2CC080E189BD82E189BD09B400FEF5
:10514000FDCF8091D8008F7D8093D8008091E100C1
:105150008F7E8093E1008091E2008F7E8093E20059
:105160008091E20081608093E20080916503882352
:1051700011F084E007C08091E30087FD02C081E068
:1051800001C083E0809369030E94A2248091E10022
:1051900083FF29C08091E20083FF25C08091E10058
:1051A000877F8093E10082E080936903109265031A
:1051B0008091E1008E7F8093E1008091E2008E7FFC
:1051C0008093E2008091E20080618093E20042E0FF
:1051D00060E080E00E9430278091F000886080933A
:1051E000F0000E94A024FF91EF91BF91AF919F9199
:1051F0008F917F916F915F914F913F912F910F9080
:105200000FBE0F901F9018951F920F920FB60F921E
:1052100011242F933F934F935F936F937F938F93BB
:105220009F93AF93BF93CF93DF93EF93FF93C0917F
:10523000E900CF708091EC00D82FD17080FDD0E8CC
:105240001092E9008091F000877F8093F0007894BD
:105250000E9448291092E9008091F00088608093B4
:10526000F000CD2BCF70C093E900FF91EF91DF915B
:10527000CF91BF91AF919F918F917F916F915F91EE
:105280004F913F912F910F900FBE0F901F90189547
:105290001F93CF93DF93CDB7DEB7AA970FB6F894DD
:1052A000DEBF0FBECDBFEAE6F3E08091F10081934F
:1052B00023E0E237F207C9F70E94AD248091E800AD
:1052C00083FF2EC180916A0390916B03492F50E0B8
:1052D0004A30510508F024C1FA01E857FF4F0C94F9
:1052E0002A2B803821F0823809F01AC108C0809139
:1052F000660390916703992389F082600FC08091C3
:105300006E038F70873008F00BC18093E9008091A5
:10531000EB0085FB882780F91092E9009091E80066
:10532000977F9093E8008093F1001092F100D1C034
:10533000282F2D7F09F0F4C0882319F0823061F006
:10534000EFC080916C03813009F0EAC0933009F01E
:1053500080E0809367032EC080916C0381112AC086
:1053600080916E038F702FEF280F263008F0D8C081
:105370008093E9002091EB0020FF1CC0933021F4C2
:105380008091EB00806214C09091EB00906190934B
:10539000EB0021E030E0A90102C0440F551F8A95BF
:1053A000E2F74093EA001092EA008091EB008860F7
:1053B0008093EB001092E9008091E800877F809352
:1053C000E8000E946527ACC08111AAC010916C034F
:1053D0001F778091E3008078812B8093E300809198
:1053E000E800877F8093E8000E9465278091E800AD
:1053F00080FFFCCF8091E30080688093E30011116F
:1054000002C082E001C083E08093690389C08058B4
:10541000823008F085C080916C0390916D038C3DC3
:1054200053E0950779F583E08A838AE289834FB751
:10543000F894DE01139620E03EE051E2E32FF0E025
:1054400050935700E49120FF03C0E295EF703F5F57
:10545000EF708E2F90E0EA3010F0C79601C0C09632
:105460008D939D932F5F243149F74FBF8091E800C2
:10547000877F8093E8006AE270E0CE0101960E9487
:10548000712616C060916E0370916F03AE014F5F7D
:105490005F4F0E94B525BC01892B09F441C0909152
:1054A000E800977F9093E80089819A810E94CF2637
:1054B0008091E8008B778093E80032C0803881F5D6
:1054C0008091E800877F8093E80080916503809356
:1054D000F1008091E8008E7772CF811121C0809118
:1054E0006C0390916D0399270297D4F48091E800A2
:1054F000877F8093E80080916C03809365030E940E
:10550000652780916503811106C08091E30087FDC6
:1055100002C081E001C084E0809369030E94A3245B
:105520008091E80083FF0AC08091E800877F809324
:10553000E8008091EB0080628093EB00AA960FB6A2
:10554000F894DEBF0FBECDBFDF91CF911F910895BC
:105550000895CF93809169038823A1F0C091E90059
:10556000CF709091EC00892F817090FD80E8C82B5E
:105570001092E9008091E80083FD0E944829CF70D5
:10558000C093E900CF910895DB018F939F930E9410
:105590004E2BBF91AF91A29F800D911DA39F900DA7
:1055A000B29F900D11240895991B79E004C0991FB2
:1055B000961708F0961B881F7A95C9F7809508956D
:1055C000AA1BBB1B51E107C0AA1FBB1FA617B70729
:1055D00010F0A61BB70B881F991F5A95A9F7809545
:1055E0009095BC01CD01089597FB072E16F4009409
:1055F00007D077FD09D00E94E02A07FC05D03EF4D1
:10560000909581959F4F0895709561957F4F08956E
:10561000A1E21A2EAA1BBB1BFD010DC0AA1FBB1FB6
:10562000EE1FFF1FA217B307E407F50720F0A21B28
:10563000B30BE40BF50B661F771F881F991F1A9495
:1056400069F760957095809590959B01AC01BD01BF
:10565000CF010895EE0FFF1F0590F491E02D0994FE
:105660000E94382B332312F48A1B9B0B0C94492B7A
:10567000A29FB001B39FC001A39F700D811D112493
:10568000911DB29F700D811D1124911D08950E94DE
:10569000382BB7FF0895821B930B08950E94382B77
:1056A000A59F900DB49F900DA49F800D911D112476
:1056B0000895B7FF0C944E2B0E944E2B821B930B28
:1056C00008958F929F92AF92BF92CF92DF92EF9206
:1056D000FF92CF93DF93EC01688179818A819B816E
:1056E000611571058105910521F464E279ED8BE581
:1056F00097E02DE133EF41E050E00E94122C490188
:105700005A019B01AC01A7EAB1E40E944E2B6B0148
:105710007C01ACEEB4EFA50194010E945C2BDC018E
:10572000CB018C0D9D1DAE1DBF1DB7FF03C00197A2
:10573000A109B04888839983AA83BB839F77DF91AF
:10574000CF91FF90EF90DF90CF90BF90AF909F9060
:105750008F9008950E94612B089580E091E00E944F
:10576000612B0895A0E0B0E08093000190930101C7
:10577000A0930201B09303010895FC0141505040F1
:1057800030F001900616D1F73197CF0108958827A0
:1057900099270895F999FECF92BD81BDF89A99276E
:1057A00080B50895A6E1B0E044E050E00C94042CEC
:1057B000A8E1B0E042E050E00C94042C262FF999C7
:1057C000FECF92BD81BDF89A019700B4021639F060
:1057D0001FBA20BD0FB6F894FA9AF99A0FBE089531
:1057E0000396272F0E94DF2B0E94DE2B252F0E947D
:1057F000DF2B242F0C94DF2B0196272F0E94DF2B09
:105800000C94DE2BDC01CB01FC01F999FECF06C024
:10581000F2BDE1BDF89A319600B40D92415050406E
:10582000B8F70895052E97FB1EF400940E94292CCA
:1058300057FD07D00E94082B07FC03D04EF40C94B0
:10584000292C50954095309521953F4F4F4F5F4FF4
:10585000089590958095709561957F4F8F4F9F4FDC
:065860000895F894FFCF4B
:10586600010000002808641E140A321E010102000D
:105876001000101001191A1B1C1D1E1F202122CEFC
:1058860002F1234E242F242B24272401E200E900D1
:10589600EA00B500B600B700CD008301CC008A014E
:1058A60092019401210223022402250226022702E4
:1058B6002A02B300B4006F007000818283F0F1C643
:1058C6006766369431F735349796333290919293D2
:1058D60095000102020202060606090909090909DC
:1058E6000F0F0F0F0F0F151515181919191919196B
:1058F600191919192324252525252525E200E9004E
:10590600EA00B500B600B700CD008301CC008A01DD
:105916009201940121022302240225022602270273
:0E5926002A02B300B4006F007000818283007B
:00000001FF
